{
  "_format": "hh-sol-artifact-1",
  "contractName": "ActivePool",
  "sourceName": "contracts/ActivePool.sol",
  "abi": [
    {
      "anonymous": false,
      "inputs": [
        {
          "indexed": false,
          "internalType": "address",
          "name": "_newActivePoolAddress",
          "type": "address"
        }
      ],
      "name": "ActivePoolAddressChanged",
      "type": "event"
    },
    {
      "anonymous": false,
      "inputs": [
        {
          "indexed": false,
          "internalType": "uint256",
          "name": "_BPDDebt",
          "type": "uint256"
        }
      ],
      "name": "ActivePoolBPDDebtUpdated",
      "type": "event"
    },
    {
      "anonymous": false,
      "inputs": [
        {
          "indexed": false,
          "internalType": "uint256",
          "name": "_RBTC",
          "type": "uint256"
        }
      ],
      "name": "ActivePoolRBTCBalanceUpdated",
      "type": "event"
    },
    {
      "anonymous": false,
      "inputs": [
        {
          "indexed": false,
          "internalType": "uint256",
          "name": "_newBalance",
          "type": "uint256"
        }
      ],
      "name": "BPDBalanceUpdated",
      "type": "event"
    },
    {
      "anonymous": false,
      "inputs": [
        {
          "indexed": false,
          "internalType": "address",
          "name": "_to",
          "type": "address"
        },
        {
          "indexed": false,
          "internalType": "uint256",
          "name": "_amount",
          "type": "uint256"
        }
      ],
      "name": "BitcoinSent",
      "type": "event"
    },
    {
      "anonymous": false,
      "inputs": [
        {
          "indexed": false,
          "internalType": "address",
          "name": "_newBorrowerOperationsAddress",
          "type": "address"
        }
      ],
      "name": "BorrowerOperationsAddressChanged",
      "type": "event"
    },
    {
      "anonymous": false,
      "inputs": [
        {
          "indexed": false,
          "internalType": "address",
          "name": "_newDefaultPoolAddress",
          "type": "address"
        }
      ],
      "name": "DefaultPoolAddressChanged",
      "type": "event"
    },
    {
      "anonymous": false,
      "inputs": [
        {
          "indexed": true,
          "internalType": "address",
          "name": "previousOwner",
          "type": "address"
        },
        {
          "indexed": true,
          "internalType": "address",
          "name": "newOwner",
          "type": "address"
        }
      ],
      "name": "OwnershipTransferred",
      "type": "event"
    },
    {
      "anonymous": false,
      "inputs": [
        {
          "indexed": false,
          "internalType": "uint256",
          "name": "_newBalance",
          "type": "uint256"
        }
      ],
      "name": "RBTCBalanceUpdated",
      "type": "event"
    },
    {
      "anonymous": false,
      "inputs": [
        {
          "indexed": false,
          "internalType": "address",
          "name": "_newStabilityPoolAddress",
          "type": "address"
        }
      ],
      "name": "StabilityPoolAddressChanged",
      "type": "event"
    },
    {
      "anonymous": false,
      "inputs": [
        {
          "indexed": false,
          "internalType": "address",
          "name": "_newVaultManagerAddress",
          "type": "address"
        }
      ],
      "name": "VaultManagerAddressChanged",
      "type": "event"
    },
    {
      "inputs": [],
      "name": "NAME",
      "outputs": [
        {
          "internalType": "string",
          "name": "",
          "type": "string"
        }
      ],
      "stateMutability": "view",
      "type": "function"
    },
    {
      "inputs": [],
      "name": "borrowerOperationsAddress",
      "outputs": [
        {
          "internalType": "address",
          "name": "",
          "type": "address"
        }
      ],
      "stateMutability": "view",
      "type": "function"
    },
    {
      "inputs": [
        {
          "internalType": "uint256",
          "name": "_amount",
          "type": "uint256"
        }
      ],
      "name": "decreaseBPDDebt",
      "outputs": [],
      "stateMutability": "nonpayable",
      "type": "function"
    },
    {
      "inputs": [],
      "name": "defaultPoolAddress",
      "outputs": [
        {
          "internalType": "address",
          "name": "",
          "type": "address"
        }
      ],
      "stateMutability": "view",
      "type": "function"
    },
    {
      "inputs": [],
      "name": "getBPDDebt",
      "outputs": [
        {
          "internalType": "uint256",
          "name": "",
          "type": "uint256"
        }
      ],
      "stateMutability": "view",
      "type": "function"
    },
    {
      "inputs": [],
      "name": "getRBTC",
      "outputs": [
        {
          "internalType": "uint256",
          "name": "",
          "type": "uint256"
        }
      ],
      "stateMutability": "view",
      "type": "function"
    },
    {
      "inputs": [
        {
          "internalType": "uint256",
          "name": "_amount",
          "type": "uint256"
        }
      ],
      "name": "increaseBPDDebt",
      "outputs": [],
      "stateMutability": "nonpayable",
      "type": "function"
    },
    {
      "inputs": [],
      "name": "isOwner",
      "outputs": [
        {
          "internalType": "bool",
          "name": "",
          "type": "bool"
        }
      ],
      "stateMutability": "view",
      "type": "function"
    },
    {
      "inputs": [],
      "name": "owner",
      "outputs": [
        {
          "internalType": "address",
          "name": "",
          "type": "address"
        }
      ],
      "stateMutability": "view",
      "type": "function"
    },
    {
      "inputs": [
        {
          "internalType": "address",
          "name": "_account",
          "type": "address"
        },
        {
          "internalType": "uint256",
          "name": "_amount",
          "type": "uint256"
        }
      ],
      "name": "sendRBTC",
      "outputs": [],
      "stateMutability": "nonpayable",
      "type": "function"
    },
    {
      "inputs": [
        {
          "internalType": "address",
          "name": "_borrowerOperationsAddress",
          "type": "address"
        },
        {
          "internalType": "address",
          "name": "_vaultManagerAddress",
          "type": "address"
        },
        {
          "internalType": "address",
          "name": "_stabilityPoolAddress",
          "type": "address"
        },
        {
          "internalType": "address",
          "name": "_defaultPoolAddress",
          "type": "address"
        }
      ],
      "name": "setAddresses",
      "outputs": [],
      "stateMutability": "nonpayable",
      "type": "function"
    },
    {
      "inputs": [],
      "name": "stabilityPoolAddress",
      "outputs": [
        {
          "internalType": "address",
          "name": "",
          "type": "address"
        }
      ],
      "stateMutability": "view",
      "type": "function"
    },
    {
      "inputs": [],
      "name": "vaultManagerAddress",
      "outputs": [
        {
          "internalType": "address",
          "name": "",
          "type": "address"
        }
      ],
      "stateMutability": "view",
      "type": "function"
    },
    {
      "stateMutability": "payable",
      "type": "receive"
    }
  ],
  "bytecode": "0x608060405234801561001057600080fd5b50600080546001600160a01b0319163390811782556040519091907f8be0079c531659141344cd1fd0a4f28419497f9722a3daafe3b4186f6b6457e0908290a3610bbd8061005f6000396000f3fe6080604052600436106100b65760003560e01c80638f07158d1161006f5780638f07158d1461021c5780638f32d59b14610231578063a3f4df7e1461025a578063aac1846f146102e4578063b7f8cf9b146102f9578063c9ceb9511461030e578063d3ed5d19146103385761010f565b80630b622ab2146101145780633d8b8cb2146101455780633efe643b1461015a5780634a945f8d1461019557806377a4b5b7146101e05780638da5cb5b146102075761010f565b3661010f576100c3610362565b6005546100d6903463ffffffff6103c216565b600581905560408051918252517fd14e94350575a9b95caac82376e72b4abb5c2281ea487c75356692a5a4c900619181900360200190a1005b600080fd5b34801561012057600080fd5b50610129610423565b604080516001600160a01b039092168252519081900360200190f35b34801561015157600080fd5b50610129610432565b34801561016657600080fd5b506101936004803603604081101561017d57600080fd5b506001600160a01b038135169060200135610441565b005b3480156101a157600080fd5b50610193600480360360808110156101b857600080fd5b506001600160a01b038135811691602081013582169160408201358116916060013516610582565b3480156101ec57600080fd5b506101f561073b565b60408051918252519081900360200190f35b34801561021357600080fd5b50610129610741565b34801561022857600080fd5b506101f5610750565b34801561023d57600080fd5b50610246610756565b604080519115158252519081900360200190f35b34801561026657600080fd5b5061026f610767565b6040805160208082528351818301528351919283929083019185019080838360005b838110156102a9578181015183820152602001610291565b50505050905090810190601f1680156102d65780820380516001836020036101000a031916815260200191505b509250505060405180910390f35b3480156102f057600080fd5b5061012961078d565b34801561030557600080fd5b5061012961079c565b34801561031a57600080fd5b506101936004803603602081101561033157600080fd5b50356107ab565b34801561034457600080fd5b506101936004803603602081101561035b57600080fd5b5035610800565b6001546001600160a01b031633148061038557506004546001600160a01b031633145b6103c05760405162461bcd60e51b8152600401808060200182810382526031815260200180610b046031913960400191505060405180910390fd5b565b60008282018381101561041c576040805162461bcd60e51b815260206004820152601b60248201527f536166654d6174683a206164646974696f6e206f766572666c6f770000000000604482015290519081900360640190fd5b9392505050565b6003546001600160a01b031681565b6002546001600160a01b031681565b61044961081b565b60055461045c908263ffffffff61088e16565b600581905560408051918252517fd14e94350575a9b95caac82376e72b4abb5c2281ea487c75356692a5a4c900619181900360200190a1604080516001600160a01b03841681526020810183905281517f1083bc5da936d61fceb9f9e509171faa5ae4756c47a742bf3fa2f9b4cd8132fe929181900390910190a16040516000906001600160a01b0384169083908381818185875af1925050503d8060008114610522576040519150601f19603f3d011682016040523d82523d6000602084013e610527565b606091505b505090508061057d576040805162461bcd60e51b815260206004820152601f60248201527f416374697665506f6f6c3a2073656e64696e672052425443206661696c656400604482015290519081900360640190fd5b505050565b61058a610756565b6105db576040805162461bcd60e51b815260206004820181905260248201527f4f776e61626c653a2063616c6c6572206973206e6f7420746865206f776e6572604482015290519081900360640190fd5b6105e4846108d0565b6105ed836108d0565b6105f6826108d0565b6105ff816108d0565b600180546001600160a01b038087166001600160a01b031992831681179093556002805487831690841617905560038054868316908416179055600480549185169190921617905560408051918252517f3ca631ffcd2a9b5d9ae18543fc82f58eb4ca33af9e6ab01b7a8e95331e6ed9859181900360200190a1604080516001600160a01b038516815290517fd396f45b3a6c41f9744b157261875945681f8e23587ae1d7d34377aad3bb16239181900360200190a1604080516001600160a01b038416815290517f82966d27eea39b038ee0fa30cd16532bb24f6e65d31cb58fb227aa5766cdcc7f9181900360200190a1604080516001600160a01b038316815290517f5ee0cae2f063ed938bb55046f6a932fb6ae792bf43624806bb90abe68a50be9b9181900360200190a1610735610983565b50505050565b60055490565b6000546001600160a01b031690565b60065490565b6000546001600160a01b0316331490565b6040518060400160405280600a8152602001691058dd1a5d99541bdbdb60b21b81525081565b6004546001600160a01b031681565b6001546001600160a01b031681565b6107b36109cd565b6006546107c6908263ffffffff6103c216565b600681905560408051918252517fcac349f15c3887cb8a96c54edac9fd67b329ab3c915f2d64121c6e1ce39634e09181900360200190a150565b61080861081b565b6006546107c6908263ffffffff61088e16565b6001546001600160a01b031633148061083e57506002546001600160a01b031633145b8061085357506003546001600160a01b031633145b6103c05760405162461bcd60e51b8152600401808060200182810382526053815260200180610b356053913960600191505060405180910390fd5b600061041c83836040518060400160405280601e81526020017f536166654d6174683a207375627472616374696f6e206f766572666c6f770000815250610a2b565b6001600160a01b03811661092b576040805162461bcd60e51b815260206004820152601e60248201527f4163636f756e742063616e6e6f74206265207a65726f20616464726573730000604482015290519081900360640190fd5b803b8061097f576040805162461bcd60e51b815260206004820181905260248201527f4163636f756e7420636f64652073697a652063616e6e6f74206265207a65726f604482015290519081900360640190fd5b5050565b600080546040516001600160a01b03909116907f8be0079c531659141344cd1fd0a4f28419497f9722a3daafe3b4186f6b6457e0908390a3600080546001600160a01b0319169055565b6001546001600160a01b03163314806109f057506002546001600160a01b031633145b6103c05760405162461bcd60e51b8152600401808060200182810382526041815260200180610ac36041913960600191505060405180910390fd5b60008184841115610aba5760405162461bcd60e51b81526004018080602001828103825283818151815260200191508051906020019080838360005b83811015610a7f578181015183820152602001610a67565b50505050905090810190601f168015610aac5780820380516001836020036101000a031916815260200191505b509250505060405180910390fd5b50505090039056fe416374697665506f6f6c3a2043616c6c6572206973206e65697468657220426f72726f7765724f7065726174696f6e73206e6f72205661756c744d616e61676572416374697665506f6f6c3a2043616c6c6572206973206e65697468657220424f206e6f722044656661756c7420506f6f6c416374697665506f6f6c3a2043616c6c6572206973206e65697468657220426f72726f7765724f7065726174696f6e73206e6f72205661756c744d616e61676572206e6f722053746162696c697479506f6f6ca264697066735822122001a180123da72b1bd8804e83bbf1916b73ad2e5ce24202f6620bf7dbb00f553964736f6c634300060b0033",
  "linkReferences": {},
  "deployedLinkReferences": {}
}