{
  "_format": "hh-sol-artifact-1",
  "contractName": "ActivePoolTester",
  "sourceName": "contracts/TestContracts/ActivePoolTester.sol",
  "abi": [
    {
      "anonymous": false,
      "inputs": [
        {
          "indexed": false,
          "internalType": "address",
          "name": "_newActivePoolAddress",
          "type": "address"
        }
      ],
      "name": "ActivePoolAddressChanged",
      "type": "event"
    },
    {
      "anonymous": false,
      "inputs": [
        {
          "indexed": false,
          "internalType": "uint256",
          "name": "_BPDDebt",
          "type": "uint256"
        }
      ],
      "name": "ActivePoolBPDDebtUpdated",
      "type": "event"
    },
    {
      "anonymous": false,
      "inputs": [
        {
          "indexed": false,
          "internalType": "uint256",
          "name": "_RBTC",
          "type": "uint256"
        }
      ],
      "name": "ActivePoolRBTCBalanceUpdated",
      "type": "event"
    },
    {
      "anonymous": false,
      "inputs": [
        {
          "indexed": false,
          "internalType": "uint256",
          "name": "_newBalance",
          "type": "uint256"
        }
      ],
      "name": "BPDBalanceUpdated",
      "type": "event"
    },
    {
      "anonymous": false,
      "inputs": [
        {
          "indexed": false,
          "internalType": "address",
          "name": "_to",
          "type": "address"
        },
        {
          "indexed": false,
          "internalType": "uint256",
          "name": "_amount",
          "type": "uint256"
        }
      ],
      "name": "BitcoinSent",
      "type": "event"
    },
    {
      "anonymous": false,
      "inputs": [
        {
          "indexed": false,
          "internalType": "address",
          "name": "_newBorrowerOperationsAddress",
          "type": "address"
        }
      ],
      "name": "BorrowerOperationsAddressChanged",
      "type": "event"
    },
    {
      "anonymous": false,
      "inputs": [
        {
          "indexed": false,
          "internalType": "address",
          "name": "_newDefaultPoolAddress",
          "type": "address"
        }
      ],
      "name": "DefaultPoolAddressChanged",
      "type": "event"
    },
    {
      "anonymous": false,
      "inputs": [
        {
          "indexed": true,
          "internalType": "address",
          "name": "previousOwner",
          "type": "address"
        },
        {
          "indexed": true,
          "internalType": "address",
          "name": "newOwner",
          "type": "address"
        }
      ],
      "name": "OwnershipTransferred",
      "type": "event"
    },
    {
      "anonymous": false,
      "inputs": [
        {
          "indexed": false,
          "internalType": "uint256",
          "name": "_newBalance",
          "type": "uint256"
        }
      ],
      "name": "RBTCBalanceUpdated",
      "type": "event"
    },
    {
      "anonymous": false,
      "inputs": [
        {
          "indexed": false,
          "internalType": "address",
          "name": "_newStabilityPoolAddress",
          "type": "address"
        }
      ],
      "name": "StabilityPoolAddressChanged",
      "type": "event"
    },
    {
      "anonymous": false,
      "inputs": [
        {
          "indexed": false,
          "internalType": "address",
          "name": "_newVaultManagerAddress",
          "type": "address"
        }
      ],
      "name": "VaultManagerAddressChanged",
      "type": "event"
    },
    {
      "inputs": [],
      "name": "NAME",
      "outputs": [
        {
          "internalType": "string",
          "name": "",
          "type": "string"
        }
      ],
      "stateMutability": "view",
      "type": "function"
    },
    {
      "inputs": [],
      "name": "borrowerOperationsAddress",
      "outputs": [
        {
          "internalType": "address",
          "name": "",
          "type": "address"
        }
      ],
      "stateMutability": "view",
      "type": "function"
    },
    {
      "inputs": [
        {
          "internalType": "uint256",
          "name": "_amount",
          "type": "uint256"
        }
      ],
      "name": "decreaseBPDDebt",
      "outputs": [],
      "stateMutability": "nonpayable",
      "type": "function"
    },
    {
      "inputs": [],
      "name": "defaultPoolAddress",
      "outputs": [
        {
          "internalType": "address",
          "name": "",
          "type": "address"
        }
      ],
      "stateMutability": "view",
      "type": "function"
    },
    {
      "inputs": [],
      "name": "getBPDDebt",
      "outputs": [
        {
          "internalType": "uint256",
          "name": "",
          "type": "uint256"
        }
      ],
      "stateMutability": "view",
      "type": "function"
    },
    {
      "inputs": [],
      "name": "getRBTC",
      "outputs": [
        {
          "internalType": "uint256",
          "name": "",
          "type": "uint256"
        }
      ],
      "stateMutability": "view",
      "type": "function"
    },
    {
      "inputs": [
        {
          "internalType": "uint256",
          "name": "_amount",
          "type": "uint256"
        }
      ],
      "name": "increaseBPDDebt",
      "outputs": [],
      "stateMutability": "nonpayable",
      "type": "function"
    },
    {
      "inputs": [],
      "name": "isOwner",
      "outputs": [
        {
          "internalType": "bool",
          "name": "",
          "type": "bool"
        }
      ],
      "stateMutability": "view",
      "type": "function"
    },
    {
      "inputs": [],
      "name": "owner",
      "outputs": [
        {
          "internalType": "address",
          "name": "",
          "type": "address"
        }
      ],
      "stateMutability": "view",
      "type": "function"
    },
    {
      "inputs": [
        {
          "internalType": "address",
          "name": "_account",
          "type": "address"
        },
        {
          "internalType": "uint256",
          "name": "_amount",
          "type": "uint256"
        }
      ],
      "name": "sendRBTC",
      "outputs": [],
      "stateMutability": "nonpayable",
      "type": "function"
    },
    {
      "inputs": [
        {
          "internalType": "address",
          "name": "_borrowerOperationsAddress",
          "type": "address"
        },
        {
          "internalType": "address",
          "name": "_vaultManagerAddress",
          "type": "address"
        },
        {
          "internalType": "address",
          "name": "_stabilityPoolAddress",
          "type": "address"
        },
        {
          "internalType": "address",
          "name": "_defaultPoolAddress",
          "type": "address"
        }
      ],
      "name": "setAddresses",
      "outputs": [],
      "stateMutability": "nonpayable",
      "type": "function"
    },
    {
      "inputs": [],
      "name": "stabilityPoolAddress",
      "outputs": [
        {
          "internalType": "address",
          "name": "",
          "type": "address"
        }
      ],
      "stateMutability": "view",
      "type": "function"
    },
    {
      "inputs": [
        {
          "internalType": "uint256",
          "name": "_amount",
          "type": "uint256"
        }
      ],
      "name": "unprotectedIncreaseBPDDebt",
      "outputs": [],
      "stateMutability": "nonpayable",
      "type": "function"
    },
    {
      "inputs": [],
      "name": "unprotectedPayable",
      "outputs": [],
      "stateMutability": "payable",
      "type": "function"
    },
    {
      "inputs": [],
      "name": "vaultManagerAddress",
      "outputs": [
        {
          "internalType": "address",
          "name": "",
          "type": "address"
        }
      ],
      "stateMutability": "view",
      "type": "function"
    },
    {
      "stateMutability": "payable",
      "type": "receive"
    }
  ],
  "bytecode": "0x608060405234801561001057600080fd5b50600080546001600160a01b0319163390811782556040519091907f8be0079c531659141344cd1fd0a4f28419497f9722a3daafe3b4186f6b6457e0908290a3610c368061005f6000396000f3fe6080604052600436106100cc5760003560e01c80638f32d59b1161007a5780638f32d59b14610247578063a3f4df7e14610270578063aac1846f146102fa578063b7f8cf9b1461030f578063c9ceb95114610324578063d3ed5d191461034e578063f3af7c3b14610378578063f57567251461038057610125565b80630b622ab21461012a5780633d8b8cb21461015b5780633efe643b146101705780634a945f8d146101ab57806377a4b5b7146101f65780638da5cb5b1461021d5780638f07158d1461023257610125565b36610125576100d96103aa565b6005546100ec903463ffffffff61040a16565b600581905560408051918252517fd14e94350575a9b95caac82376e72b4abb5c2281ea487c75356692a5a4c900619181900360200190a1005b600080fd5b34801561013657600080fd5b5061013f61046b565b604080516001600160a01b039092168252519081900360200190f35b34801561016757600080fd5b5061013f61047a565b34801561017c57600080fd5b506101a96004803603604081101561019357600080fd5b506001600160a01b038135169060200135610489565b005b3480156101b757600080fd5b506101a9600480360360808110156101ce57600080fd5b506001600160a01b0381358116916020810135821691604082013581169160600135166105ca565b34801561020257600080fd5b5061020b610783565b60408051918252519081900360200190f35b34801561022957600080fd5b5061013f610789565b34801561023e57600080fd5b5061020b610798565b34801561025357600080fd5b5061025c61079e565b604080519115158252519081900360200190f35b34801561027c57600080fd5b506102856107af565b6040805160208082528351818301528351919283929083019185019080838360005b838110156102bf5781810151838201526020016102a7565b50505050905090810190601f1680156102ec5780820380516001836020036101000a031916815260200191505b509250505060405180910390f35b34801561030657600080fd5b5061013f6107d5565b34801561031b57600080fd5b5061013f6107e4565b34801561033057600080fd5b506101a96004803603602081101561034757600080fd5b50356107f3565b34801561035a57600080fd5b506101a96004803603602081101561037157600080fd5b5035610848565b6101a9610863565b34801561038c57600080fd5b506101a9600480360360208110156103a357600080fd5b503561087b565b6001546001600160a01b03163314806103cd57506004546001600160a01b031633145b6104085760405162461bcd60e51b8152600401808060200182810382526031815260200180610b7d6031913960400191505060405180910390fd5b565b600082820183811015610464576040805162461bcd60e51b815260206004820152601b60248201527f536166654d6174683a206164646974696f6e206f766572666c6f770000000000604482015290519081900360640190fd5b9392505050565b6003546001600160a01b031681565b6002546001600160a01b031681565b610491610894565b6005546104a4908263ffffffff61090716565b600581905560408051918252517fd14e94350575a9b95caac82376e72b4abb5c2281ea487c75356692a5a4c900619181900360200190a1604080516001600160a01b03841681526020810183905281517f1083bc5da936d61fceb9f9e509171faa5ae4756c47a742bf3fa2f9b4cd8132fe929181900390910190a16040516000906001600160a01b0384169083908381818185875af1925050503d806000811461056a576040519150601f19603f3d011682016040523d82523d6000602084013e61056f565b606091505b50509050806105c5576040805162461bcd60e51b815260206004820152601f60248201527f416374697665506f6f6c3a2073656e64696e672052425443206661696c656400604482015290519081900360640190fd5b505050565b6105d261079e565b610623576040805162461bcd60e51b815260206004820181905260248201527f4f776e61626c653a2063616c6c6572206973206e6f7420746865206f776e6572604482015290519081900360640190fd5b61062c84610949565b61063583610949565b61063e82610949565b61064781610949565b600180546001600160a01b038087166001600160a01b031992831681179093556002805487831690841617905560038054868316908416179055600480549185169190921617905560408051918252517f3ca631ffcd2a9b5d9ae18543fc82f58eb4ca33af9e6ab01b7a8e95331e6ed9859181900360200190a1604080516001600160a01b038516815290517fd396f45b3a6c41f9744b157261875945681f8e23587ae1d7d34377aad3bb16239181900360200190a1604080516001600160a01b038416815290517f82966d27eea39b038ee0fa30cd16532bb24f6e65d31cb58fb227aa5766cdcc7f9181900360200190a1604080516001600160a01b038316815290517f5ee0cae2f063ed938bb55046f6a932fb6ae792bf43624806bb90abe68a50be9b9181900360200190a161077d6109fc565b50505050565b60055490565b6000546001600160a01b031690565b60065490565b6000546001600160a01b0316331490565b6040518060400160405280600a8152602001691058dd1a5d99541bdbdb60b21b81525081565b6004546001600160a01b031681565b6001546001600160a01b031681565b6107fb610a46565b60065461080e908263ffffffff61040a16565b600681905560408051918252517fcac349f15c3887cb8a96c54edac9fd67b329ab3c915f2d64121c6e1ce39634e09181900360200190a150565b610850610894565b60065461080e908263ffffffff61090716565b600554610876903463ffffffff61040a16565b600555565b60065461088e908263ffffffff61040a16565b60065550565b6001546001600160a01b03163314806108b757506002546001600160a01b031633145b806108cc57506003546001600160a01b031633145b6104085760405162461bcd60e51b8152600401808060200182810382526053815260200180610bae6053913960600191505060405180910390fd5b600061046483836040518060400160405280601e81526020017f536166654d6174683a207375627472616374696f6e206f766572666c6f770000815250610aa4565b6001600160a01b0381166109a4576040805162461bcd60e51b815260206004820152601e60248201527f4163636f756e742063616e6e6f74206265207a65726f20616464726573730000604482015290519081900360640190fd5b803b806109f8576040805162461bcd60e51b815260206004820181905260248201527f4163636f756e7420636f64652073697a652063616e6e6f74206265207a65726f604482015290519081900360640190fd5b5050565b600080546040516001600160a01b03909116907f8be0079c531659141344cd1fd0a4f28419497f9722a3daafe3b4186f6b6457e0908390a3600080546001600160a01b0319169055565b6001546001600160a01b0316331480610a6957506002546001600160a01b031633145b6104085760405162461bcd60e51b8152600401808060200182810382526041815260200180610b3c6041913960600191505060405180910390fd5b60008184841115610b335760405162461bcd60e51b81526004018080602001828103825283818151815260200191508051906020019080838360005b83811015610af8578181015183820152602001610ae0565b50505050905090810190601f168015610b255780820380516001836020036101000a031916815260200191505b509250505060405180910390fd5b50505090039056fe416374697665506f6f6c3a2043616c6c6572206973206e65697468657220426f72726f7765724f7065726174696f6e73206e6f72205661756c744d616e61676572416374697665506f6f6c3a2043616c6c6572206973206e65697468657220424f206e6f722044656661756c7420506f6f6c416374697665506f6f6c3a2043616c6c6572206973206e65697468657220426f72726f7765724f7065726174696f6e73206e6f72205661756c744d616e61676572206e6f722053746162696c697479506f6f6ca2646970667358221220ca50d86ba3e71bbad1948cba5ee4b098655acc84f194a6b1ce86b45bedfa4fee64736f6c634300060b0033",
  "linkReferences": {},
  "deployedLinkReferences": {}
}