{
  "_format": "hh-sol-artifact-1",
  "contractName": "BorrowerOperationsTester",
  "sourceName": "contracts/TestContracts/BorrowerOperationsTester.sol",
  "abi": [
    {
      "anonymous": false,
      "inputs": [
        {
          "indexed": false,
          "internalType": "address",
          "name": "_activePoolAddress",
          "type": "address"
        }
      ],
      "name": "ActivePoolAddressChanged",
      "type": "event"
    },
    {
      "anonymous": false,
      "inputs": [
        {
          "indexed": true,
          "internalType": "address",
          "name": "_borrower",
          "type": "address"
        },
        {
          "indexed": false,
          "internalType": "uint256",
          "name": "_BPDFee",
          "type": "uint256"
        }
      ],
      "name": "BPDBorrowingFeePaid",
      "type": "event"
    },
    {
      "anonymous": false,
      "inputs": [
        {
          "indexed": false,
          "internalType": "address",
          "name": "_bpdTokenAddress",
          "type": "address"
        }
      ],
      "name": "BPDTokenAddressChanged",
      "type": "event"
    },
    {
      "anonymous": false,
      "inputs": [
        {
          "indexed": false,
          "internalType": "address",
          "name": "_collSurplusPoolAddress",
          "type": "address"
        }
      ],
      "name": "CollSurplusPoolAddressChanged",
      "type": "event"
    },
    {
      "anonymous": false,
      "inputs": [
        {
          "indexed": false,
          "internalType": "address",
          "name": "_defaultPoolAddress",
          "type": "address"
        }
      ],
      "name": "DefaultPoolAddressChanged",
      "type": "event"
    },
    {
      "anonymous": false,
      "inputs": [
        {
          "indexed": false,
          "internalType": "address",
          "name": "_gasPoolAddress",
          "type": "address"
        }
      ],
      "name": "GasPoolAddressChanged",
      "type": "event"
    },
    {
      "anonymous": false,
      "inputs": [
        {
          "indexed": false,
          "internalType": "address",
          "name": "_mpStakingAddress",
          "type": "address"
        }
      ],
      "name": "MPStakingAddressChanged",
      "type": "event"
    },
    {
      "anonymous": false,
      "inputs": [
        {
          "indexed": true,
          "internalType": "address",
          "name": "previousOwner",
          "type": "address"
        },
        {
          "indexed": true,
          "internalType": "address",
          "name": "newOwner",
          "type": "address"
        }
      ],
      "name": "OwnershipTransferred",
      "type": "event"
    },
    {
      "anonymous": false,
      "inputs": [
        {
          "indexed": false,
          "internalType": "address",
          "name": "_newPriceFeedAddress",
          "type": "address"
        }
      ],
      "name": "PriceFeedAddressChanged",
      "type": "event"
    },
    {
      "anonymous": false,
      "inputs": [
        {
          "indexed": false,
          "internalType": "address",
          "name": "_sortedVaultsAddress",
          "type": "address"
        }
      ],
      "name": "SortedVaultsAddressChanged",
      "type": "event"
    },
    {
      "anonymous": false,
      "inputs": [
        {
          "indexed": false,
          "internalType": "address",
          "name": "_stabilityPoolAddress",
          "type": "address"
        }
      ],
      "name": "StabilityPoolAddressChanged",
      "type": "event"
    },
    {
      "anonymous": false,
      "inputs": [
        {
          "indexed": true,
          "internalType": "address",
          "name": "_borrower",
          "type": "address"
        },
        {
          "indexed": false,
          "internalType": "uint256",
          "name": "arrayIndex",
          "type": "uint256"
        }
      ],
      "name": "VaultCreated",
      "type": "event"
    },
    {
      "anonymous": false,
      "inputs": [
        {
          "indexed": false,
          "internalType": "address",
          "name": "_newVaultManagerAddress",
          "type": "address"
        }
      ],
      "name": "VaultManagerAddressChanged",
      "type": "event"
    },
    {
      "anonymous": false,
      "inputs": [
        {
          "indexed": true,
          "internalType": "address",
          "name": "_borrower",
          "type": "address"
        },
        {
          "indexed": false,
          "internalType": "uint256",
          "name": "_debt",
          "type": "uint256"
        },
        {
          "indexed": false,
          "internalType": "uint256",
          "name": "_coll",
          "type": "uint256"
        },
        {
          "indexed": false,
          "internalType": "uint256",
          "name": "stake",
          "type": "uint256"
        },
        {
          "indexed": false,
          "internalType": "enum BorrowerOperations.BorrowerOperation",
          "name": "operation",
          "type": "uint8"
        }
      ],
      "name": "VaultUpdated",
      "type": "event"
    },
    {
      "inputs": [],
      "name": "BORROWING_FEE_FLOOR",
      "outputs": [
        {
          "internalType": "uint256",
          "name": "",
          "type": "uint256"
        }
      ],
      "stateMutability": "view",
      "type": "function"
    },
    {
      "inputs": [],
      "name": "BPD_GAS_COMPENSATION",
      "outputs": [
        {
          "internalType": "uint256",
          "name": "",
          "type": "uint256"
        }
      ],
      "stateMutability": "view",
      "type": "function"
    },
    {
      "inputs": [],
      "name": "CCR",
      "outputs": [
        {
          "internalType": "uint256",
          "name": "",
          "type": "uint256"
        }
      ],
      "stateMutability": "view",
      "type": "function"
    },
    {
      "inputs": [],
      "name": "DECIMAL_PRECISION",
      "outputs": [
        {
          "internalType": "uint256",
          "name": "",
          "type": "uint256"
        }
      ],
      "stateMutability": "view",
      "type": "function"
    },
    {
      "inputs": [],
      "name": "MCR",
      "outputs": [
        {
          "internalType": "uint256",
          "name": "",
          "type": "uint256"
        }
      ],
      "stateMutability": "view",
      "type": "function"
    },
    {
      "inputs": [],
      "name": "MIN_NET_DEBT",
      "outputs": [
        {
          "internalType": "uint256",
          "name": "",
          "type": "uint256"
        }
      ],
      "stateMutability": "view",
      "type": "function"
    },
    {
      "inputs": [],
      "name": "NAME",
      "outputs": [
        {
          "internalType": "string",
          "name": "",
          "type": "string"
        }
      ],
      "stateMutability": "view",
      "type": "function"
    },
    {
      "inputs": [],
      "name": "PERCENT_DIVISOR",
      "outputs": [
        {
          "internalType": "uint256",
          "name": "",
          "type": "uint256"
        }
      ],
      "stateMutability": "view",
      "type": "function"
    },
    {
      "inputs": [],
      "name": "_100pct",
      "outputs": [
        {
          "internalType": "uint256",
          "name": "",
          "type": "uint256"
        }
      ],
      "stateMutability": "view",
      "type": "function"
    },
    {
      "inputs": [],
      "name": "activePool",
      "outputs": [
        {
          "internalType": "contract IActivePool",
          "name": "",
          "type": "address"
        }
      ],
      "stateMutability": "view",
      "type": "function"
    },
    {
      "inputs": [
        {
          "internalType": "address",
          "name": "_upperHint",
          "type": "address"
        },
        {
          "internalType": "address",
          "name": "_lowerHint",
          "type": "address"
        }
      ],
      "name": "addColl",
      "outputs": [],
      "stateMutability": "payable",
      "type": "function"
    },
    {
      "inputs": [
        {
          "internalType": "uint256",
          "name": "_maxFeePercentage",
          "type": "uint256"
        },
        {
          "internalType": "uint256",
          "name": "_collWithdrawal",
          "type": "uint256"
        },
        {
          "internalType": "uint256",
          "name": "_BPDChange",
          "type": "uint256"
        },
        {
          "internalType": "bool",
          "name": "_isDebtIncrease",
          "type": "bool"
        },
        {
          "internalType": "address",
          "name": "_upperHint",
          "type": "address"
        },
        {
          "internalType": "address",
          "name": "_lowerHint",
          "type": "address"
        }
      ],
      "name": "adjustVault",
      "outputs": [],
      "stateMutability": "payable",
      "type": "function"
    },
    {
      "inputs": [],
      "name": "bpdToken",
      "outputs": [
        {
          "internalType": "contract IBPDToken",
          "name": "",
          "type": "address"
        }
      ],
      "stateMutability": "view",
      "type": "function"
    },
    {
      "inputs": [
        {
          "internalType": "address",
          "name": "_borrower",
          "type": "address"
        },
        {
          "internalType": "uint256",
          "name": "_collWithdrawal",
          "type": "uint256"
        },
        {
          "internalType": "uint256",
          "name": "_debtChange",
          "type": "uint256"
        },
        {
          "internalType": "bool",
          "name": "_isDebtIncrease",
          "type": "bool"
        },
        {
          "internalType": "address",
          "name": "_upperHint",
          "type": "address"
        },
        {
          "internalType": "address",
          "name": "_lowerHint",
          "type": "address"
        }
      ],
      "name": "callInternalAdjustLoan",
      "outputs": [],
      "stateMutability": "nonpayable",
      "type": "function"
    },
    {
      "inputs": [],
      "name": "claimCollateral",
      "outputs": [],
      "stateMutability": "nonpayable",
      "type": "function"
    },
    {
      "inputs": [],
      "name": "closeVault",
      "outputs": [],
      "stateMutability": "nonpayable",
      "type": "function"
    },
    {
      "inputs": [],
      "name": "defaultPool",
      "outputs": [
        {
          "internalType": "contract IDefaultPool",
          "name": "",
          "type": "address"
        }
      ],
      "stateMutability": "view",
      "type": "function"
    },
    {
      "inputs": [
        {
          "internalType": "uint256",
          "name": "_debt",
          "type": "uint256"
        }
      ],
      "name": "getCompositeDebt",
      "outputs": [
        {
          "internalType": "uint256",
          "name": "",
          "type": "uint256"
        }
      ],
      "stateMutability": "pure",
      "type": "function"
    },
    {
      "inputs": [],
      "name": "getEntireSystemColl",
      "outputs": [
        {
          "internalType": "uint256",
          "name": "entireSystemColl",
          "type": "uint256"
        }
      ],
      "stateMutability": "view",
      "type": "function"
    },
    {
      "inputs": [],
      "name": "getEntireSystemDebt",
      "outputs": [
        {
          "internalType": "uint256",
          "name": "entireSystemDebt",
          "type": "uint256"
        }
      ],
      "stateMutability": "view",
      "type": "function"
    },
    {
      "inputs": [
        {
          "internalType": "uint256",
          "name": "_coll",
          "type": "uint256"
        },
        {
          "internalType": "uint256",
          "name": "_debt",
          "type": "uint256"
        },
        {
          "internalType": "uint256",
          "name": "_collChange",
          "type": "uint256"
        },
        {
          "internalType": "bool",
          "name": "isCollIncrease",
          "type": "bool"
        },
        {
          "internalType": "uint256",
          "name": "_debtChange",
          "type": "uint256"
        },
        {
          "internalType": "bool",
          "name": "isDebtIncrease",
          "type": "bool"
        },
        {
          "internalType": "uint256",
          "name": "_price",
          "type": "uint256"
        }
      ],
      "name": "getNewICRFromVaultChange",
      "outputs": [
        {
          "internalType": "uint256",
          "name": "",
          "type": "uint256"
        }
      ],
      "stateMutability": "pure",
      "type": "function"
    },
    {
      "inputs": [
        {
          "internalType": "uint256",
          "name": "_collChange",
          "type": "uint256"
        },
        {
          "internalType": "bool",
          "name": "isCollIncrease",
          "type": "bool"
        },
        {
          "internalType": "uint256",
          "name": "_debtChange",
          "type": "uint256"
        },
        {
          "internalType": "bool",
          "name": "isDebtIncrease",
          "type": "bool"
        },
        {
          "internalType": "uint256",
          "name": "_price",
          "type": "uint256"
        }
      ],
      "name": "getNewTCRFromVaultChange",
      "outputs": [
        {
          "internalType": "uint256",
          "name": "",
          "type": "uint256"
        }
      ],
      "stateMutability": "view",
      "type": "function"
    },
    {
      "inputs": [
        {
          "internalType": "uint256",
          "name": "_coll",
          "type": "uint256"
        },
        {
          "internalType": "uint256",
          "name": "_price",
          "type": "uint256"
        }
      ],
      "name": "getUSDValue",
      "outputs": [
        {
          "internalType": "uint256",
          "name": "",
          "type": "uint256"
        }
      ],
      "stateMutability": "pure",
      "type": "function"
    },
    {
      "inputs": [],
      "name": "isOwner",
      "outputs": [
        {
          "internalType": "bool",
          "name": "",
          "type": "bool"
        }
      ],
      "stateMutability": "view",
      "type": "function"
    },
    {
      "inputs": [
        {
          "internalType": "address",
          "name": "_borrower",
          "type": "address"
        },
        {
          "internalType": "address",
          "name": "_upperHint",
          "type": "address"
        },
        {
          "internalType": "address",
          "name": "_lowerHint",
          "type": "address"
        }
      ],
      "name": "moveRBTCGainToVault",
      "outputs": [],
      "stateMutability": "payable",
      "type": "function"
    },
    {
      "inputs": [],
      "name": "mpStaking",
      "outputs": [
        {
          "internalType": "contract IMPStaking",
          "name": "",
          "type": "address"
        }
      ],
      "stateMutability": "view",
      "type": "function"
    },
    {
      "inputs": [],
      "name": "mpStakingAddress",
      "outputs": [
        {
          "internalType": "address",
          "name": "",
          "type": "address"
        }
      ],
      "stateMutability": "view",
      "type": "function"
    },
    {
      "inputs": [
        {
          "internalType": "uint256",
          "name": "_maxFeePercentage",
          "type": "uint256"
        },
        {
          "internalType": "uint256",
          "name": "_BPDAmount",
          "type": "uint256"
        },
        {
          "internalType": "address",
          "name": "_upperHint",
          "type": "address"
        },
        {
          "internalType": "address",
          "name": "_lowerHint",
          "type": "address"
        }
      ],
      "name": "openVault",
      "outputs": [],
      "stateMutability": "payable",
      "type": "function"
    },
    {
      "inputs": [],
      "name": "owner",
      "outputs": [
        {
          "internalType": "address",
          "name": "",
          "type": "address"
        }
      ],
      "stateMutability": "view",
      "type": "function"
    },
    {
      "inputs": [],
      "name": "priceFeed",
      "outputs": [
        {
          "internalType": "contract IPriceFeed",
          "name": "",
          "type": "address"
        }
      ],
      "stateMutability": "view",
      "type": "function"
    },
    {
      "inputs": [
        {
          "internalType": "uint256",
          "name": "_BPDAmount",
          "type": "uint256"
        },
        {
          "internalType": "address",
          "name": "_upperHint",
          "type": "address"
        },
        {
          "internalType": "address",
          "name": "_lowerHint",
          "type": "address"
        }
      ],
      "name": "repayBPD",
      "outputs": [],
      "stateMutability": "nonpayable",
      "type": "function"
    },
    {
      "inputs": [
        {
          "internalType": "address",
          "name": "_vaultManagerAddress",
          "type": "address"
        },
        {
          "internalType": "address",
          "name": "_activePoolAddress",
          "type": "address"
        },
        {
          "internalType": "address",
          "name": "_defaultPoolAddress",
          "type": "address"
        },
        {
          "internalType": "address",
          "name": "_stabilityPoolAddress",
          "type": "address"
        },
        {
          "internalType": "address",
          "name": "_gasPoolAddress",
          "type": "address"
        },
        {
          "internalType": "address",
          "name": "_collSurplusPoolAddress",
          "type": "address"
        },
        {
          "internalType": "address",
          "name": "_priceFeedAddress",
          "type": "address"
        },
        {
          "internalType": "address",
          "name": "_sortedVaultsAddress",
          "type": "address"
        },
        {
          "internalType": "address",
          "name": "_bpdTokenAddress",
          "type": "address"
        },
        {
          "internalType": "address",
          "name": "_mpStakingAddress",
          "type": "address"
        }
      ],
      "name": "setAddresses",
      "outputs": [],
      "stateMutability": "nonpayable",
      "type": "function"
    },
    {
      "inputs": [],
      "name": "sortedVaults",
      "outputs": [
        {
          "internalType": "contract ISortedVaults",
          "name": "",
          "type": "address"
        }
      ],
      "stateMutability": "view",
      "type": "function"
    },
    {
      "inputs": [],
      "name": "vaultManager",
      "outputs": [
        {
          "internalType": "contract IVaultManager",
          "name": "",
          "type": "address"
        }
      ],
      "stateMutability": "view",
      "type": "function"
    },
    {
      "inputs": [
        {
          "internalType": "uint256",
          "name": "_maxFeePercentage",
          "type": "uint256"
        },
        {
          "internalType": "uint256",
          "name": "_BPDAmount",
          "type": "uint256"
        },
        {
          "internalType": "address",
          "name": "_upperHint",
          "type": "address"
        },
        {
          "internalType": "address",
          "name": "_lowerHint",
          "type": "address"
        }
      ],
      "name": "withdrawBPD",
      "outputs": [],
      "stateMutability": "nonpayable",
      "type": "function"
    },
    {
      "inputs": [
        {
          "internalType": "uint256",
          "name": "_collWithdrawal",
          "type": "uint256"
        },
        {
          "internalType": "address",
          "name": "_upperHint",
          "type": "address"
        },
        {
          "internalType": "address",
          "name": "_lowerHint",
          "type": "address"
        }
      ],
      "name": "withdrawColl",
      "outputs": [],
      "stateMutability": "nonpayable",
      "type": "function"
    },
    {
      "stateMutability": "payable",
      "type": "receive"
    }
  ],
  "bytecode": "0x608060405234801561001057600080fd5b50600380546001600160a01b031916339081179091556040516000907f8be0079c531659141344cd1fd0a4f28419497f9722a3daafe3b4186f6b6457e0908290a36138f7806100606000396000f3fe6080604052600436106101d35760003560e01c80636f30d212116100f85780638a4adf24116100905780638a4adf241461067c5780638da5cb5b146106915780638f32d59b146106a6578063a20baee6146105e9578063a3f4df7e146106cf578063a619cc1f14610759578063dd5904961461076e578063e3f6552914610783578063f92d3433146107c9576101da565b80636f30d212146105a45780637165f24f146105d457806372fe25aa146105e9578063741bef1a146105fe57806375b30b3a14610613578063794e572414610628578063795d26c31461063d5780637f7dde4a14610652578063887105d314610667576101da565b80634870dd9a1161016b5780634870dd9a146103cd5780634ff81443146103e25780635530273c1461040c5780635733d58f1461044d5780636307a1041461046257806368647db1146104a95780636bf70e33146104d75780636c37a4af146105115780636f0b0c1c1461058f576101da565b80630d4d2214146101df5780630e4df55f1461021057806311b0bd611461024a57806318976fa21461028b5780631bf43555146102a05780632cdcd722146102c7578063379bd2fa1461031e57806339269dc7146103705780633cc74225146103b8576101da565b366101da57005b600080fd5b3480156101eb57600080fd5b506101f46107de565b604080516001600160a01b039092168252519081900360200190f35b6102486004803603606081101561022657600080fd5b506001600160a01b0381358116916020810135821691604090910135166107ed565b005b34801561025657600080fd5b506102486004803603606081101561026d57600080fd5b508035906001600160a01b036020820135811691604001351661080c565b34801561029757600080fd5b5061024861081e565b3480156102ac57600080fd5b506102b5610c19565b60408051918252519081900360200190f35b3480156102d357600080fd5b50610248600480360360c08110156102ea57600080fd5b506001600160a01b0381358116916020810135916040820135916060810135151591608082013581169160a0013516610c26565b34801561032a57600080fd5b506102b5600480360360e081101561034157600080fd5b50803590602081013590604081013590606081013515159060808101359060a081013515159060c00135610c3e565b610248600480360360c081101561038657600080fd5b5080359060208101359060408101359060608101351515906001600160a01b03608082013581169160a0013516610c5b565b3480156103c457600080fd5b506101f4610c6a565b3480156103d957600080fd5b506102b5610c79565b3480156103ee57600080fd5b506102b56004803603602081101561040557600080fd5b5035610c7e565b34801561041857600080fd5b506102486004803603606081101561042f57600080fd5b508035906001600160a01b0360208201358116916040013516610c8f565b34801561045957600080fd5b506102b5610ca0565b34801561046e57600080fd5b506102486004803603608081101561048557600080fd5b508035906020810135906001600160a01b0360408201358116916060013516610cac565b610248600480360360408110156104bf57600080fd5b506001600160a01b0381358116916020013516610cc3565b610248600480360360808110156104ed57600080fd5b508035906020810135906001600160a01b0360408201358116916060013516610cd9565b34801561051d57600080fd5b50610248600480360361014081101561053557600080fd5b506001600160a01b038135811691602081013582169160408201358116916060810135821691608082013581169160a081013582169160c082013581169160e081013582169161010082013581169161012001351661130e565b34801561059b57600080fd5b506102486116bf565b3480156105b057600080fd5b506102b5600480360360408110156105c757600080fd5b508035906020013561171f565b3480156105e057600080fd5b506101f4611732565b3480156105f557600080fd5b506102b5611741565b34801561060a57600080fd5b506101f461174d565b34801561061f57600080fd5b506101f461175c565b34801561063457600080fd5b506102b561176b565b34801561064957600080fd5b506102b5611777565b34801561065e57600080fd5b506101f4611878565b34801561067357600080fd5b506102b5611887565b34801561068857600080fd5b506101f4611943565b34801561069d57600080fd5b506101f4611952565b3480156106b257600080fd5b506106bb611961565b604080519115158252519081900360200190f35b3480156106db57600080fd5b506106e4611972565b6040805160208082528351818301528351919283929083019185019080838360005b8381101561071e578181015183820152602001610706565b50505050905090810190601f16801561074b5780820380516001836020036101000a031916815260200191505b509250505060405180910390f35b34801561076557600080fd5b506102b56119a0565b34801561077a57600080fd5b506101f46119ad565b34801561078f57600080fd5b506102b5600480360360a08110156107a657600080fd5b5080359060208101351515906040810135906060810135151590608001356119bc565b3480156107d557600080fd5b506102b56119d5565b6009546001600160a01b031681565b6107f56119e0565b61080783600080600086866000611a2b565b505050565b61080733600085600086866000611a2b565b600454600054600a546001600160a01b039283169291821691166108428333612028565b60025460408051630fdb11cf60e01b815290516000926001600160a01b031691630fdb11cf91600480830192602092919082900301818787803b15801561088857600080fd5b505af115801561089c573d6000803e3d6000fd5b505050506040513d60208110156108b257600080fd5b505190506108bf816120ed565b60408051630b07655760e01b815233600482015290516001600160a01b03861691630b07655791602480830192600092919082900301818387803b15801561090657600080fd5b505af115801561091a573d6000803e3d6000fd5b5050604080516304c4cd0360e51b81523360048201529051600093506001600160a01b0388169250639899a06091602480820192602092909190829003018186803b15801561096857600080fd5b505afa15801561097c573d6000803e3d6000fd5b505050506040513d602081101561099257600080fd5b50516040805163c0af0d3b60e01b815233600482015290519192506000916001600160a01b0388169163c0af0d3b916024808301926020929190829003018186803b1580156109e057600080fd5b505afa1580156109f4573d6000803e3d6000fd5b505050506040513d6020811015610a0a57600080fd5b50519050610a318433610a2c84680ad78ebc5ac620000063ffffffff61213516565b612177565b6000610a4283600084600088612237565b9050610a4d816122c2565b60408051631fc5750960e31b815233600482015290516001600160a01b0389169163fe2ba84891602480830192600092919082900301818387803b158015610a9457600080fd5b505af1158015610aa8573d6000803e3d6000fd5b50506040805163c99cb2b760e01b815233600482015290516001600160a01b038b16935063c99cb2b79250602480830192600092919082900301818387803b158015610af357600080fd5b505af1158015610b07573d6000803e3d6000fd5b50505050336001600160a01b03166000805160206135298339815191526000806000600160405180858152602001848152602001838152602001826002811115610b4d57fe5b60ff16815260200194505050505060405180910390a2610b87868633610b8286680ad78ebc5ac620000063ffffffff61213516565b612309565b600654610baa90879087906001600160a01b0316680ad78ebc5ac6200000612309565b60408051633efe643b60e01b81523360048201526024810185905290516001600160a01b03881691633efe643b91604480830192600092919082900301818387803b158015610bf857600080fd5b505af1158015610c0c573d6000803e3d6000fd5b5050505050505050505050565b686194049f30f720000081565b610c368686868686866000611a2b565b505050505050565b6000610c4f888888888888886123e5565b98975050505050505050565b610c363386868686868c611a2b565b6001546001600160a01b031681565b60c881565b6000610c8982612418565b92915050565b610807338460008086866000611a2b565b6714d1120d7b16000081565b610cbd33600085600186868a611a2b565b50505050565b610cd533600080600086866000611a2b565b5050565b610ce16133e6565b50604080516060810182526004546001600160a01b03908116825260005481166020830152600a541691810191909152610d19613406565b600260009054906101000a90046001600160a01b03166001600160a01b0316630fdb11cf6040518163ffffffff1660e01b8152600401602060405180830381600087803b158015610d6957600080fd5b505af1158015610d7d573d6000803e3d6000fd5b505050506040513d6020811015610d9357600080fd5b5051808252600090610da490612433565b9050610db08782612450565b8251610dbc90336124fc565b6040820186905280610dfd57610ddc83600001518460400151888a6125d8565b602083018190526040830151610df79163ffffffff61278716565b60408301525b610e0a82604001516127e1565b610e178260400151612418565b60608301819052610e2457fe5b610e373483606001518460000151612829565b60808301526060820151610e4c903490612867565b60a08301528015610e6957610e64826080015161289c565b610e9c565b610e7682608001516128e3565b6000610e8f346001856060015160018760000151612237565b9050610e9a816122c2565b505b82516040805163325e370d60e01b81523360048201526001602482015290516001600160a01b039092169163325e370d9160448082019260009290919082900301818387803b158015610eee57600080fd5b505af1158015610f02573d6000803e3d6000fd5b505084516040805163320b246960e01b815233600482015234602482015290516001600160a01b03909216935063320b246992506044808201926020929091908290030181600087803b158015610f5857600080fd5b505af1158015610f6c573d6000803e3d6000fd5b505050506040513d6020811015610f8257600080fd5b505082516060830151604080516332d69e7360e21b81523360048201526024810192909252516001600160a01b039092169163cb5a79cc916044808201926020929091908290030181600087803b158015610fdc57600080fd5b505af1158015610ff0573d6000803e3d6000fd5b505050506040513d602081101561100657600080fd5b5050825160408051632c77130760e21b815233600482015290516001600160a01b039092169163b1dc4c1c9160248082019260009290919082900301818387803b15801561105357600080fd5b505af1158015611067573d6000803e3d6000fd5b5050845160408051630c7940bd60e11b815233600482015290516001600160a01b0390921693506318f2817a92506024808201926020929091908290030181600087803b1580156110b757600080fd5b505af11580156110cb573d6000803e3d6000fd5b505050506040513d60208110156110e157600080fd5b505160c0830152600b5460a0830151604080516346f7cf8760e01b815233600482015260248101929092526001600160a01b038881166044840152878116606484015290519216916346f7cf879160848082019260009290919082900301818387803b15801561115057600080fd5b505af1158015611164573d6000803e3d6000fd5b50508451604080516318b9da1d60e21b815233600482015290516001600160a01b0390921693506362e7687492506024808201926020929091908290030181600087803b1580156111b457600080fd5b505af11580156111c8573d6000803e3d6000fd5b505050506040513d60208110156111de57600080fd5b505160e08301819052604080519182525133917fa510df27d6e51efd91d3f55722bad1f26bf924a63e5dcee07c2ab4c3d4992dcc919081900360200190a261122a83602001513461292a565b61124383602001518460400151338986604001516129ba565b6020830151604084015160065461126f9291906001600160a01b0316680ad78ebc5ac6200000806129ba565b336001600160a01b03166000805160206135298339815191528360600151348560c001516000604051808581526020018481526020018381526020018260028111156112b757fe5b60ff16815260200194505050505060405180910390a2602080830151604080519182525133927fe3f81eee9eb7b21bda5672f049187ddcd1833f6de3018f5ff2a716efba828df0928290030190a250505050505050565b611316611961565b611367576040805162461bcd60e51b815260206004820181905260248201527f4f776e61626c653a2063616c6c6572206973206e6f7420746865206f776e6572604482015290519081900360640190fd5b6113708a612a97565b61137989612a97565b61138288612a97565b61138b87612a97565b61139486612a97565b61139d85612a97565b6113a684612a97565b6113af83612a97565b6113b882612a97565b6113c181612a97565b600480546001600160a01b03199081166001600160a01b038d81169182179093556000805483168d85161790556001805483168c85161790556005805483168b85161790556006805483168a8516179055600780548316898516179055600280548316888516179055600b80548316878516179055600a80548316868516179055600980548316938516938417905560088054909216909217905560408051918252517fd396f45b3a6c41f9744b157261875945681f8e23587ae1d7d34377aad3bb1623916020908290030190a1604080516001600160a01b038b16815290517f78f058b189175430c48dc02699e3a0031ea4ff781536dc2fab847de4babdd8829181900360200190a1604080516001600160a01b038a16815290517f5ee0cae2f063ed938bb55046f6a932fb6ae792bf43624806bb90abe68a50be9b9181900360200190a1604080516001600160a01b038916815290517f82966d27eea39b038ee0fa30cd16532bb24f6e65d31cb58fb227aa5766cdcc7f9181900360200190a1604080516001600160a01b038816815290517fcfb07d791fcafc032b35837b50eb84b74df518cf4cc287e8084f47630fa70fa09181900360200190a1604080516001600160a01b038716815290517fe67f36a6e961157d6eff83b91f3af5a62131ceb6f04954ef74f51c1c05e7f88d9181900360200190a1604080516001600160a01b038616815290517f8c537274438aa850a330284665d81a85dd38267d09e4050d416bfc94142db2649181900360200190a1604080516001600160a01b038516815290517fb92ab72da68990756a2b6a93fce7497a60e992b19dd9529f601a977e88117d3c9181900360200190a1604080516001600160a01b038416815290517f4e62a526dbb1c27a0df55dad97eaa57df1e3a95bb380a0bbe38dc5fbc07bb6699181900360200190a1604080516001600160a01b038316815290517fccecd30b0c29abaa3249dc3caf9304255028c2c8cd8fe0fc4213a5d028a1240f9181900360200190a16116b3612b46565b50505050505050505050565b6007546040805163b32beb5b60e01b815233600482015290516001600160a01b039092169163b32beb5b9160248082019260009290919082900301818387803b15801561170b57600080fd5b505af1158015610cbd573d6000803e3d6000fd5b600061172b8383612b90565b9392505050565b600b546001600160a01b031681565b670de0b6b3a764000081565b6002546001600160a01b031681565b6008546001600160a01b031681565b670f43fc2c04ee000081565b6000805460408051638f07158d60e01b8152905183926001600160a01b031691638f07158d916004808301926020929190829003018186803b1580156117bc57600080fd5b505afa1580156117d0573d6000803e3d6000fd5b505050506040513d60208110156117e657600080fd5b505160015460408051638f07158d60e01b815290519293506000926001600160a01b0390921691638f07158d91600480820192602092909190829003018186803b15801561183357600080fd5b505afa158015611847573d6000803e3d6000fd5b505050506040513d602081101561185d57600080fd5b50519050611871828263ffffffff61278716565b9250505090565b6000546001600160a01b031681565b60008054604080516377a4b5b760e01b8152905183926001600160a01b0316916377a4b5b7916004808301926020929190829003018186803b1580156118cc57600080fd5b505afa1580156118e0573d6000803e3d6000fd5b505050506040513d60208110156118f657600080fd5b5051600154604080516377a4b5b760e01b815290519293506000926001600160a01b03909216916377a4b5b791600480820192602092909190829003018186803b15801561183357600080fd5b6004546001600160a01b031681565b6003546001600160a01b031690565b6003546001600160a01b0316331490565b60405180604001604052806012815260200171426f72726f7765724f7065726174696f6e7360701b81525081565b680ad78ebc5ac620000081565b600a546001600160a01b031681565b60006119cb8686868686612237565b9695505050505050565b6611c37937e0800081565b6005546001600160a01b03163314611a295760405162461bcd60e51b81526004018080602001828103825260298152602001806137c16029913960400191505060405180910390fd5b565b611a336133e6565b50604080516060810182526004546001600160a01b03908116825260005481166020830152600a541691810191909152611a6b61344b565b600260009054906101000a90046001600160a01b03166001600160a01b0316630fdb11cf6040518163ffffffff1660e01b8152600401602060405180830381600087803b158015611abb57600080fd5b505af1158015611acf573d6000803e3d6000fd5b505050506040513d6020811015611ae557600080fd5b5051808252600090611af690612433565b90508615611b1157611b088482612450565b611b1188612bb7565b611b1a89612bf6565b611b248989612c3c565b8251611b30908b612028565b336001600160a01b038b161480611b6657506005546001600160a01b031633148015611b5c5750600034115b8015611b66575087155b611b6c57fe5b82600001516001600160a01b0316630b0765578b6040518263ffffffff1660e01b815260040180826001600160a01b03166001600160a01b03168152602001915050600060405180830381600087803b158015611bc857600080fd5b505af1158015611bdc573d6000803e3d6000fd5b50505050611bea348a612c8e565b15156060840152602083015260408201889052868015611c08575080155b15611c4357611c21836000015184604001518a876125d8565b61012083018190526040830151611c3d9163ffffffff61278716565b60408301525b82600001516001600160a01b031663c0af0d3b8b6040518263ffffffff1660e01b815260040180826001600160a01b03166001600160a01b0316815260200191505060206040518083038186803b158015611c9d57600080fd5b505afa158015611cb1573d6000803e3d6000fd5b505050506040513d6020811015611cc757600080fd5b505160808301528251604080516304c4cd0360e51b81526001600160a01b038d8116600483015291519190921691639899a060916024808301926020929190829003018186803b158015611d1a57600080fd5b505afa158015611d2e573d6000803e3d6000fd5b505050506040513d6020811015611d4457600080fd5b505160a0830181905260808301518351611d5f929190612829565b8260c0018181525050611d8f8260a0015183608001518460200151856060015186604001518c88600001516123e5565b60e083015260a0820151891115611da257fe5b611dae818a8985612cad565b86158015611dbc5750600088115b15611e0f57611dea611de58360400151611dd98560800151612d21565b9063ffffffff61213516565b6127e1565b611dfc82608001518360400151612d3c565b611e0f83604001518b8460400151612177565b611e2d83600001518b8460200151856060015186604001518c612d93565b610140840152610160830152825160408051630c7940bd60e11b81526001600160a01b038d81166004830152915191909216916318f2817a9160248083019260209291908290030181600087803b158015611e8757600080fd5b505af1158015611e9b573d6000803e3d6000fd5b505050506040513d6020811015611eb157600080fd5b505161018083015260a08201516080830151602084015160608501516040860151600094611ee5949093909290918d612ff3565b600b546040805163015f109360e51b81526001600160a01b038f81166004830152602482018590528b811660448301528a811660648301529151939450911691632be212609160848082019260009290919082900301818387803b158015611f4c57600080fd5b505af1158015611f60573d6000803e3d6000fd5b505050508a6001600160a01b0316600080516020613529833981519152846101400151856101600151866101800151600260405180858152602001848152602001838152602001826002811115611fb357fe5b60ff16815260200194505050505060405180910390a2610120830151604080519182525133917fe3f81eee9eb7b21bda5672f049187ddcd1833f6de3018f5ff2a716efba828df0919081900360200190a2610c0c8460200151856040015133866020015187606001518e8e8a60400151613024565b6000826001600160a01b031663180d97c1836040518263ffffffff1660e01b815260040180826001600160a01b03166001600160a01b0316815260200191505060206040518083038186803b15801561208057600080fd5b505afa158015612094573d6000803e3d6000fd5b505050506040513d60208110156120aa57600080fd5b50519050600181146108075760405162461bcd60e51b815260040180806020018281038252602e8152602001806135b2602e913960400191505060405180910390fd5b6120f681612433565b156121325760405162461bcd60e51b81526004018080602001828103825260398152602001806135796039913960400191505060405180910390fd5b50565b600061172b83836040518060400160405280601e81526020017f536166654d6174683a207375627472616374696f6e206f766572666c6f7700008152506130df565b80836001600160a01b03166370a08231846040518263ffffffff1660e01b815260040180826001600160a01b03166001600160a01b0316815260200191505060206040518083038186803b1580156121ce57600080fd5b505afa1580156121e2573d6000803e3d6000fd5b505050506040513d60208110156121f857600080fd5b505110156108075760405162461bcd60e51b815260040180806020018281038252603c8152602001806134ed603c913960400191505060405180910390fd5b600080612242611887565b9050600061224e611777565b90508661226a57612265828963ffffffff61213516565b61227a565b61227a828963ffffffff61278716565b91508461229657612291818763ffffffff61213516565b6122a6565b6122a6818763ffffffff61278716565b905060006122b5838387612829565b9998505050505050505050565b6714d1120d7b1600008110156121325760405162461bcd60e51b81526004018080602001828103825260498152602001806136796049913960600191505060405180910390fd5b836001600160a01b031663d3ed5d19826040518263ffffffff1660e01b815260040180828152602001915050600060405180830381600087803b15801561234f57600080fd5b505af1158015612363573d6000803e3d6000fd5b50505050826001600160a01b0316639dc29fac83836040518363ffffffff1660e01b815260040180836001600160a01b03166001600160a01b0316815260200182815260200192505050600060405180830381600087803b1580156123c757600080fd5b505af11580156123db573d6000803e3d6000fd5b5050505050505050565b60008060006123f88a8a8a8a8a8a613176565b915091506000612409838387612829565b9b9a5050505050505050505050565b6000610c8982680ad78ebc5ac620000063ffffffff61278716565b60008061243f836131d1565b6714d1120d7b160000119392505050565b80156124a257670de0b6b3a764000082111561249d5760405162461bcd60e51b81526004018080602001828103825260328152602001806135e06032913960400191505060405180910390fd5b610cd5565b6611c37937e0800082108015906124c15750670de0b6b3a76400008211155b610cd55760405162461bcd60e51b81526004018080602001828103825260308152602001806137ea6030913960400191505060405180910390fd5b6000826001600160a01b031663180d97c1836040518263ffffffff1660e01b815260040180826001600160a01b03166001600160a01b0316815260200191505060206040518083038186803b15801561255457600080fd5b505afa158015612568573d6000803e3d6000fd5b505050506040513d602081101561257e57600080fd5b505190506001811415610807576040805162461bcd60e51b815260206004820152601c60248201527f426f72726f7765724f70733a205661756c742069732061637469766500000000604482015290519081900360640190fd5b6000846001600160a01b0316635dba4c4a6040518163ffffffff1660e01b8152600401600060405180830381600087803b15801561261557600080fd5b505af1158015612629573d6000803e3d6000fd5b505050506000856001600160a01b031663631203b0856040518263ffffffff1660e01b81526004018082815260200191505060206040518083038186803b15801561267357600080fd5b505afa158015612687573d6000803e3d6000fd5b505050506040513d602081101561269d57600080fd5b505190506126ac8185856131f5565b60085460408051625b388960e61b81526004810184905290516001600160a01b03909216916316ce22409160248082019260009290919082900301818387803b1580156126f857600080fd5b505af115801561270c573d6000803e3d6000fd5b5050600954604080516340c10f1960e01b81526001600160a01b03928316600482015260248101869052905191891693506340c10f19925060448082019260009290919082900301818387803b15801561276557600080fd5b505af1158015612779573d6000803e3d6000fd5b509298975050505050505050565b60008282018381101561172b576040805162461bcd60e51b815260206004820152601b60248201527f536166654d6174683a206164646974696f6e206f766572666c6f770000000000604482015290519081900360640190fd5b686194049f30f72000008110156121325760405162461bcd60e51b815260040180806020018281038252603a815260200180613787603a913960400191505060405180910390fd5b6000821561285c57600061285384612847878663ffffffff61326a16565b9063ffffffff6132c316565b915061172b9050565b506000199392505050565b600081156128935761288c826128478568056bc75e2d6310000063ffffffff61326a16565b9050610c89565b50600019610c89565b6714d1120d7b1600008110156121325760405162461bcd60e51b81526004018080602001828103825260378152602001806134b66037913960400191505060405180910390fd5b670f43fc2c04ee00008110156121325760405162461bcd60e51b815260040180806020018281038252604981526020018061373e6049913960600191505060405180910390fd5b6040516000906001600160a01b0384169083908381818185875af1925050503d8060008114612975576040519150601f19603f3d011682016040523d82523d6000602084013e61297a565b606091505b50509050806108075760405162461bcd60e51b815260040180806020018281038252602e815260200180613894602e913960400191505060405180910390fd5b846001600160a01b031663c9ceb951826040518263ffffffff1660e01b815260040180828152602001915050600060405180830381600087803b158015612a0057600080fd5b505af1158015612a14573d6000803e3d6000fd5b50505050836001600160a01b03166340c10f1984846040518363ffffffff1660e01b815260040180836001600160a01b03166001600160a01b0316815260200182815260200192505050600060405180830381600087803b158015612a7857600080fd5b505af1158015612a8c573d6000803e3d6000fd5b505050505050505050565b6001600160a01b038116612af2576040805162461bcd60e51b815260206004820152601e60248201527f4163636f756e742063616e6e6f74206265207a65726f20616464726573730000604482015290519081900360640190fd5b803b80610cd5576040805162461bcd60e51b815260206004820181905260248201527f4163636f756e7420636f64652073697a652063616e6e6f74206265207a65726f604482015290519081900360640190fd5b6003546040516000916001600160a01b0316907f8be0079c531659141344cd1fd0a4f28419497f9722a3daafe3b4186f6b6457e0908390a3600380546001600160a01b0319169055565b600080612baf670de0b6b3a7640000612847858763ffffffff61326a16565b949350505050565b600081116121325760405162461bcd60e51b815260040180806020018281038252603781526020018061385d6037913960400191505060405180910390fd5b341580612c01575080155b6121325760405162461bcd60e51b81526004018080602001828103825260308152602001806135496030913960400191505060405180910390fd5b34151580612c4957508115155b80612c5357508015155b610cd55760405162461bcd60e51b81526004018080602001828103825260468152602001806136126046913960600191505060405180910390fd5b6000808315612ca257508290506001612ca6565b8291505b9250929050565b8315612ce657612cbc83613305565b8115612ce157612ccf8160e0015161289c565b612ce18160e001518260c00151613342565b610cbd565b612cf38160e001516128e3565b612d10816020015182606001518360400151858560000151612237565b6101008201819052610cbd906122c2565b6000610c8982680ad78ebc5ac620000063ffffffff61213516565b612d5582680ad78ebc5ac620000063ffffffff61213516565b811115610cd55760405162461bcd60e51b815260040180806020018281038252604381526020018061381a6043913960600191505060405180910390fd5b600080600085612e2e57886001600160a01b03166380b0cc2b89896040518363ffffffff1660e01b815260040180836001600160a01b03166001600160a01b0316815260200182815260200192505050602060405180830381600087803b158015612dfd57600080fd5b505af1158015612e11573d6000803e3d6000fd5b505050506040513d6020811015612e2757600080fd5b5051612ebb565b886001600160a01b031663320b246989896040518363ffffffff1660e01b815260040180836001600160a01b03166001600160a01b0316815260200182815260200192505050602060405180830381600087803b158015612e8e57600080fd5b505af1158015612ea2573d6000803e3d6000fd5b505050506040513d6020811015612eb857600080fd5b50515b9050600084612f5557896001600160a01b031663cdd9f96a8a886040518363ffffffff1660e01b815260040180836001600160a01b03166001600160a01b0316815260200182815260200192505050602060405180830381600087803b158015612f2457600080fd5b505af1158015612f38573d6000803e3d6000fd5b505050506040513d6020811015612f4e57600080fd5b5051612fe2565b896001600160a01b031663cb5a79cc8a886040518363ffffffff1660e01b815260040180836001600160a01b03166001600160a01b0316815260200182815260200192505050602060405180830381600087803b158015612fb557600080fd5b505af1158015612fc9573d6000803e3d6000fd5b505050506040513d6020811015612fdf57600080fd5b50515b919a91995090975050505050505050565b6000806000613006898989898989613176565b9150915060006130168383612867565b9a9950505050505050505050565b811561303c5761303788888886856129ba565b613048565b61304888888886612309565b831561305d57613058888661292a565b6123db565b876001600160a01b0316633efe643b87876040518363ffffffff1660e01b815260040180836001600160a01b03166001600160a01b0316815260200182815260200192505050600060405180830381600087803b1580156130bd57600080fd5b505af11580156130d1573d6000803e3d6000fd5b505050505050505050505050565b6000818484111561316e5760405162461bcd60e51b81526004018080602001828103825283818151815260200191508051906020019080838360005b8381101561313357818101518382015260200161311b565b50505050905090810190601f1680156131605780820380516001836020036101000a031916815260200191505b509250505060405180910390fd5b505050900390565b600080878786613195576131908a8963ffffffff61213516565b6131a5565b6131a58a8963ffffffff61278716565b9150846131c1576131bc898763ffffffff61213516565b612fe2565b612fe2898763ffffffff61278716565b6000806131dc611887565b905060006131e8611777565b9050612baf828286612829565b60006132138361284786670de0b6b3a764000063ffffffff61326a16565b905081811115610cbd576040805162461bcd60e51b815260206004820152601d60248201527f4665652065786365656465642070726f7669646564206d6178696d756d000000604482015290519081900360640190fd5b60008261327957506000610c89565b8282028284828161328657fe5b041461172b5760405162461bcd60e51b81526004018080602001828103825260218152602001806136586021913960400191505060405180910390fd5b600061172b83836040518060400160405280601a81526020017f536166654d6174683a206469766973696f6e206279207a65726f000000000000815250613381565b80156121325760405162461bcd60e51b815260040180806020018281038252603e815260200180613700603e913960400191505060405180910390fd5b80821015610cd55760405162461bcd60e51b815260040180806020018281038252603e8152602001806136c2603e913960400191505060405180910390fd5b600081836133d05760405162461bcd60e51b815260206004820181815283516024840152835190928392604490910191908501908083836000831561313357818101518382015260200161311b565b5060008385816133dc57fe5b0495945050505050565b604080516060810182526000808252602082018190529181019190915290565b60405180610100016040528060008152602001600081526020016000815260200160008152602001600081526020016000815260200160008152602001600081525090565b604051806101a00160405280600081526020016000815260200160008152602001600015158152602001600081526020016000815260200160008152602001600081526020016000815260200160008152602001600081526020016000815260200160008152509056fe426f72726f7765724f70733a204f7065726174696f6e206d757374206c65617665207661756c74207769746820494352203e3d20434352426f72726f7765724f70733a2043616c6c657220646f65736e74206861766520656e6f7567682042504420746f206d616b652072657061796d656e741682adcf84a5197a236a80c9ffe2e7233619140acb7839754c27cdc21799192c426f72726f7765724f7065726174696f6e733a2043616e6e6f7420776974686472617720616e642061646420636f6c6c426f72726f7765724f70733a204f7065726174696f6e206e6f74207065726d697474656420647572696e67205265636f76657279204d6f6465426f72726f7765724f70733a205661756c7420646f6573206e6f74206578697374206f7220697320636c6f7365644d6178206665652070657263656e74616765206d757374206c657373207468616e206f7220657175616c20746f2031303025426f72726f7765724f70733a205468657265206d75737420626520656974686572206120636f6c6c61746572616c206368616e6765206f7220612064656274206368616e6765536166654d6174683a206d756c7469706c69636174696f6e206f766572666c6f77426f72726f7765724f70733a20416e206f7065726174696f6e207468617420776f756c6420726573756c7420696e20544352203c20434352206973206e6f74207065726d6974746564426f72726f7765724f70733a2043616e6e6f7420646563726561736520796f7572205661756c7427732049435220696e205265636f76657279204d6f6465426f72726f7765724f70733a20436f6c6c61746572616c207769746864726177616c206e6f74207065726d6974746564205265636f76657279204d6f6465426f72726f7765724f70733a20416e206f7065726174696f6e207468617420776f756c6420726573756c7420696e20494352203c204d4352206973206e6f74207065726d6974746564426f72726f7765724f70733a205661756c742773206e65742064656274206d7573742062652067726561746572207468616e206d696e696d756d426f72726f7765724f70733a2043616c6c6572206973206e6f742053746162696c69747920506f6f6c4d6178206665652070657263656e74616765206d757374206265206265747765656e20302e352520616e642031303025426f72726f7765724f70733a20416d6f756e7420726570616964206d757374206e6f74206265206c6172676572207468616e20746865205661756c7427732064656274426f72726f7765724f70733a204465627420696e637265617365207265717569726573206e6f6e2d7a65726f20646562744368616e6765426f72726f7765724f70733a2053656e64696e67205242544320746f20416374697665506f6f6c206661696c6564a2646970667358221220d0d3140f28f810e5bb97c2e9303381656f876f820f6ae78c2f86ec2346060a1d64736f6c634300060b0033",
  "linkReferences": {},
  "deployedLinkReferences": {}
}