{
  "_format": "hh-sol-artifact-1",
  "contractName": "BorrowerOperations",
  "sourceName": "contracts/BorrowerOperations.sol",
  "abi": [
    {
      "anonymous": false,
      "inputs": [
        {
          "indexed": false,
          "internalType": "address",
          "name": "_activePoolAddress",
          "type": "address"
        }
      ],
      "name": "ActivePoolAddressChanged",
      "type": "event"
    },
    {
      "anonymous": false,
      "inputs": [
        {
          "indexed": true,
          "internalType": "address",
          "name": "_borrower",
          "type": "address"
        },
        {
          "indexed": false,
          "internalType": "uint256",
          "name": "_BPDFee",
          "type": "uint256"
        }
      ],
      "name": "BPDBorrowingFeePaid",
      "type": "event"
    },
    {
      "anonymous": false,
      "inputs": [
        {
          "indexed": false,
          "internalType": "address",
          "name": "_bpdTokenAddress",
          "type": "address"
        }
      ],
      "name": "BPDTokenAddressChanged",
      "type": "event"
    },
    {
      "anonymous": false,
      "inputs": [
        {
          "indexed": false,
          "internalType": "address",
          "name": "_collSurplusPoolAddress",
          "type": "address"
        }
      ],
      "name": "CollSurplusPoolAddressChanged",
      "type": "event"
    },
    {
      "anonymous": false,
      "inputs": [
        {
          "indexed": false,
          "internalType": "address",
          "name": "_defaultPoolAddress",
          "type": "address"
        }
      ],
      "name": "DefaultPoolAddressChanged",
      "type": "event"
    },
    {
      "anonymous": false,
      "inputs": [
        {
          "indexed": false,
          "internalType": "address",
          "name": "_gasPoolAddress",
          "type": "address"
        }
      ],
      "name": "GasPoolAddressChanged",
      "type": "event"
    },
    {
      "anonymous": false,
      "inputs": [
        {
          "indexed": false,
          "internalType": "address",
          "name": "_mpStakingAddress",
          "type": "address"
        }
      ],
      "name": "MPStakingAddressChanged",
      "type": "event"
    },
    {
      "anonymous": false,
      "inputs": [
        {
          "indexed": true,
          "internalType": "address",
          "name": "previousOwner",
          "type": "address"
        },
        {
          "indexed": true,
          "internalType": "address",
          "name": "newOwner",
          "type": "address"
        }
      ],
      "name": "OwnershipTransferred",
      "type": "event"
    },
    {
      "anonymous": false,
      "inputs": [
        {
          "indexed": false,
          "internalType": "address",
          "name": "_newPriceFeedAddress",
          "type": "address"
        }
      ],
      "name": "PriceFeedAddressChanged",
      "type": "event"
    },
    {
      "anonymous": false,
      "inputs": [
        {
          "indexed": false,
          "internalType": "address",
          "name": "_sortedVaultsAddress",
          "type": "address"
        }
      ],
      "name": "SortedVaultsAddressChanged",
      "type": "event"
    },
    {
      "anonymous": false,
      "inputs": [
        {
          "indexed": false,
          "internalType": "address",
          "name": "_stabilityPoolAddress",
          "type": "address"
        }
      ],
      "name": "StabilityPoolAddressChanged",
      "type": "event"
    },
    {
      "anonymous": false,
      "inputs": [
        {
          "indexed": true,
          "internalType": "address",
          "name": "_borrower",
          "type": "address"
        },
        {
          "indexed": false,
          "internalType": "uint256",
          "name": "arrayIndex",
          "type": "uint256"
        }
      ],
      "name": "VaultCreated",
      "type": "event"
    },
    {
      "anonymous": false,
      "inputs": [
        {
          "indexed": false,
          "internalType": "address",
          "name": "_newVaultManagerAddress",
          "type": "address"
        }
      ],
      "name": "VaultManagerAddressChanged",
      "type": "event"
    },
    {
      "anonymous": false,
      "inputs": [
        {
          "indexed": true,
          "internalType": "address",
          "name": "_borrower",
          "type": "address"
        },
        {
          "indexed": false,
          "internalType": "uint256",
          "name": "_debt",
          "type": "uint256"
        },
        {
          "indexed": false,
          "internalType": "uint256",
          "name": "_coll",
          "type": "uint256"
        },
        {
          "indexed": false,
          "internalType": "uint256",
          "name": "stake",
          "type": "uint256"
        },
        {
          "indexed": false,
          "internalType": "enum BorrowerOperations.BorrowerOperation",
          "name": "operation",
          "type": "uint8"
        }
      ],
      "name": "VaultUpdated",
      "type": "event"
    },
    {
      "inputs": [],
      "name": "BORROWING_FEE_FLOOR",
      "outputs": [
        {
          "internalType": "uint256",
          "name": "",
          "type": "uint256"
        }
      ],
      "stateMutability": "view",
      "type": "function"
    },
    {
      "inputs": [],
      "name": "BPD_GAS_COMPENSATION",
      "outputs": [
        {
          "internalType": "uint256",
          "name": "",
          "type": "uint256"
        }
      ],
      "stateMutability": "view",
      "type": "function"
    },
    {
      "inputs": [],
      "name": "CCR",
      "outputs": [
        {
          "internalType": "uint256",
          "name": "",
          "type": "uint256"
        }
      ],
      "stateMutability": "view",
      "type": "function"
    },
    {
      "inputs": [],
      "name": "DECIMAL_PRECISION",
      "outputs": [
        {
          "internalType": "uint256",
          "name": "",
          "type": "uint256"
        }
      ],
      "stateMutability": "view",
      "type": "function"
    },
    {
      "inputs": [],
      "name": "MCR",
      "outputs": [
        {
          "internalType": "uint256",
          "name": "",
          "type": "uint256"
        }
      ],
      "stateMutability": "view",
      "type": "function"
    },
    {
      "inputs": [],
      "name": "MIN_NET_DEBT",
      "outputs": [
        {
          "internalType": "uint256",
          "name": "",
          "type": "uint256"
        }
      ],
      "stateMutability": "view",
      "type": "function"
    },
    {
      "inputs": [],
      "name": "NAME",
      "outputs": [
        {
          "internalType": "string",
          "name": "",
          "type": "string"
        }
      ],
      "stateMutability": "view",
      "type": "function"
    },
    {
      "inputs": [],
      "name": "PERCENT_DIVISOR",
      "outputs": [
        {
          "internalType": "uint256",
          "name": "",
          "type": "uint256"
        }
      ],
      "stateMutability": "view",
      "type": "function"
    },
    {
      "inputs": [],
      "name": "_100pct",
      "outputs": [
        {
          "internalType": "uint256",
          "name": "",
          "type": "uint256"
        }
      ],
      "stateMutability": "view",
      "type": "function"
    },
    {
      "inputs": [],
      "name": "activePool",
      "outputs": [
        {
          "internalType": "contract IActivePool",
          "name": "",
          "type": "address"
        }
      ],
      "stateMutability": "view",
      "type": "function"
    },
    {
      "inputs": [
        {
          "internalType": "address",
          "name": "_upperHint",
          "type": "address"
        },
        {
          "internalType": "address",
          "name": "_lowerHint",
          "type": "address"
        }
      ],
      "name": "addColl",
      "outputs": [],
      "stateMutability": "payable",
      "type": "function"
    },
    {
      "inputs": [
        {
          "internalType": "uint256",
          "name": "_maxFeePercentage",
          "type": "uint256"
        },
        {
          "internalType": "uint256",
          "name": "_collWithdrawal",
          "type": "uint256"
        },
        {
          "internalType": "uint256",
          "name": "_BPDChange",
          "type": "uint256"
        },
        {
          "internalType": "bool",
          "name": "_isDebtIncrease",
          "type": "bool"
        },
        {
          "internalType": "address",
          "name": "_upperHint",
          "type": "address"
        },
        {
          "internalType": "address",
          "name": "_lowerHint",
          "type": "address"
        }
      ],
      "name": "adjustVault",
      "outputs": [],
      "stateMutability": "payable",
      "type": "function"
    },
    {
      "inputs": [],
      "name": "bpdToken",
      "outputs": [
        {
          "internalType": "contract IBPDToken",
          "name": "",
          "type": "address"
        }
      ],
      "stateMutability": "view",
      "type": "function"
    },
    {
      "inputs": [],
      "name": "claimCollateral",
      "outputs": [],
      "stateMutability": "nonpayable",
      "type": "function"
    },
    {
      "inputs": [],
      "name": "closeVault",
      "outputs": [],
      "stateMutability": "nonpayable",
      "type": "function"
    },
    {
      "inputs": [],
      "name": "defaultPool",
      "outputs": [
        {
          "internalType": "contract IDefaultPool",
          "name": "",
          "type": "address"
        }
      ],
      "stateMutability": "view",
      "type": "function"
    },
    {
      "inputs": [
        {
          "internalType": "uint256",
          "name": "_debt",
          "type": "uint256"
        }
      ],
      "name": "getCompositeDebt",
      "outputs": [
        {
          "internalType": "uint256",
          "name": "",
          "type": "uint256"
        }
      ],
      "stateMutability": "pure",
      "type": "function"
    },
    {
      "inputs": [],
      "name": "getEntireSystemColl",
      "outputs": [
        {
          "internalType": "uint256",
          "name": "entireSystemColl",
          "type": "uint256"
        }
      ],
      "stateMutability": "view",
      "type": "function"
    },
    {
      "inputs": [],
      "name": "getEntireSystemDebt",
      "outputs": [
        {
          "internalType": "uint256",
          "name": "entireSystemDebt",
          "type": "uint256"
        }
      ],
      "stateMutability": "view",
      "type": "function"
    },
    {
      "inputs": [],
      "name": "isOwner",
      "outputs": [
        {
          "internalType": "bool",
          "name": "",
          "type": "bool"
        }
      ],
      "stateMutability": "view",
      "type": "function"
    },
    {
      "inputs": [
        {
          "internalType": "address",
          "name": "_borrower",
          "type": "address"
        },
        {
          "internalType": "address",
          "name": "_upperHint",
          "type": "address"
        },
        {
          "internalType": "address",
          "name": "_lowerHint",
          "type": "address"
        }
      ],
      "name": "moveRBTCGainToVault",
      "outputs": [],
      "stateMutability": "payable",
      "type": "function"
    },
    {
      "inputs": [],
      "name": "mpStaking",
      "outputs": [
        {
          "internalType": "contract IMPStaking",
          "name": "",
          "type": "address"
        }
      ],
      "stateMutability": "view",
      "type": "function"
    },
    {
      "inputs": [],
      "name": "mpStakingAddress",
      "outputs": [
        {
          "internalType": "address",
          "name": "",
          "type": "address"
        }
      ],
      "stateMutability": "view",
      "type": "function"
    },
    {
      "inputs": [
        {
          "internalType": "uint256",
          "name": "_maxFeePercentage",
          "type": "uint256"
        },
        {
          "internalType": "uint256",
          "name": "_BPDAmount",
          "type": "uint256"
        },
        {
          "internalType": "address",
          "name": "_upperHint",
          "type": "address"
        },
        {
          "internalType": "address",
          "name": "_lowerHint",
          "type": "address"
        }
      ],
      "name": "openVault",
      "outputs": [],
      "stateMutability": "payable",
      "type": "function"
    },
    {
      "inputs": [],
      "name": "owner",
      "outputs": [
        {
          "internalType": "address",
          "name": "",
          "type": "address"
        }
      ],
      "stateMutability": "view",
      "type": "function"
    },
    {
      "inputs": [],
      "name": "priceFeed",
      "outputs": [
        {
          "internalType": "contract IPriceFeed",
          "name": "",
          "type": "address"
        }
      ],
      "stateMutability": "view",
      "type": "function"
    },
    {
      "inputs": [
        {
          "internalType": "uint256",
          "name": "_BPDAmount",
          "type": "uint256"
        },
        {
          "internalType": "address",
          "name": "_upperHint",
          "type": "address"
        },
        {
          "internalType": "address",
          "name": "_lowerHint",
          "type": "address"
        }
      ],
      "name": "repayBPD",
      "outputs": [],
      "stateMutability": "nonpayable",
      "type": "function"
    },
    {
      "inputs": [
        {
          "internalType": "address",
          "name": "_vaultManagerAddress",
          "type": "address"
        },
        {
          "internalType": "address",
          "name": "_activePoolAddress",
          "type": "address"
        },
        {
          "internalType": "address",
          "name": "_defaultPoolAddress",
          "type": "address"
        },
        {
          "internalType": "address",
          "name": "_stabilityPoolAddress",
          "type": "address"
        },
        {
          "internalType": "address",
          "name": "_gasPoolAddress",
          "type": "address"
        },
        {
          "internalType": "address",
          "name": "_collSurplusPoolAddress",
          "type": "address"
        },
        {
          "internalType": "address",
          "name": "_priceFeedAddress",
          "type": "address"
        },
        {
          "internalType": "address",
          "name": "_sortedVaultsAddress",
          "type": "address"
        },
        {
          "internalType": "address",
          "name": "_bpdTokenAddress",
          "type": "address"
        },
        {
          "internalType": "address",
          "name": "_mpStakingAddress",
          "type": "address"
        }
      ],
      "name": "setAddresses",
      "outputs": [],
      "stateMutability": "nonpayable",
      "type": "function"
    },
    {
      "inputs": [],
      "name": "sortedVaults",
      "outputs": [
        {
          "internalType": "contract ISortedVaults",
          "name": "",
          "type": "address"
        }
      ],
      "stateMutability": "view",
      "type": "function"
    },
    {
      "inputs": [],
      "name": "vaultManager",
      "outputs": [
        {
          "internalType": "contract IVaultManager",
          "name": "",
          "type": "address"
        }
      ],
      "stateMutability": "view",
      "type": "function"
    },
    {
      "inputs": [
        {
          "internalType": "uint256",
          "name": "_maxFeePercentage",
          "type": "uint256"
        },
        {
          "internalType": "uint256",
          "name": "_BPDAmount",
          "type": "uint256"
        },
        {
          "internalType": "address",
          "name": "_upperHint",
          "type": "address"
        },
        {
          "internalType": "address",
          "name": "_lowerHint",
          "type": "address"
        }
      ],
      "name": "withdrawBPD",
      "outputs": [],
      "stateMutability": "nonpayable",
      "type": "function"
    },
    {
      "inputs": [
        {
          "internalType": "uint256",
          "name": "_collWithdrawal",
          "type": "uint256"
        },
        {
          "internalType": "address",
          "name": "_upperHint",
          "type": "address"
        },
        {
          "internalType": "address",
          "name": "_lowerHint",
          "type": "address"
        }
      ],
      "name": "withdrawColl",
      "outputs": [],
      "stateMutability": "nonpayable",
      "type": "function"
    }
  ],
  "bytecode": "0x608060405234801561001057600080fd5b50600380546001600160a01b031916339081179091556040516000907f8be0079c531659141344cd1fd0a4f28419497f9722a3daafe3b4186f6b6457e0908290a3613730806100606000396000f3fe6080604052600436106101a35760003560e01c80637165f24f116100e25780638a4adf24116100855780638a4adf241461056c5780638da5cb5b146105815780638f32d59b14610596578063a20baee6146104d9578063a3f4df7e146105bf578063a619cc1f14610649578063dd5904961461065e578063f92d343314610673576101a3565b80637165f24f146104c457806372fe25aa146104d9578063741bef1a146104ee57806375b30b3a14610503578063794e572414610518578063795d26c31461052d5780637f7dde4a14610542578063887105d314610557576101a3565b80634ff814431161014a5780634ff81443146103025780635530273c1461032c5780635733d58f1461036d5780636307a1041461038257806368647db1146103c95780636bf70e33146103f75780636c37a4af146104315780636f0b0c1c146104af576101a3565b80630d4d2214146101a85780630e4df55f146101d957806311b0bd611461021357806318976fa2146102545780631bf435551461026957806339269dc7146102905780633cc74225146102d85780634870dd9a146102ed575b600080fd5b3480156101b457600080fd5b506101bd610688565b604080516001600160a01b039092168252519081900360200190f35b610211600480360360608110156101ef57600080fd5b506001600160a01b038135811691602081013582169160409091013516610697565b005b34801561021f57600080fd5b506102116004803603606081101561023657600080fd5b508035906001600160a01b03602082013581169160400135166106b6565b34801561026057600080fd5b506102116106c8565b34801561027557600080fd5b5061027e610ac3565b60408051918252519081900360200190f35b610211600480360360c08110156102a657600080fd5b5080359060208101359060408101359060608101351515906001600160a01b03608082013581169160a0013516610ad0565b3480156102e457600080fd5b506101bd610ae7565b3480156102f957600080fd5b5061027e610af6565b34801561030e57600080fd5b5061027e6004803603602081101561032557600080fd5b5035610afb565b34801561033857600080fd5b506102116004803603606081101561034f57600080fd5b508035906001600160a01b0360208201358116916040013516610b0c565b34801561037957600080fd5b5061027e610b1d565b34801561038e57600080fd5b50610211600480360360808110156103a557600080fd5b508035906020810135906001600160a01b0360408201358116916060013516610b29565b610211600480360360408110156103df57600080fd5b506001600160a01b0381358116916020013516610b40565b6102116004803603608081101561040d57600080fd5b508035906020810135906001600160a01b0360408201358116916060013516610b56565b34801561043d57600080fd5b50610211600480360361014081101561045557600080fd5b506001600160a01b038135811691602081013582169160408201358116916060810135821691608082013581169160a081013582169160c082013581169160e081013582169161010082013581169161012001351661118b565b3480156104bb57600080fd5b5061021161153c565b3480156104d057600080fd5b506101bd61159c565b3480156104e557600080fd5b5061027e6115ab565b3480156104fa57600080fd5b506101bd6115b7565b34801561050f57600080fd5b506101bd6115c6565b34801561052457600080fd5b5061027e6115d5565b34801561053957600080fd5b5061027e6115e1565b34801561054e57600080fd5b506101bd6116e2565b34801561056357600080fd5b5061027e6116f1565b34801561057857600080fd5b506101bd6117ad565b34801561058d57600080fd5b506101bd6117bc565b3480156105a257600080fd5b506105ab6117cb565b604080519115158252519081900360200190f35b3480156105cb57600080fd5b506105d46117dc565b6040805160208082528351818301528351919283929083019185019080838360005b8381101561060e5781810151838201526020016105f6565b50505050905090810190601f16801561063b5780820380516001836020036101000a031916815260200191505b509250505060405180910390f35b34801561065557600080fd5b5061027e61180a565b34801561066a57600080fd5b506101bd611817565b34801561067f57600080fd5b5061027e611826565b6009546001600160a01b031681565b61069f611831565b6106b18360008060008686600061187c565b505050565b6106b13360008560008686600061187c565b600454600054600a546001600160a01b039283169291821691166106ec8333611e79565b60025460408051630fdb11cf60e01b815290516000926001600160a01b031691630fdb11cf91600480830192602092919082900301818787803b15801561073257600080fd5b505af1158015610746573d6000803e3d6000fd5b505050506040513d602081101561075c57600080fd5b5051905061076981611f3e565b60408051630b07655760e01b815233600482015290516001600160a01b03861691630b07655791602480830192600092919082900301818387803b1580156107b057600080fd5b505af11580156107c4573d6000803e3d6000fd5b5050604080516304c4cd0360e51b81523360048201529051600093506001600160a01b0388169250639899a06091602480820192602092909190829003018186803b15801561081257600080fd5b505afa158015610826573d6000803e3d6000fd5b505050506040513d602081101561083c57600080fd5b50516040805163c0af0d3b60e01b815233600482015290519192506000916001600160a01b0388169163c0af0d3b916024808301926020929190829003018186803b15801561088a57600080fd5b505afa15801561089e573d6000803e3d6000fd5b505050506040513d60208110156108b457600080fd5b505190506108db84336108d684680ad78ebc5ac620000063ffffffff611f8616565b611fcf565b60006108ec8360008460008861208f565b90506108f78161211a565b60408051631fc5750960e31b815233600482015290516001600160a01b0389169163fe2ba84891602480830192600092919082900301818387803b15801561093e57600080fd5b505af1158015610952573d6000803e3d6000fd5b50506040805163c99cb2b760e01b815233600482015290516001600160a01b038b16935063c99cb2b79250602480830192600092919082900301818387803b15801561099d57600080fd5b505af11580156109b1573d6000803e3d6000fd5b50505050336001600160a01b031660008051602061336283398151915260008060006001604051808581526020018481526020018381526020018260028111156109f757fe5b60ff16815260200194505050505060405180910390a2610a31868633610a2c86680ad78ebc5ac620000063ffffffff611f8616565b612161565b600654610a5490879087906001600160a01b0316680ad78ebc5ac6200000612161565b60408051633efe643b60e01b81523360048201526024810185905290516001600160a01b03881691633efe643b91604480830192600092919082900301818387803b158015610aa257600080fd5b505af1158015610ab6573d6000803e3d6000fd5b5050505050505050505050565b686194049f30f720000081565b610adf3386868686868c61187c565b505050505050565b6001546001600160a01b031681565b60c881565b6000610b068261223d565b92915050565b6106b133846000808686600061187c565b6714d1120d7b16000081565b610b3a33600085600186868a61187c565b50505050565b610b523360008060008686600061187c565b5050565b610b5e61321f565b50604080516060810182526004546001600160a01b03908116825260005481166020830152600a541691810191909152610b9661323f565b600260009054906101000a90046001600160a01b03166001600160a01b0316630fdb11cf6040518163ffffffff1660e01b8152600401602060405180830381600087803b158015610be657600080fd5b505af1158015610bfa573d6000803e3d6000fd5b505050506040513d6020811015610c1057600080fd5b5051808252600090610c2190612258565b9050610c2d8782612275565b8251610c399033612321565b6040820186905280610c7a57610c5983600001518460400151888a6123fd565b602083018190526040830151610c749163ffffffff6125ac16565b60408301525b610c878260400151612606565b610c94826040015161223d565b60608301819052610ca157fe5b610cb4348360600151846000015161264e565b60808301526060820151610cc990349061268c565b60a08301528015610ce657610ce182608001516126c1565b610d19565b610cf38260800151612708565b6000610d0c34600185606001516001876000015161208f565b9050610d178161211a565b505b82516040805163325e370d60e01b81523360048201526001602482015290516001600160a01b039092169163325e370d9160448082019260009290919082900301818387803b158015610d6b57600080fd5b505af1158015610d7f573d6000803e3d6000fd5b505084516040805163320b246960e01b815233600482015234602482015290516001600160a01b03909216935063320b246992506044808201926020929091908290030181600087803b158015610dd557600080fd5b505af1158015610de9573d6000803e3d6000fd5b505050506040513d6020811015610dff57600080fd5b505082516060830151604080516332d69e7360e21b81523360048201526024810192909252516001600160a01b039092169163cb5a79cc916044808201926020929091908290030181600087803b158015610e5957600080fd5b505af1158015610e6d573d6000803e3d6000fd5b505050506040513d6020811015610e8357600080fd5b5050825160408051632c77130760e21b815233600482015290516001600160a01b039092169163b1dc4c1c9160248082019260009290919082900301818387803b158015610ed057600080fd5b505af1158015610ee4573d6000803e3d6000fd5b5050845160408051630c7940bd60e11b815233600482015290516001600160a01b0390921693506318f2817a92506024808201926020929091908290030181600087803b158015610f3457600080fd5b505af1158015610f48573d6000803e3d6000fd5b505050506040513d6020811015610f5e57600080fd5b505160c0830152600b5460a0830151604080516346f7cf8760e01b815233600482015260248101929092526001600160a01b038881166044840152878116606484015290519216916346f7cf879160848082019260009290919082900301818387803b158015610fcd57600080fd5b505af1158015610fe1573d6000803e3d6000fd5b50508451604080516318b9da1d60e21b815233600482015290516001600160a01b0390921693506362e7687492506024808201926020929091908290030181600087803b15801561103157600080fd5b505af1158015611045573d6000803e3d6000fd5b505050506040513d602081101561105b57600080fd5b505160e08301819052604080519182525133917fa510df27d6e51efd91d3f55722bad1f26bf924a63e5dcee07c2ab4c3d4992dcc919081900360200190a26110a783602001513461274f565b6110c083602001518460400151338986604001516127df565b602083015160408401516006546110ec9291906001600160a01b0316680ad78ebc5ac6200000806127df565b336001600160a01b03166000805160206133628339815191528360600151348560c0015160006040518085815260200184815260200183815260200182600281111561113457fe5b60ff16815260200194505050505060405180910390a2602080830151604080519182525133927fe3f81eee9eb7b21bda5672f049187ddcd1833f6de3018f5ff2a716efba828df0928290030190a250505050505050565b6111936117cb565b6111e4576040805162461bcd60e51b815260206004820181905260248201527f4f776e61626c653a2063616c6c6572206973206e6f7420746865206f776e6572604482015290519081900360640190fd5b6111ed8a6128bc565b6111f6896128bc565b6111ff886128bc565b611208876128bc565b611211866128bc565b61121a856128bc565b611223846128bc565b61122c836128bc565b611235826128bc565b61123e816128bc565b600480546001600160a01b03199081166001600160a01b038d81169182179093556000805483168d85161790556001805483168c85161790556005805483168b85161790556006805483168a8516179055600780548316898516179055600280548316888516179055600b80548316878516179055600a80548316868516179055600980548316938516938417905560088054909216909217905560408051918252517fd396f45b3a6c41f9744b157261875945681f8e23587ae1d7d34377aad3bb1623916020908290030190a1604080516001600160a01b038b16815290517f78f058b189175430c48dc02699e3a0031ea4ff781536dc2fab847de4babdd8829181900360200190a1604080516001600160a01b038a16815290517f5ee0cae2f063ed938bb55046f6a932fb6ae792bf43624806bb90abe68a50be9b9181900360200190a1604080516001600160a01b038916815290517f82966d27eea39b038ee0fa30cd16532bb24f6e65d31cb58fb227aa5766cdcc7f9181900360200190a1604080516001600160a01b038816815290517fcfb07d791fcafc032b35837b50eb84b74df518cf4cc287e8084f47630fa70fa09181900360200190a1604080516001600160a01b038716815290517fe67f36a6e961157d6eff83b91f3af5a62131ceb6f04954ef74f51c1c05e7f88d9181900360200190a1604080516001600160a01b038616815290517f8c537274438aa850a330284665d81a85dd38267d09e4050d416bfc94142db2649181900360200190a1604080516001600160a01b038516815290517fb92ab72da68990756a2b6a93fce7497a60e992b19dd9529f601a977e88117d3c9181900360200190a1604080516001600160a01b038416815290517f4e62a526dbb1c27a0df55dad97eaa57df1e3a95bb380a0bbe38dc5fbc07bb6699181900360200190a1604080516001600160a01b038316815290517fccecd30b0c29abaa3249dc3caf9304255028c2c8cd8fe0fc4213a5d028a1240f9181900360200190a161153061296b565b50505050505050505050565b6007546040805163b32beb5b60e01b815233600482015290516001600160a01b039092169163b32beb5b9160248082019260009290919082900301818387803b15801561158857600080fd5b505af1158015610b3a573d6000803e3d6000fd5b600b546001600160a01b031681565b670de0b6b3a764000081565b6002546001600160a01b031681565b6008546001600160a01b031681565b670f43fc2c04ee000081565b6000805460408051638f07158d60e01b8152905183926001600160a01b031691638f07158d916004808301926020929190829003018186803b15801561162657600080fd5b505afa15801561163a573d6000803e3d6000fd5b505050506040513d602081101561165057600080fd5b505160015460408051638f07158d60e01b815290519293506000926001600160a01b0390921691638f07158d91600480820192602092909190829003018186803b15801561169d57600080fd5b505afa1580156116b1573d6000803e3d6000fd5b505050506040513d60208110156116c757600080fd5b505190506116db828263ffffffff6125ac16565b9250505090565b6000546001600160a01b031681565b60008054604080516377a4b5b760e01b8152905183926001600160a01b0316916377a4b5b7916004808301926020929190829003018186803b15801561173657600080fd5b505afa15801561174a573d6000803e3d6000fd5b505050506040513d602081101561176057600080fd5b5051600154604080516377a4b5b760e01b815290519293506000926001600160a01b03909216916377a4b5b791600480820192602092909190829003018186803b15801561169d57600080fd5b6004546001600160a01b031681565b6003546001600160a01b031690565b6003546001600160a01b0316331490565b60405180604001604052806012815260200171426f72726f7765724f7065726174696f6e7360701b81525081565b680ad78ebc5ac620000081565b600a546001600160a01b031681565b6611c37937e0800081565b6005546001600160a01b0316331461187a5760405162461bcd60e51b81526004018080602001828103825260298152602001806135fa6029913960400191505060405180910390fd5b565b61188461321f565b50604080516060810182526004546001600160a01b03908116825260005481166020830152600a5416918101919091526118bc613284565b600260009054906101000a90046001600160a01b03166001600160a01b0316630fdb11cf6040518163ffffffff1660e01b8152600401602060405180830381600087803b15801561190c57600080fd5b505af1158015611920573d6000803e3d6000fd5b505050506040513d602081101561193657600080fd5b505180825260009061194790612258565b90508615611962576119598482612275565b611962886129b5565b61196b896129f4565b6119758989612a3a565b8251611981908b611e79565b336001600160a01b038b1614806119b757506005546001600160a01b0316331480156119ad5750600034115b80156119b7575087155b6119bd57fe5b82600001516001600160a01b0316630b0765578b6040518263ffffffff1660e01b815260040180826001600160a01b03166001600160a01b03168152602001915050600060405180830381600087803b158015611a1957600080fd5b505af1158015611a2d573d6000803e3d6000fd5b50505050611a3b348a612a8c565b15156060840152602083015260408201889052868015611a59575080155b15611a9457611a72836000015184604001518a876123fd565b61012083018190526040830151611a8e9163ffffffff6125ac16565b60408301525b82600001516001600160a01b031663c0af0d3b8b6040518263ffffffff1660e01b815260040180826001600160a01b03166001600160a01b0316815260200191505060206040518083038186803b158015611aee57600080fd5b505afa158015611b02573d6000803e3d6000fd5b505050506040513d6020811015611b1857600080fd5b505160808301528251604080516304c4cd0360e51b81526001600160a01b038d8116600483015291519190921691639899a060916024808301926020929190829003018186803b158015611b6b57600080fd5b505afa158015611b7f573d6000803e3d6000fd5b505050506040513d6020811015611b9557600080fd5b505160a0830181905260808301518351611bb092919061264e565b8260c0018181525050611be08260a0015183608001518460200151856060015186604001518c8860000151612aab565b60e083015260a0820151891115611bf357fe5b611bff818a8985612ade565b86158015611c0d5750600088115b15611c6057611c3b611c368360400151611c2a8560800151612b52565b9063ffffffff611f8616565b612606565b611c4d82608001518360400151612b6d565b611c6083604001518b8460400151611fcf565b611c7e83600001518b8460200151856060015186604001518c612bc4565b610140840152610160830152825160408051630c7940bd60e11b81526001600160a01b038d81166004830152915191909216916318f2817a9160248083019260209291908290030181600087803b158015611cd857600080fd5b505af1158015611cec573d6000803e3d6000fd5b505050506040513d6020811015611d0257600080fd5b505161018083015260a08201516080830151602084015160608501516040860151600094611d36949093909290918d612e24565b600b546040805163015f109360e51b81526001600160a01b038f81166004830152602482018590528b811660448301528a811660648301529151939450911691632be212609160848082019260009290919082900301818387803b158015611d9d57600080fd5b505af1158015611db1573d6000803e3d6000fd5b505050508a6001600160a01b0316600080516020613362833981519152846101400151856101600151866101800151600260405180858152602001848152602001838152602001826002811115611e0457fe5b60ff16815260200194505050505060405180910390a2610120830151604080519182525133917fe3f81eee9eb7b21bda5672f049187ddcd1833f6de3018f5ff2a716efba828df0919081900360200190a2610ab68460200151856040015133866020015187606001518e8e8a60400151612e55565b6000826001600160a01b031663180d97c1836040518263ffffffff1660e01b815260040180826001600160a01b03166001600160a01b0316815260200191505060206040518083038186803b158015611ed157600080fd5b505afa158015611ee5573d6000803e3d6000fd5b505050506040513d6020811015611efb57600080fd5b50519050600181146106b15760405162461bcd60e51b815260040180806020018281038252602e8152602001806133eb602e913960400191505060405180910390fd5b611f4781612258565b15611f835760405162461bcd60e51b81526004018080602001828103825260398152602001806133b26039913960400191505060405180910390fd5b50565b6000611fc883836040518060400160405280601e81526020017f536166654d6174683a207375627472616374696f6e206f766572666c6f770000815250612f10565b9392505050565b80836001600160a01b03166370a08231846040518263ffffffff1660e01b815260040180826001600160a01b03166001600160a01b0316815260200191505060206040518083038186803b15801561202657600080fd5b505afa15801561203a573d6000803e3d6000fd5b505050506040513d602081101561205057600080fd5b505110156106b15760405162461bcd60e51b815260040180806020018281038252603c815260200180613326603c913960400191505060405180910390fd5b60008061209a6116f1565b905060006120a66115e1565b9050866120c2576120bd828963ffffffff611f8616565b6120d2565b6120d2828963ffffffff6125ac16565b9150846120ee576120e9818763ffffffff611f8616565b6120fe565b6120fe818763ffffffff6125ac16565b9050600061210d83838761264e565b9998505050505050505050565b6714d1120d7b160000811015611f835760405162461bcd60e51b81526004018080602001828103825260498152602001806134b26049913960600191505060405180910390fd5b836001600160a01b031663d3ed5d19826040518263ffffffff1660e01b815260040180828152602001915050600060405180830381600087803b1580156121a757600080fd5b505af11580156121bb573d6000803e3d6000fd5b50505050826001600160a01b0316639dc29fac83836040518363ffffffff1660e01b815260040180836001600160a01b03166001600160a01b0316815260200182815260200192505050600060405180830381600087803b15801561221f57600080fd5b505af1158015612233573d6000803e3d6000fd5b5050505050505050565b6000610b0682680ad78ebc5ac620000063ffffffff6125ac16565b60008061226483612fa7565b6714d1120d7b160000119392505050565b80156122c757670de0b6b3a76400008211156122c25760405162461bcd60e51b81526004018080602001828103825260328152602001806134196032913960400191505060405180910390fd5b610b52565b6611c37937e0800082108015906122e65750670de0b6b3a76400008211155b610b525760405162461bcd60e51b81526004018080602001828103825260308152602001806136236030913960400191505060405180910390fd5b6000826001600160a01b031663180d97c1836040518263ffffffff1660e01b815260040180826001600160a01b03166001600160a01b0316815260200191505060206040518083038186803b15801561237957600080fd5b505afa15801561238d573d6000803e3d6000fd5b505050506040513d60208110156123a357600080fd5b5051905060018114156106b1576040805162461bcd60e51b815260206004820152601c60248201527f426f72726f7765724f70733a205661756c742069732061637469766500000000604482015290519081900360640190fd5b6000846001600160a01b0316635dba4c4a6040518163ffffffff1660e01b8152600401600060405180830381600087803b15801561243a57600080fd5b505af115801561244e573d6000803e3d6000fd5b505050506000856001600160a01b031663631203b0856040518263ffffffff1660e01b81526004018082815260200191505060206040518083038186803b15801561249857600080fd5b505afa1580156124ac573d6000803e3d6000fd5b505050506040513d60208110156124c257600080fd5b505190506124d1818585612fd3565b60085460408051625b388960e61b81526004810184905290516001600160a01b03909216916316ce22409160248082019260009290919082900301818387803b15801561251d57600080fd5b505af1158015612531573d6000803e3d6000fd5b5050600954604080516340c10f1960e01b81526001600160a01b03928316600482015260248101869052905191891693506340c10f19925060448082019260009290919082900301818387803b15801561258a57600080fd5b505af115801561259e573d6000803e3d6000fd5b509298975050505050505050565b600082820183811015611fc8576040805162461bcd60e51b815260206004820152601b60248201527f536166654d6174683a206164646974696f6e206f766572666c6f770000000000604482015290519081900360640190fd5b686194049f30f7200000811015611f835760405162461bcd60e51b815260040180806020018281038252603a8152602001806135c0603a913960400191505060405180910390fd5b600082156126815760006126788461266c878663ffffffff61304816565b9063ffffffff6130a116565b9150611fc89050565b506000199392505050565b600081156126b8576126b18261266c8568056bc75e2d6310000063ffffffff61304816565b9050610b06565b50600019610b06565b6714d1120d7b160000811015611f835760405162461bcd60e51b81526004018080602001828103825260378152602001806132ef6037913960400191505060405180910390fd5b670f43fc2c04ee0000811015611f835760405162461bcd60e51b81526004018080602001828103825260498152602001806135776049913960600191505060405180910390fd5b6040516000906001600160a01b0384169083908381818185875af1925050503d806000811461279a576040519150601f19603f3d011682016040523d82523d6000602084013e61279f565b606091505b50509050806106b15760405162461bcd60e51b815260040180806020018281038252602e8152602001806136cd602e913960400191505060405180910390fd5b846001600160a01b031663c9ceb951826040518263ffffffff1660e01b815260040180828152602001915050600060405180830381600087803b15801561282557600080fd5b505af1158015612839573d6000803e3d6000fd5b50505050836001600160a01b03166340c10f1984846040518363ffffffff1660e01b815260040180836001600160a01b03166001600160a01b0316815260200182815260200192505050600060405180830381600087803b15801561289d57600080fd5b505af11580156128b1573d6000803e3d6000fd5b505050505050505050565b6001600160a01b038116612917576040805162461bcd60e51b815260206004820152601e60248201527f4163636f756e742063616e6e6f74206265207a65726f20616464726573730000604482015290519081900360640190fd5b803b80610b52576040805162461bcd60e51b815260206004820181905260248201527f4163636f756e7420636f64652073697a652063616e6e6f74206265207a65726f604482015290519081900360640190fd5b6003546040516000916001600160a01b0316907f8be0079c531659141344cd1fd0a4f28419497f9722a3daafe3b4186f6b6457e0908390a3600380546001600160a01b0319169055565b60008111611f835760405162461bcd60e51b81526004018080602001828103825260378152602001806136966037913960400191505060405180910390fd5b3415806129ff575080155b611f835760405162461bcd60e51b81526004018080602001828103825260308152602001806133826030913960400191505060405180910390fd5b34151580612a4757508115155b80612a5157508015155b610b525760405162461bcd60e51b815260040180806020018281038252604681526020018061344b6046913960600191505060405180910390fd5b6000808315612aa057508290506001612aa4565b8291505b9250929050565b6000806000612abe8a8a8a8a8a8a6130e3565b915091506000612acf83838761264e565b9b9a5050505050505050505050565b8315612b1757612aed8361313e565b8115612b1257612b008160e001516126c1565b612b128160e001518260c0015161317b565b610b3a565b612b248160e00151612708565b612b4181602001518260600151836040015185856000015161208f565b6101008201819052610b3a9061211a565b6000610b0682680ad78ebc5ac620000063ffffffff611f8616565b612b8682680ad78ebc5ac620000063ffffffff611f8616565b811115610b525760405162461bcd60e51b81526004018080602001828103825260438152602001806136536043913960600191505060405180910390fd5b600080600085612c5f57886001600160a01b03166380b0cc2b89896040518363ffffffff1660e01b815260040180836001600160a01b03166001600160a01b0316815260200182815260200192505050602060405180830381600087803b158015612c2e57600080fd5b505af1158015612c42573d6000803e3d6000fd5b505050506040513d6020811015612c5857600080fd5b5051612cec565b886001600160a01b031663320b246989896040518363ffffffff1660e01b815260040180836001600160a01b03166001600160a01b0316815260200182815260200192505050602060405180830381600087803b158015612cbf57600080fd5b505af1158015612cd3573d6000803e3d6000fd5b505050506040513d6020811015612ce957600080fd5b50515b9050600084612d8657896001600160a01b031663cdd9f96a8a886040518363ffffffff1660e01b815260040180836001600160a01b03166001600160a01b0316815260200182815260200192505050602060405180830381600087803b158015612d5557600080fd5b505af1158015612d69573d6000803e3d6000fd5b505050506040513d6020811015612d7f57600080fd5b5051612e13565b896001600160a01b031663cb5a79cc8a886040518363ffffffff1660e01b815260040180836001600160a01b03166001600160a01b0316815260200182815260200192505050602060405180830381600087803b158015612de657600080fd5b505af1158015612dfa573d6000803e3d6000fd5b505050506040513d6020811015612e1057600080fd5b50515b919a91995090975050505050505050565b6000806000612e378989898989896130e3565b915091506000612e47838361268c565b9a9950505050505050505050565b8115612e6d57612e6888888886856127df565b612e79565b612e7988888886612161565b8315612e8e57612e89888661274f565b612233565b876001600160a01b0316633efe643b87876040518363ffffffff1660e01b815260040180836001600160a01b03166001600160a01b0316815260200182815260200192505050600060405180830381600087803b158015612eee57600080fd5b505af1158015612f02573d6000803e3d6000fd5b505050505050505050505050565b60008184841115612f9f5760405162461bcd60e51b81526004018080602001828103825283818151815260200191508051906020019080838360005b83811015612f64578181015183820152602001612f4c565b50505050905090810190601f168015612f915780820380516001836020036101000a031916815260200191505b509250505060405180910390fd5b505050900390565b600080612fb26116f1565b90506000612fbe6115e1565b9050612fcb82828661264e565b949350505050565b6000612ff18361266c86670de0b6b3a764000063ffffffff61304816565b905081811115610b3a576040805162461bcd60e51b815260206004820152601d60248201527f4665652065786365656465642070726f7669646564206d6178696d756d000000604482015290519081900360640190fd5b60008261305757506000610b06565b8282028284828161306457fe5b0414611fc85760405162461bcd60e51b81526004018080602001828103825260218152602001806134916021913960400191505060405180910390fd5b6000611fc883836040518060400160405280601a81526020017f536166654d6174683a206469766973696f6e206279207a65726f0000000000008152506131ba565b600080878786613102576130fd8a8963ffffffff611f8616565b613112565b6131128a8963ffffffff6125ac16565b91508461312e57613129898763ffffffff611f8616565b612e13565b612e13898763ffffffff6125ac16565b8015611f835760405162461bcd60e51b815260040180806020018281038252603e815260200180613539603e913960400191505060405180910390fd5b80821015610b525760405162461bcd60e51b815260040180806020018281038252603e8152602001806134fb603e913960400191505060405180910390fd5b600081836132095760405162461bcd60e51b8152602060048201818152835160248401528351909283926044909101919085019080838360008315612f64578181015183820152602001612f4c565b50600083858161321557fe5b0495945050505050565b604080516060810182526000808252602082018190529181019190915290565b60405180610100016040528060008152602001600081526020016000815260200160008152602001600081526020016000815260200160008152602001600081525090565b604051806101a00160405280600081526020016000815260200160008152602001600015158152602001600081526020016000815260200160008152602001600081526020016000815260200160008152602001600081526020016000815260200160008152509056fe426f72726f7765724f70733a204f7065726174696f6e206d757374206c65617665207661756c74207769746820494352203e3d20434352426f72726f7765724f70733a2043616c6c657220646f65736e74206861766520656e6f7567682042504420746f206d616b652072657061796d656e741682adcf84a5197a236a80c9ffe2e7233619140acb7839754c27cdc21799192c426f72726f7765724f7065726174696f6e733a2043616e6e6f7420776974686472617720616e642061646420636f6c6c426f72726f7765724f70733a204f7065726174696f6e206e6f74207065726d697474656420647572696e67205265636f76657279204d6f6465426f72726f7765724f70733a205661756c7420646f6573206e6f74206578697374206f7220697320636c6f7365644d6178206665652070657263656e74616765206d757374206c657373207468616e206f7220657175616c20746f2031303025426f72726f7765724f70733a205468657265206d75737420626520656974686572206120636f6c6c61746572616c206368616e6765206f7220612064656274206368616e6765536166654d6174683a206d756c7469706c69636174696f6e206f766572666c6f77426f72726f7765724f70733a20416e206f7065726174696f6e207468617420776f756c6420726573756c7420696e20544352203c20434352206973206e6f74207065726d6974746564426f72726f7765724f70733a2043616e6e6f7420646563726561736520796f7572205661756c7427732049435220696e205265636f76657279204d6f6465426f72726f7765724f70733a20436f6c6c61746572616c207769746864726177616c206e6f74207065726d6974746564205265636f76657279204d6f6465426f72726f7765724f70733a20416e206f7065726174696f6e207468617420776f756c6420726573756c7420696e20494352203c204d4352206973206e6f74207065726d6974746564426f72726f7765724f70733a205661756c742773206e65742064656274206d7573742062652067726561746572207468616e206d696e696d756d426f72726f7765724f70733a2043616c6c6572206973206e6f742053746162696c69747920506f6f6c4d6178206665652070657263656e74616765206d757374206265206265747765656e20302e352520616e642031303025426f72726f7765724f70733a20416d6f756e7420726570616964206d757374206e6f74206265206c6172676572207468616e20746865205661756c7427732064656274426f72726f7765724f70733a204465627420696e637265617365207265717569726573206e6f6e2d7a65726f20646562744368616e6765426f72726f7765724f70733a2053656e64696e67205242544320746f20416374697665506f6f6c206661696c6564a26469706673582212208b9a31873b7ceaecbc351907070d4d3be0e318061db3e6adc30c74d37aed8cea64736f6c634300060b0033",
  "linkReferences": {},
  "deployedLinkReferences": {}
}