{
  "_format": "hh-sol-artifact-1",
  "contractName": "BorrowerWrappersScript",
  "sourceName": "contracts/Proxy/BorrowerWrappersScript.sol",
  "abi": [
    {
      "inputs": [
        {
          "internalType": "address",
          "name": "_borrowerOperationsAddress",
          "type": "address"
        },
        {
          "internalType": "address",
          "name": "_vaultManagerAddress",
          "type": "address"
        },
        {
          "internalType": "address",
          "name": "_mpStakingAddress",
          "type": "address"
        }
      ],
      "stateMutability": "nonpayable",
      "type": "constructor"
    },
    {
      "inputs": [],
      "name": "NAME",
      "outputs": [
        {
          "internalType": "string",
          "name": "",
          "type": "string"
        }
      ],
      "stateMutability": "view",
      "type": "function"
    },
    {
      "inputs": [
        {
          "internalType": "address",
          "name": "_upperHint",
          "type": "address"
        },
        {
          "internalType": "address",
          "name": "_lowerHint",
          "type": "address"
        }
      ],
      "name": "addColl",
      "outputs": [],
      "stateMutability": "payable",
      "type": "function"
    },
    {
      "inputs": [
        {
          "internalType": "uint256",
          "name": "_maxFee",
          "type": "uint256"
        },
        {
          "internalType": "uint256",
          "name": "_collWithdrawal",
          "type": "uint256"
        },
        {
          "internalType": "uint256",
          "name": "_debtChange",
          "type": "uint256"
        },
        {
          "internalType": "bool",
          "name": "isDebtIncrease",
          "type": "bool"
        },
        {
          "internalType": "address",
          "name": "_upperHint",
          "type": "address"
        },
        {
          "internalType": "address",
          "name": "_lowerHint",
          "type": "address"
        }
      ],
      "name": "adjustVault",
      "outputs": [],
      "stateMutability": "payable",
      "type": "function"
    },
    {
      "inputs": [],
      "name": "claimCollateral",
      "outputs": [],
      "stateMutability": "nonpayable",
      "type": "function"
    },
    {
      "inputs": [
        {
          "internalType": "uint256",
          "name": "_maxFee",
          "type": "uint256"
        },
        {
          "internalType": "uint256",
          "name": "_BPDAmount",
          "type": "uint256"
        },
        {
          "internalType": "address",
          "name": "_upperHint",
          "type": "address"
        },
        {
          "internalType": "address",
          "name": "_lowerHint",
          "type": "address"
        }
      ],
      "name": "claimCollateralAndOpenVault",
      "outputs": [],
      "stateMutability": "payable",
      "type": "function"
    },
    {
      "inputs": [
        {
          "internalType": "uint256",
          "name": "_maxFee",
          "type": "uint256"
        },
        {
          "internalType": "address",
          "name": "_upperHint",
          "type": "address"
        },
        {
          "internalType": "address",
          "name": "_lowerHint",
          "type": "address"
        }
      ],
      "name": "claimSPRewardsAndRecycle",
      "outputs": [],
      "stateMutability": "nonpayable",
      "type": "function"
    },
    {
      "inputs": [
        {
          "internalType": "uint256",
          "name": "_maxFee",
          "type": "uint256"
        },
        {
          "internalType": "address",
          "name": "_upperHint",
          "type": "address"
        },
        {
          "internalType": "address",
          "name": "_lowerHint",
          "type": "address"
        }
      ],
      "name": "claimStakingGainsAndRecycle",
      "outputs": [],
      "stateMutability": "nonpayable",
      "type": "function"
    },
    {
      "inputs": [],
      "name": "closeVault",
      "outputs": [],
      "stateMutability": "nonpayable",
      "type": "function"
    },
    {
      "inputs": [
        {
          "internalType": "uint256",
          "name": "_maxFee",
          "type": "uint256"
        },
        {
          "internalType": "uint256",
          "name": "_BPDAmount",
          "type": "uint256"
        },
        {
          "internalType": "address",
          "name": "_upperHint",
          "type": "address"
        },
        {
          "internalType": "address",
          "name": "_lowerHint",
          "type": "address"
        }
      ],
      "name": "openVault",
      "outputs": [],
      "stateMutability": "payable",
      "type": "function"
    },
    {
      "inputs": [
        {
          "internalType": "uint256",
          "name": "_amount",
          "type": "uint256"
        },
        {
          "internalType": "address",
          "name": "_upperHint",
          "type": "address"
        },
        {
          "internalType": "address",
          "name": "_lowerHint",
          "type": "address"
        }
      ],
      "name": "repayBPD",
      "outputs": [],
      "stateMutability": "nonpayable",
      "type": "function"
    },
    {
      "inputs": [
        {
          "internalType": "uint256",
          "name": "_MPamount",
          "type": "uint256"
        }
      ],
      "name": "stake",
      "outputs": [],
      "stateMutability": "nonpayable",
      "type": "function"
    },
    {
      "inputs": [
        {
          "internalType": "address",
          "name": "_recipient",
          "type": "address"
        },
        {
          "internalType": "uint256",
          "name": "_amount",
          "type": "uint256"
        }
      ],
      "name": "transferRBTC",
      "outputs": [
        {
          "internalType": "bool",
          "name": "",
          "type": "bool"
        }
      ],
      "stateMutability": "nonpayable",
      "type": "function"
    },
    {
      "inputs": [
        {
          "internalType": "uint256",
          "name": "_maxFee",
          "type": "uint256"
        },
        {
          "internalType": "uint256",
          "name": "_amount",
          "type": "uint256"
        },
        {
          "internalType": "address",
          "name": "_upperHint",
          "type": "address"
        },
        {
          "internalType": "address",
          "name": "_lowerHint",
          "type": "address"
        }
      ],
      "name": "withdrawBPD",
      "outputs": [],
      "stateMutability": "nonpayable",
      "type": "function"
    },
    {
      "inputs": [
        {
          "internalType": "uint256",
          "name": "_amount",
          "type": "uint256"
        },
        {
          "internalType": "address",
          "name": "_upperHint",
          "type": "address"
        },
        {
          "internalType": "address",
          "name": "_lowerHint",
          "type": "address"
        }
      ],
      "name": "withdrawColl",
      "outputs": [],
      "stateMutability": "nonpayable",
      "type": "function"
    }
  ],
  "bytecode": "0x6101806040523480156200001257600080fd5b5060405162001f2438038062001f24833981810160405260608110156200003857600080fd5b508051602082015160409092015190919080836200005f816001600160e01b036200040616565b60601b6001600160601b0319166080526200007a8162000406565b60601b6001600160601b03191660a052620000958262000406565b6000829050806001600160a01b031660c0816001600160a01b031660601b815250506000816001600160a01b031663048c661d6040518163ffffffff1660e01b815260040160206040518083038186803b158015620000f357600080fd5b505afa15801562000108573d6000803e3d6000fd5b505050506040513d60208110156200011f57600080fd5b5051905062000137816001600160e01b036200040616565b806001600160a01b031660e0816001600160a01b031660601b815250506000826001600160a01b031663741bef1a6040518163ffffffff1660e01b815260040160206040518083038186803b1580156200019057600080fd5b505afa158015620001a5573d6000803e3d6000fd5b505050506040513d6020811015620001bc57600080fd5b50519050620001d4816001600160e01b036200040616565b806001600160a01b0316610100816001600160a01b031660601b815250506000836001600160a01b031663dd5904966040518163ffffffff1660e01b815260040160206040518083038186803b1580156200022e57600080fd5b505afa15801562000243573d6000803e3d6000fd5b505050506040513d60208110156200025a57600080fd5b5051905062000272816001600160e01b036200040616565b806001600160a01b0316610120816001600160a01b031660601b815250506000846001600160a01b0316635b2048fe6040518163ffffffff1660e01b815260040160206040518083038186803b158015620002cc57600080fd5b505afa158015620002e1573d6000803e3d6000fd5b505050506040513d6020811015620002f857600080fd5b5051905062000310816001600160e01b036200040616565b806001600160a01b0316610140816001600160a01b031660601b815250506000856001600160a01b03166375b30b3a6040518163ffffffff1660e01b815260040160206040518083038186803b1580156200036a57600080fd5b505afa1580156200037f573d6000803e3d6000fd5b505050506040513d60208110156200039657600080fd5b505190506001600160a01b0387811690821614620003e65760405162461bcd60e51b815260040180806020018281038252602f81526020018062001ef5602f913960400191505060405180910390fd5b60601b6001600160601b0319166101605250620004bb9650505050505050565b6001600160a01b03811662000462576040805162461bcd60e51b815260206004820152601e60248201527f4163636f756e742063616e6e6f74206265207a65726f20616464726573730000604482015290519081900360640190fd5b803b80620004b7576040805162461bcd60e51b815260206004820181905260248201527f4163636f756e7420636f64652073697a652063616e6e6f74206265207a65726f604482015290519081900360640190fd5b5050565b60805160601c60a05160601c60c05160601c60e05160601c6101005160601c6101205160601c6101405160601c6101605160601c61195b6200059a600039806109985280610e8e52806111d1525080610684528061079e5280610df6528061113f525080610d5e5280610f0a5250806114cd52508061071c528061091e52806110c25250806113e7528061157f528061161b525080610c5b52508061045552806104be52806105785280610615528061088b5280610a585280610aea5280610b6d5280610bce528061101d5280611264528061133d525061195b6000f3fe6080604052600436106100bd5760003560e01c80636bf70e331161006f5780636bf70e33146102595780636f0b0c1c14610293578063a3f4df7e146102a8578063a694fc3a14610332578063af43e53d1461035c578063d08eb01b146103a9578063e36a9591146103ea576100bd565b806311b0bd61146100c257806318976fa21461010557806339269dc71461011a5780635530273c1461016257806358c9d977146101a35780636307a104146101e457806368647db11461022b575b600080fd5b3480156100ce57600080fd5b50610103600480360360608110156100e557600080fd5b508035906001600160a01b0360208201358116916040013516610424565b005b34801561011157600080fd5b506101036104bc565b610103600480360360c081101561013057600080fd5b5080359060208101359060408101359060608101351515906001600160a01b03608082013581169160a0013516610531565b34801561016e57600080fd5b506101036004803603606081101561018557600080fd5b508035906001600160a01b03602082013581169160400135166105e4565b3480156101af57600080fd5b50610103600480360360608110156101c657600080fd5b508035906001600160a01b036020820135811691604001351661065f565b3480156101f057600080fd5b506101036004803603608081101561020757600080fd5b508035906020810135906001600160a01b0360408201358116916060013516610a20565b6101036004803603604081101561024157600080fd5b506001600160a01b0381358116916020013516610ac0565b6101036004803603608081101561026f57600080fd5b508035906020810135906001600160a01b0360408201358116916060013516610b35565b34801561029f57600080fd5b50610103610bcc565b3480156102b457600080fd5b506102bd610c27565b6040805160208082528351818301528351919283929083019185019080838360005b838110156102f75781810151838201526020016102df565b50505050905090810190601f1680156103245780820380516001836020036101000a031916815260200191505b509250505060405180910390f35b34801561033e57600080fd5b506101036004803603602081101561035557600080fd5b5035610c59565b34801561036857600080fd5b506103956004803603604081101561037f57600080fd5b506001600160a01b038135169060200135610cda565b604080519115158252519081900360200190f35b3480156103b557600080fd5b50610103600480360360608110156103cc57600080fd5b508035906001600160a01b0360208201358116916040013516610d39565b6101036004803603608081101561040057600080fd5b508035906020810135906001600160a01b036040820135811691606001351661125d565b604080516311b0bd6160e01b8152600481018590526001600160a01b038481166024830152838116604483015291517f0000000000000000000000000000000000000000000000000000000000000000909216916311b0bd619160648082019260009290919082900301818387803b15801561049f57600080fd5b505af11580156104b3573d6000803e3d6000fd5b50505050505050565b7f00000000000000000000000000000000000000000000000000000000000000006001600160a01b03166318976fa26040518163ffffffff1660e01b8152600401600060405180830381600087803b15801561051757600080fd5b505af115801561052b573d6000803e3d6000fd5b50505050565b604080516339269dc760e01b815260048101889052602481018790526044810186905284151560648201526001600160a01b03848116608483015283811660a483015291517f0000000000000000000000000000000000000000000000000000000000000000909216916339269dc791349160c480830192600092919082900301818588803b1580156105c357600080fd5b505af11580156105d7573d6000803e3d6000fd5b5050505050505050505050565b6040805163154c09cf60e21b8152600481018590526001600160a01b038481166024830152838116604483015291517f000000000000000000000000000000000000000000000000000000000000000090921691635530273c9160648082019260009290919082900301818387803b15801561049f57600080fd5b604080516370a0823160e01b8152306004820152905147916000916001600160a01b037f000000000000000000000000000000000000000000000000000000000000000016916370a08231916024808301926020929190829003018186803b1580156106ca57600080fd5b505afa1580156106de573d6000803e3d6000fd5b505050506040513d60208110156106f457600080fd5b505160408051632e54bf9560e01b815260006004820181905291519293506001600160a01b037f00000000000000000000000000000000000000000000000000000000000000001692632e54bf959260248084019391929182900301818387803b15801561076157600080fd5b505af1158015610775573d6000803e3d6000fd5b5050604080516370a0823160e01b81523060048201529051479350600092506001600160a01b037f000000000000000000000000000000000000000000000000000000000000000016916370a08231916024808301926020929190829003018186803b1580156107e457600080fd5b505afa1580156107f8573d6000803e3d6000fd5b505050506040513d602081101561080e57600080fd5b505190506000610824838663ffffffff61139c16565b9050801561097c57610835306113e5565b6000610840826114c8565b604080516339269dc760e01b8152600481018c905260006024820181905260448201849052600160648301526001600160a01b038c811660848401528b811660a484015292519394507f0000000000000000000000000000000000000000000000000000000000000000909216926339269dc792869260c4808201939182900301818588803b1580156108d257600080fd5b505af11580156108e6573d6000803e3d6000fd5b5050505050600081111561097a5760408051635f788d6560e01b81526004810183905260006024820181905291516001600160a01b037f00000000000000000000000000000000000000000000000000000000000000001692635f788d65926044808201939182900301818387803b15801561096157600080fd5b505af1158015610975573d6000803e3d6000fd5b505050505b505b600061098e838663ffffffff61139c16565b90508015610a15577f00000000000000000000000000000000000000000000000000000000000000006001600160a01b031663a694fc3a826040518263ffffffff1660e01b815260040180828152602001915050600060405180830381600087803b1580156109fc57600080fd5b505af1158015610a10573d6000803e3d6000fd5b505050505b505050505050505050565b604080516318c1e84160e21b815260048101869052602481018590526001600160a01b038481166044830152838116606483015291517f000000000000000000000000000000000000000000000000000000000000000090921691636307a1049160848082019260009290919082900301818387803b158015610aa257600080fd5b505af1158015610ab6573d6000803e3d6000fd5b5050505050505050565b604080516368647db160e01b81526001600160a01b038481166004830152838116602483015291517f0000000000000000000000000000000000000000000000000000000000000000909216916368647db1913491604480830192600092919082900301818588803b15801561049f57600080fd5b60408051636bf70e3360e01b815260048101869052602481018590526001600160a01b038481166044830152838116606483015291517f000000000000000000000000000000000000000000000000000000000000000090921691636bf70e33913491608480830192600092919082900301818588803b158015610bb857600080fd5b505af1158015610a15573d6000803e3d6000fd5b7f00000000000000000000000000000000000000000000000000000000000000006001600160a01b0316636f0b0c1c6040518163ffffffff1660e01b8152600401600060405180830381600087803b15801561051757600080fd5b60405180604001604052806016815260200175109bdc9c9bddd95c95dc985c1c195c9cd4d8dc9a5c1d60521b81525081565b7f00000000000000000000000000000000000000000000000000000000000000006001600160a01b031663a694fc3a826040518263ffffffff1660e01b815260040180828152602001915050600060405180830381600087803b158015610cbf57600080fd5b505af1158015610cd3573d6000803e3d6000fd5b5050505050565b60405160009081906001600160a01b0385169084908381818185875af1925050503d8060008114610d27576040519150601f19603f3d011682016040523d82523d6000602084013e610d2c565b606091505b5090925050505b92915050565b604080516370a0823160e01b8152306004820152905147916000916001600160a01b037f000000000000000000000000000000000000000000000000000000000000000016916370a08231916024808301926020929190829003018186803b158015610da457600080fd5b505afa158015610db8573d6000803e3d6000fd5b505050506040513d6020811015610dce57600080fd5b5051604080516370a0823160e01b815230600482015290519192506000916001600160a01b037f000000000000000000000000000000000000000000000000000000000000000016916370a08231916024808301926020929190829003018186803b158015610e3c57600080fd5b505afa158015610e50573d6000803e3d6000fd5b505050506040513d6020811015610e6657600080fd5b5051604080516305c2fbcf60e31b815260006004820181905291519293506001600160a01b037f00000000000000000000000000000000000000000000000000000000000000001692632e17de789260248084019391929182900301818387803b158015610ed357600080fd5b505af1158015610ee7573d6000803e3d6000fd5b505050506000610f00844761139c90919063ffffffff16565b90506000610fb6847f00000000000000000000000000000000000000000000000000000000000000006001600160a01b03166370a08231306040518263ffffffff1660e01b815260040180826001600160a01b03166001600160a01b0316815260200191505060206040518083038186803b158015610f7e57600080fd5b505afa158015610f92573d6000803e3d6000fd5b505050506040513d6020811015610fa857600080fd5b50519063ffffffff61139c16565b90506000821561107e57610fc9306113e5565b610fd2836114c8565b604080516339269dc760e01b8152600481018c905260006024820181905260448201849052600160648301526001600160a01b038c811660848401528b811660a484015292519394507f0000000000000000000000000000000000000000000000000000000000000000909216926339269dc792879260c4808201939182900301818588803b15801561106457600080fd5b505af1158015611078573d6000803e3d6000fd5b50505050505b6000611090838363ffffffff6116e016565b905080156112515760408051635f788d6560e01b81526004810183905260006024820181905291516001600160a01b037f00000000000000000000000000000000000000000000000000000000000000001692635f788d65926044808201939182900301818387803b15801561110557600080fd5b505af1158015611119573d6000803e3d6000fd5b5050604080516370a0823160e01b81523060048201529051600093506001600160a01b037f00000000000000000000000000000000000000000000000000000000000000001692506370a0823191602480820192602092909190829003018186803b15801561118757600080fd5b505afa15801561119b573d6000803e3d6000fd5b505050506040513d60208110156111b157600080fd5b5051905060006111c7828863ffffffff61139c16565b9050801561124e577f00000000000000000000000000000000000000000000000000000000000000006001600160a01b031663a694fc3a826040518263ffffffff1660e01b815260040180828152602001915050600060405180830381600087803b15801561123557600080fd5b505af1158015611249573d6000803e3d6000fd5b505050505b50505b50505050505050505050565b60004790507f00000000000000000000000000000000000000000000000000000000000000006001600160a01b0316636f0b0c1c6040518163ffffffff1660e01b8152600401600060405180830381600087803b1580156112bd57600080fd5b505af11580156112d1573d6000803e3d6000fd5b5047925050508181116112e057fe5b6000611302346112f6848663ffffffff61139c16565b9063ffffffff6116e016565b60408051636bf70e3360e01b8152600481018a9052602481018990526001600160a01b038881166044830152878116606483015291519293507f000000000000000000000000000000000000000000000000000000000000000090911691636bf70e33918491608480830192600092919082900301818588803b15801561138857600080fd5b505af115801561124e573d6000803e3d6000fd5b60006113de83836040518060400160405280601e81526020017f536166654d6174683a207375627472616374696f6e206f766572666c6f77000081525061173a565b9392505050565b7f00000000000000000000000000000000000000000000000000000000000000006001600160a01b031663180d97c1826040518263ffffffff1660e01b815260040180826001600160a01b03166001600160a01b0316815260200191505060206040518083038186803b15801561145b57600080fd5b505afa15801561146f573d6000803e3d6000fd5b505050506040513d602081101561148557600080fd5b50516001146114c55760405162461bcd60e51b81526004018080602001828103825260388152602001806118ee6038913960400191505060405180910390fd5b50565b6000807f00000000000000000000000000000000000000000000000000000000000000006001600160a01b0316630fdb11cf6040518163ffffffff1660e01b8152600401602060405180830381600087803b15801561152657600080fd5b505af115801561153a573d6000803e3d6000fd5b505050506040513d602081101561155057600080fd5b505160408051630d293c7160e41b81523060048201526024810183905290519192506000916001600160a01b037f0000000000000000000000000000000000000000000000000000000000000000169163d293c710916044808301926020929190829003018186803b1580156115c557600080fd5b505afa1580156115d9573d6000803e3d6000fd5b505050506040513d60208110156115ef57600080fd5b50519050600061161582611609878663ffffffff6117d116565b9063ffffffff61182a16565b905060007f00000000000000000000000000000000000000000000000000000000000000006001600160a01b03166366ca4a216040518163ffffffff1660e01b815260040160206040518083038186803b15801561167257600080fd5b505afa158015611686573d6000803e3d6000fd5b505050506040513d602081101561169c57600080fd5b5051905060006116d56116bd670de0b6b3a76400008463ffffffff6116e016565b61160985670de0b6b3a764000063ffffffff6117d116565b979650505050505050565b6000828201838110156113de576040805162461bcd60e51b815260206004820152601b60248201527f536166654d6174683a206164646974696f6e206f766572666c6f770000000000604482015290519081900360640190fd5b600081848411156117c95760405162461bcd60e51b81526004018080602001828103825283818151815260200191508051906020019080838360005b8381101561178e578181015183820152602001611776565b50505050905090810190601f1680156117bb5780820380516001836020036101000a031916815260200191505b509250505060405180910390fd5b505050900390565b6000826117e057506000610d33565b828202828482816117ed57fe5b04146113de5760405162461bcd60e51b81526004018080602001828103825260218152602001806118cd6021913960400191505060405180910390fd5b60006113de83836040518060400160405280601a81526020017f536166654d6174683a206469766973696f6e206279207a65726f000000000000815250600081836118b65760405162461bcd60e51b815260206004820181815283516024840152835190928392604490910191908501908083836000831561178e578181015183820152602001611776565b5060008385816118c257fe5b049594505050505056fe536166654d6174683a206d756c7469706c69636174696f6e206f766572666c6f77426f72726f77657257726170706572735363726970743a2063616c6c6572206d757374206861766520616e20616374697665207661756c74a26469706673582212208aa3ab09dc4b032852ec3c1a8ec8e55c15f3e8fe0fa86625ef1fea4ff4df42fb64736f6c634300060b0033426f72726f77657257726170706572735363726970743a2057726f6e67204d505374616b696e672061646472657373",
  "linkReferences": {},
  "deployedLinkReferences": {}
}