{
  "_format": "hh-sol-artifact-1",
  "contractName": "BPDTokenTester",
  "sourceName": "contracts/TestContracts/BPDTokenTester.sol",
  "abi": [
    {
      "inputs": [
        {
          "internalType": "address",
          "name": "_vaultManagerAddress",
          "type": "address"
        },
        {
          "internalType": "address",
          "name": "_stabilityPoolAddress",
          "type": "address"
        },
        {
          "internalType": "address",
          "name": "_borrowerOperationsAddress",
          "type": "address"
        }
      ],
      "stateMutability": "nonpayable",
      "type": "constructor"
    },
    {
      "anonymous": false,
      "inputs": [
        {
          "indexed": true,
          "internalType": "address",
          "name": "owner",
          "type": "address"
        },
        {
          "indexed": true,
          "internalType": "address",
          "name": "spender",
          "type": "address"
        },
        {
          "indexed": false,
          "internalType": "uint256",
          "name": "value",
          "type": "uint256"
        }
      ],
      "name": "Approval",
      "type": "event"
    },
    {
      "anonymous": false,
      "inputs": [
        {
          "indexed": false,
          "internalType": "address",
          "name": "_user",
          "type": "address"
        },
        {
          "indexed": false,
          "internalType": "uint256",
          "name": "_amount",
          "type": "uint256"
        }
      ],
      "name": "BPDTokenBalanceUpdated",
      "type": "event"
    },
    {
      "anonymous": false,
      "inputs": [
        {
          "indexed": false,
          "internalType": "address",
          "name": "_newBorrowerOperationsAddress",
          "type": "address"
        }
      ],
      "name": "BorrowerOperationsAddressChanged",
      "type": "event"
    },
    {
      "anonymous": false,
      "inputs": [
        {
          "indexed": false,
          "internalType": "address",
          "name": "_newStabilityPoolAddress",
          "type": "address"
        }
      ],
      "name": "StabilityPoolAddressChanged",
      "type": "event"
    },
    {
      "anonymous": false,
      "inputs": [
        {
          "indexed": true,
          "internalType": "address",
          "name": "from",
          "type": "address"
        },
        {
          "indexed": true,
          "internalType": "address",
          "name": "to",
          "type": "address"
        },
        {
          "indexed": false,
          "internalType": "uint256",
          "name": "value",
          "type": "uint256"
        }
      ],
      "name": "Transfer",
      "type": "event"
    },
    {
      "anonymous": false,
      "inputs": [
        {
          "indexed": false,
          "internalType": "address",
          "name": "_vaultManagerAddress",
          "type": "address"
        }
      ],
      "name": "VaultManagerAddressChanged",
      "type": "event"
    },
    {
      "inputs": [
        {
          "internalType": "address",
          "name": "owner",
          "type": "address"
        },
        {
          "internalType": "address",
          "name": "spender",
          "type": "address"
        }
      ],
      "name": "allowance",
      "outputs": [
        {
          "internalType": "uint256",
          "name": "",
          "type": "uint256"
        }
      ],
      "stateMutability": "view",
      "type": "function"
    },
    {
      "inputs": [
        {
          "internalType": "address",
          "name": "spender",
          "type": "address"
        },
        {
          "internalType": "uint256",
          "name": "amount",
          "type": "uint256"
        }
      ],
      "name": "approve",
      "outputs": [
        {
          "internalType": "bool",
          "name": "",
          "type": "bool"
        }
      ],
      "stateMutability": "nonpayable",
      "type": "function"
    },
    {
      "inputs": [
        {
          "internalType": "address",
          "name": "account",
          "type": "address"
        }
      ],
      "name": "balanceOf",
      "outputs": [
        {
          "internalType": "uint256",
          "name": "",
          "type": "uint256"
        }
      ],
      "stateMutability": "view",
      "type": "function"
    },
    {
      "inputs": [],
      "name": "borrowerOperationsAddress",
      "outputs": [
        {
          "internalType": "address",
          "name": "",
          "type": "address"
        }
      ],
      "stateMutability": "view",
      "type": "function"
    },
    {
      "inputs": [
        {
          "internalType": "address",
          "name": "_account",
          "type": "address"
        },
        {
          "internalType": "uint256",
          "name": "_amount",
          "type": "uint256"
        }
      ],
      "name": "burn",
      "outputs": [],
      "stateMutability": "nonpayable",
      "type": "function"
    },
    {
      "inputs": [
        {
          "internalType": "address",
          "name": "owner",
          "type": "address"
        },
        {
          "internalType": "address",
          "name": "spender",
          "type": "address"
        },
        {
          "internalType": "uint256",
          "name": "amount",
          "type": "uint256"
        }
      ],
      "name": "callInternalApprove",
      "outputs": [
        {
          "internalType": "bool",
          "name": "",
          "type": "bool"
        }
      ],
      "stateMutability": "nonpayable",
      "type": "function"
    },
    {
      "inputs": [],
      "name": "decimals",
      "outputs": [
        {
          "internalType": "uint8",
          "name": "",
          "type": "uint8"
        }
      ],
      "stateMutability": "view",
      "type": "function"
    },
    {
      "inputs": [
        {
          "internalType": "address",
          "name": "spender",
          "type": "address"
        },
        {
          "internalType": "uint256",
          "name": "subtractedValue",
          "type": "uint256"
        }
      ],
      "name": "decreaseAllowance",
      "outputs": [
        {
          "internalType": "bool",
          "name": "",
          "type": "bool"
        }
      ],
      "stateMutability": "nonpayable",
      "type": "function"
    },
    {
      "inputs": [],
      "name": "domainSeparator",
      "outputs": [
        {
          "internalType": "bytes32",
          "name": "",
          "type": "bytes32"
        }
      ],
      "stateMutability": "view",
      "type": "function"
    },
    {
      "inputs": [],
      "name": "getChainId",
      "outputs": [
        {
          "internalType": "uint256",
          "name": "chainID",
          "type": "uint256"
        }
      ],
      "stateMutability": "pure",
      "type": "function"
    },
    {
      "inputs": [
        {
          "internalType": "address",
          "name": "owner",
          "type": "address"
        },
        {
          "internalType": "address",
          "name": "spender",
          "type": "address"
        },
        {
          "internalType": "uint256",
          "name": "amount",
          "type": "uint256"
        },
        {
          "internalType": "uint256",
          "name": "nonce",
          "type": "uint256"
        },
        {
          "internalType": "uint256",
          "name": "deadline",
          "type": "uint256"
        }
      ],
      "name": "getDigest",
      "outputs": [
        {
          "internalType": "bytes32",
          "name": "",
          "type": "bytes32"
        }
      ],
      "stateMutability": "view",
      "type": "function"
    },
    {
      "inputs": [
        {
          "internalType": "address",
          "name": "spender",
          "type": "address"
        },
        {
          "internalType": "uint256",
          "name": "addedValue",
          "type": "uint256"
        }
      ],
      "name": "increaseAllowance",
      "outputs": [
        {
          "internalType": "bool",
          "name": "",
          "type": "bool"
        }
      ],
      "stateMutability": "nonpayable",
      "type": "function"
    },
    {
      "inputs": [
        {
          "internalType": "address",
          "name": "_account",
          "type": "address"
        },
        {
          "internalType": "uint256",
          "name": "_amount",
          "type": "uint256"
        }
      ],
      "name": "mint",
      "outputs": [],
      "stateMutability": "nonpayable",
      "type": "function"
    },
    {
      "inputs": [],
      "name": "name",
      "outputs": [
        {
          "internalType": "string",
          "name": "",
          "type": "string"
        }
      ],
      "stateMutability": "view",
      "type": "function"
    },
    {
      "inputs": [
        {
          "internalType": "address",
          "name": "owner",
          "type": "address"
        }
      ],
      "name": "nonces",
      "outputs": [
        {
          "internalType": "uint256",
          "name": "",
          "type": "uint256"
        }
      ],
      "stateMutability": "view",
      "type": "function"
    },
    {
      "inputs": [
        {
          "internalType": "address",
          "name": "owner",
          "type": "address"
        },
        {
          "internalType": "address",
          "name": "spender",
          "type": "address"
        },
        {
          "internalType": "uint256",
          "name": "amount",
          "type": "uint256"
        },
        {
          "internalType": "uint256",
          "name": "deadline",
          "type": "uint256"
        },
        {
          "internalType": "uint8",
          "name": "v",
          "type": "uint8"
        },
        {
          "internalType": "bytes32",
          "name": "r",
          "type": "bytes32"
        },
        {
          "internalType": "bytes32",
          "name": "s",
          "type": "bytes32"
        }
      ],
      "name": "permit",
      "outputs": [],
      "stateMutability": "nonpayable",
      "type": "function"
    },
    {
      "inputs": [],
      "name": "permitTypeHash",
      "outputs": [
        {
          "internalType": "bytes32",
          "name": "",
          "type": "bytes32"
        }
      ],
      "stateMutability": "view",
      "type": "function"
    },
    {
      "inputs": [
        {
          "internalType": "bytes32",
          "name": "digest",
          "type": "bytes32"
        },
        {
          "internalType": "uint8",
          "name": "v",
          "type": "uint8"
        },
        {
          "internalType": "bytes32",
          "name": "r",
          "type": "bytes32"
        },
        {
          "internalType": "bytes32",
          "name": "s",
          "type": "bytes32"
        }
      ],
      "name": "recoverAddress",
      "outputs": [
        {
          "internalType": "address",
          "name": "",
          "type": "address"
        }
      ],
      "stateMutability": "pure",
      "type": "function"
    },
    {
      "inputs": [
        {
          "internalType": "address",
          "name": "_poolAddress",
          "type": "address"
        },
        {
          "internalType": "address",
          "name": "_receiver",
          "type": "address"
        },
        {
          "internalType": "uint256",
          "name": "_amount",
          "type": "uint256"
        }
      ],
      "name": "returnFromPool",
      "outputs": [],
      "stateMutability": "nonpayable",
      "type": "function"
    },
    {
      "inputs": [
        {
          "internalType": "address",
          "name": "_sender",
          "type": "address"
        },
        {
          "internalType": "address",
          "name": "_poolAddress",
          "type": "address"
        },
        {
          "internalType": "uint256",
          "name": "_amount",
          "type": "uint256"
        }
      ],
      "name": "sendToPool",
      "outputs": [],
      "stateMutability": "nonpayable",
      "type": "function"
    },
    {
      "inputs": [],
      "name": "stabilityPoolAddress",
      "outputs": [
        {
          "internalType": "address",
          "name": "",
          "type": "address"
        }
      ],
      "stateMutability": "view",
      "type": "function"
    },
    {
      "inputs": [],
      "name": "symbol",
      "outputs": [
        {
          "internalType": "string",
          "name": "",
          "type": "string"
        }
      ],
      "stateMutability": "view",
      "type": "function"
    },
    {
      "inputs": [],
      "name": "totalSupply",
      "outputs": [
        {
          "internalType": "uint256",
          "name": "",
          "type": "uint256"
        }
      ],
      "stateMutability": "view",
      "type": "function"
    },
    {
      "inputs": [
        {
          "internalType": "address",
          "name": "recipient",
          "type": "address"
        },
        {
          "internalType": "uint256",
          "name": "amount",
          "type": "uint256"
        }
      ],
      "name": "transfer",
      "outputs": [
        {
          "internalType": "bool",
          "name": "",
          "type": "bool"
        }
      ],
      "stateMutability": "nonpayable",
      "type": "function"
    },
    {
      "inputs": [
        {
          "internalType": "address",
          "name": "sender",
          "type": "address"
        },
        {
          "internalType": "address",
          "name": "recipient",
          "type": "address"
        },
        {
          "internalType": "uint256",
          "name": "amount",
          "type": "uint256"
        }
      ],
      "name": "transferFrom",
      "outputs": [
        {
          "internalType": "bool",
          "name": "",
          "type": "bool"
        }
      ],
      "stateMutability": "nonpayable",
      "type": "function"
    },
    {
      "inputs": [
        {
          "internalType": "address",
          "name": "_account",
          "type": "address"
        },
        {
          "internalType": "uint256",
          "name": "_amount",
          "type": "uint256"
        }
      ],
      "name": "unprotectedBurn",
      "outputs": [],
      "stateMutability": "nonpayable",
      "type": "function"
    },
    {
      "inputs": [
        {
          "internalType": "address",
          "name": "_account",
          "type": "address"
        },
        {
          "internalType": "uint256",
          "name": "_amount",
          "type": "uint256"
        }
      ],
      "name": "unprotectedMint",
      "outputs": [],
      "stateMutability": "nonpayable",
      "type": "function"
    },
    {
      "inputs": [
        {
          "internalType": "address",
          "name": "_poolAddress",
          "type": "address"
        },
        {
          "internalType": "address",
          "name": "_receiver",
          "type": "address"
        },
        {
          "internalType": "uint256",
          "name": "_amount",
          "type": "uint256"
        }
      ],
      "name": "unprotectedReturnFromPool",
      "outputs": [],
      "stateMutability": "nonpayable",
      "type": "function"
    },
    {
      "inputs": [
        {
          "internalType": "address",
          "name": "_sender",
          "type": "address"
        },
        {
          "internalType": "address",
          "name": "_poolAddress",
          "type": "address"
        },
        {
          "internalType": "uint256",
          "name": "_amount",
          "type": "uint256"
        }
      ],
      "name": "unprotectedSendToPool",
      "outputs": [],
      "stateMutability": "nonpayable",
      "type": "function"
    },
    {
      "inputs": [],
      "name": "vaultManagerAddress",
      "outputs": [
        {
          "internalType": "address",
          "name": "",
          "type": "address"
        }
      ],
      "stateMutability": "view",
      "type": "function"
    },
    {
      "inputs": [],
      "name": "version",
      "outputs": [
        {
          "internalType": "string",
          "name": "",
          "type": "string"
        }
      ],
      "stateMutability": "view",
      "type": "function"
    }
  ],
  "bytecode": "0x6101806040527f6e71edae12b1b97f4d1f60370fef10105fa2faae0126114a169c64845d6126c9610160523480156200003757600080fd5b5060405162001bb038038062001bb0833981810160405260608110156200005d57600080fd5b508051602082015160409092015190919082828262000085836001600160e01b036200027d16565b62000099826001600160e01b036200027d16565b620000ad816001600160e01b036200027d16565b6001600160601b0319606084901b1661010052604080516001600160a01b038516815290517fd396f45b3a6c41f9744b157261875945681f8e23587ae1d7d34377aad3bb16239181900360200190a16001600160601b0319606083901b1661012052604080516001600160a01b038416815290517f82966d27eea39b038ee0fa30cd16532bb24f6e65d31cb58fb227aa5766cdcc7f9181900360200190a16001600160601b0319606082901b1661014052604080516001600160a01b038316815290517f3ca631ffcd2a9b5d9ae18543fc82f58eb4ca33af9e6ab01b7a8e95331e6ed9859181900360200190a1604080518082018252600e81526d2128221029ba30b13632b1b7b4b760911b602091820152815180830190925260018252603160f81b9101527f74a19ba808b36373f265921c3351f9b933083fb9bb59269b6fb3ab0e357d275260c08190527fc89efdaa54c0f20c7adf612882df0950f5a951637e0307cdcb4c672f298b8bc660e0819052620002326001600160e01b036200033216565b60a0526200026b7f8b73c3c69bb8fe3d512ecc4cf759cc79239f7b179b0ffacaa9a75d522b39400f83836001600160e01b036200033616565b60805250620003979650505050505050565b6001600160a01b038116620002d9576040805162461bcd60e51b815260206004820152601e60248201527f4163636f756e742063616e6e6f74206265207a65726f20616464726573730000604482015290519081900360640190fd5b803b806200032e576040805162461bcd60e51b815260206004820181905260248201527f4163636f756e7420636f64652073697a652063616e6e6f74206265207a65726f604482015290519081900360640190fd5b5050565b4690565b60008383836200034e6001600160e01b036200033216565b6040805160208082019690965280820194909452606084019290925260808301523060a0808401919091528151808403909101815260c090920190528051910120949350505050565b60805160a05160c05160e0516101005160601c6101205160601c6101405160601c61016051611780620004306000398061084b525080610a50528061103d5280611262528061135d5250806106d35280610e235280610fc252806113c2528061142a5250806108045280610df15280610fff528061138f525080610d39525080610d18525080610c9e525080610cce52506117806000f3fe608060405234801561001057600080fd5b50600436106101a55760003560e01c80635099f99f116100ef578063a457c2d711610092578063a457c2d714610561578063a9059cbb1461058d578063b655c276146103d7578063b7f8cf9b146105b9578063bb997bac146105c1578063d505accf146105f7578063dd62ed3e14610648578063f698da2514610676576101a5565b80635099f99f14610439578063519e2cee1461046557806354fd4d50146104a757806370a08231146104af5780637ecebe00146104d55780638428cf83146104fb57806395d89b411461052d5780639dc29fac14610535576101a5565b806323b872dd1161015757806323b872dd1461031b578063313ce567146103515780633408e4701461036f57806339509351146103775780633ab60582146103a35780633d8b8cb2146103cf5780633dc2ea6d146103d757806340c10f191461040d576101a5565b806303d99946146101aa57806306fdde03146101f4578063095ea7b3146102715780630b622ab21461029d57806310ce43bd146102c157806318160ddd146102db57806320c582be146102e3575b600080fd5b6101e0600480360360608110156101c057600080fd5b506001600160a01b0381358116916020810135909116906040013561067e565b604080519115158252519081900360200190f35b6101fc610692565b6040805160208082528351818301528351919283929083019185019080838360005b8381101561023657818101518382015260200161021e565b50505050905090810190601f1680156102635780820380516001836020036101000a031916815260200191505b509250505060405180910390f35b6101e06004803603604081101561028757600080fd5b506001600160a01b0381351690602001356106bb565b6102a56106d1565b604080516001600160a01b039092168252519081900360200190f35b6102c96106f5565b60408051918252519081900360200190f35b6102c9610719565b610319600480360360608110156102f957600080fd5b506001600160a01b0381358116916020810135909116906040013561071f565b005b6101e06004803603606081101561033157600080fd5b506001600160a01b03813581169160208101359091169060400135610737565b6103596107af565b6040805160ff9092168252519081900360200190f35b6102c96107b4565b6101e06004803603604081101561038d57600080fd5b506001600160a01b0381351690602001356107b8565b610319600480360360408110156103b957600080fd5b506001600160a01b0381351690602001356107f4565b6102a5610802565b610319600480360360608110156103ed57600080fd5b506001600160a01b03813581169160208101359091169060400135610727565b6103196004803603604081101561042357600080fd5b506001600160a01b038135169060200135610826565b6103196004803603604081101561044f57600080fd5b506001600160a01b03813516906020013561082e565b6102c9600480360360a081101561047b57600080fd5b506001600160a01b03813581169160208101359091169060408101359060608101359060800135610838565b6101fc610901565b6102c9600480360360208110156104c557600080fd5b50356001600160a01b031661091c565b6102c9600480360360208110156104eb57600080fd5b50356001600160a01b0316610937565b6102a56004803603608081101561051157600080fd5b5080359060ff6020820135169060408101359060600135610952565b6101fc6109be565b6103196004803603604081101561054b57600080fd5b506001600160a01b0381351690602001356109db565b6101e06004803603604081101561057757600080fd5b506001600160a01b0381351690602001356109e3565b6101e0600480360360408110156105a357600080fd5b506001600160a01b038135169060200135610a38565b6102a5610a4e565b610319600480360360608110156105d757600080fd5b506001600160a01b03813581169160208101359091169060400135610a72565b610319600480360360e081101561060d57600080fd5b506001600160a01b03813581169160208101359091169060408101359060608101359060ff6080820135169060a08101359060c00135610a7a565b6102c96004803603604081101561065e57600080fd5b506001600160a01b0381358116916020013516610c6f565b6102c9610c9a565b600061068b848484610d64565b9392505050565b60408051808201909152600e81526d2128221029ba30b13632b1b7b4b760911b60208201525b90565b60006106c8338484610d64565b50600192915050565b7f000000000000000000000000000000000000000000000000000000000000000081565b7f6e71edae12b1b97f4d1f60370fef10105fa2faae0126114a169c64845d6126c990565b60005490565b610727610de6565b610732838383610e82565b505050565b600061074283610f64565b61074d848484610e82565b6107a584336107a0856040518060600160405280602881526020016116a9602891396001600160a01b038a166000908152600360209081526040808320338452909152902054919063ffffffff6110b016565b610d64565b5060019392505050565b601290565b4690565b3360008181526003602090815260408083206001600160a01b038716845290915281205490916106c89185906107a0908663ffffffff61114716565b6107fe82826111a1565b5050565b7f000000000000000000000000000000000000000000000000000000000000000081565b61082e611257565b6107fe82826112be565b6000611901610845610c9a565b604080517f00000000000000000000000000000000000000000000000000000000000000006020808301919091526001600160a01b03808c16838501528a1660608301526080820189905260a0820188905260c08083018890528351808403909101815260e0830184528051908201206001600160f01b031960f09690961b9590951661010083015261010282019390935261012280820194909452815180820390940184526101420190528151910120905095945050505050565b6040805180820190915260018152603160f81b602082015290565b6001600160a01b031660009081526002602052604090205490565b6001600160a01b031660009081526001602052604090205490565b604080516000808252602080830180855288905260ff87168385015260608301869052608083018590529251909260019260a080820193601f1981019281900390910190855afa1580156109aa573d6000803e3d6000fd5b5050604051601f1901519695505050505050565b60408051808201909152600381526210941160ea1b602082015290565b6107f4611352565b60006106c833846107a085604051806060016040528060258152602001611726602591393360009081526003602090815260408083206001600160a01b038d168452909152902054919063ffffffff6110b016565b6000610a4383610f64565b6106c8338484610e82565b7f000000000000000000000000000000000000000000000000000000000000000081565b61072761141f565b42841015610ac7576040805162461bcd60e51b81526020600482015260156024820152744250443a206578706972656420646561646c696e6560581b604482015290519081900360640190fd5b6000610ad1610c9a565b6001600160a01b03808a166000818152600160208181526040808420805480850190915581517f6e71edae12b1b97f4d1f60370fef10105fa2faae0126114a169c64845d6126c98185015280830196909652958e166060860152608085018d905260a085019590955260c08085018c90528551808603909101815260e08501865280519082012061190160f01b6101008601526101028501969096526101228085019690965284518085039096018652610142840180865286519682019690962095839052610162840180865286905260ff8a166101828501526101a284018990526101c284018890529351949550909390926101e2808401939192601f1981019281900390910190855afa158015610bee573d6000803e3d6000fd5b505050602060405103519050886001600160a01b0316816001600160a01b031614610c59576040805162461bcd60e51b81526020600482015260166024820152754250443a20696e76616c6964207369676e617475726560501b604482015290519081900360640190fd5b610c64898989610d64565b505050505050505050565b6001600160a01b03918216600090815260036020908152604080832093909416825291909152205490565b60007f0000000000000000000000000000000000000000000000000000000000000000610cc56107b4565b1415610cf257507f00000000000000000000000000000000000000000000000000000000000000006106b8565b610d5d7f8b73c3c69bb8fe3d512ecc4cf759cc79239f7b179b0ffacaa9a75d522b39400f7f00000000000000000000000000000000000000000000000000000000000000007f0000000000000000000000000000000000000000000000000000000000000000611486565b90506106b8565b6001600160a01b038316610d7457fe5b6001600160a01b038216610d8457fe5b6001600160a01b03808416600081815260036020908152604080832094871680845294825291829020859055815185815291517f8c5be1e5ebec7d5bd14f71427d1e84f3dd0314c0f7b2291e5b200ac8c7c3b9259281900390910190a3505050565b336001600160a01b037f0000000000000000000000000000000000000000000000000000000000000000161480610e455750336001600160a01b037f000000000000000000000000000000000000000000000000000000000000000016145b610e805760405162461bcd60e51b81526004018080602001828103825260358152602001806116d16035913960400191505060405180910390fd5b565b6001600160a01b038316610e9257fe5b6001600160a01b038216610ea257fe5b610ee581604051806060016040528060268152602001611683602691396001600160a01b038616600090815260026020526040902054919063ffffffff6110b016565b6001600160a01b038085166000908152600260205260408082209390935590841681522054610f1a908263ffffffff61114716565b6001600160a01b03808416600081815260026020908152604091829020949094558051858152905191939287169260008051602061170683398151915292918290030190a3505050565b6001600160a01b03811615801590610f8557506001600160a01b0381163014155b610fc05760405162461bcd60e51b81526004018080602001828103825260528152602001806115db6052913960600191505060405180910390fd5b7f00000000000000000000000000000000000000000000000000000000000000006001600160a01b0316816001600160a01b03161415801561103457507f00000000000000000000000000000000000000000000000000000000000000006001600160a01b0316816001600160a01b031614155b801561107257507f00000000000000000000000000000000000000000000000000000000000000006001600160a01b0316816001600160a01b031614155b6110ad5760405162461bcd60e51b815260040180806020018281038252605681526020018061162d6056913960600191505060405180910390fd5b50565b6000818484111561113f5760405162461bcd60e51b81526004018080602001828103825283818151815260200191508051906020019080838360005b838110156111045781810151838201526020016110ec565b50505050905090810190601f1680156111315780820380516001836020036101000a031916815260200191505b509250505060405180910390fd5b505050900390565b60008282018381101561068b576040805162461bcd60e51b815260206004820152601b60248201527f536166654d6174683a206164646974696f6e206f766572666c6f770000000000604482015290519081900360640190fd5b6001600160a01b0382166111b157fe5b6111f4816040518060600160405280602281526020016115b9602291396001600160a01b038516600090815260026020526040902054919063ffffffff6110b016565b6001600160a01b03831660009081526002602052604081209190915554611221908263ffffffff6114dc16565b60009081556040805183815290516001600160a01b03851691600080516020611706833981519152919081900360200190a35050565b336001600160a01b037f00000000000000000000000000000000000000000000000000000000000000001614610e805760405162461bcd60e51b815260040180806020018281038252602a815260200180611543602a913960400191505060405180910390fd5b6001600160a01b0382166112ce57fe5b6000546112e1908263ffffffff61114716565b60009081556001600160a01b03831681526002602052604090205461130c908263ffffffff61114716565b6001600160a01b03831660008181526002602090815260408083209490945583518581529351929391926000805160206117068339815191529281900390910190a35050565b336001600160a01b037f00000000000000000000000000000000000000000000000000000000000000001614806113b15750336001600160a01b037f000000000000000000000000000000000000000000000000000000000000000016145b806113e45750336001600160a01b037f000000000000000000000000000000000000000000000000000000000000000016145b610e805760405162461bcd60e51b815260040180806020018281038252604c81526020018061156d604c913960600191505060405180910390fd5b336001600160a01b037f00000000000000000000000000000000000000000000000000000000000000001614610e805760405162461bcd60e51b815260040180806020018281038252602481526020018061151f6024913960400191505060405180910390fd5b60008383836114936107b4565b6040805160208082019690965280820194909452606084019290925260808301523060a0808401919091528151808403909101815260c090920190528051910120949350505050565b600061068b83836040518060400160405280601e81526020017f536166654d6174683a207375627472616374696f6e206f766572666c6f7700008152506110b056fe4250443a2043616c6c6572206973206e6f74207468652053746162696c697479506f6f6c425044546f6b656e3a2043616c6c6572206973206e6f7420426f72726f7765724f7065726174696f6e734250443a2043616c6c6572206973206e65697468657220426f72726f7765724f7065726174696f6e73206e6f72205661756c744d616e61676572206e6f722053746162696c697479506f6f6c45524332303a206275726e20616d6f756e7420657863656564732062616c616e63654250443a2043616e6e6f74207472616e7366657220746f6b656e73206469726563746c7920746f207468652042504420746f6b656e20636f6e7472616374206f7220746865207a65726f20616464726573734250443a2043616e6e6f74207472616e7366657220746f6b656e73206469726563746c7920746f207468652053746162696c697479506f6f6c2c205661756c744d616e61676572206f7220426f72726f7765724f707345524332303a207472616e7366657220616d6f756e7420657863656564732062616c616e636545524332303a207472616e7366657220616d6f756e74206578636565647320616c6c6f77616e63654250443a2043616c6c6572206973206e656974686572205661756c744d616e61676572206e6f722053746162696c697479506f6f6cddf252ad1be2c89b69c2b068fc378daa952ba7f163c4a11628f55a4df523b3ef45524332303a2064656372656173656420616c6c6f77616e63652062656c6f77207a65726fa26469706673582212208bc5096b8cc8e797e74d51b645c7252939bef0613c0ac77cfe577c8519c32d1764736f6c634300060b0033",
  "linkReferences": {},
  "deployedLinkReferences": {}
}