{
  "_format": "hh-sol-artifact-1",
  "contractName": "BPDToken",
  "sourceName": "contracts/BPDToken.sol",
  "abi": [
    {
      "inputs": [
        {
          "internalType": "address",
          "name": "_vaultManagerAddress",
          "type": "address"
        },
        {
          "internalType": "address",
          "name": "_stabilityPoolAddress",
          "type": "address"
        },
        {
          "internalType": "address",
          "name": "_borrowerOperationsAddress",
          "type": "address"
        }
      ],
      "stateMutability": "nonpayable",
      "type": "constructor"
    },
    {
      "anonymous": false,
      "inputs": [
        {
          "indexed": true,
          "internalType": "address",
          "name": "owner",
          "type": "address"
        },
        {
          "indexed": true,
          "internalType": "address",
          "name": "spender",
          "type": "address"
        },
        {
          "indexed": false,
          "internalType": "uint256",
          "name": "value",
          "type": "uint256"
        }
      ],
      "name": "Approval",
      "type": "event"
    },
    {
      "anonymous": false,
      "inputs": [
        {
          "indexed": false,
          "internalType": "address",
          "name": "_user",
          "type": "address"
        },
        {
          "indexed": false,
          "internalType": "uint256",
          "name": "_amount",
          "type": "uint256"
        }
      ],
      "name": "BPDTokenBalanceUpdated",
      "type": "event"
    },
    {
      "anonymous": false,
      "inputs": [
        {
          "indexed": false,
          "internalType": "address",
          "name": "_newBorrowerOperationsAddress",
          "type": "address"
        }
      ],
      "name": "BorrowerOperationsAddressChanged",
      "type": "event"
    },
    {
      "anonymous": false,
      "inputs": [
        {
          "indexed": false,
          "internalType": "address",
          "name": "_newStabilityPoolAddress",
          "type": "address"
        }
      ],
      "name": "StabilityPoolAddressChanged",
      "type": "event"
    },
    {
      "anonymous": false,
      "inputs": [
        {
          "indexed": true,
          "internalType": "address",
          "name": "from",
          "type": "address"
        },
        {
          "indexed": true,
          "internalType": "address",
          "name": "to",
          "type": "address"
        },
        {
          "indexed": false,
          "internalType": "uint256",
          "name": "value",
          "type": "uint256"
        }
      ],
      "name": "Transfer",
      "type": "event"
    },
    {
      "anonymous": false,
      "inputs": [
        {
          "indexed": false,
          "internalType": "address",
          "name": "_vaultManagerAddress",
          "type": "address"
        }
      ],
      "name": "VaultManagerAddressChanged",
      "type": "event"
    },
    {
      "inputs": [
        {
          "internalType": "address",
          "name": "owner",
          "type": "address"
        },
        {
          "internalType": "address",
          "name": "spender",
          "type": "address"
        }
      ],
      "name": "allowance",
      "outputs": [
        {
          "internalType": "uint256",
          "name": "",
          "type": "uint256"
        }
      ],
      "stateMutability": "view",
      "type": "function"
    },
    {
      "inputs": [
        {
          "internalType": "address",
          "name": "spender",
          "type": "address"
        },
        {
          "internalType": "uint256",
          "name": "amount",
          "type": "uint256"
        }
      ],
      "name": "approve",
      "outputs": [
        {
          "internalType": "bool",
          "name": "",
          "type": "bool"
        }
      ],
      "stateMutability": "nonpayable",
      "type": "function"
    },
    {
      "inputs": [
        {
          "internalType": "address",
          "name": "account",
          "type": "address"
        }
      ],
      "name": "balanceOf",
      "outputs": [
        {
          "internalType": "uint256",
          "name": "",
          "type": "uint256"
        }
      ],
      "stateMutability": "view",
      "type": "function"
    },
    {
      "inputs": [],
      "name": "borrowerOperationsAddress",
      "outputs": [
        {
          "internalType": "address",
          "name": "",
          "type": "address"
        }
      ],
      "stateMutability": "view",
      "type": "function"
    },
    {
      "inputs": [
        {
          "internalType": "address",
          "name": "_account",
          "type": "address"
        },
        {
          "internalType": "uint256",
          "name": "_amount",
          "type": "uint256"
        }
      ],
      "name": "burn",
      "outputs": [],
      "stateMutability": "nonpayable",
      "type": "function"
    },
    {
      "inputs": [],
      "name": "decimals",
      "outputs": [
        {
          "internalType": "uint8",
          "name": "",
          "type": "uint8"
        }
      ],
      "stateMutability": "view",
      "type": "function"
    },
    {
      "inputs": [
        {
          "internalType": "address",
          "name": "spender",
          "type": "address"
        },
        {
          "internalType": "uint256",
          "name": "subtractedValue",
          "type": "uint256"
        }
      ],
      "name": "decreaseAllowance",
      "outputs": [
        {
          "internalType": "bool",
          "name": "",
          "type": "bool"
        }
      ],
      "stateMutability": "nonpayable",
      "type": "function"
    },
    {
      "inputs": [],
      "name": "domainSeparator",
      "outputs": [
        {
          "internalType": "bytes32",
          "name": "",
          "type": "bytes32"
        }
      ],
      "stateMutability": "view",
      "type": "function"
    },
    {
      "inputs": [
        {
          "internalType": "address",
          "name": "spender",
          "type": "address"
        },
        {
          "internalType": "uint256",
          "name": "addedValue",
          "type": "uint256"
        }
      ],
      "name": "increaseAllowance",
      "outputs": [
        {
          "internalType": "bool",
          "name": "",
          "type": "bool"
        }
      ],
      "stateMutability": "nonpayable",
      "type": "function"
    },
    {
      "inputs": [
        {
          "internalType": "address",
          "name": "_account",
          "type": "address"
        },
        {
          "internalType": "uint256",
          "name": "_amount",
          "type": "uint256"
        }
      ],
      "name": "mint",
      "outputs": [],
      "stateMutability": "nonpayable",
      "type": "function"
    },
    {
      "inputs": [],
      "name": "name",
      "outputs": [
        {
          "internalType": "string",
          "name": "",
          "type": "string"
        }
      ],
      "stateMutability": "view",
      "type": "function"
    },
    {
      "inputs": [
        {
          "internalType": "address",
          "name": "owner",
          "type": "address"
        }
      ],
      "name": "nonces",
      "outputs": [
        {
          "internalType": "uint256",
          "name": "",
          "type": "uint256"
        }
      ],
      "stateMutability": "view",
      "type": "function"
    },
    {
      "inputs": [
        {
          "internalType": "address",
          "name": "owner",
          "type": "address"
        },
        {
          "internalType": "address",
          "name": "spender",
          "type": "address"
        },
        {
          "internalType": "uint256",
          "name": "amount",
          "type": "uint256"
        },
        {
          "internalType": "uint256",
          "name": "deadline",
          "type": "uint256"
        },
        {
          "internalType": "uint8",
          "name": "v",
          "type": "uint8"
        },
        {
          "internalType": "bytes32",
          "name": "r",
          "type": "bytes32"
        },
        {
          "internalType": "bytes32",
          "name": "s",
          "type": "bytes32"
        }
      ],
      "name": "permit",
      "outputs": [],
      "stateMutability": "nonpayable",
      "type": "function"
    },
    {
      "inputs": [],
      "name": "permitTypeHash",
      "outputs": [
        {
          "internalType": "bytes32",
          "name": "",
          "type": "bytes32"
        }
      ],
      "stateMutability": "view",
      "type": "function"
    },
    {
      "inputs": [
        {
          "internalType": "address",
          "name": "_poolAddress",
          "type": "address"
        },
        {
          "internalType": "address",
          "name": "_receiver",
          "type": "address"
        },
        {
          "internalType": "uint256",
          "name": "_amount",
          "type": "uint256"
        }
      ],
      "name": "returnFromPool",
      "outputs": [],
      "stateMutability": "nonpayable",
      "type": "function"
    },
    {
      "inputs": [
        {
          "internalType": "address",
          "name": "_sender",
          "type": "address"
        },
        {
          "internalType": "address",
          "name": "_poolAddress",
          "type": "address"
        },
        {
          "internalType": "uint256",
          "name": "_amount",
          "type": "uint256"
        }
      ],
      "name": "sendToPool",
      "outputs": [],
      "stateMutability": "nonpayable",
      "type": "function"
    },
    {
      "inputs": [],
      "name": "stabilityPoolAddress",
      "outputs": [
        {
          "internalType": "address",
          "name": "",
          "type": "address"
        }
      ],
      "stateMutability": "view",
      "type": "function"
    },
    {
      "inputs": [],
      "name": "symbol",
      "outputs": [
        {
          "internalType": "string",
          "name": "",
          "type": "string"
        }
      ],
      "stateMutability": "view",
      "type": "function"
    },
    {
      "inputs": [],
      "name": "totalSupply",
      "outputs": [
        {
          "internalType": "uint256",
          "name": "",
          "type": "uint256"
        }
      ],
      "stateMutability": "view",
      "type": "function"
    },
    {
      "inputs": [
        {
          "internalType": "address",
          "name": "recipient",
          "type": "address"
        },
        {
          "internalType": "uint256",
          "name": "amount",
          "type": "uint256"
        }
      ],
      "name": "transfer",
      "outputs": [
        {
          "internalType": "bool",
          "name": "",
          "type": "bool"
        }
      ],
      "stateMutability": "nonpayable",
      "type": "function"
    },
    {
      "inputs": [
        {
          "internalType": "address",
          "name": "sender",
          "type": "address"
        },
        {
          "internalType": "address",
          "name": "recipient",
          "type": "address"
        },
        {
          "internalType": "uint256",
          "name": "amount",
          "type": "uint256"
        }
      ],
      "name": "transferFrom",
      "outputs": [
        {
          "internalType": "bool",
          "name": "",
          "type": "bool"
        }
      ],
      "stateMutability": "nonpayable",
      "type": "function"
    },
    {
      "inputs": [],
      "name": "vaultManagerAddress",
      "outputs": [
        {
          "internalType": "address",
          "name": "",
          "type": "address"
        }
      ],
      "stateMutability": "view",
      "type": "function"
    },
    {
      "inputs": [],
      "name": "version",
      "outputs": [
        {
          "internalType": "string",
          "name": "",
          "type": "string"
        }
      ],
      "stateMutability": "view",
      "type": "function"
    }
  ],
  "bytecode": "0x6101606040523480156200001257600080fd5b50604051620018a1380380620018a1833981810160405260608110156200003857600080fd5b50805160208201516040909201519091906200005d836001600160e01b036200025216565b62000071826001600160e01b036200025216565b62000085816001600160e01b036200025216565b6001600160601b0319606084901b1661010052604080516001600160a01b038516815290517fd396f45b3a6c41f9744b157261875945681f8e23587ae1d7d34377aad3bb16239181900360200190a16001600160601b0319606083901b1661012052604080516001600160a01b038416815290517f82966d27eea39b038ee0fa30cd16532bb24f6e65d31cb58fb227aa5766cdcc7f9181900360200190a16001600160601b0319606082901b1661014052604080516001600160a01b038316815290517f3ca631ffcd2a9b5d9ae18543fc82f58eb4ca33af9e6ab01b7a8e95331e6ed9859181900360200190a1604080518082018252600e81526d2128221029ba30b13632b1b7b4b760911b602091820152815180830190925260018252603160f81b9101527f74a19ba808b36373f265921c3351f9b933083fb9bb59269b6fb3ab0e357d275260c08190527fc89efdaa54c0f20c7adf612882df0950f5a951637e0307cdcb4c672f298b8bc660e08190526200020a6001600160e01b036200030716565b60a052620002437f8b73c3c69bb8fe3d512ecc4cf759cc79239f7b179b0ffacaa9a75d522b39400f83836001600160e01b036200030b16565b608052506200036c9350505050565b6001600160a01b038116620002ae576040805162461bcd60e51b815260206004820152601e60248201527f4163636f756e742063616e6e6f74206265207a65726f20616464726573730000604482015290519081900360640190fd5b803b8062000303576040805162461bcd60e51b815260206004820181905260248201527f4163636f756e7420636f64652073697a652063616e6e6f74206265207a65726f604482015290519081900360640190fd5b5050565b4690565b6000838383620003236001600160e01b036200030716565b6040805160208082019690965280820194909452606084019290925260808301523060a0808401919091528151808403909101815260c090920190528051910120949350505050565b60805160a05160c05160e0516101005160601c6101205160601c6101405160601c6114a6620003fb6000398061076b5280610d585280610ece5280610fc95250806105275280610b3e5280610cdd528061102e528061114c5250806106465280610b0c5280610d1a5280610ffb525080610a54525080610a335250806109b95250806109e952506114a66000f3fe608060405234801561001057600080fd5b506004361061014d5760003560e01c806354fd4d50116100c3578063a9059cbb1161007c578063a9059cbb146103f5578063b7f8cf9b14610421578063bb997bac14610429578063d505accf1461045f578063dd62ed3e146104b0578063f698da25146104de5761014d565b806354fd4d501461034157806370a08231146103495780637ecebe001461036f57806395d89b41146103955780639dc29fac1461039d578063a457c2d7146103c95761014d565b806320c582be1161011557806320c582be1461025557806323b872dd1461028d578063313ce567146102c357806339509351146102e15780633d8b8cb21461030d57806340c10f19146103155761014d565b806306fdde0314610152578063095ea7b3146101cf5780630b622ab21461020f57806310ce43bd1461023357806318160ddd1461024d575b600080fd5b61015a6104e6565b6040805160208082528351818301528351919283929083019185019080838360005b8381101561019457818101518382015260200161017c565b50505050905090810190601f1680156101c15780820380516001836020036101000a031916815260200191505b509250505060405180910390f35b6101fb600480360360408110156101e557600080fd5b506001600160a01b03813516906020013561050f565b604080519115158252519081900360200190f35b610217610525565b604080516001600160a01b039092168252519081900360200190f35b61023b610549565b60408051918252519081900360200190f35b61023b61056d565b61028b6004803603606081101561026b57600080fd5b506001600160a01b03813581169160208101359091169060400135610573565b005b6101fb600480360360608110156102a357600080fd5b506001600160a01b0381358116916020810135909116906040013561058b565b6102cb610603565b6040805160ff9092168252519081900360200190f35b6101fb600480360360408110156102f757600080fd5b506001600160a01b038135169060200135610608565b610217610644565b61028b6004803603604081101561032b57600080fd5b506001600160a01b038135169060200135610668565b61015a61067e565b61023b6004803603602081101561035f57600080fd5b50356001600160a01b0316610699565b61023b6004803603602081101561038557600080fd5b50356001600160a01b03166106b4565b61015a6106cf565b61028b600480360360408110156103b357600080fd5b506001600160a01b0381351690602001356106ec565b6101fb600480360360408110156103df57600080fd5b506001600160a01b0381351690602001356106fe565b6101fb6004803603604081101561040b57600080fd5b506001600160a01b038135169060200135610753565b610217610769565b61028b6004803603606081101561043f57600080fd5b506001600160a01b0381358116916020810135909116906040013561078d565b61028b600480360360e081101561047557600080fd5b506001600160a01b03813581169160208101359091169060408101359060608101359060ff6080820135169060a08101359060c00135610795565b61023b600480360360408110156104c657600080fd5b506001600160a01b038135811691602001351661098a565b61023b6109b5565b60408051808201909152600e81526d2128221029ba30b13632b1b7b4b760911b60208201525b90565b600061051c338484610a7f565b50600192915050565b7f000000000000000000000000000000000000000000000000000000000000000081565b7f6e71edae12b1b97f4d1f60370fef10105fa2faae0126114a169c64845d6126c990565b60005490565b61057b610b01565b610586838383610b9d565b505050565b600061059683610c7f565b6105a1848484610b9d565b6105f984336105f4856040518060600160405280602881526020016113cf602891396001600160a01b038a166000908152600360209081526040808320338452909152902054919063ffffffff610dcb16565b610a7f565b5060019392505050565b601290565b3360008181526003602090815260408083206001600160a01b0387168452909152812054909161051c9185906105f4908663ffffffff610e6216565b7f000000000000000000000000000000000000000000000000000000000000000081565b610670610ec3565b61067a8282610f2a565b5050565b6040805180820190915260018152603160f81b602082015290565b6001600160a01b031660009081526002602052604090205490565b6001600160a01b031660009081526001602052604090205490565b60408051808201909152600381526210941160ea1b602082015290565b6106f4610fbe565b61067a828261108b565b600061051c33846105f48560405180606001604052806025815260200161144c602591393360009081526003602090815260408083206001600160a01b038d168452909152902054919063ffffffff610dcb16565b600061075e83610c7f565b61051c338484610b9d565b7f000000000000000000000000000000000000000000000000000000000000000081565b61057b611141565b428410156107e2576040805162461bcd60e51b81526020600482015260156024820152744250443a206578706972656420646561646c696e6560581b604482015290519081900360640190fd5b60006107ec6109b5565b6001600160a01b03808a166000818152600160208181526040808420805480850190915581517f6e71edae12b1b97f4d1f60370fef10105fa2faae0126114a169c64845d6126c98185015280830196909652958e166060860152608085018d905260a085019590955260c08085018c90528551808603909101815260e08501865280519082012061190160f01b6101008601526101028501969096526101228085019690965284518085039096018652610142840180865286519682019690962095839052610162840180865286905260ff8a166101828501526101a284018990526101c284018890529351949550909390926101e2808401939192601f1981019281900390910190855afa158015610909573d6000803e3d6000fd5b505050602060405103519050886001600160a01b0316816001600160a01b031614610974576040805162461bcd60e51b81526020600482015260166024820152754250443a20696e76616c6964207369676e617475726560501b604482015290519081900360640190fd5b61097f898989610a7f565b505050505050505050565b6001600160a01b03918216600090815260036020908152604080832093909416825291909152205490565b60007f00000000000000000000000000000000000000000000000000000000000000006109e06111a8565b1415610a0d57507f000000000000000000000000000000000000000000000000000000000000000061050c565b610a787f8b73c3c69bb8fe3d512ecc4cf759cc79239f7b179b0ffacaa9a75d522b39400f7f00000000000000000000000000000000000000000000000000000000000000007f00000000000000000000000000000000000000000000000000000000000000006111ac565b905061050c565b6001600160a01b038316610a8f57fe5b6001600160a01b038216610a9f57fe5b6001600160a01b03808416600081815260036020908152604080832094871680845294825291829020859055815185815291517f8c5be1e5ebec7d5bd14f71427d1e84f3dd0314c0f7b2291e5b200ac8c7c3b9259281900390910190a3505050565b336001600160a01b037f0000000000000000000000000000000000000000000000000000000000000000161480610b605750336001600160a01b037f000000000000000000000000000000000000000000000000000000000000000016145b610b9b5760405162461bcd60e51b81526004018080602001828103825260358152602001806113f76035913960400191505060405180910390fd5b565b6001600160a01b038316610bad57fe5b6001600160a01b038216610bbd57fe5b610c00816040518060600160405280602681526020016113a9602691396001600160a01b038616600090815260026020526040902054919063ffffffff610dcb16565b6001600160a01b038085166000908152600260205260408082209390935590841681522054610c35908263ffffffff610e6216565b6001600160a01b03808416600081815260026020908152604091829020949094558051858152905191939287169260008051602061142c83398151915292918290030190a3505050565b6001600160a01b03811615801590610ca057506001600160a01b0381163014155b610cdb5760405162461bcd60e51b81526004018080602001828103825260528152602001806113016052913960600191505060405180910390fd5b7f00000000000000000000000000000000000000000000000000000000000000006001600160a01b0316816001600160a01b031614158015610d4f57507f00000000000000000000000000000000000000000000000000000000000000006001600160a01b0316816001600160a01b031614155b8015610d8d57507f00000000000000000000000000000000000000000000000000000000000000006001600160a01b0316816001600160a01b031614155b610dc85760405162461bcd60e51b81526004018080602001828103825260568152602001806113536056913960600191505060405180910390fd5b50565b60008184841115610e5a5760405162461bcd60e51b81526004018080602001828103825283818151815260200191508051906020019080838360005b83811015610e1f578181015183820152602001610e07565b50505050905090810190601f168015610e4c5780820380516001836020036101000a031916815260200191505b509250505060405180910390fd5b505050900390565b600082820183811015610ebc576040805162461bcd60e51b815260206004820152601b60248201527f536166654d6174683a206164646974696f6e206f766572666c6f770000000000604482015290519081900360640190fd5b9392505050565b336001600160a01b037f00000000000000000000000000000000000000000000000000000000000000001614610b9b5760405162461bcd60e51b815260040180806020018281038252602a815260200180611269602a913960400191505060405180910390fd5b6001600160a01b038216610f3a57fe5b600054610f4d908263ffffffff610e6216565b60009081556001600160a01b038316815260026020526040902054610f78908263ffffffff610e6216565b6001600160a01b038316600081815260026020908152604080832094909455835185815293519293919260008051602061142c8339815191529281900390910190a35050565b336001600160a01b037f000000000000000000000000000000000000000000000000000000000000000016148061101d5750336001600160a01b037f000000000000000000000000000000000000000000000000000000000000000016145b806110505750336001600160a01b037f000000000000000000000000000000000000000000000000000000000000000016145b610b9b5760405162461bcd60e51b815260040180806020018281038252604c815260200180611293604c913960600191505060405180910390fd5b6001600160a01b03821661109b57fe5b6110de816040518060600160405280602281526020016112df602291396001600160a01b038516600090815260026020526040902054919063ffffffff610dcb16565b6001600160a01b0383166000908152600260205260408120919091555461110b908263ffffffff61120216565b60009081556040805183815290516001600160a01b0385169160008051602061142c833981519152919081900360200190a35050565b336001600160a01b037f00000000000000000000000000000000000000000000000000000000000000001614610b9b5760405162461bcd60e51b81526004018080602001828103825260248152602001806112456024913960400191505060405180910390fd5b4690565b60008383836111b96111a8565b6040805160208082019690965280820194909452606084019290925260808301523060a0808401919091528151808403909101815260c090920190528051910120949350505050565b6000610ebc83836040518060400160405280601e81526020017f536166654d6174683a207375627472616374696f6e206f766572666c6f770000815250610dcb56fe4250443a2043616c6c6572206973206e6f74207468652053746162696c697479506f6f6c425044546f6b656e3a2043616c6c6572206973206e6f7420426f72726f7765724f7065726174696f6e734250443a2043616c6c6572206973206e65697468657220426f72726f7765724f7065726174696f6e73206e6f72205661756c744d616e61676572206e6f722053746162696c697479506f6f6c45524332303a206275726e20616d6f756e7420657863656564732062616c616e63654250443a2043616e6e6f74207472616e7366657220746f6b656e73206469726563746c7920746f207468652042504420746f6b656e20636f6e7472616374206f7220746865207a65726f20616464726573734250443a2043616e6e6f74207472616e7366657220746f6b656e73206469726563746c7920746f207468652053746162696c697479506f6f6c2c205661756c744d616e61676572206f7220426f72726f7765724f707345524332303a207472616e7366657220616d6f756e7420657863656564732062616c616e636545524332303a207472616e7366657220616d6f756e74206578636565647320616c6c6f77616e63654250443a2043616c6c6572206973206e656974686572205661756c744d616e61676572206e6f722053746162696c697479506f6f6cddf252ad1be2c89b69c2b068fc378daa952ba7f163c4a11628f55a4df523b3ef45524332303a2064656372656173656420616c6c6f77616e63652062656c6f77207a65726fa2646970667358221220e2754458e0e36fd08ad9545fd836b54f3eb8ad7b07a775440d6f5b887e8d516364736f6c634300060b0033",
  "linkReferences": {},
  "deployedLinkReferences": {}
}