{
  "_format": "hh-sol-artifact-1",
  "contractName": "CommunityIssuanceTester",
  "sourceName": "contracts/TestContracts/CommunityIssuanceTester.sol",
  "abi": [
    {
      "anonymous": false,
      "inputs": [
        {
          "indexed": false,
          "internalType": "address",
          "name": "_mpTokenAddress",
          "type": "address"
        }
      ],
      "name": "MPTokenAddressSet",
      "type": "event"
    },
    {
      "anonymous": false,
      "inputs": [
        {
          "indexed": true,
          "internalType": "address",
          "name": "previousOwner",
          "type": "address"
        },
        {
          "indexed": true,
          "internalType": "address",
          "name": "newOwner",
          "type": "address"
        }
      ],
      "name": "OwnershipTransferred",
      "type": "event"
    },
    {
      "anonymous": false,
      "inputs": [
        {
          "indexed": false,
          "internalType": "address",
          "name": "_stabilityPoolAddress",
          "type": "address"
        }
      ],
      "name": "StabilityPoolAddressSet",
      "type": "event"
    },
    {
      "anonymous": false,
      "inputs": [
        {
          "indexed": false,
          "internalType": "uint256",
          "name": "_totalMPIssued",
          "type": "uint256"
        }
      ],
      "name": "TotalMPIssuedUpdated",
      "type": "event"
    },
    {
      "inputs": [],
      "name": "DECIMAL_PRECISION",
      "outputs": [
        {
          "internalType": "uint256",
          "name": "",
          "type": "uint256"
        }
      ],
      "stateMutability": "view",
      "type": "function"
    },
    {
      "inputs": [],
      "name": "ISSUANCE_FACTOR",
      "outputs": [
        {
          "internalType": "uint256",
          "name": "",
          "type": "uint256"
        }
      ],
      "stateMutability": "view",
      "type": "function"
    },
    {
      "inputs": [],
      "name": "MPSupplyCap",
      "outputs": [
        {
          "internalType": "uint256",
          "name": "",
          "type": "uint256"
        }
      ],
      "stateMutability": "view",
      "type": "function"
    },
    {
      "inputs": [],
      "name": "NAME",
      "outputs": [
        {
          "internalType": "string",
          "name": "",
          "type": "string"
        }
      ],
      "stateMutability": "view",
      "type": "function"
    },
    {
      "inputs": [],
      "name": "SECONDS_IN_ONE_MINUTE",
      "outputs": [
        {
          "internalType": "uint256",
          "name": "",
          "type": "uint256"
        }
      ],
      "stateMutability": "view",
      "type": "function"
    },
    {
      "inputs": [],
      "name": "deploymentTime",
      "outputs": [
        {
          "internalType": "uint256",
          "name": "",
          "type": "uint256"
        }
      ],
      "stateMutability": "view",
      "type": "function"
    },
    {
      "inputs": [],
      "name": "getCumulativeIssuanceFraction",
      "outputs": [
        {
          "internalType": "uint256",
          "name": "",
          "type": "uint256"
        }
      ],
      "stateMutability": "view",
      "type": "function"
    },
    {
      "inputs": [],
      "name": "isOwner",
      "outputs": [
        {
          "internalType": "bool",
          "name": "",
          "type": "bool"
        }
      ],
      "stateMutability": "view",
      "type": "function"
    },
    {
      "inputs": [],
      "name": "issueMP",
      "outputs": [
        {
          "internalType": "uint256",
          "name": "",
          "type": "uint256"
        }
      ],
      "stateMutability": "nonpayable",
      "type": "function"
    },
    {
      "inputs": [],
      "name": "mpToken",
      "outputs": [
        {
          "internalType": "contract IMPToken",
          "name": "",
          "type": "address"
        }
      ],
      "stateMutability": "view",
      "type": "function"
    },
    {
      "inputs": [
        {
          "internalType": "uint256",
          "name": "_amount",
          "type": "uint256"
        }
      ],
      "name": "obtainMP",
      "outputs": [],
      "stateMutability": "nonpayable",
      "type": "function"
    },
    {
      "inputs": [],
      "name": "owner",
      "outputs": [
        {
          "internalType": "address",
          "name": "",
          "type": "address"
        }
      ],
      "stateMutability": "view",
      "type": "function"
    },
    {
      "inputs": [
        {
          "internalType": "address",
          "name": "_account",
          "type": "address"
        },
        {
          "internalType": "uint256",
          "name": "_MPamount",
          "type": "uint256"
        }
      ],
      "name": "sendMP",
      "outputs": [],
      "stateMutability": "nonpayable",
      "type": "function"
    },
    {
      "inputs": [
        {
          "internalType": "address",
          "name": "_mpTokenAddress",
          "type": "address"
        },
        {
          "internalType": "address",
          "name": "_stabilityPoolAddress",
          "type": "address"
        }
      ],
      "name": "setAddresses",
      "outputs": [],
      "stateMutability": "nonpayable",
      "type": "function"
    },
    {
      "inputs": [],
      "name": "stabilityPoolAddress",
      "outputs": [
        {
          "internalType": "address",
          "name": "",
          "type": "address"
        }
      ],
      "stateMutability": "view",
      "type": "function"
    },
    {
      "inputs": [],
      "name": "totalMPIssued",
      "outputs": [
        {
          "internalType": "uint256",
          "name": "",
          "type": "uint256"
        }
      ],
      "stateMutability": "view",
      "type": "function"
    },
    {
      "inputs": [],
      "name": "unprotectedIssueMP",
      "outputs": [
        {
          "internalType": "uint256",
          "name": "",
          "type": "uint256"
        }
      ],
      "stateMutability": "nonpayable",
      "type": "function"
    }
  ],
  "bytecode": "0x60a060405234801561001057600080fd5b50600080546001600160a01b0319163390811782556040519091907f8be0079c531659141344cd1fd0a4f28419497f9722a3daafe3b4186f6b6457e0908290a342608052608051610c66610073600039806106c2528061074c5250610c666000f3fe608060405234801561001057600080fd5b50600436106100eb5760003560e01c806393e54fd01161009257806393e54fd01461019a5780639cb3e335146101a25780639d5b044d146101bf578063a20baee6146101c7578063a3f4df7e146101cf578063db5bcf361461024c578063dbec01c414610254578063ecda10f514610280578063f7e6e82a14610288576100eb565b80630b622ab2146100f05780630fc83da3146101145780631a431c8a1461012e5780635b2048fe1461013657806361ec893d1461013e5780638da5cb5b146101465780638f32d59b1461014e57806390107afe1461016a575b600080fd5b6100f8610290565b604080516001600160a01b039092168252519081900360200190f35b61011c61029f565b60408051918252519081900360200190f35b61011c6102ab565b6100f861034d565b61011c61035c565b6100f8610361565b610156610370565b604080519115158252519081900360200190f35b6101986004803603604081101561018057600080fd5b506001600160a01b0381358116916020013516610381565b005b61011c610527565b610198600480360360208110156101b857600080fd5b5035610566565b61011c6105e4565b61011c6105f3565b6101d76105ff565b6040805160208082528351818301528351919283929083019185019080838360005b838110156102115781810151838201526020016101f9565b50505050905090810190601f16801561023e5780820380516001836020036101000a031916815260200191505b509250505060405180910390f35b61011c61062c565b6101986004803603604081101561026a57600080fd5b506001600160a01b038135169060200135610632565b61011c6106c0565b61011c6106e4565b6002546001600160a01b031681565b670de0b5809a6f939881565b60006102b56106f3565b60006102f2670de0b6b3a76400006102e66102ce61073e565b6a8ab8fef99fdd01e4d800009063ffffffff6107c316565b9063ffffffff61082516565b9050600061030b6003548361086790919063ffffffff16565b60038390556040805184815290519192507f886da85383c012ad76f2689235218ef0e9f7ba062135bf3de0edbfb0385f103d919081900360200190a191505090565b6001546001600160a01b031681565b603c81565b6000546001600160a01b031690565b6000546001600160a01b0316331490565b610389610370565b6103da576040805162461bcd60e51b815260206004820181905260248201527f4f776e61626c653a2063616c6c6572206973206e6f7420746865206f776e6572604482015290519081900360640190fd5b6103e3826108a9565b6103ec816108a9565b600180546001600160a01b038085166001600160a01b0319928316179283905560028054858316931692909217909155604080516370a0823160e01b81523060048201529051600093909216916370a0823191602480820192602092909190829003018186803b15801561045f57600080fd5b505afa158015610473573d6000803e3d6000fd5b505050506040513d602081101561048957600080fd5b505190506a8ab8fef99fdd01e4d800008110156104a257fe5b604080516001600160a01b038516815290517f78ad23489374e5dbc904a43b0998bfcd502862c76f9ec6665648236329ab0c819181900360200190a1604080516001600160a01b038416815290517f45c53611bc8ba9e11f4f8173bda9e3faf89c395ddb83f9a55230b156828db3159181900360200190a161052261095c565b505050565b600080610541670de0b6b3a76400006102e66102ce61073e565b9050600061055a6003548361086790919063ffffffff16565b60039290925550905090565b6001546040805163a9059cbb60e01b81523360048201526024810184905290516001600160a01b039092169163a9059cbb916044808201926020929091908290030181600087803b1580156105ba57600080fd5b505af11580156105ce573d6000803e3d6000fd5b505050506040513d602081101561052257600080fd5b60006105ee61073e565b905090565b670de0b6b3a764000081565b60405180604001604052806011815260200170436f6d6d756e69747949737375616e636560781b81525081565b60035481565b61063a6106f3565b6001546040805163a9059cbb60e01b81526001600160a01b038581166004830152602482018590529151919092169163a9059cbb9160448083019260209291908290030181600087803b15801561069057600080fd5b505af11580156106a4573d6000803e3d6000fd5b505050506040513d60208110156106ba57600080fd5b50505050565b7f000000000000000000000000000000000000000000000000000000000000000081565b6a8ab8fef99fdd01e4d8000081565b6002546001600160a01b0316331461073c5760405162461bcd60e51b8152600401808060200182810382526023815260200180610c0e6023913960400191505060405180910390fd5b565b600080610776603c6102e6427f000000000000000000000000000000000000000000000000000000000000000063ffffffff61086716565b9050600061078c670de0b5809a6f9398836109a6565b905060006107a8670de0b6b3a76400008363ffffffff61086716565b9050670de0b6b3a76400008111156107bc57fe5b9250505090565b6000826107d25750600061081f565b828202828482816107df57fe5b041461081c5760405162461bcd60e51b8152600401808060200182810382526021815260200180610bed6021913960400191505060405180910390fd5b90505b92915050565b600061081c83836040518060400160405280601a81526020017f536166654d6174683a206469766973696f6e206279207a65726f000000000000815250610a5b565b600061081c83836040518060400160405280601e81526020017f536166654d6174683a207375627472616374696f6e206f766572666c6f770000815250610afd565b6001600160a01b038116610904576040805162461bcd60e51b815260206004820152601e60248201527f4163636f756e742063616e6e6f74206265207a65726f20616464726573730000604482015290519081900360640190fd5b803b80610958576040805162461bcd60e51b815260206004820181905260248201527f4163636f756e7420636f64652073697a652063616e6e6f74206265207a65726f604482015290519081900360640190fd5b5050565b600080546040516001600160a01b03909116907f8be0079c531659141344cd1fd0a4f28419497f9722a3daafe3b4186f6b6457e0908390a3600080546001600160a01b0319169055565b6000631f5405008211156109bc57631f54050091505b816109d05750670de0b6b3a764000061081f565b670de0b6b3a764000083835b6001811115610a475760028106610a11576109f78283610b57565b9150610a0a81600263ffffffff61082516565b9050610a42565b610a1b8284610b57565b9250610a278283610b57565b9150610a3f60026102e683600163ffffffff61086716565b90505b6109dc565b610a518284610b57565b9695505050505050565b60008183610ae75760405162461bcd60e51b81526004018080602001828103825283818151815260200191508051906020019080838360005b83811015610aac578181015183820152602001610a94565b50505050905090810190601f168015610ad95780820380516001836020036101000a031916815260200191505b509250505060405180910390fd5b506000838581610af357fe5b0495945050505050565b60008184841115610b4f5760405162461bcd60e51b8152602060048201818152835160248401528351909283926044909101919085019080838360008315610aac578181015183820152602001610a94565b505050900390565b600080610b6a848463ffffffff6107c316565b9050610b8a670de0b6b3a76400006102e6836706f05b59d3b20000610b92565b949350505050565b60008282018381101561081c576040805162461bcd60e51b815260206004820152601b60248201527f536166654d6174683a206164646974696f6e206f766572666c6f770000000000604482015290519081900360640190fdfe536166654d6174683a206d756c7469706c69636174696f6e206f766572666c6f77436f6d6d756e69747949737375616e63653a2063616c6c6572206973206e6f74205350a2646970667358221220b26577cc7d598f21a3c31f9ee9ca688b00549f6143220809e6e21608f276d66464736f6c634300060b0033",
  "linkReferences": {},
  "deployedLinkReferences": {}
}