{
  "_format": "hh-sol-artifact-1",
  "contractName": "EchidnaTester",
  "sourceName": "contracts/TestContracts/EchidnaTester.sol",
  "abi": [
    {
      "inputs": [],
      "stateMutability": "payable",
      "type": "constructor"
    },
    {
      "inputs": [],
      "name": "activePool",
      "outputs": [
        {
          "internalType": "contract ActivePool",
          "name": "",
          "type": "address"
        }
      ],
      "stateMutability": "view",
      "type": "function"
    },
    {
      "inputs": [
        {
          "internalType": "uint256",
          "name": "_i",
          "type": "uint256"
        },
        {
          "internalType": "uint256",
          "name": "_RBTC",
          "type": "uint256"
        }
      ],
      "name": "addCollExt",
      "outputs": [],
      "stateMutability": "payable",
      "type": "function"
    },
    {
      "inputs": [
        {
          "internalType": "uint256",
          "name": "_i",
          "type": "uint256"
        },
        {
          "internalType": "uint256",
          "name": "_RBTC",
          "type": "uint256"
        },
        {
          "internalType": "address",
          "name": "_upperHint",
          "type": "address"
        },
        {
          "internalType": "address",
          "name": "_lowerHint",
          "type": "address"
        }
      ],
      "name": "addCollRawExt",
      "outputs": [],
      "stateMutability": "payable",
      "type": "function"
    },
    {
      "inputs": [
        {
          "internalType": "uint256",
          "name": "_i",
          "type": "uint256"
        },
        {
          "internalType": "uint256",
          "name": "_RBTC",
          "type": "uint256"
        },
        {
          "internalType": "uint256",
          "name": "_collWithdrawal",
          "type": "uint256"
        },
        {
          "internalType": "uint256",
          "name": "_debtChange",
          "type": "uint256"
        },
        {
          "internalType": "bool",
          "name": "_isDebtIncrease",
          "type": "bool"
        }
      ],
      "name": "adjustVaultExt",
      "outputs": [],
      "stateMutability": "payable",
      "type": "function"
    },
    {
      "inputs": [
        {
          "internalType": "uint256",
          "name": "_i",
          "type": "uint256"
        },
        {
          "internalType": "uint256",
          "name": "_RBTC",
          "type": "uint256"
        },
        {
          "internalType": "uint256",
          "name": "_collWithdrawal",
          "type": "uint256"
        },
        {
          "internalType": "uint256",
          "name": "_debtChange",
          "type": "uint256"
        },
        {
          "internalType": "bool",
          "name": "_isDebtIncrease",
          "type": "bool"
        },
        {
          "internalType": "address",
          "name": "_upperHint",
          "type": "address"
        },
        {
          "internalType": "address",
          "name": "_lowerHint",
          "type": "address"
        },
        {
          "internalType": "uint256",
          "name": "_maxFee",
          "type": "uint256"
        }
      ],
      "name": "adjustVaultRawExt",
      "outputs": [],
      "stateMutability": "payable",
      "type": "function"
    },
    {
      "inputs": [
        {
          "internalType": "uint256",
          "name": "_i",
          "type": "uint256"
        },
        {
          "internalType": "address",
          "name": "spender",
          "type": "address"
        },
        {
          "internalType": "uint256",
          "name": "amount",
          "type": "uint256"
        }
      ],
      "name": "approveExt",
      "outputs": [
        {
          "internalType": "bool",
          "name": "",
          "type": "bool"
        }
      ],
      "stateMutability": "nonpayable",
      "type": "function"
    },
    {
      "inputs": [
        {
          "internalType": "uint256",
          "name": "_i",
          "type": "uint256"
        },
        {
          "internalType": "address[]",
          "name": "_vaultArray",
          "type": "address[]"
        }
      ],
      "name": "batchLiquidateVaultsExt",
      "outputs": [],
      "stateMutability": "nonpayable",
      "type": "function"
    },
    {
      "inputs": [],
      "name": "borrowerOperations",
      "outputs": [
        {
          "internalType": "contract BorrowerOperations",
          "name": "",
          "type": "address"
        }
      ],
      "stateMutability": "view",
      "type": "function"
    },
    {
      "inputs": [],
      "name": "bpdToken",
      "outputs": [
        {
          "internalType": "contract BPDToken",
          "name": "",
          "type": "address"
        }
      ],
      "stateMutability": "view",
      "type": "function"
    },
    {
      "inputs": [
        {
          "internalType": "uint256",
          "name": "_i",
          "type": "uint256"
        }
      ],
      "name": "closeVaultExt",
      "outputs": [],
      "stateMutability": "nonpayable",
      "type": "function"
    },
    {
      "inputs": [],
      "name": "collSurplusPool",
      "outputs": [
        {
          "internalType": "contract CollSurplusPool",
          "name": "",
          "type": "address"
        }
      ],
      "stateMutability": "view",
      "type": "function"
    },
    {
      "inputs": [
        {
          "internalType": "uint256",
          "name": "_i",
          "type": "uint256"
        },
        {
          "internalType": "address",
          "name": "spender",
          "type": "address"
        },
        {
          "internalType": "uint256",
          "name": "subtractedValue",
          "type": "uint256"
        }
      ],
      "name": "decreaseAllowanceExt",
      "outputs": [
        {
          "internalType": "bool",
          "name": "",
          "type": "bool"
        }
      ],
      "stateMutability": "nonpayable",
      "type": "function"
    },
    {
      "inputs": [],
      "name": "defaultPool",
      "outputs": [
        {
          "internalType": "contract DefaultPool",
          "name": "",
          "type": "address"
        }
      ],
      "stateMutability": "view",
      "type": "function"
    },
    {
      "inputs": [
        {
          "internalType": "uint256",
          "name": "",
          "type": "uint256"
        }
      ],
      "name": "echidnaProxies",
      "outputs": [
        {
          "internalType": "contract EchidnaProxy",
          "name": "",
          "type": "address"
        }
      ],
      "stateMutability": "view",
      "type": "function"
    },
    {
      "inputs": [],
      "name": "echidna_BPD_global_balances",
      "outputs": [
        {
          "internalType": "bool",
          "name": "",
          "type": "bool"
        }
      ],
      "stateMutability": "view",
      "type": "function"
    },
    {
      "inputs": [],
      "name": "echidna_RBTC_balances",
      "outputs": [
        {
          "internalType": "bool",
          "name": "",
          "type": "bool"
        }
      ],
      "stateMutability": "view",
      "type": "function"
    },
    {
      "inputs": [],
      "name": "echidna_canary_active_pool_balance",
      "outputs": [
        {
          "internalType": "bool",
          "name": "",
          "type": "bool"
        }
      ],
      "stateMutability": "view",
      "type": "function"
    },
    {
      "inputs": [],
      "name": "echidna_canary_number_of_vaults",
      "outputs": [
        {
          "internalType": "bool",
          "name": "",
          "type": "bool"
        }
      ],
      "stateMutability": "view",
      "type": "function"
    },
    {
      "inputs": [],
      "name": "echidna_price",
      "outputs": [
        {
          "internalType": "bool",
          "name": "",
          "type": "bool"
        }
      ],
      "stateMutability": "view",
      "type": "function"
    },
    {
      "inputs": [],
      "name": "echidna_vault_properties",
      "outputs": [
        {
          "internalType": "bool",
          "name": "",
          "type": "bool"
        }
      ],
      "stateMutability": "view",
      "type": "function"
    },
    {
      "inputs": [],
      "name": "echidna_vaults_order",
      "outputs": [
        {
          "internalType": "bool",
          "name": "",
          "type": "bool"
        }
      ],
      "stateMutability": "view",
      "type": "function"
    },
    {
      "inputs": [],
      "name": "gasPool",
      "outputs": [
        {
          "internalType": "contract GasPool",
          "name": "",
          "type": "address"
        }
      ],
      "stateMutability": "view",
      "type": "function"
    },
    {
      "inputs": [
        {
          "internalType": "uint256",
          "name": "_i",
          "type": "uint256"
        },
        {
          "internalType": "address",
          "name": "spender",
          "type": "address"
        },
        {
          "internalType": "uint256",
          "name": "addedValue",
          "type": "uint256"
        }
      ],
      "name": "increaseAllowanceExt",
      "outputs": [
        {
          "internalType": "bool",
          "name": "",
          "type": "bool"
        }
      ],
      "stateMutability": "nonpayable",
      "type": "function"
    },
    {
      "inputs": [
        {
          "internalType": "uint256",
          "name": "_i",
          "type": "uint256"
        },
        {
          "internalType": "address",
          "name": "_user",
          "type": "address"
        }
      ],
      "name": "liquidateExt",
      "outputs": [],
      "stateMutability": "nonpayable",
      "type": "function"
    },
    {
      "inputs": [
        {
          "internalType": "uint256",
          "name": "_i",
          "type": "uint256"
        },
        {
          "internalType": "uint256",
          "name": "_n",
          "type": "uint256"
        }
      ],
      "name": "liquidateVaultsExt",
      "outputs": [],
      "stateMutability": "nonpayable",
      "type": "function"
    },
    {
      "inputs": [
        {
          "internalType": "uint256",
          "name": "_i",
          "type": "uint256"
        },
        {
          "internalType": "uint256",
          "name": "_RBTC",
          "type": "uint256"
        },
        {
          "internalType": "uint256",
          "name": "_BPDAmount",
          "type": "uint256"
        }
      ],
      "name": "openVaultExt",
      "outputs": [],
      "stateMutability": "payable",
      "type": "function"
    },
    {
      "inputs": [
        {
          "internalType": "uint256",
          "name": "_i",
          "type": "uint256"
        },
        {
          "internalType": "uint256",
          "name": "_RBTC",
          "type": "uint256"
        },
        {
          "internalType": "uint256",
          "name": "_BPDAmount",
          "type": "uint256"
        },
        {
          "internalType": "address",
          "name": "_upperHint",
          "type": "address"
        },
        {
          "internalType": "address",
          "name": "_lowerHint",
          "type": "address"
        },
        {
          "internalType": "uint256",
          "name": "_maxFee",
          "type": "uint256"
        }
      ],
      "name": "openVaultRawExt",
      "outputs": [],
      "stateMutability": "payable",
      "type": "function"
    },
    {
      "inputs": [
        {
          "internalType": "uint256",
          "name": "_i",
          "type": "uint256"
        },
        {
          "internalType": "uint256",
          "name": "_amount",
          "type": "uint256"
        },
        {
          "internalType": "address",
          "name": "_frontEndTag",
          "type": "address"
        }
      ],
      "name": "provideToSPExt",
      "outputs": [],
      "stateMutability": "nonpayable",
      "type": "function"
    },
    {
      "inputs": [
        {
          "internalType": "uint256",
          "name": "_i",
          "type": "uint256"
        },
        {
          "internalType": "uint256",
          "name": "_BPDAmount",
          "type": "uint256"
        },
        {
          "internalType": "address",
          "name": "_firstRedemptionHint",
          "type": "address"
        },
        {
          "internalType": "address",
          "name": "_upperPartialRedemptionHint",
          "type": "address"
        },
        {
          "internalType": "address",
          "name": "_lowerPartialRedemptionHint",
          "type": "address"
        },
        {
          "internalType": "uint256",
          "name": "_partialRedemptionHintNICR",
          "type": "uint256"
        }
      ],
      "name": "redeemCollateralExt",
      "outputs": [],
      "stateMutability": "nonpayable",
      "type": "function"
    },
    {
      "inputs": [
        {
          "internalType": "uint256",
          "name": "_i",
          "type": "uint256"
        },
        {
          "internalType": "uint256",
          "name": "_amount",
          "type": "uint256"
        },
        {
          "internalType": "address",
          "name": "_upperHint",
          "type": "address"
        },
        {
          "internalType": "address",
          "name": "_lowerHint",
          "type": "address"
        }
      ],
      "name": "repayBPDExt",
      "outputs": [],
      "stateMutability": "nonpayable",
      "type": "function"
    },
    {
      "inputs": [
        {
          "internalType": "uint256",
          "name": "_price",
          "type": "uint256"
        }
      ],
      "name": "setPriceExt",
      "outputs": [],
      "stateMutability": "nonpayable",
      "type": "function"
    },
    {
      "inputs": [],
      "name": "stabilityPool",
      "outputs": [
        {
          "internalType": "contract StabilityPool",
          "name": "",
          "type": "address"
        }
      ],
      "stateMutability": "view",
      "type": "function"
    },
    {
      "inputs": [
        {
          "internalType": "uint256",
          "name": "_i",
          "type": "uint256"
        },
        {
          "internalType": "address",
          "name": "recipient",
          "type": "address"
        },
        {
          "internalType": "uint256",
          "name": "amount",
          "type": "uint256"
        }
      ],
      "name": "transferExt",
      "outputs": [
        {
          "internalType": "bool",
          "name": "",
          "type": "bool"
        }
      ],
      "stateMutability": "nonpayable",
      "type": "function"
    },
    {
      "inputs": [
        {
          "internalType": "uint256",
          "name": "_i",
          "type": "uint256"
        },
        {
          "internalType": "address",
          "name": "sender",
          "type": "address"
        },
        {
          "internalType": "address",
          "name": "recipient",
          "type": "address"
        },
        {
          "internalType": "uint256",
          "name": "amount",
          "type": "uint256"
        }
      ],
      "name": "transferFromExt",
      "outputs": [
        {
          "internalType": "bool",
          "name": "",
          "type": "bool"
        }
      ],
      "stateMutability": "nonpayable",
      "type": "function"
    },
    {
      "inputs": [],
      "name": "vaultManager",
      "outputs": [
        {
          "internalType": "contract VaultManager",
          "name": "",
          "type": "address"
        }
      ],
      "stateMutability": "view",
      "type": "function"
    },
    {
      "inputs": [
        {
          "internalType": "uint256",
          "name": "_i",
          "type": "uint256"
        },
        {
          "internalType": "uint256",
          "name": "_amount",
          "type": "uint256"
        },
        {
          "internalType": "address",
          "name": "_upperHint",
          "type": "address"
        },
        {
          "internalType": "address",
          "name": "_lowerHint",
          "type": "address"
        },
        {
          "internalType": "uint256",
          "name": "_maxFee",
          "type": "uint256"
        }
      ],
      "name": "withdrawBPDExt",
      "outputs": [],
      "stateMutability": "nonpayable",
      "type": "function"
    },
    {
      "inputs": [
        {
          "internalType": "uint256",
          "name": "_i",
          "type": "uint256"
        },
        {
          "internalType": "uint256",
          "name": "_amount",
          "type": "uint256"
        },
        {
          "internalType": "address",
          "name": "_upperHint",
          "type": "address"
        },
        {
          "internalType": "address",
          "name": "_lowerHint",
          "type": "address"
        }
      ],
      "name": "withdrawCollExt",
      "outputs": [],
      "stateMutability": "nonpayable",
      "type": "function"
    },
    {
      "inputs": [
        {
          "internalType": "uint256",
          "name": "_i",
          "type": "uint256"
        },
        {
          "internalType": "uint256",
          "name": "_amount",
          "type": "uint256"
        }
      ],
      "name": "withdrawFromSPExt",
      "outputs": [],
      "stateMutability": "nonpayable",
      "type": "function"
    }
  ],
  "bytecode": "0x6080604052604051620000129062000ab0565b604051809103906000f0801580156200002f573d6000803e3d6000fd5b50600380546001600160a01b0319166001600160a01b03929092169190911790556040516200005e9062000abe565b604051809103906000f0801580156200007b573d6000803e3d6000fd5b50600480546001600160a01b0319166001600160a01b0392909216919091179055604051620000aa9062000acc565b604051809103906000f080158015620000c7573d6000803e3d6000fd5b50600580546001600160a01b0319166001600160a01b0392909216919091179055604051620000f69062000ada565b604051809103906000f08015801562000113573d6000803e3d6000fd5b50600680546001600160a01b0319166001600160a01b0392909216919091179055604051620001429062000ae8565b604051809103906000f0801580156200015f573d6000803e3d6000fd5b50600780546001600160a01b0319166001600160a01b03929092169190911790556040516200018e9062000af6565b604051809103906000f080158015620001ab573d6000803e3d6000fd5b50600880546001600160a01b0319166001600160a01b039283161790556003546007546004546040519284169391821692911690620001ea9062000b03565b6001600160a01b03938416815291831660208301529091166040808301919091525190819003606001906000f0801580156200022a573d6000803e3d6000fd5b50600a80546001600160a01b0319166001600160a01b0392909216919091179055604051620002599062000b11565b604051809103906000f08015801562000276573d6000803e3d6000fd5b50600980546001600160a01b0319166001600160a01b0392909216919091179055604051620002a59062000b1f565b604051809103906000f080158015620002c2573d6000803e3d6000fd5b50600b80546001600160a01b0319166001600160a01b0392909216919091179055604051620002f19062000b2c565b604051809103906000f0801580156200030e573d6000803e3d6000fd5b50600c80546001600160a01b0319166001600160a01b03928316179081905560035460048054600554600654600754600854600954600b54600a5460408051631e61717960e21b8152988d1699890199909952958b166024880152938a166044870152918916606486015288166084850152871660a4840152861660c4830152851660e482015292841661010484015260006101248401819052610144840181905290519190931692637985c5e492610164808201939182900301818387803b158015620003db57600080fd5b505af1158015620003f0573d6000803e3d6000fd5b505060048054600354600554600654600754600854600954600b54600c54600a5460408051636c37a4af60e01b81526001600160a01b039a8b169c81019c909c5297891660248c015295881660448b015293871660648a01529186166084890152851660a4880152841660c4870152831660e48601528216610104850152600061012485018190529051919092169450636c37a4af93506101448084019382900301818387803b158015620004a457600080fd5b505af1158015620004b9573d6000803e3d6000fd5b50506005546004805460035460075460065460408051634a945f8d60e01b81526001600160a01b039586169681019690965292841660248601529083166044850152821660648401525192169350634a945f8d925060848082019260009290919082900301818387803b1580156200053057600080fd5b505af115801562000545573d6000803e3d6000fd5b5050600654600354600554604080516348083d7f60e11b81526001600160a01b0393841660048201529183166024830152519190921693506390107afe9250604480830192600092919082900301818387803b158015620005a557600080fd5b505af1158015620005ba573d6000803e3d6000fd5b505060075460048054600354600554600a54600c54600b546040805163eaa8ba7f60e01b81526001600160a01b039788169881019890985294861660248801529285166044870152908416606486015283166084850152821660a4840152600060c48401819052905191909316945063eaa8ba7f935060e4808301939282900301818387803b1580156200064d57600080fd5b505af115801562000662573d6000803e3d6000fd5b50506009546004805460035460055460408051630d8efe5960e21b81526001600160a01b0394851695810195909552918316602485015282166044840152519216935063363bf964925060648082019260009290919082900301818387803b158015620006ce57600080fd5b505af1158015620006e3573d6000803e3d6000fd5b5050600c546003546004805460408051631e6edaf360e31b8152670de0b6b3a7640000938101939093526001600160a01b03938416602484015290831660448301525191909216935063f376d7989250606480830192600092919082900301818387803b1580156200075457600080fd5b505af115801562000769573d6000803e3d6000fd5b506000925050505b6064811015620008a957600354600454600754600a546040516001600160a01b0394851694938416939283169290911690620007ad9062000b3a565b6001600160a01b039485168152928416602084015290831660408084019190915292166060820152905190819003608001906000f080158015620007f5573d6000803e3d6000fd5b50600d82606481106200080457fe5b0180546001600160a01b0319166001600160a01b03929092169190911790556000600d82606481106200083357fe5b01546040516001600160a01b039091169069d3c21bcecceda100000090600081818185875af1925050503d80600081146200088b576040519150601f19603f3d011682016040523d82523d6000602084013e62000890565b606091505b50509050806200089f57600080fd5b5060010162000771565b506004805460408051631e5395c960e21b815290516001600160a01b039092169263794e5724928282019260209290829003018186803b158015620008ed57600080fd5b505afa15801562000902573d6000803e3d6000fd5b505050506040513d60208110156200091957600080fd5b50516000556004805460408051635733d58f60e01b815290516001600160a01b0390921692635733d58f928282019260209290829003018186803b1580156200096157600080fd5b505afa15801562000976573d6000803e3d6000fd5b505050506040513d60208110156200098d57600080fd5b5051600155600480546040805163a619cc1f60e01b815290516001600160a01b039092169263a619cc1f928282019260209290829003018186803b158015620009d557600080fd5b505afa158015620009ea573d6000803e3d6000fd5b505050506040513d602081101562000a0157600080fd5b505160025560005462000a1357600080fd5b60006001541162000a2357600080fd5b600b54604080516391b7f5ed60e01b815269021e19e0c9bab2400000600482015290516001600160a01b03909216916391b7f5ed916024808201926020929091908290030181600087803b15801562000a7b57600080fd5b505af115801562000a90573d6000803e3d6000fd5b505050506040513d602081101562000aa757600080fd5b5062000b489050565b615aea80620032e583390190565b6137908062008dcf83390190565b610c1c806200c55f83390190565b6109f7806200d17b83390190565b613991806200db7283390190565b605c806201150383390190565b6118a1806201155f83390190565b610b9a8062012e0083390190565b60f7806201399a83390190565b61192d8062013a9183390190565b610e3580620153be83390190565b61278d8062000b586000396000f3fe6080604052600436106102055760003560e01c80637f7dde4a11610113578063a7ff3161116100ab578063cda775f91161006f578063cda775f914610831578063dd59049614610846578063e44891271461085b578063f021c4931461088b578063fa08b0381461090f57610205565b8063a7ff316114610714578063ab1529c514610729578063b0ba4dd814610753578063b79c4be51461079b578063ccf13782146107e257610205565b80637f7dde4a146105bc57806386954470146105d15780638a4adf24146105e65780638e4707d3146105fb57806391a4a4261461063a5780639aa36ce2146106645780639cdd0978146106795780639f56ac18146106b8578063a3d36834146106cd57610205565b80634b1eacd0116101a15780635e3513bc116101655780635e3513bc1461047857806369690936146104cf57806377553ad4146105095780637c22900e1461051e5780637ca8b0281461056757610205565b80634b1eacd0146103c95780634e792a30146103f25780635446e53d1461042b57806357285cc5146104405780635895ac4e1461046357610205565b8063048c661d1461020a57806304bbf59c1461023b57806304f04fcf1461028e5780630ce60235146102c0578063119be5d0146102d55780633ca4afc1146103145780633cc74225146103535780633e0487f2146103685780634557559f1461039f575b600080fd5b34801561021657600080fd5b5061021f610924565b604080516001600160a01b039092168252519081900360200190f35b34801561024757600080fd5b5061027a6004803603606081101561025e57600080fd5b508035906001600160a01b036020820135169060400135610933565b604080519115158252519081900360200190f35b34801561029a57600080fd5b506102be600480360360408110156102b157600080fd5b50803590602001356109d3565b005b3480156102cc57600080fd5b5061027a610a51565b3480156102e157600080fd5b5061027a600480360360608110156102f857600080fd5b508035906001600160a01b036020820135169060400135610a6d565b34801561032057600080fd5b506102be6004803603606081101561033757600080fd5b50803590602081013590604001356001600160a01b0316610ad8565b34801561035f57600080fd5b5061021f610b5f565b6102be600480360360a081101561037e57600080fd5b50803590602081013590604081013590606081013590608001351515610b6e565b3480156103ab57600080fd5b506102be600480360360208110156103c257600080fd5b5035610c56565b6102be600480360360608110156103df57600080fd5b5080359060208101359060400135610cdc565b3480156103fe57600080fd5b506102be6004803603604081101561041557600080fd5b50803590602001356001600160a01b0316610e2d565b34801561043757600080fd5b5061027a610e8f565b6102be6004803603604081101561045657600080fd5b50803590602001356112b5565b34801561046f57600080fd5b5061027a611368565b6102be600480360361010081101561048f57600080fd5b5080359060208101359060408101359060608101359060808101351515906001600160a01b0360a082013581169160c08101359091169060e001356113fe565b6102be600480360360808110156104e557600080fd5b508035906020810135906001600160a01b03604082013581169160600135166114af565b34801561051557600080fd5b5061021f61153f565b34801561052a57600080fd5b5061027a6004803603608081101561054157600080fd5b508035906001600160a01b0360208201358116916040810135909116906060013561154e565b34801561057357600080fd5b506102be600480360360c081101561058a57600080fd5b508035906020810135906001600160a01b03604082013581169160608101358216916080820135169060a001356115f7565b3480156105c857600080fd5b5061021f6116a4565b3480156105dd57600080fd5b5061027a6116b3565b3480156105f257600080fd5b5061021f611975565b34801561060757600080fd5b5061027a6004803603606081101561061e57600080fd5b508035906001600160a01b036020820135169060400135611984565b34801561064657600080fd5b5061021f6004803603602081101561065d57600080fd5b50356119ef565b34801561067057600080fd5b5061027a611a0c565b34801561068557600080fd5b5061027a6004803603606081101561069c57600080fd5b508035906001600160a01b036020820135169060400135611cc1565b3480156106c457600080fd5b5061027a611d2c565b3480156106d957600080fd5b506102be600480360360808110156106f057600080fd5b508035906020810135906001600160a01b0360408201358116916060013516611d49565b34801561072057600080fd5b5061027a611dba565b34801561073557600080fd5b506102be6004803603602081101561074c57600080fd5b5035611ffb565b6102be600480360360c081101561076957600080fd5b508035906020810135906040810135906001600160a01b03606082013581169160808101359091169060a0013561207b565b3480156107a757600080fd5b506102be600480360360808110156107be57600080fd5b508035906020810135906001600160a01b03604082013581169160600135166120fa565b3480156107ee57600080fd5b506102be600480360360a081101561080557600080fd5b508035906020810135906001600160a01b0360408201358116916060810135909116906080013561216b565b34801561083d57600080fd5b5061021f6121e3565b34801561085257600080fd5b5061021f6121f2565b34801561086757600080fd5b506102be6004803603604081101561087e57600080fd5b5080359060200135612201565b34801561089757600080fd5b506102be600480360360408110156108ae57600080fd5b813591908101906040810160208201356401000000008111156108d057600080fd5b8201836020820111156108e257600080fd5b8035906020019184602083028401116401000000008311171561090457600080fd5b509092509050612262565b34801561091b57600080fd5b5061021f6122f3565b6007546001600160a01b031681565b600080606485069050600d816064811061094957fe5b01546040805163d466e4eb60e01b81526001600160a01b038781166004830152602482018790529151919092169163d466e4eb9160448083019260209291908290030181600087803b15801561099e57600080fd5b505af11580156109b2573d6000803e3d6000fd5b505050506040513d60208110156109c857600080fd5b509195945050505050565b6000606483069050600d81606481106109e857fe5b015460408051632eb5eac960e01b81526004810185905290516001600160a01b0390921691632eb5eac99160248082019260009290919082900301818387803b158015610a3457600080fd5b505af1158015610a48573d6000803e3d6000fd5b50505050505050565b600060146071541115610a6657506000610a6a565b5060015b90565b600080606485069050600d8160648110610a8357fe5b01546040805163cf83544f60e01b81526001600160a01b038781166004830152602482018790529151919092169163cf83544f9160448083019260209291908290030181600087803b15801561099e57600080fd5b6000606484069050600d8160648110610aed57fe5b015460408051634c36240b60e01b8152600481018690526001600160a01b03858116602483015291519190921691634c36240b91604480830192600092919082900301818387803b158015610b4157600080fd5b505af1158015610b55573d6000803e3d6000fd5b5050505050505050565b6006546001600160a01b031681565b60006064860690506000600d8260648110610b8557fe5b0154600080546001600160a01b039092169250823191610ba89083908a90612302565b9050858515610bc157610bbe82886000546123de565b90505b604080516348173b9960e01b815260048101849052602481018a905260448101839052871515606482015260006084820181905260a4820181905260c4820181905291516001600160a01b038716926348173b999260e4808201939182900301818387803b158015610c3257600080fd5b505af1158015610c46573d6000803e3d6000fd5b5050505050505050505050505050565b600b54604080516391b7f5ed60e01b81526004810184905290516000926001600160a01b0316916391b7f5ed91602480830192602092919082900301818787803b158015610ca357600080fd5b505af1158015610cb7573d6000803e3d6000fd5b505050506040513d6020811015610ccd57600080fd5b5051905080610cd857fe5b5050565b60006064840690506000600d8260648110610cf357fe5b01546001546001600160a01b039091169150813190600090610d189083908890612302565b90506000610d2982876001546123de565b6040805163aa47ebb960e01b81526004810185905260248101839052600060448201819052606482018190526084820181905291519293506001600160a01b0387169263aa47ebb99260a48084019391929182900301818387803b158015610d9057600080fd5b505af1158015610da4573d6000803e3d6000fd5b50505050600360009054906101000a90046001600160a01b03166001600160a01b031663cf80c3726040518163ffffffff1660e01b815260040160206040518083038186803b158015610df657600080fd5b505afa158015610e0a573d6000803e3d6000fd5b505050506040513d6020811015610e2057600080fd5b50516071819055610b5557fe5b6000606483069050600d8160648110610e4257fe5b015460408051634d37261f60e01b81526001600160a01b03858116600483015291519190921691634d37261f91602480830192600092919082900301818387803b158015610a3457600080fd5b600080600a60009054906101000a90046001600160a01b03166001600160a01b03166318160ddd6040518163ffffffff1660e01b815260040160206040518083038186803b158015610ee057600080fd5b505afa158015610ef4573d6000803e3d6000fd5b505050506040513d6020811015610f0a57600080fd5b5051600a54600854604080516370a0823160e01b81526001600160a01b039283166004820152905193945060009391909216916370a08231916024808301926020929190829003018186803b158015610f6257600080fd5b505afa158015610f76573d6000803e3d6000fd5b505050506040513d6020811015610f8c57600080fd5b505160055460408051638f07158d60e01b815290519293506000926001600160a01b0390921691638f07158d91600480820192602092909190829003018186803b158015610fd957600080fd5b505afa158015610fed573d6000803e3d6000fd5b505050506040513d602081101561100357600080fd5b505160065460408051638f07158d60e01b815290519293506000926001600160a01b0390921691638f07158d91600480820192602092909190829003018186803b15801561105057600080fd5b505afa158015611064573d6000803e3d6000fd5b505050506040513d602081101561107a57600080fd5b505190508181018414611094576000945050505050610a6a565b6007546040805163dde598b960e01b815290516000926001600160a01b03169163dde598b9916004808301926020929190829003018186803b1580156110d957600080fd5b505afa1580156110ed573d6000803e3d6000fd5b505050506040513d602081101561110357600080fd5b5051600c5460408051631e22314360e01b815290519293506000926001600160a01b0390921691631e22314391600480820192602092909190829003018186803b15801561115057600080fd5b505afa158015611164573d6000803e3d6000fd5b505050506040513d602081101561117a57600080fd5b5051905060005b6001600160a01b0382161561128c57600a54604080516370a0823160e01b81526001600160a01b038581166004830152915191909216916370a08231916024808301926020929190829003018186803b1580156111dd57600080fd5b505afa1580156111f1573d6000803e3d6000fd5b505050506040513d602081101561120757600080fd5b5051600c546040805163765e015960e01b81526001600160a01b0386811660048301529151949093019391169163765e0159916024808301926020929190829003018186803b15801561125957600080fd5b505afa15801561126d573d6000803e3d6000fd5b505050506040513d602081101561128357600080fd5b50519150611181565b858184010187116112a7576000975050505050505050610a6a565b600197505050505050505090565b60006064830690506000600d82606481106112cc57fe5b0154600080546001600160a01b0390921692508231916112ef9083908790612302565b604080516332e859b960e01b8152600481018390526000602482018190526044820181905291519293506001600160a01b038616926332e859b99260648084019391929182900301818387803b15801561134857600080fd5b505af115801561135c573d6000803e3d6000fd5b50505050505050505050565b600080600b60009054906101000a90046001600160a01b03166001600160a01b03166398d5fdca6040518163ffffffff1660e01b815260040160206040518083038186803b1580156113b957600080fd5b505afa1580156113cd573d6000803e3d6000fd5b505050506040513d60208110156113e357600080fd5b50519050806113f6576000915050610a6a565b600191505090565b6000606489069050600d816064811061141357fe5b0154604080516348173b9960e01b8152600481018b9052602481018a90526044810189905287151560648201526001600160a01b03878116608483015286811660a483015260c48201869052915191909216916348173b999160e480830192600092919082900301818387803b15801561148c57600080fd5b505af11580156114a0573d6000803e3d6000fd5b50505050505050505050505050565b6000606485069050600d81606481106114c457fe5b0154604080516332e859b960e01b8152600481018790526001600160a01b0386811660248301528581166044830152915191909216916332e859b991606480830192600092919082900301818387803b15801561152057600080fd5b505af1158015611534573d6000803e3d6000fd5b505050505050505050565b6004546001600160a01b031681565b600080606486069050600d816064811061156457fe5b015460408051636ca5e76160e11b81526001600160a01b0388811660048301528781166024830152604482018790529151919092169163d94bcec29160648083019260209291908290030181600087803b1580156115c157600080fd5b505af11580156115d5573d6000803e3d6000fd5b505050506040513d60208110156115eb57600080fd5b50919695505050505050565b6000606487069050600d816064811061160c57fe5b0154604080516335b1017960e01b8152600481018990526001600160a01b0388811660248301528781166044830152868116606483015260848201869052600060a4830181905260c4830181905292519316926335b101799260e48084019391929182900301818387803b15801561168357600080fd5b505af1158015611697573d6000803e3d6000fd5b5050505050505050505050565b6005546001600160a01b031681565b600080600c60009054906101000a90046001600160a01b03166001600160a01b0316631e2231436040518163ffffffff1660e01b815260040160206040518083038186803b15801561170457600080fd5b505afa158015611718573d6000803e3d6000fd5b505050506040513d602081101561172e57600080fd5b505190505b6001600160a01b038116156113f65760016003546040805163180d97c160e01b81526001600160a01b0385811660048301529151919092169163180d97c1916024808301926020929190829003018186803b15801561179157600080fd5b505afa1580156117a5573d6000803e3d6000fd5b505050506040513d60208110156117bb57600080fd5b505160048111156117c857fe5b60048111156117d357fe5b146117e2576000915050610a6a565b6002546003546040805163c0af0d3b60e01b81526001600160a01b0385811660048301529151919092169163c0af0d3b916024808301926020929190829003018186803b15801561183257600080fd5b505afa158015611846573d6000803e3d6000fd5b505050506040513d602081101561185c57600080fd5b5051101561186e576000915050610a6a565b600354604080516308e7278560e11b81526001600160a01b038481166004830152915191909216916311ce4f0a916024808301926020929190829003018186803b1580156118bb57600080fd5b505afa1580156118cf573d6000803e3d6000fd5b505050506040513d60208110156118e557600080fd5b50516118f5576000915050610a6a565b600c546040805163765e015960e01b81526001600160a01b0384811660048301529151919092169163765e0159916024808301926020929190829003018186803b15801561194257600080fd5b505afa158015611956573d6000803e3d6000fd5b505050506040513d602081101561196c57600080fd5b50519050611733565b6003546001600160a01b031681565b600080606485069050600d816064811061199a57fe5b015460408051636628d36160e11b81526001600160a01b038781166004830152602482018790529151919092169163cc51a6c29160448083019260209291908290030181600087803b15801561099e57600080fd5b600d81606481106119fc57fe5b01546001600160a01b0316905081565b600080600c60009054906101000a90046001600160a01b03166001600160a01b0316631e2231436040518163ffffffff1660e01b815260040160206040518083038186803b158015611a5d57600080fd5b505afa158015611a71573d6000803e3d6000fd5b505050506040513d6020811015611a8757600080fd5b5051600c546040805163765e015960e01b81526001600160a01b0380851660048301529151939450600093919092169163765e0159916024808301926020929190829003018186803b158015611adc57600080fd5b505afa158015611af0573d6000803e3d6000fd5b505050506040513d6020811015611b0657600080fd5b505190505b6001600160a01b03821615801590611b2b57506001600160a01b03811615155b15611cb8576003546040805163b0d8e18160e01b81526001600160a01b0385811660048301529151919092169163b0d8e181916024808301926020929190829003018186803b158015611b7d57600080fd5b505afa158015611b91573d6000803e3d6000fd5b505050506040513d6020811015611ba757600080fd5b50516003546040805163b0d8e18160e01b81526001600160a01b0385811660048301529151919092169163b0d8e181916024808301926020929190829003018186803b158015611bf657600080fd5b505afa158015611c0a573d6000803e3d6000fd5b505050506040513d6020811015611c2057600080fd5b50511115611c3357600092505050610a6a565b600c546040805163765e015960e01b81526001600160a01b03808516600483015291519394508493919092169163765e0159916024808301926020929190829003018186803b158015611c8557600080fd5b505afa158015611c99573d6000803e3d6000fd5b505050506040513d6020811015611caf57600080fd5b50519050611b0b565b60019250505090565b600080606485069050600d8160648110611cd757fe5b01546040805163390b5f2760e01b81526001600160a01b038781166004830152602482018790529151919092169163390b5f279160448083019260209291908290030181600087803b15801561099e57600080fd5b6005546000906001600160a01b03163115610a6657506000610a6a565b6000606485069050600d8160648110611d5e57fe5b015460408051633ddd87af60e11b8152600481018790526001600160a01b038681166024830152858116604483015291519190921691637bbb0f5e91606480830192600092919082900301818387803b15801561152057600080fd5b6003546000906001600160a01b03163115611dd757506000610a6a565b6004546001600160a01b03163115611df157506000610a6a565b600560009054906101000a90046001600160a01b03166001600160a01b03166377a4b5b76040518163ffffffff1660e01b815260040160206040518083038186803b158015611e3f57600080fd5b505afa158015611e53573d6000803e3d6000fd5b505050506040513d6020811015611e6957600080fd5b50516005546001600160a01b03163114611e8557506000610a6a565b600660009054906101000a90046001600160a01b03166001600160a01b03166377a4b5b76040518163ffffffff1660e01b815260040160206040518083038186803b158015611ed357600080fd5b505afa158015611ee7573d6000803e3d6000fd5b505050506040513d6020811015611efd57600080fd5b50516006546001600160a01b03163114611f1957506000610a6a565b600760009054906101000a90046001600160a01b03166001600160a01b03166377a4b5b76040518163ffffffff1660e01b815260040160206040518083038186803b158015611f6757600080fd5b505afa158015611f7b573d6000803e3d6000fd5b505050506040513d6020811015611f9157600080fd5b50516007546001600160a01b03163114611fad57506000610a6a565b600a546001600160a01b03163115611fc757506000610a6a565b600b546001600160a01b03163115611fe157506000610a6a565b600c546001600160a01b03163115610a6657506000610a6a565b6000606482069050600d816064811061201057fe5b0160009054906101000a90046001600160a01b03166001600160a01b031663935606066040518163ffffffff1660e01b8152600401600060405180830381600087803b15801561205f57600080fd5b505af1158015612073573d6000803e3d6000fd5b505050505050565b6000606487069050600d816064811061209057fe5b01546040805163aa47ebb960e01b815260048101899052602481018890526001600160a01b0387811660448301528681166064830152608482018690529151919092169163aa47ebb99160a480830192600092919082900301818387803b15801561168357600080fd5b6000606485069050600d816064811061210f57fe5b015460408051639f8f048b60e01b8152600481018790526001600160a01b038681166024830152858116604483015291519190921691639f8f048b91606480830192600092919082900301818387803b15801561152057600080fd5b6000606486069050600d816064811061218057fe5b01546040805163a356f15b60e01b8152600481018890526001600160a01b0387811660248301528681166044830152606482018690529151919092169163a356f15b91608480830192600092919082900301818387803b15801561134857600080fd5b6009546001600160a01b031681565b600a546001600160a01b031681565b6000606483069050600d816064811061221657fe5b01546040805163320d84db60e11b81526004810185905290516001600160a01b039092169163641b09b69160248082019260009290919082900301818387803b158015610a3457600080fd5b6000606484069050600d816064811061227757fe5b0154604051636347dfa760e11b8152602060048201818152602483018690526001600160a01b039093169263c68fbf4e92879287929182916044909101908590850280828437600081840152601f19601f8201169050808301925050509350505050600060405180830381600087803b158015610b4157600080fd5b6008546001600160a01b031681565b600080600b60009054906101000a90046001600160a01b03166001600160a01b03166398d5fdca6040518163ffffffff1660e01b815260040160206040518083038186803b15801561235357600080fd5b505afa158015612367573d6000803e3d6000fd5b505050506040513d602081101561237d57600080fd5b505190508061238b57600080fd5b60006123b2826123a6600254876124ca90919063ffffffff16565b9063ffffffff61252c16565b90508086116123c057600080fd5b600081870386816123cd57fe5b0691909101925050505b9392505050565b600080600b60009054906101000a90046001600160a01b03166001600160a01b03166398d5fdca6040518163ffffffff1660e01b815260040160206040518083038186803b15801561242f57600080fd5b505afa158015612443573d6000803e3d6000fd5b505050506040513d602081101561245957600080fd5b5051600254909150849060009061247790839063ffffffff61256e16565b905060006124868883866125c8565b9050858110156124be576124a4866123a68a8763ffffffff6124ca16565b91506124bb600254836125f890919063ffffffff16565b92505b50909695505050505050565b6000826124d957506000612526565b828202828482816124e657fe5b04146125235760405162461bcd60e51b81526004018080602001828103825260218152602001806127376021913960400191505060405180910390fd5b90505b92915050565b600061252383836040518060400160405280601a81526020017f536166654d6174683a206469766973696f6e206279207a65726f00000000000081525061263a565b600082820183811015612523576040805162461bcd60e51b815260206004820152601b60248201527f536166654d6174683a206164646974696f6e206f766572666c6f770000000000604482015290519081900360640190fd5b600082156125ef5760006125e6846123a6878663ffffffff6124ca16565b91506123d79050565b506000196123d7565b600061252383836040518060400160405280601e81526020017f536166654d6174683a207375627472616374696f6e206f766572666c6f7700008152506126dc565b600081836126c65760405162461bcd60e51b81526004018080602001828103825283818151815260200191508051906020019080838360005b8381101561268b578181015183820152602001612673565b50505050905090810190601f1680156126b85780820380516001836020036101000a031916815260200191505b509250505060405180910390fd5b5060008385816126d257fe5b0495945050505050565b6000818484111561272e5760405162461bcd60e51b815260206004820181815283516024840152835190928392604490910191908501908083836000831561268b578181015183820152602001612673565b50505090039056fe536166654d6174683a206d756c7469706c69636174696f6e206f766572666c6f77a26469706673582212204ddce37e0604e820031368f9a6e3cce4b2d12a8f956900f09867de03aaeb062864736f6c634300060b0033608060405234801561001057600080fd5b50600380546001600160a01b031916339081179091556040516000907f8be0079c531659141344cd1fd0a4f28419497f9722a3daafe3b4186f6b6457e0908290a3615a8980620000616000396000f3fe608060405234801561001057600080fd5b506004361061044a5760003560e01c8063807d138d1161023c578063be30ade211610146578063cdd9f96a116100c3578063dd59049611610087578063dd59049614610c85578063e2ac77b014610c8d578063f36b242514610cb3578063f92d3433146105a4578063fe2ba84814610cbb5761044a565b8063cdd9f96a14610c00578063cf80c37214610c2c578063d293c71014610c34578063d380a37c14610c60578063d5b3563514610c685761044a565b8063c52861f21161010a578063c52861f214610afb578063c590844f14610b03578063c7b5548114610ba6578063c99cb2b714610bae578063cb5a79cc14610bd45761044a565b8063be30ade214610aa0578063bf9befb114610aa8578063c0af0d3b14610ab0578063c0d5287314610ad6578063c35bc55014610af35761044a565b8063a3f4df7e116101d4578063b2b9c5aa11610198578063b2b9c5aa146109c4578063b7f8cf9b146109e1578063b82f263d146109e9578063b91af97c14610a06578063bcd3752614610a525761044a565b8063a3f4df7e146108eb578063a619cc1f14610968578063af88b25614610970578063b0d8e18114610978578063b1dc4c1c1461099e5761044a565b8063807d138d1461086957806380b0cc2b14610871578063887105d31461089d5780638da5cb5b146108a55780638f32d59b146108ad5780639465ba0c146108b557806396d711ff146108bd5780639899a060146108c5578063a20baee6146107bd5761044a565b8063477d66cf11610358578063631203b0116102d557806375b30b3a1161029957806375b30b3a146107cd578063794e5724146107d5578063795d26c3146107dd5780637985c5e4146107e55780637f7dde4a146108615761044a565b8063631203b01461079057806366ca4a21146107ad5780637165f24f146107b557806372fe25aa146107bd578063741bef1a146107c55761044a565b806359d6118c1161031c57806359d6118c146107355780635b2048fe146107525780635dba4c4a1461075a57806361ec893d1461076257806362e768741461076a5761044a565b8063477d66cf146106685780634870dd9a146106855780634d9d67631461068d5780634e443d9e146106fc5780635733d58f1461072d5761044a565b80631f68f20a116103e657806331538aac116103aa57806331538aac146105da578063320b2469146105e2578063325e370d1461060e5780633cc742251461063a578063455f956b146106425761044a565b80631f68f20a14610594578063240926691461059c57806328d28b5b146105a45780632b11551a146105ac5780632f865568146105b45761044a565b8063048c661d1461044f578063071a7541146104735780630a8496921461048d5780630b076557146104b357806311ce4f0a146104db5780631673c79a14610501578063180d97c11461054057806318f2817a146105665780631bf435551461058c575b600080fd5b610457610ce1565b604080516001600160a01b039092168252519081900360200190f35b61047b610cf0565b60408051918252519081900360200190f35b61047b600480360360208110156104a357600080fd5b50356001600160a01b0316610cf5565b6104d9600480360360208110156104c957600080fd5b50356001600160a01b0316610dc0565b005b61047b600480360360208110156104f157600080fd5b50356001600160a01b0316610de8565b6105276004803603602081101561051757600080fd5b50356001600160a01b0316610e06565b6040805192835260208301919091528051918290030190f35b61047b6004803603602081101561055657600080fd5b50356001600160a01b0316610e1f565b61047b6004803603602081101561057c57600080fd5b50356001600160a01b0316610e4f565b61047b610e62565b61047b610e6f565b61047b610e75565b61047b610e88565b61047b610e99565b6104d9600480360360208110156105ca57600080fd5b50356001600160a01b0316610eab565b61047b610f11565b61047b600480360360408110156105f857600080fd5b506001600160a01b038135169060200135610f17565b6104d96004803603604081101561062457600080fd5b506001600160a01b038135169060200135610f74565b610457610fc0565b61047b6004803603602081101561065857600080fd5b50356001600160a01b0316610fcf565b61047b6004803603602081101561067e57600080fd5b5035610ffd565b61047b611010565b6106b3600480360360208110156106a357600080fd5b50356001600160a01b0316611015565b604051808681526020018581526020018481526020018360048111156106d557fe5b60ff1681526001600160801b03909216602083015250604080519182900301945092505050f35b6107196004803603602081101561071257600080fd5b503561104f565b604080519115158252519081900360200190f35b61047b61105a565b6104d96004803603602081101561074b57600080fd5b5035611066565b610457611420565b6104d961142f565b61047b611495565b61047b6004803603602081101561078057600080fd5b50356001600160a01b031661149a565b61047b600480360360208110156107a657600080fd5b50356114bc565b61047b6114c9565b6104576114db565b61047b6114ea565b6104576114f6565b610457611505565b61047b611514565b61047b611520565b6104d960048036036101608110156107fc57600080fd5b506001600160a01b038135811691602081013582169160408201358116916060810135821691608082013581169160a081013582169160c082013581169160e08101358216916101008201358116916101208101358216916101409091013516611621565b610457611a1a565b61047b611a29565b61047b6004803603604081101561088757600080fd5b506001600160a01b038135169060200135611a2f565b61047b611a65565b610457611b21565b610719611b30565b61047b611b41565b61047b611b47565b61047b600480360360208110156108db57600080fd5b50356001600160a01b0316611b4d565b6108f3611b6b565b6040805160208082528351818301528351919283929083019185019080838360005b8381101561092d578181015183820152602001610915565b50505050905090810190601f16801561095a5780820380516001836020036101000a031916815260200191505b509250505060405180910390f35b61047b611b93565b61047b611ba0565b61047b6004803603602081101561098e57600080fd5b50356001600160a01b0316611ba6565b6104d9600480360360208110156109b457600080fd5b50356001600160a01b0316611bcd565b610457600480360360208110156109da57600080fd5b5035611bde565b610457611c05565b61047b600480360360208110156109ff57600080fd5b5035611c14565b610a2c60048036036020811015610a1c57600080fd5b50356001600160a01b0316611c1f565b604080519485526020850193909352838301919091526060830152519081900360800190f35b6104d9600480360360e0811015610a6857600080fd5b508035906001600160a01b03602082013581169160408101358216916060820135169060808101359060a08101359060c00135611c83565b61047b612425565b61047b61242b565b61047b60048036036020811015610ac657600080fd5b50356001600160a01b0316612431565b61045760048036036020811015610aec57600080fd5b503561244c565b61047b612476565b61047b61247d565b6104d960048036036020811015610b1957600080fd5b810190602081018135640100000000811115610b3457600080fd5b820183602082011115610b4657600080fd5b80359060200191846020830284011164010000000083111715610b6857600080fd5b91908080602002602001604051908101604052809392919081815260200183836020028082843760009201919091525092955061248f945050505050565b61047b612825565b6104d960048036036020811015610bc457600080fd5b50356001600160a01b0316612831565b61047b60048036036040811015610bea57600080fd5b506001600160a01b038135169060200135612844565b61047b60048036036040811015610c1657600080fd5b506001600160a01b03813516906020013561289b565b61047b6128ce565b61047b60048036036040811015610c4a57600080fd5b506001600160a01b0381351690602001356128d4565b61047b6128fd565b61047b60048036036020811015610c7e57600080fd5b5035612903565b610457612916565b61071960048036036020811015610ca357600080fd5b50356001600160a01b0316612925565b61047b612983565b6104d960048036036020811015610cd157600080fd5b50356001600160a01b0316612990565b6005546001600160a01b031681565b600281565b6001600160a01b0381166000908152601460205260408120600101546013548290610d26908363ffffffff6129a116565b9050801580610d5f575060016001600160a01b0385166000908152600e602052604090206003015460ff166004811115610d5c57fe5b14155b15610d6f57600092505050610dbb565b6001600160a01b0384166000908152600e602052604081206002015490610db4670de0b6b3a7640000610da8848663ffffffff6129ea16565b9063ffffffff612a4316565b9450505050505b919050565b610dc8612a85565b600054600154610de5916001600160a01b03908116911683612ad0565b50565b6001600160a01b03166000908152600e602052604090206002015490565b6014602052600090815260409020805460019091015482565b6001600160a01b0381166000908152600e602052604081206003015460ff166004811115610e4957fe5b92915050565b6000610e59612a85565b610e4982612bf2565b686194049f30f720000081565b600c5481565b6064670de0b6b3a76400005b0460050281565b6103e8670de0b6b3a7640000610e81565b6000610ea6600c54612ca1565b905090565b610eb481612cd7565b604080516001808252818301909252606091602080830190803683370190505090508181600081518110610ee457fe5b60200260200101906001600160a01b031690816001600160a01b031681525050610f0d8161248f565b5050565b60165481565b6000610f21612a85565b6001600160a01b0383166000908152600e6020526040812060010154610f4d908463ffffffff612d3f16565b6001600160a01b0385166000908152600e6020526040902060010181905591505092915050565b610f7c612a85565b806004811115610f8857fe5b6001600160a01b0383166000908152600e60205260409020600301805460ff19166001836004811115610fb757fe5b02179055505050565b6001546001600160a01b031681565b6001600160a01b0381166000908152601460205260408120546012548290610d26908363ffffffff6129a116565b6000610e4961100a6114c9565b83612d99565b60c881565b600e6020526000908152604090208054600182015460028301546003909301549192909160ff81169061010090046001600160801b031685565b6000610e4982612db7565b6714d1120d7b16000081565b61106e615608565b506040805160e081018252600080546001600160a01b0390811683526001548116602084015292820181905260608201819052600b548316608083015260a0820181905260c08201526005549091166110c5615644565b6110cd615675565b600260009054906101000a90046001600160a01b03166001600160a01b0316630fdb11cf6040518163ffffffff1660e01b8152600401602060405180830381600087803b15801561111d57600080fd5b505af1158015611131573d6000803e3d6000fd5b505050506040513d602081101561114757600080fd5b505182526040805163dde598b960e01b815290516001600160a01b0385169163dde598b9916004808301926020929190829003018186803b15801561118b57600080fd5b505afa15801561119f573d6000803e3d6000fd5b505050506040513d60208110156111b557600080fd5b5051602083015281516111c790612db7565b15801560408401526111ee576111e7848360000151846020015188612dd4565b905061120e565b61120b846000015185602001518460000151856020015189613167565b90505b60008160200151116112515760405162461bcd60e51b81526004018080602001828103825260228152602001806157b36022913960400191505060405180910390fd5b826001600160a01b031663335525ad82608001518360a001516040518363ffffffff1660e01b81526004018083815260200182815260200192505050600060405180830381600087803b1580156112a757600080fd5b505af11580156112bb573d6000803e3d6000fd5b505050506112db846000015185602001518360c001518460e00151613299565b6101008101511561135c57835160075461010083015160408051633efe643b60e01b81526001600160a01b0393841660048201526024810192909252519190921691633efe643b91604480830192600092919082900301818387803b15801561134357600080fd5b505af1158015611357573d6000803e3d6000fd5b505050505b61136e8460000151826040015161351a565b60208101516060830152610100810151604082015182516113a6929161139a919063ffffffff6129a116565b9063ffffffff6129a116565b608080840182905260608085015160408086015186840151825193845260208401969096528282015291810193909352517f4152c73dd2614c4f9fc35e8c9cf16013cd588c75b49a4c1673ecffdcbcda94039281900390910190a161141984600001513383606001518460400151613661565b5050505050565b6009546001600160a01b031681565b611437612a85565b6000611441613764565b9050670de0b6b3a764000081111561145557fe5b600c8190556040805182815290517fc454ee9b76c52f782a256af821b857ca6e125d1e3333bcede402fec2bed9600c9181900360200190a1610de56137a8565b603c81565b60006114a4612a85565b6114ad82613804565b6001600160801b031692915050565b6000610e4961100a612983565b6000610ea66114d6613764565b61389e565b600b546001600160a01b031681565b670de0b6b3a764000081565b6002546001600160a01b031681565b600a546001600160a01b031681565b670f43fc2c04ee000081565b6000805460408051638f07158d60e01b8152905183926001600160a01b031691638f07158d916004808301926020929190829003018186803b15801561156557600080fd5b505afa158015611579573d6000803e3d6000fd5b505050506040513d602081101561158f57600080fd5b505160015460408051638f07158d60e01b815290519293506000926001600160a01b0390921691638f07158d91600480820192602092909190829003018186803b1580156115dc57600080fd5b505afa1580156115f0573d6000803e3d6000fd5b505050506040513d602081101561160657600080fd5b5051905061161a828263ffffffff612d3f16565b9250505090565b611629611b30565b61167a576040805162461bcd60e51b815260206004820181905260248201527f4f776e61626c653a2063616c6c6572206973206e6f7420746865206f776e6572604482015290519081900360640190fd5b6116838b6138c5565b61168c8a6138c5565b611695896138c5565b61169e886138c5565b6116a7876138c5565b6116b0866138c5565b6116b9856138c5565b6116c2846138c5565b6116cb836138c5565b6116d4826138c5565b6116dd816138c5565b600480546001600160a01b03199081166001600160a01b038e81169182179093556000805483168e85161790556001805483168d85161790556005805483168c85161790556006805483168b85161790556007805483168a8516179055600280548316898516179055600880548316888516179055600b80548316878516179055600980548316868516179055600a805490921692841692909217905560408051918252517f3ca631ffcd2a9b5d9ae18543fc82f58eb4ca33af9e6ab01b7a8e95331e6ed985916020908290030190a1604080516001600160a01b038c16815290517f78f058b189175430c48dc02699e3a0031ea4ff781536dc2fab847de4babdd8829181900360200190a1604080516001600160a01b038b16815290517f5ee0cae2f063ed938bb55046f6a932fb6ae792bf43624806bb90abe68a50be9b9181900360200190a1604080516001600160a01b038a16815290517f82966d27eea39b038ee0fa30cd16532bb24f6e65d31cb58fb227aa5766cdcc7f9181900360200190a1604080516001600160a01b038916815290517fcfb07d791fcafc032b35837b50eb84b74df518cf4cc287e8084f47630fa70fa09181900360200190a1604080516001600160a01b038816815290517fe67f36a6e961157d6eff83b91f3af5a62131ceb6f04954ef74f51c1c05e7f88d9181900360200190a1604080516001600160a01b038716815290517f8c537274438aa850a330284665d81a85dd38267d09e4050d416bfc94142db2649181900360200190a1604080516001600160a01b038616815290517f4e62a526dbb1c27a0df55dad97eaa57df1e3a95bb380a0bbe38dc5fbc07bb6699181900360200190a1604080516001600160a01b038516815290517fb92ab72da68990756a2b6a93fce7497a60e992b19dd9529f601a977e88117d3c9181900360200190a1604080516001600160a01b038416815290517ff2a19986125782837c7e63f4dbed68ecfe2c4238efb5fa9509ac0a429598b2ce9181900360200190a1604080516001600160a01b038316815290517fccecd30b0c29abaa3249dc3caf9304255028c2c8cd8fe0fc4213a5d028a1240f9181900360200190a1611a0d613974565b5050505050505050505050565b6000546001600160a01b031681565b60105481565b6000611a39612a85565b6001600160a01b0383166000908152600e6020526040812060010154610f4d908463ffffffff6129a116565b60008054604080516377a4b5b760e01b8152905183926001600160a01b0316916377a4b5b7916004808301926020929190829003018186803b158015611aaa57600080fd5b505afa158015611abe573d6000803e3d6000fd5b505050506040513d6020811015611ad457600080fd5b5051600154604080516377a4b5b760e01b815290519293506000926001600160a01b03909216916377a4b5b791600480820192602092909190829003018186803b1580156115dc57600080fd5b6003546001600160a01b031690565b6003546001600160a01b0316331490565b60175481565b60115481565b6001600160a01b03166000908152600e602052604090206001015490565b6040518060400160405280600c81526020016b2b30bab63a26b0b730b3b2b960a11b81525081565b680ad78ebc5ac620000081565b60125481565b6000806000611bb4846139be565b915091506000611bc48383613a44565b95945050505050565b611bd5612a85565b610de581613a79565b60158181548110611beb57fe5b6000918252602090912001546001600160a01b0316905081565b6004546001600160a01b031681565b6000610e4982613ae4565b6001600160a01b0381166000908152600e602052604081208054600190910154909180611c4b85610cf5565b9150611c5685610fcf565b9050611c68848363ffffffff612d3f16565b9350611c7a838263ffffffff612d3f16565b92509193509193565b611c8b615608565b506040805160e0810182526000546001600160a01b03908116825260015481166020830152600854811692820192909252600a5482166060820152600b5482166080820152600754821660a082015260065490911660c0820152611ced6156c1565b611cf683613b10565b611cfe613b6a565b600260009054906101000a90046001600160a01b03166001600160a01b0316630fdb11cf6040518163ffffffff1660e01b8152600401602060405180830381600087803b158015611d4e57600080fd5b505af1158015611d62573d6000803e3d6000fd5b505050506040513d6020811015611d7857600080fd5b505160c08201819052611d8a90613c2e565b611d9389613c7d565b611da28260400151338b613cbc565b611daa611520565b60e0820181905260408084015181516370a0823160e01b815233600482015291516001600160a01b03909116916370a08231916024808301926020929190829003018186803b158015611dfc57600080fd5b505afa158015611e10573d6000803e3d6000fd5b505050506040513d6020811015611e2657600080fd5b50511115611e3057fe5b888152608082015160c0820151600091611e4b918b90613d7c565b15611e57575087611f81565b82608001516001600160a01b0316634d6228316040518163ffffffff1660e01b815260040160206040518083038186803b158015611e9457600080fd5b505afa158015611ea8573d6000803e3d6000fd5b505050506040513d6020811015611ebe57600080fd5b505190505b6001600160a01b03811615801590611eef5750670f43fc2c04ee0000611eed828460c001516128d4565b105b15611f815782608001516001600160a01b031663b72703ac826040518263ffffffff1660e01b815260040180826001600160a01b03166001600160a01b0316815260200191505060206040518083038186803b158015611f4e57600080fd5b505afa158015611f62573d6000803e3d6000fd5b505050506040513d6020811015611f7857600080fd5b50519050611ec3565b84611f8c5760001994505b6001600160a01b03811615801590611fa45750815115155b8015611fb05750600085115b156120e457848060019003955050600083608001516001600160a01b031663b72703ac836040518263ffffffff1660e01b815260040180826001600160a01b03166001600160a01b0316815260200191505060206040518083038186803b15801561201a57600080fd5b505afa15801561202e573d6000803e3d6000fd5b505050506040513d602081101561204457600080fd5b50518451602086015191925061205a9184612ad0565b612062615706565b612079858486600001518760c001518e8e8e613eef565b905080604001511561208c5750506120e4565b805160208501516120a29163ffffffff612d3f16565b60208086019190915281015160408501516120c29163ffffffff612d3f16565b6040850152805184516120da9163ffffffff6129a116565b8452509050611f8c565b60008260400151116121275760405162461bcd60e51b8152600401808060200182810382526029815260200180615a2b6029913960400191505060405180910390fd5b61213e82604001518360c001518460e001516141a2565b5061214c826040015161424a565b606083018190526040830151612163919086614257565b82600001516001600160a01b0316633efe643b846060015184606001516040518363ffffffff1660e01b815260040180836001600160a01b03166001600160a01b0316815260200182815260200192505050600060405180830381600087803b1580156121cf57600080fd5b505af11580156121e3573d6000803e3d6000fd5b5050505082606001516001600160a01b0316632c80b42383606001516040518263ffffffff1660e01b815260040180828152602001915050600060405180830381600087803b15801561223557600080fd5b505af1158015612249573d6000803e3d6000fd5b5050505060608201516040830151612260916129a1565b8260800181815250507f43a3f4082a4dbc33d78e317d2497d3a730bc7fc3574159dcea1056e62e5d9ad88a8360200151846040015185606001516040518085815260200184815260200183815260200182815260200194505050505060405180910390a182604001516001600160a01b0316639dc29fac3384602001516040518363ffffffff1660e01b815260040180836001600160a01b03166001600160a01b0316815260200182815260200192505050600060405180830381600087803b15801561232c57600080fd5b505af1158015612340573d6000803e3d6000fd5b5050505082600001516001600160a01b031663d3ed5d1983602001516040518263ffffffff1660e01b815260040180828152602001915050600060405180830381600087803b15801561239257600080fd5b505af11580156123a6573d6000803e3d6000fd5b50508451608085015160408051633efe643b60e01b81523360048201526024810192909252516001600160a01b039092169350633efe643b925060448082019260009290919082900301818387803b15801561240157600080fd5b505af1158015612415573d6000803e3d6000fd5b5050505050505050505050505050565b60135481565b600f5481565b6001600160a01b03166000908152600e602052604090205490565b60006015828154811061245b57fe5b6000918252602090912001546001600160a01b031692915050565b62278d0081565b6000610ea661248a613764565b612ca1565b80516124cc5760405162461bcd60e51b81526004018080602001828103825260368152602001806158236036913960400191505060405180910390fd5b6000546001546005546001600160a01b039283169291821691166124ee615644565b6124f6615675565b600260009054906101000a90046001600160a01b03166001600160a01b0316630fdb11cf6040518163ffffffff1660e01b8152600401602060405180830381600087803b15801561254657600080fd5b505af115801561255a573d6000803e3d6000fd5b505050506040513d602081101561257057600080fd5b505182526040805163dde598b960e01b815290516001600160a01b0385169163dde598b9916004808301926020929190829003018186803b1580156125b457600080fd5b505afa1580156125c8573d6000803e3d6000fd5b505050506040513d60208110156125de57600080fd5b5051602083015281516125f090612db7565b1580156040840152612618576126118585846000015185602001518a6142cc565b9050612630565b61262d8585846000015185602001518a6144e7565b90505b60008160200151116126735760405162461bcd60e51b81526004018080602001828103825260228152602001806157b36022913960400191505060405180910390fd5b826001600160a01b031663335525ad82608001518360a001516040518363ffffffff1660e01b81526004018083815260200182815260200192505050600060405180830381600087803b1580156126c957600080fd5b505af11580156126dd573d6000803e3d6000fd5b505050506126f585858360c001518460e00151613299565b610100810151156127745760075461010082015160408051633efe643b60e01b81526001600160a01b03938416600482015260248101929092525191871691633efe643b9160448082019260009290919082900301818387803b15801561275b57600080fd5b505af115801561276f573d6000803e3d6000fd5b505050505b61278285826040015161351a565b60208101516060830152610100810151604082015182516127ae929161139a919063ffffffff6129a116565b608080840182905260608085015160408086015186840151825193845260208401969096528282015291810193909352517f4152c73dd2614c4f9fc35e8c9cf16013cd588c75b49a4c1673ecffdcbcda94039281900390910190a161281d853383606001518460400151613661565b505050505050565b670ddd4b8c6c7d70d881565b612839612a85565b610de58160026145af565b600061284e612a85565b6001600160a01b0383166000908152600e6020526040812054612877908463ffffffff612d3f16565b6001600160a01b0385166000908152600e6020526040902081905591505092915050565b60006128a5612a85565b6001600160a01b0383166000908152600e6020526040812054612877908463ffffffff6129a116565b60155490565b60008060006128e2856139be565b9150915060006128f38383876146c8565b9695505050505050565b600d5481565b6000610e4961291061247d565b836146f8565b6008546001600160a01b031681565b600060016001600160a01b0383166000908152600e602052604090206003015460ff16600481111561295357fe5b1461296057506000610dbb565b506012546001600160a01b03821660009081526014602052604090205410919050565b6000610ea6600c5461389e565b612998612a85565b610de581614757565b60006129e383836040518060400160405280601e81526020017f536166654d6174683a207375627472616374696f6e206f766572666c6f7700008152506147a7565b9392505050565b6000826129f957506000610e49565b82820282848281612a0657fe5b04146129e35760405162461bcd60e51b81526004018080602001828103825260218152602001806158fe6021913960400191505060405180910390fd5b60006129e383836040518060400160405280601a81526020017f536166654d6174683a206469766973696f6e206279207a65726f00000000000081525061483e565b6004546001600160a01b03163314612ace5760405162461bcd60e51b815260040180806020018281038252603b815260200180615899603b913960400191505060405180910390fd5b565b612ad981612925565b15612bed57612ae781612cd7565b6000612af282610fcf565b90506000612aff83610cf5565b6001600160a01b0384166000908152600e6020526040902060010154909150612b2e908363ffffffff612d3f16565b6001600160a01b0384166000908152600e60205260409020600181019190915554612b5f908263ffffffff612d3f16565b6001600160a01b0384166000908152600e6020526040902055612b8183613a79565b612b8d858583856148a3565b6001600160a01b0383166000818152600e602090815260408083208054600182015460029092015483519182529381019190915280820192909252606082019290925290516000805160206158038339815191529181900360800190a250505b505050565b6001600160a01b0381166000908152600e60205260408120600101548190612c19906149a5565b6001600160a01b0384166000908152600e60205260409020600201805490829055600f5491925090612c63908390612c57908463ffffffff6129a116565b9063ffffffff612d3f16565b600f81905560408051918252517f6bac5e0eb3c44eb03a60ab11ec3a2c051771616aecadbcfff2630aabae5203829181900360200190a15092915050565b6000610e49612cc9836103e8670de0b6b3a76400005b04600502612d3f90919063ffffffff16565b670de0b6b3a76400006149e1565b60016001600160a01b0382166000908152600e602052604090206003015460ff166004811115612d0357fe5b14610de55760405162461bcd60e51b815260040180806020018281038252602f8152602001806159cc602f913960400191505060405180910390fd5b6000828201838110156129e3576040805162461bcd60e51b815260206004820152601b60248201527f536166654d6174683a206164646974696f6e206f766572666c6f770000000000604482015290519081900360640190fd5b60006129e3670de0b6b3a7640000610da8858563ffffffff6129ea16565b600080612dc383613ae4565b6714d1120d7b160000119392505050565b612ddc615675565b612de4615729565b612dec615675565b84825260006080830152612dfe611520565b60a0830152612e0b611a65565b8260c001818152505086608001516001600160a01b0316634d6228316040518163ffffffff1660e01b815260040160206040518083038186803b158015612e5157600080fd5b505afa158015612e65573d6000803e3d6000fd5b505050506040513d6020811015612e7b57600080fd5b50516001600160a01b039081166060840152608088015160408051631e22314360e01b815290516000939290921691631e22314391600480820192602092909190829003018186803b158015612ed057600080fd5b505afa158015612ee4573d6000803e3d6000fd5b505050506040513d6020811015612efa57600080fd5b50516000602085015290505b848360200151108015612f2f5750806001600160a01b031683606001516001600160a01b031614155b1561315c57600088608001516001600160a01b031663b72703ac85606001516040518263ffffffff1660e01b815260040180826001600160a01b03166001600160a01b0316815260200191505060206040518083038186803b158015612f9457600080fd5b505afa158015612fa8573d6000803e3d6000fd5b505050506040513d6020811015612fbe57600080fd5b50516060850151909150612fd290896128d4565b604085015260808401516130ce57670f43fc2c04ee0000846040015110158015612ffb57508351155b15613006575061315c565b600061301b8560c001518660a001518b6146c8565b8a5160208c015160608801516040890151895194955061303c94868f6149f7565b60808101518651919550613056919063ffffffff6129a116565b8552608084015160a08601516130719163ffffffff6129a116565b8560a001818152505061309e84610100015161139a8660a001518860c001516129a190919063ffffffff16565b60c08601526130ad8685614d2a565b95506130c28560c001518660a001518b614e41565b1560808601525061313e565b836080015180156130ea5750670f43fc2c04ee00008460400151105b156131385761310b89600001518a6020015186606001518760000151614e62565b60808101518551919450613125919063ffffffff6129a116565b84526131318584614d2a565b945061313e565b5061315c565b6001600160a01b031660608401526020830180516001019052612f06565b505050949350505050565b61316f615675565b613177615729565b61317f615675565b600b54858352600060208401526001600160a01b03165b848360200151101561328d57806001600160a01b0316634d6228316040518163ffffffff1660e01b815260040160206040518083038186803b1580156131db57600080fd5b505afa1580156131ef573d6000803e3d6000fd5b505050506040513d602081101561320557600080fd5b50516001600160a01b03166060840181905261322190886128d4565b60408401819052670f43fc2c04ee000011156132785761324b898985606001518660000151614e62565b60808101518451919350613265919063ffffffff6129a116565b83526132718483614d2a565b935061327d565b61328d565b6020830180516001019052613196565b50505095945050505050565b816132a357613514565b6016546000906132c590612c5784670de0b6b3a764000063ffffffff6129ea16565b905060006132ea601754612c57670de0b6b3a7640000876129ea90919063ffffffff16565b90506000613303600f5484612a4390919063ffffffff16565b9050600061331c600f5484612a4390919063ffffffff16565b9050613343613336600f54846129ea90919063ffffffff16565b859063ffffffff6129a116565b601655600f5461336b9061335e90839063ffffffff6129ea16565b849063ffffffff6129a116565b601755601254613381908363ffffffff612d3f16565b601255601354613397908263ffffffff612d3f16565b601381905560125460408051918252602082019290925281517f9f8bc8ab0daf5bceef75ecfd2085d1fcc6548c657ea970d9a23a60610d0737e3929181900390910190a1876001600160a01b031663d3ed5d19876040518263ffffffff1660e01b815260040180828152602001915050600060405180830381600087803b15801561342157600080fd5b505af1158015613435573d6000803e3d6000fd5b50505050866001600160a01b031663c9ceb951876040518263ffffffff1660e01b815260040180828152602001915050600060405180830381600087803b15801561347f57600080fd5b505af1158015613493573d6000803e3d6000fd5b50505050876001600160a01b0316633efe643b88876040518363ffffffff1660e01b815260040180836001600160a01b03166001600160a01b0316815260200182815260200192505050600060405180830381600087803b1580156134f757600080fd5b505af115801561350b573d6000803e3d6000fd5b50505050505050505b50505050565b600f546010819055506000826001600160a01b03166377a4b5b76040518163ffffffff1660e01b815260040160206040518083038186803b15801561355e57600080fd5b505afa158015613572573d6000803e3d6000fd5b505050506040513d602081101561358857600080fd5b5051600154604080516377a4b5b760e01b815290519293506000926001600160a01b03909216916377a4b5b791600480820192602092909190829003018186803b1580156135d557600080fd5b505afa1580156135e9573d6000803e3d6000fd5b505050506040513d60208110156135ff57600080fd5b5051905061361781612c57848663ffffffff6129a116565b601181905560105460408051918252602082019290925281517f51bf4c63ec3cba9d03d43238abbdd979dd91bd16d9895c74ceea9118c7baaf60929181900390910190a150505050565b81156136e05760085460065460408051631062c15f60e11b81526001600160a01b039283166004820152868316602482015260448101869052905191909216916320c582be91606480830192600092919082900301818387803b1580156136c757600080fd5b505af11580156136db573d6000803e3d6000fd5b505050505b801561351457836001600160a01b0316633efe643b84836040518363ffffffff1660e01b815260040180836001600160a01b03166001600160a01b0316815260200182815260200192505050600060405180830381600087803b15801561374657600080fd5b505af115801561375a573d6000803e3d6000fd5b5050505050505050565b60008061376f614fd1565b90506000613785670ddd4b8c6c7d70d883614fed565b905061161a670de0b6b3a7640000610da883600c546129ea90919063ffffffff16565b60006137bf600d54426129a190919063ffffffff16565b9050603c8110610de55742600d81905560408051918252517f860f8d2f0c74dd487e89e2883e3b25b8159ce1e1b3433a291cba7b82c508f3bc9181900360200190a150565b601580546001808201835560008381527f55f448fdea98c4d29eb340757ef0a66cd03dbb9538908a6a81d96026b71ec47590920180546001600160a01b0319166001600160a01b0386161790559154909161385f91906129a1565b6001600160a01b03929092166000908152600e602052604090206003018054610100600160881b0319166101006001600160801b038516021790555090565b6000610e496138b8836103e8670de0b6b3a7640000612cb7565b66b1a2bc2ec500006149e1565b6001600160a01b038116613920576040805162461bcd60e51b815260206004820152601e60248201527f4163636f756e742063616e6e6f74206265207a65726f20616464726573730000604482015290519081900360640190fd5b803b80610f0d576040805162461bcd60e51b815260206004820181905260248201527f4163636f756e7420636f64652073697a652063616e6e6f74206265207a65726f604482015290519081900360640190fd5b6003546040516000916001600160a01b0316907f8be0079c531659141344cd1fd0a4f28419497f9722a3daafe3b4186f6b6457e0908390a3600380546001600160a01b0319169055565b60008060006139cc84610fcf565b905060006139d985610cf5565b6001600160a01b0386166000908152600e602052604081206001015491925090613a09908463ffffffff612d3f16565b6001600160a01b0387166000908152600e602052604081205491925090613a36908463ffffffff612d3f16565b919550909350505050915091565b60008115613a7057613a6982610da88568056bc75e2d6310000063ffffffff6129ea16565b9050610e49565b50600019610e49565b601280546001600160a01b0383166000908152601460209081526040918290209283556013546001909301839055925481519081529283019190915280517fb19e1625eb57283330ce4caef3e97174d39fa4b313b17c725f7c90cd005f2ecb9281900390910190a150565b600080613aef611a65565b90506000613afb611520565b9050613b088282866146c8565b949350505050565b6611c37937e080008110801590613b2f5750670de0b6b3a76400008111155b610de55760405162461bcd60e51b81526004018080602001828103825260308152602001806159fb6030913960400191505060405180910390fd5b60095460408051631e425be160e11b815290516000926001600160a01b031691633c84b7c2916004808301926020929190829003018186803b158015613baf57600080fd5b505afa158015613bc3573d6000803e3d6000fd5b505050506040513d6020811015613bd957600080fd5b50519050613bf08162278d0063ffffffff612d3f16565b421015610de55760405162461bcd60e51b81526004018080602001828103825260408152602001806158596040913960400191505060405180910390fd5b670f43fc2c04ee0000613c4082613ae4565b1015610de55760405162461bcd60e51b815260040180806020018281038252602a81526020018061591f602a913960400191505060405180910390fd5b60008111610de55760405162461bcd60e51b815260040180806020018281038252602e8152602001806157d5602e913960400191505060405180910390fd5b80836001600160a01b03166370a08231846040518263ffffffff1660e01b815260040180826001600160a01b03166001600160a01b0316815260200191505060206040518083038186803b158015613d1357600080fd5b505afa158015613d27573d6000803e3d6000fd5b505050506040513d6020811015613d3d57600080fd5b50511015612bed5760405162461bcd60e51b815260040180806020018281038252604d815260200180615949604d913960600191505060405180910390fd5b60006001600160a01b0383161580613e135750836001600160a01b0316635dbe47e8846040518263ffffffff1660e01b815260040180826001600160a01b03166001600160a01b0316815260200191505060206040518083038186803b158015613de557600080fd5b505afa158015613df9573d6000803e3d6000fd5b505050506040513d6020811015613e0f57600080fd5b5051155b80613e2e5750670f43fc2c04ee0000613e2c84846128d4565b105b15613e3b575060006129e3565b6000846001600160a01b031663765e0159856040518263ffffffff1660e01b815260040180826001600160a01b03166001600160a01b0316815260200191505060206040518083038186803b158015613e9357600080fd5b505afa158015613ea7573d6000803e3d6000fd5b505050506040513d6020811015613ebd57600080fd5b505190506001600160a01b0381161580611bc45750670f43fc2c04ee0000613ee582856128d4565b1095945050505050565b613ef7615706565b6001600160a01b0387166000908152600e6020526040902054613f34908790613f2f90680ad78ebc5ac620000063ffffffff6129a116565b6149e1565b808252613f55908690610da890670de0b6b3a764000063ffffffff6129ea16565b60208083019190915281516001600160a01b0389166000908152600e9092526040822054613f889163ffffffff6129a116565b6020808401516001600160a01b038b166000908152600e90925260408220600101549293509091613fbe9163ffffffff6129a116565b9050680ad78ebc5ac620000082141561405757613fda89614757565b613fe58960046145af565b613ffa8a8a680ad78ebc5ac620000084615098565b886001600160a01b0316600080516020615803833981519152600080600060036040518085815260200184815260200183815260200182600381111561403c57fe5b60ff16815260200194505050505060405180910390a2614194565b60006140638284613a44565b905084811415806140845750686194049f30f72000006140828461524d565b105b156140985750506001604083015250614197565b60808b01516040805163015f109360e51b81526001600160a01b038d81166004830152602482018590528a81166044830152898116606483015291519190921691632be2126091608480830192600092919082900301818387803b1580156140ff57600080fd5b505af1158015614113573d6000803e3d6000fd5b5050506001600160a01b038b166000908152600e60205260409020848155600101839055506141418a612bf2565b506001600160a01b038a166000818152600e6020908152604091829020600201548251878152918201869052818301526003606082015290516000805160206158038339815191529181900360800190a2505b50505b979650505050505050565b6000806141ad613764565b905060006141c584610da8888863ffffffff6129ea16565b905060006141ea6141dd83600263ffffffff612a4316565b849063ffffffff612d3f16565b90506141fe81670de0b6b3a76400006149e1565b90506000811161420a57fe5b600c8190556040805182815290517fc454ee9b76c52f782a256af821b857ca6e125d1e3333bcede402fec2bed9600c9181900360200190a16128f36137a8565b6000610e49612910610e99565b600061427583610da886670de0b6b3a764000063ffffffff6129ea16565b905081811115613514576040805162461bcd60e51b815260206004820152601d60248201527f4665652065786365656465642070726f7669646564206d6178696d756d000000604482015290519081900360640190fd5b6142d4615675565b6142dc615729565b6142e4615675565b848252600060808301526142f6611520565b60a0830152614303611a65565b60c0830152600060208301525b8351826020015110156144dc578382602001518151811061432d57fe5b6020908102919091018101516001600160a01b0316606084018190526000908152600e909152604090206003015460019060ff16600481111561436c57fe5b14614376576144cc565b6143848260600151876128d4565b6040830152608082015161446e57670f43fc2c04ee00008260400151101580156143ad57508151155b156143b7576144cc565b60006143cc8360c001518460a00151896146c8565b90506143e98989856060015186604001518760000151868d6149f7565b60808101518451919350614403919063ffffffff6129a116565b8352608082015160a084015161441e9163ffffffff6129a116565b60a08085019190915282015160c084015161443e9163ffffffff6129a116565b60c084015261444d8483614d2a565b93506144628360c001518460a0015189614e41565b156080840152506144cc565b8160800151801561448a5750670f43fc2c04ee00008260400151105b156144cc576144a3888884606001518560000151614e62565b608081015183519192506144bd919063ffffffff6129a116565b82526144c98382614d2a565b92505b6020820180516001019052614310565b505095945050505050565b6144ef615675565b6144f7615729565b6144ff615675565b848252600060208301525b8351826020015110156144dc578382602001518151811061452757fe5b60209081029190910101516001600160a01b03166060830181905261454c90876128d4565b60408301819052670f43fc2c04ee0000111561459f57614576888884606001518560000151614e62565b60808101518351919250614590919063ffffffff6129a116565b825261459c8382614d2a565b92505b602082018051600101905261450a565b60008160048111156145bd57fe5b141580156145d7575060018160048111156145d457fe5b14155b6145dd57fe5b6015546145e981615268565b6001600160a01b0383166000908152600e60205260409020600301805483919060ff1916600183600481111561461b57fe5b02179055506001600160a01b0383166000908152600e6020908152604080832060018082018590559084905560149092528220828155015561465d8382615321565b600b5460408051631484968760e11b81526001600160a01b038681166004830152915191909216916329092d0e91602480830192600092919082900301818387803b1580156146ab57600080fd5b505af11580156146bf573d6000803e3d6000fd5b50505050505050565b600082156146ef5760006146e684610da8878663ffffffff6129ea16565b91506129e39050565b506000196129e3565b600080614717670de0b6b3a7640000610da8868663ffffffff6129ea16565b90508281106129e35760405162461bcd60e51b81526004018080602001828103825260368152602001806159966036913960400191505060405180910390fd5b6001600160a01b0381166000908152600e6020526040902060020154600f54614786908263ffffffff6129a116565b600f55506001600160a01b03166000908152600e6020526040812060020155565b600081848411156148365760405162461bcd60e51b81526004018080602001828103825283818151815260200191508051906020019080838360005b838110156147fb5781810151838201526020016147e3565b50505050905090810190601f1680156148285780820380516001836020036101000a031916815260200191505b509250505060405180910390fd5b505050900390565b6000818361488d5760405162461bcd60e51b81526020600482018181528351602484015283519092839260449091019190850190808383600083156147fb5781810151838201526020016147e3565b50600083858161489957fe5b0495945050505050565b826001600160a01b031663d3ed5d19836040518263ffffffff1660e01b815260040180828152602001915050600060405180830381600087803b1580156148e957600080fd5b505af11580156148fd573d6000803e3d6000fd5b50505050836001600160a01b031663c9ceb951836040518263ffffffff1660e01b815260040180828152602001915050600060405180830381600087803b15801561494757600080fd5b505af115801561495b573d6000803e3d6000fd5b50505050826001600160a01b03166370439039826040518263ffffffff1660e01b815260040180828152602001915050600060405180830381600087803b15801561374657600080fd5b600080601154600014156149ba575081610e49565b6000601054116149c657fe5b6129e3601154610da8601054866129ea90919063ffffffff16565b60008183106149f057816129e3565b5090919050565b6149ff615675565b614a07615771565b601554600110614a175750614197565b614a2087611c1f565b60408501526020848101919091528401819052908352614a3f906154c8565b60408301819052680ad78ebc5ac620000060608401526020830151614a699163ffffffff6129a116565b8152670de0b6b3a76400008611614b7157614a8e8989836020015184604001516148a3565b614a9787614757565b60006080830181905260a0830152815160c0830152805160e0830152614abe8760036145af565b866001600160a01b031660008051602061579383398151915283600001518460200151600260405180848152602001838152602001826003811115614aff57fe5b60ff168152602001935050505060405180910390a2866001600160a01b03166000805160206158038339815191526000806000600260405180858152602001848152602001838152602001826003811115614b5657fe5b60ff16815260200194505050505060405180910390a2614d1e565b670de0b6b3a764000086118015614b8f5750670f43fc2c04ee000086105b15614bdf57614ba88989836020015184604001516148a3565b614bb187614757565b81518151614bc09190876154cf565b60e086015260c085015260a08401526080830152614abe8760036145af565b670f43fc2c04ee00008610158015614bf657508386105b8015614c03575081518510155b15614d0d57614c1c8989836020015184604001516148a3565b84614c2357fe5b614c2c87614757565b614c3f826000015183602001518561553b565b9150614c4c8760036145af565b61010082015115614ccc5760075461010083015160408051633f10abab60e01b81526001600160a01b038b81166004830152602482019390935290519190921691633f10abab91604480830192600092919082900301818387803b158015614cb357600080fd5b505af1158015614cc7573d6000803e3d6000fd5b505050505b866001600160a01b031660008051602061579383398151915283600001518460a00151600260405180848152602001838152602001826003811115614aff57fe5b614d15615675565b91506141979050565b50979650505050505050565b614d32615675565b60408083015190840151614d4b9163ffffffff612d3f16565b604082015260608083015190840151614d699163ffffffff612d3f16565b606082015281516020840151614d849163ffffffff612d3f16565b6020808301919091528201518351614da19163ffffffff612d3f16565b815260808083015190840151614dbc9163ffffffff612d3f16565b608082015260a08083015190840151614dda9163ffffffff612d3f16565b60a082015260c08083015190840151614df89163ffffffff612d3f16565b60c082015260e08083015190840151614e169163ffffffff612d3f16565b60e08201526101008083015190840151614e359163ffffffff612d3f16565b61010082015292915050565b600080614e4f8585856146c8565b6714d1120d7b1600001195945050505050565b614e6a615675565b614e72615771565b614e7b84611c1f565b60408501908152602085810192835286019290925291845290519051614ea59188918891906148a3565b614eae84614757565b614ebb82602001516154c8565b60408301819052680ad78ebc5ac620000060608401526020830151600091614ee9919063ffffffff6129a116565b9050614efa836000015182866154cf565b60e087015260c086015260a08501526080840152614f198560036145af565b846001600160a01b031660008051602061579383398151915284600001518560200151600160405180848152602001838152602001826003811115614f5a57fe5b60ff168152602001935050505060405180910390a2846001600160a01b03166000805160206158038339815191526000806000600160405180858152602001848152602001838152602001826003811115614fb157fe5b60ff16815260200194505050505060405180910390a25050949350505050565b6000610ea6603c610da8600d54426129a190919063ffffffff16565b6000631f54050082111561500357631f54050091505b816150175750670de0b6b3a7640000610e49565b670de0b6b3a764000083835b600181111561508e57600281066150585761503e82836155d5565b915061505181600263ffffffff612a4316565b9050615089565b61506282846155d5565b925061506e82836155d5565b91506150866002610da883600163ffffffff6129a116565b90505b615023565b6128f382846155d5565b6040808501516006548251632770a7eb60e21b81526001600160a01b039182166004820152602481018690529251911691639dc29fac91604480830192600092919082900301818387803b1580156150ef57600080fd5b505af1158015615103573d6000803e3d6000fd5b5050505083600001516001600160a01b031663d3ed5d19836040518263ffffffff1660e01b815260040180828152602001915050600060405180830381600087803b15801561515157600080fd5b505af1158015615165573d6000803e3d6000fd5b505050508360a001516001600160a01b0316633f10abab84836040518363ffffffff1660e01b815260040180836001600160a01b03166001600160a01b0316815260200182815260200192505050600060405180830381600087803b1580156151cd57600080fd5b505af11580156151e1573d6000803e3d6000fd5b5050505083600001516001600160a01b0316633efe643b8560a00151836040518363ffffffff1660e01b815260040180836001600160a01b03166001600160a01b0316815260200182815260200192505050600060405180830381600087803b15801561374657600080fd5b6000610e4982680ad78ebc5ac620000063ffffffff6129a116565b6001811180156152e65750600b546040805163de8fa43160e01b815290516001926001600160a01b03169163de8fa431916004808301926020929190829003018186803b1580156152b857600080fd5b505afa1580156152cc573d6000803e3d6000fd5b505050506040513d60208110156152e257600080fd5b5051115b610de55760405162461bcd60e51b815260040180806020018281038252602a8152602001806158d4602a913960400191505060405180910390fd5b6001600160a01b0382166000908152600e602052604081206003015460ff169081600481111561534d57fe5b141580156153675750600181600481111561536457fe5b14155b61536d57fe5b6001600160a01b0383166000908152600e602052604081206003015461010090046001600160801b03169083906153a58260016129a1565b905080836001600160801b031611156153ba57fe5b6000601582815481106153c957fe5b600091825260209091200154601580546001600160a01b03909216925082916001600160801b0387169081106153fb57fe5b600091825260208083209190910180546001600160a01b0319166001600160a01b03948516179055918316808252600e83526040918290206003018054610100600160881b0319166101006001600160801b038a169081029190911790915582519182529281019290925280517f5108b30b1c08360822e1bfe7a4169b885b0a62765e9d04592cac9933f3879e469281900390910190a1601580548061549d57fe5b600082815260209020810160001990810180546001600160a01b031916905501905550505050505050565b60c8900490565b60008080808415615525576154e487866149e1565b93506154fa87610da8888763ffffffff6129ea16565b925061550c878563ffffffff6129a116565b915061551e868463ffffffff6129a116565b9050615532565b5060009250829150859050845b93509350935093565b615543615675565b83815260208101839052600061556b83610da887670f43fc2c04ee000063ffffffff6129ea16565b9050615576816154c8565b60408301819052680ad78ebc5ac62000006060840152608083018690526155a490829063ffffffff6129a116565b60a08301526155b9848263ffffffff6129a116565b61010083015250600060c0820181905260e08201529392505050565b6000806155e8848463ffffffff6129ea16565b9050613b08670de0b6b3a7640000610da8836706f05b59d3b20000612d3f565b6040805160e081018252600080825260208201819052918101829052606081018290526080810182905260a0810182905260c081019190915290565b6040518060a00160405280600081526020016000815260200160001515815260200160008152602001600081525090565b6040518061012001604052806000815260200160008152602001600081526020016000815260200160008152602001600081526020016000815260200160008152602001600081525090565b60405180610100016040528060008152602001600081526020016000815260200160008152602001600081526020016000815260200160008152602001600081525090565b604051806060016040528060008152602001600081526020016000151581525090565b6040518060e0016040528060008152602001600081526020016000815260200160006001600160a01b0316815260200160001515815260200160008152602001600081525090565b6040518060600160405280600081526020016000815260200160008152509056fe7495fe27166ca7c7fb38d10e09b0d0f029a5704bac8952a9545063644de73c105661756c744d616e616765723a206e6f7468696e6720746f206c69717569646174655661756c744d616e616765723a20416d6f756e74206d7573742062652067726561746572207468616e207a65726f1682adcf84a5197a236a80c9ffe2e7233619140acb7839754c27cdc21799192c5661756c744d616e616765723a2043616c6c646174612061646472657373206172726179206d757374206e6f7420626520656d7074795661756c744d616e616765723a20526564656d7074696f6e7320617265206e6f7420616c6c6f77656420647572696e6720626f6f7473747261702070686173655661756c744d616e616765723a2043616c6c6572206973206e6f742074686520426f72726f7765724f7065726174696f6e7320636f6e74726163745661756c744d616e616765723a204f6e6c79206f6e65207661756c7420696e207468652073797374656d536166654d6174683a206d756c7469706c69636174696f6e206f766572666c6f775661756c744d616e616765723a2043616e6e6f742072656465656d207768656e20544352203c204d43525661756c744d616e616765723a2052657175657374656420726564656d7074696f6e20616d6f756e74206d757374206265203c3d207573657227732042504420746f6b656e2062616c616e63655661756c744d616e616765723a2046656520776f756c642065617420757020616c6c2072657475726e656420636f6c6c61746572616c5661756c744d616e616765723a205661756c7420646f6573206e6f74206578697374206f7220697320636c6f7365644d6178206665652070657263656e74616765206d757374206265206265747765656e20302e352520616e6420313030255661756c744d616e616765723a20556e61626c6520746f2072656465656d20616e7920616d6f756e74a26469706673582212206e820557ad309be684696a69e274cf07785c483eb47fec21976109953555188e64736f6c634300060b0033608060405234801561001057600080fd5b50600380546001600160a01b031916339081179091556040516000907f8be0079c531659141344cd1fd0a4f28419497f9722a3daafe3b4186f6b6457e0908290a3613730806100606000396000f3fe6080604052600436106101a35760003560e01c80637165f24f116100e25780638a4adf24116100855780638a4adf241461056c5780638da5cb5b146105815780638f32d59b14610596578063a20baee6146104d9578063a3f4df7e146105bf578063a619cc1f14610649578063dd5904961461065e578063f92d343314610673576101a3565b80637165f24f146104c457806372fe25aa146104d9578063741bef1a146104ee57806375b30b3a14610503578063794e572414610518578063795d26c31461052d5780637f7dde4a14610542578063887105d314610557576101a3565b80634ff814431161014a5780634ff81443146103025780635530273c1461032c5780635733d58f1461036d5780636307a1041461038257806368647db1146103c95780636bf70e33146103f75780636c37a4af146104315780636f0b0c1c146104af576101a3565b80630d4d2214146101a85780630e4df55f146101d957806311b0bd611461021357806318976fa2146102545780631bf435551461026957806339269dc7146102905780633cc74225146102d85780634870dd9a146102ed575b600080fd5b3480156101b457600080fd5b506101bd610688565b604080516001600160a01b039092168252519081900360200190f35b610211600480360360608110156101ef57600080fd5b506001600160a01b038135811691602081013582169160409091013516610697565b005b34801561021f57600080fd5b506102116004803603606081101561023657600080fd5b508035906001600160a01b03602082013581169160400135166106b6565b34801561026057600080fd5b506102116106c8565b34801561027557600080fd5b5061027e610ac3565b60408051918252519081900360200190f35b610211600480360360c08110156102a657600080fd5b5080359060208101359060408101359060608101351515906001600160a01b03608082013581169160a0013516610ad0565b3480156102e457600080fd5b506101bd610ae7565b3480156102f957600080fd5b5061027e610af6565b34801561030e57600080fd5b5061027e6004803603602081101561032557600080fd5b5035610afb565b34801561033857600080fd5b506102116004803603606081101561034f57600080fd5b508035906001600160a01b0360208201358116916040013516610b0c565b34801561037957600080fd5b5061027e610b1d565b34801561038e57600080fd5b50610211600480360360808110156103a557600080fd5b508035906020810135906001600160a01b0360408201358116916060013516610b29565b610211600480360360408110156103df57600080fd5b506001600160a01b0381358116916020013516610b40565b6102116004803603608081101561040d57600080fd5b508035906020810135906001600160a01b0360408201358116916060013516610b56565b34801561043d57600080fd5b50610211600480360361014081101561045557600080fd5b506001600160a01b038135811691602081013582169160408201358116916060810135821691608082013581169160a081013582169160c082013581169160e081013582169161010082013581169161012001351661118b565b3480156104bb57600080fd5b5061021161153c565b3480156104d057600080fd5b506101bd61159c565b3480156104e557600080fd5b5061027e6115ab565b3480156104fa57600080fd5b506101bd6115b7565b34801561050f57600080fd5b506101bd6115c6565b34801561052457600080fd5b5061027e6115d5565b34801561053957600080fd5b5061027e6115e1565b34801561054e57600080fd5b506101bd6116e2565b34801561056357600080fd5b5061027e6116f1565b34801561057857600080fd5b506101bd6117ad565b34801561058d57600080fd5b506101bd6117bc565b3480156105a257600080fd5b506105ab6117cb565b604080519115158252519081900360200190f35b3480156105cb57600080fd5b506105d46117dc565b6040805160208082528351818301528351919283929083019185019080838360005b8381101561060e5781810151838201526020016105f6565b50505050905090810190601f16801561063b5780820380516001836020036101000a031916815260200191505b509250505060405180910390f35b34801561065557600080fd5b5061027e61180a565b34801561066a57600080fd5b506101bd611817565b34801561067f57600080fd5b5061027e611826565b6009546001600160a01b031681565b61069f611831565b6106b18360008060008686600061187c565b505050565b6106b13360008560008686600061187c565b600454600054600a546001600160a01b039283169291821691166106ec8333611e79565b60025460408051630fdb11cf60e01b815290516000926001600160a01b031691630fdb11cf91600480830192602092919082900301818787803b15801561073257600080fd5b505af1158015610746573d6000803e3d6000fd5b505050506040513d602081101561075c57600080fd5b5051905061076981611f3e565b60408051630b07655760e01b815233600482015290516001600160a01b03861691630b07655791602480830192600092919082900301818387803b1580156107b057600080fd5b505af11580156107c4573d6000803e3d6000fd5b5050604080516304c4cd0360e51b81523360048201529051600093506001600160a01b0388169250639899a06091602480820192602092909190829003018186803b15801561081257600080fd5b505afa158015610826573d6000803e3d6000fd5b505050506040513d602081101561083c57600080fd5b50516040805163c0af0d3b60e01b815233600482015290519192506000916001600160a01b0388169163c0af0d3b916024808301926020929190829003018186803b15801561088a57600080fd5b505afa15801561089e573d6000803e3d6000fd5b505050506040513d60208110156108b457600080fd5b505190506108db84336108d684680ad78ebc5ac620000063ffffffff611f8616565b611fcf565b60006108ec8360008460008861208f565b90506108f78161211a565b60408051631fc5750960e31b815233600482015290516001600160a01b0389169163fe2ba84891602480830192600092919082900301818387803b15801561093e57600080fd5b505af1158015610952573d6000803e3d6000fd5b50506040805163c99cb2b760e01b815233600482015290516001600160a01b038b16935063c99cb2b79250602480830192600092919082900301818387803b15801561099d57600080fd5b505af11580156109b1573d6000803e3d6000fd5b50505050336001600160a01b031660008051602061336283398151915260008060006001604051808581526020018481526020018381526020018260028111156109f757fe5b60ff16815260200194505050505060405180910390a2610a31868633610a2c86680ad78ebc5ac620000063ffffffff611f8616565b612161565b600654610a5490879087906001600160a01b0316680ad78ebc5ac6200000612161565b60408051633efe643b60e01b81523360048201526024810185905290516001600160a01b03881691633efe643b91604480830192600092919082900301818387803b158015610aa257600080fd5b505af1158015610ab6573d6000803e3d6000fd5b5050505050505050505050565b686194049f30f720000081565b610adf3386868686868c61187c565b505050505050565b6001546001600160a01b031681565b60c881565b6000610b068261223d565b92915050565b6106b133846000808686600061187c565b6714d1120d7b16000081565b610b3a33600085600186868a61187c565b50505050565b610b523360008060008686600061187c565b5050565b610b5e61321f565b50604080516060810182526004546001600160a01b03908116825260005481166020830152600a541691810191909152610b9661323f565b600260009054906101000a90046001600160a01b03166001600160a01b0316630fdb11cf6040518163ffffffff1660e01b8152600401602060405180830381600087803b158015610be657600080fd5b505af1158015610bfa573d6000803e3d6000fd5b505050506040513d6020811015610c1057600080fd5b5051808252600090610c2190612258565b9050610c2d8782612275565b8251610c399033612321565b6040820186905280610c7a57610c5983600001518460400151888a6123fd565b602083018190526040830151610c749163ffffffff6125ac16565b60408301525b610c878260400151612606565b610c94826040015161223d565b60608301819052610ca157fe5b610cb4348360600151846000015161264e565b60808301526060820151610cc990349061268c565b60a08301528015610ce657610ce182608001516126c1565b610d19565b610cf38260800151612708565b6000610d0c34600185606001516001876000015161208f565b9050610d178161211a565b505b82516040805163325e370d60e01b81523360048201526001602482015290516001600160a01b039092169163325e370d9160448082019260009290919082900301818387803b158015610d6b57600080fd5b505af1158015610d7f573d6000803e3d6000fd5b505084516040805163320b246960e01b815233600482015234602482015290516001600160a01b03909216935063320b246992506044808201926020929091908290030181600087803b158015610dd557600080fd5b505af1158015610de9573d6000803e3d6000fd5b505050506040513d6020811015610dff57600080fd5b505082516060830151604080516332d69e7360e21b81523360048201526024810192909252516001600160a01b039092169163cb5a79cc916044808201926020929091908290030181600087803b158015610e5957600080fd5b505af1158015610e6d573d6000803e3d6000fd5b505050506040513d6020811015610e8357600080fd5b5050825160408051632c77130760e21b815233600482015290516001600160a01b039092169163b1dc4c1c9160248082019260009290919082900301818387803b158015610ed057600080fd5b505af1158015610ee4573d6000803e3d6000fd5b5050845160408051630c7940bd60e11b815233600482015290516001600160a01b0390921693506318f2817a92506024808201926020929091908290030181600087803b158015610f3457600080fd5b505af1158015610f48573d6000803e3d6000fd5b505050506040513d6020811015610f5e57600080fd5b505160c0830152600b5460a0830151604080516346f7cf8760e01b815233600482015260248101929092526001600160a01b038881166044840152878116606484015290519216916346f7cf879160848082019260009290919082900301818387803b158015610fcd57600080fd5b505af1158015610fe1573d6000803e3d6000fd5b50508451604080516318b9da1d60e21b815233600482015290516001600160a01b0390921693506362e7687492506024808201926020929091908290030181600087803b15801561103157600080fd5b505af1158015611045573d6000803e3d6000fd5b505050506040513d602081101561105b57600080fd5b505160e08301819052604080519182525133917fa510df27d6e51efd91d3f55722bad1f26bf924a63e5dcee07c2ab4c3d4992dcc919081900360200190a26110a783602001513461274f565b6110c083602001518460400151338986604001516127df565b602083015160408401516006546110ec9291906001600160a01b0316680ad78ebc5ac6200000806127df565b336001600160a01b03166000805160206133628339815191528360600151348560c0015160006040518085815260200184815260200183815260200182600281111561113457fe5b60ff16815260200194505050505060405180910390a2602080830151604080519182525133927fe3f81eee9eb7b21bda5672f049187ddcd1833f6de3018f5ff2a716efba828df0928290030190a250505050505050565b6111936117cb565b6111e4576040805162461bcd60e51b815260206004820181905260248201527f4f776e61626c653a2063616c6c6572206973206e6f7420746865206f776e6572604482015290519081900360640190fd5b6111ed8a6128bc565b6111f6896128bc565b6111ff886128bc565b611208876128bc565b611211866128bc565b61121a856128bc565b611223846128bc565b61122c836128bc565b611235826128bc565b61123e816128bc565b600480546001600160a01b03199081166001600160a01b038d81169182179093556000805483168d85161790556001805483168c85161790556005805483168b85161790556006805483168a8516179055600780548316898516179055600280548316888516179055600b80548316878516179055600a80548316868516179055600980548316938516938417905560088054909216909217905560408051918252517fd396f45b3a6c41f9744b157261875945681f8e23587ae1d7d34377aad3bb1623916020908290030190a1604080516001600160a01b038b16815290517f78f058b189175430c48dc02699e3a0031ea4ff781536dc2fab847de4babdd8829181900360200190a1604080516001600160a01b038a16815290517f5ee0cae2f063ed938bb55046f6a932fb6ae792bf43624806bb90abe68a50be9b9181900360200190a1604080516001600160a01b038916815290517f82966d27eea39b038ee0fa30cd16532bb24f6e65d31cb58fb227aa5766cdcc7f9181900360200190a1604080516001600160a01b038816815290517fcfb07d791fcafc032b35837b50eb84b74df518cf4cc287e8084f47630fa70fa09181900360200190a1604080516001600160a01b038716815290517fe67f36a6e961157d6eff83b91f3af5a62131ceb6f04954ef74f51c1c05e7f88d9181900360200190a1604080516001600160a01b038616815290517f8c537274438aa850a330284665d81a85dd38267d09e4050d416bfc94142db2649181900360200190a1604080516001600160a01b038516815290517fb92ab72da68990756a2b6a93fce7497a60e992b19dd9529f601a977e88117d3c9181900360200190a1604080516001600160a01b038416815290517f4e62a526dbb1c27a0df55dad97eaa57df1e3a95bb380a0bbe38dc5fbc07bb6699181900360200190a1604080516001600160a01b038316815290517fccecd30b0c29abaa3249dc3caf9304255028c2c8cd8fe0fc4213a5d028a1240f9181900360200190a161153061296b565b50505050505050505050565b6007546040805163b32beb5b60e01b815233600482015290516001600160a01b039092169163b32beb5b9160248082019260009290919082900301818387803b15801561158857600080fd5b505af1158015610b3a573d6000803e3d6000fd5b600b546001600160a01b031681565b670de0b6b3a764000081565b6002546001600160a01b031681565b6008546001600160a01b031681565b670f43fc2c04ee000081565b6000805460408051638f07158d60e01b8152905183926001600160a01b031691638f07158d916004808301926020929190829003018186803b15801561162657600080fd5b505afa15801561163a573d6000803e3d6000fd5b505050506040513d602081101561165057600080fd5b505160015460408051638f07158d60e01b815290519293506000926001600160a01b0390921691638f07158d91600480820192602092909190829003018186803b15801561169d57600080fd5b505afa1580156116b1573d6000803e3d6000fd5b505050506040513d60208110156116c757600080fd5b505190506116db828263ffffffff6125ac16565b9250505090565b6000546001600160a01b031681565b60008054604080516377a4b5b760e01b8152905183926001600160a01b0316916377a4b5b7916004808301926020929190829003018186803b15801561173657600080fd5b505afa15801561174a573d6000803e3d6000fd5b505050506040513d602081101561176057600080fd5b5051600154604080516377a4b5b760e01b815290519293506000926001600160a01b03909216916377a4b5b791600480820192602092909190829003018186803b15801561169d57600080fd5b6004546001600160a01b031681565b6003546001600160a01b031690565b6003546001600160a01b0316331490565b60405180604001604052806012815260200171426f72726f7765724f7065726174696f6e7360701b81525081565b680ad78ebc5ac620000081565b600a546001600160a01b031681565b6611c37937e0800081565b6005546001600160a01b0316331461187a5760405162461bcd60e51b81526004018080602001828103825260298152602001806135fa6029913960400191505060405180910390fd5b565b61188461321f565b50604080516060810182526004546001600160a01b03908116825260005481166020830152600a5416918101919091526118bc613284565b600260009054906101000a90046001600160a01b03166001600160a01b0316630fdb11cf6040518163ffffffff1660e01b8152600401602060405180830381600087803b15801561190c57600080fd5b505af1158015611920573d6000803e3d6000fd5b505050506040513d602081101561193657600080fd5b505180825260009061194790612258565b90508615611962576119598482612275565b611962886129b5565b61196b896129f4565b6119758989612a3a565b8251611981908b611e79565b336001600160a01b038b1614806119b757506005546001600160a01b0316331480156119ad5750600034115b80156119b7575087155b6119bd57fe5b82600001516001600160a01b0316630b0765578b6040518263ffffffff1660e01b815260040180826001600160a01b03166001600160a01b03168152602001915050600060405180830381600087803b158015611a1957600080fd5b505af1158015611a2d573d6000803e3d6000fd5b50505050611a3b348a612a8c565b15156060840152602083015260408201889052868015611a59575080155b15611a9457611a72836000015184604001518a876123fd565b61012083018190526040830151611a8e9163ffffffff6125ac16565b60408301525b82600001516001600160a01b031663c0af0d3b8b6040518263ffffffff1660e01b815260040180826001600160a01b03166001600160a01b0316815260200191505060206040518083038186803b158015611aee57600080fd5b505afa158015611b02573d6000803e3d6000fd5b505050506040513d6020811015611b1857600080fd5b505160808301528251604080516304c4cd0360e51b81526001600160a01b038d8116600483015291519190921691639899a060916024808301926020929190829003018186803b158015611b6b57600080fd5b505afa158015611b7f573d6000803e3d6000fd5b505050506040513d6020811015611b9557600080fd5b505160a0830181905260808301518351611bb092919061264e565b8260c0018181525050611be08260a0015183608001518460200151856060015186604001518c8860000151612aab565b60e083015260a0820151891115611bf357fe5b611bff818a8985612ade565b86158015611c0d5750600088115b15611c6057611c3b611c368360400151611c2a8560800151612b52565b9063ffffffff611f8616565b612606565b611c4d82608001518360400151612b6d565b611c6083604001518b8460400151611fcf565b611c7e83600001518b8460200151856060015186604001518c612bc4565b610140840152610160830152825160408051630c7940bd60e11b81526001600160a01b038d81166004830152915191909216916318f2817a9160248083019260209291908290030181600087803b158015611cd857600080fd5b505af1158015611cec573d6000803e3d6000fd5b505050506040513d6020811015611d0257600080fd5b505161018083015260a08201516080830151602084015160608501516040860151600094611d36949093909290918d612e24565b600b546040805163015f109360e51b81526001600160a01b038f81166004830152602482018590528b811660448301528a811660648301529151939450911691632be212609160848082019260009290919082900301818387803b158015611d9d57600080fd5b505af1158015611db1573d6000803e3d6000fd5b505050508a6001600160a01b0316600080516020613362833981519152846101400151856101600151866101800151600260405180858152602001848152602001838152602001826002811115611e0457fe5b60ff16815260200194505050505060405180910390a2610120830151604080519182525133917fe3f81eee9eb7b21bda5672f049187ddcd1833f6de3018f5ff2a716efba828df0919081900360200190a2610ab68460200151856040015133866020015187606001518e8e8a60400151612e55565b6000826001600160a01b031663180d97c1836040518263ffffffff1660e01b815260040180826001600160a01b03166001600160a01b0316815260200191505060206040518083038186803b158015611ed157600080fd5b505afa158015611ee5573d6000803e3d6000fd5b505050506040513d6020811015611efb57600080fd5b50519050600181146106b15760405162461bcd60e51b815260040180806020018281038252602e8152602001806133eb602e913960400191505060405180910390fd5b611f4781612258565b15611f835760405162461bcd60e51b81526004018080602001828103825260398152602001806133b26039913960400191505060405180910390fd5b50565b6000611fc883836040518060400160405280601e81526020017f536166654d6174683a207375627472616374696f6e206f766572666c6f770000815250612f10565b9392505050565b80836001600160a01b03166370a08231846040518263ffffffff1660e01b815260040180826001600160a01b03166001600160a01b0316815260200191505060206040518083038186803b15801561202657600080fd5b505afa15801561203a573d6000803e3d6000fd5b505050506040513d602081101561205057600080fd5b505110156106b15760405162461bcd60e51b815260040180806020018281038252603c815260200180613326603c913960400191505060405180910390fd5b60008061209a6116f1565b905060006120a66115e1565b9050866120c2576120bd828963ffffffff611f8616565b6120d2565b6120d2828963ffffffff6125ac16565b9150846120ee576120e9818763ffffffff611f8616565b6120fe565b6120fe818763ffffffff6125ac16565b9050600061210d83838761264e565b9998505050505050505050565b6714d1120d7b160000811015611f835760405162461bcd60e51b81526004018080602001828103825260498152602001806134b26049913960600191505060405180910390fd5b836001600160a01b031663d3ed5d19826040518263ffffffff1660e01b815260040180828152602001915050600060405180830381600087803b1580156121a757600080fd5b505af11580156121bb573d6000803e3d6000fd5b50505050826001600160a01b0316639dc29fac83836040518363ffffffff1660e01b815260040180836001600160a01b03166001600160a01b0316815260200182815260200192505050600060405180830381600087803b15801561221f57600080fd5b505af1158015612233573d6000803e3d6000fd5b5050505050505050565b6000610b0682680ad78ebc5ac620000063ffffffff6125ac16565b60008061226483612fa7565b6714d1120d7b160000119392505050565b80156122c757670de0b6b3a76400008211156122c25760405162461bcd60e51b81526004018080602001828103825260328152602001806134196032913960400191505060405180910390fd5b610b52565b6611c37937e0800082108015906122e65750670de0b6b3a76400008211155b610b525760405162461bcd60e51b81526004018080602001828103825260308152602001806136236030913960400191505060405180910390fd5b6000826001600160a01b031663180d97c1836040518263ffffffff1660e01b815260040180826001600160a01b03166001600160a01b0316815260200191505060206040518083038186803b15801561237957600080fd5b505afa15801561238d573d6000803e3d6000fd5b505050506040513d60208110156123a357600080fd5b5051905060018114156106b1576040805162461bcd60e51b815260206004820152601c60248201527f426f72726f7765724f70733a205661756c742069732061637469766500000000604482015290519081900360640190fd5b6000846001600160a01b0316635dba4c4a6040518163ffffffff1660e01b8152600401600060405180830381600087803b15801561243a57600080fd5b505af115801561244e573d6000803e3d6000fd5b505050506000856001600160a01b031663631203b0856040518263ffffffff1660e01b81526004018082815260200191505060206040518083038186803b15801561249857600080fd5b505afa1580156124ac573d6000803e3d6000fd5b505050506040513d60208110156124c257600080fd5b505190506124d1818585612fd3565b60085460408051625b388960e61b81526004810184905290516001600160a01b03909216916316ce22409160248082019260009290919082900301818387803b15801561251d57600080fd5b505af1158015612531573d6000803e3d6000fd5b5050600954604080516340c10f1960e01b81526001600160a01b03928316600482015260248101869052905191891693506340c10f19925060448082019260009290919082900301818387803b15801561258a57600080fd5b505af115801561259e573d6000803e3d6000fd5b509298975050505050505050565b600082820183811015611fc8576040805162461bcd60e51b815260206004820152601b60248201527f536166654d6174683a206164646974696f6e206f766572666c6f770000000000604482015290519081900360640190fd5b686194049f30f7200000811015611f835760405162461bcd60e51b815260040180806020018281038252603a8152602001806135c0603a913960400191505060405180910390fd5b600082156126815760006126788461266c878663ffffffff61304816565b9063ffffffff6130a116565b9150611fc89050565b506000199392505050565b600081156126b8576126b18261266c8568056bc75e2d6310000063ffffffff61304816565b9050610b06565b50600019610b06565b6714d1120d7b160000811015611f835760405162461bcd60e51b81526004018080602001828103825260378152602001806132ef6037913960400191505060405180910390fd5b670f43fc2c04ee0000811015611f835760405162461bcd60e51b81526004018080602001828103825260498152602001806135776049913960600191505060405180910390fd5b6040516000906001600160a01b0384169083908381818185875af1925050503d806000811461279a576040519150601f19603f3d011682016040523d82523d6000602084013e61279f565b606091505b50509050806106b15760405162461bcd60e51b815260040180806020018281038252602e8152602001806136cd602e913960400191505060405180910390fd5b846001600160a01b031663c9ceb951826040518263ffffffff1660e01b815260040180828152602001915050600060405180830381600087803b15801561282557600080fd5b505af1158015612839573d6000803e3d6000fd5b50505050836001600160a01b03166340c10f1984846040518363ffffffff1660e01b815260040180836001600160a01b03166001600160a01b0316815260200182815260200192505050600060405180830381600087803b15801561289d57600080fd5b505af11580156128b1573d6000803e3d6000fd5b505050505050505050565b6001600160a01b038116612917576040805162461bcd60e51b815260206004820152601e60248201527f4163636f756e742063616e6e6f74206265207a65726f20616464726573730000604482015290519081900360640190fd5b803b80610b52576040805162461bcd60e51b815260206004820181905260248201527f4163636f756e7420636f64652073697a652063616e6e6f74206265207a65726f604482015290519081900360640190fd5b6003546040516000916001600160a01b0316907f8be0079c531659141344cd1fd0a4f28419497f9722a3daafe3b4186f6b6457e0908390a3600380546001600160a01b0319169055565b60008111611f835760405162461bcd60e51b81526004018080602001828103825260378152602001806136966037913960400191505060405180910390fd5b3415806129ff575080155b611f835760405162461bcd60e51b81526004018080602001828103825260308152602001806133826030913960400191505060405180910390fd5b34151580612a4757508115155b80612a5157508015155b610b525760405162461bcd60e51b815260040180806020018281038252604681526020018061344b6046913960600191505060405180910390fd5b6000808315612aa057508290506001612aa4565b8291505b9250929050565b6000806000612abe8a8a8a8a8a8a6130e3565b915091506000612acf83838761264e565b9b9a5050505050505050505050565b8315612b1757612aed8361313e565b8115612b1257612b008160e001516126c1565b612b128160e001518260c0015161317b565b610b3a565b612b248160e00151612708565b612b4181602001518260600151836040015185856000015161208f565b6101008201819052610b3a9061211a565b6000610b0682680ad78ebc5ac620000063ffffffff611f8616565b612b8682680ad78ebc5ac620000063ffffffff611f8616565b811115610b525760405162461bcd60e51b81526004018080602001828103825260438152602001806136536043913960600191505060405180910390fd5b600080600085612c5f57886001600160a01b03166380b0cc2b89896040518363ffffffff1660e01b815260040180836001600160a01b03166001600160a01b0316815260200182815260200192505050602060405180830381600087803b158015612c2e57600080fd5b505af1158015612c42573d6000803e3d6000fd5b505050506040513d6020811015612c5857600080fd5b5051612cec565b886001600160a01b031663320b246989896040518363ffffffff1660e01b815260040180836001600160a01b03166001600160a01b0316815260200182815260200192505050602060405180830381600087803b158015612cbf57600080fd5b505af1158015612cd3573d6000803e3d6000fd5b505050506040513d6020811015612ce957600080fd5b50515b9050600084612d8657896001600160a01b031663cdd9f96a8a886040518363ffffffff1660e01b815260040180836001600160a01b03166001600160a01b0316815260200182815260200192505050602060405180830381600087803b158015612d5557600080fd5b505af1158015612d69573d6000803e3d6000fd5b505050506040513d6020811015612d7f57600080fd5b5051612e13565b896001600160a01b031663cb5a79cc8a886040518363ffffffff1660e01b815260040180836001600160a01b03166001600160a01b0316815260200182815260200192505050602060405180830381600087803b158015612de657600080fd5b505af1158015612dfa573d6000803e3d6000fd5b505050506040513d6020811015612e1057600080fd5b50515b919a91995090975050505050505050565b6000806000612e378989898989896130e3565b915091506000612e47838361268c565b9a9950505050505050505050565b8115612e6d57612e6888888886856127df565b612e79565b612e7988888886612161565b8315612e8e57612e89888661274f565b612233565b876001600160a01b0316633efe643b87876040518363ffffffff1660e01b815260040180836001600160a01b03166001600160a01b0316815260200182815260200192505050600060405180830381600087803b158015612eee57600080fd5b505af1158015612f02573d6000803e3d6000fd5b505050505050505050505050565b60008184841115612f9f5760405162461bcd60e51b81526004018080602001828103825283818151815260200191508051906020019080838360005b83811015612f64578181015183820152602001612f4c565b50505050905090810190601f168015612f915780820380516001836020036101000a031916815260200191505b509250505060405180910390fd5b505050900390565b600080612fb26116f1565b90506000612fbe6115e1565b9050612fcb82828661264e565b949350505050565b6000612ff18361266c86670de0b6b3a764000063ffffffff61304816565b905081811115610b3a576040805162461bcd60e51b815260206004820152601d60248201527f4665652065786365656465642070726f7669646564206d6178696d756d000000604482015290519081900360640190fd5b60008261305757506000610b06565b8282028284828161306457fe5b0414611fc85760405162461bcd60e51b81526004018080602001828103825260218152602001806134916021913960400191505060405180910390fd5b6000611fc883836040518060400160405280601a81526020017f536166654d6174683a206469766973696f6e206279207a65726f0000000000008152506131ba565b600080878786613102576130fd8a8963ffffffff611f8616565b613112565b6131128a8963ffffffff6125ac16565b91508461312e57613129898763ffffffff611f8616565b612e13565b612e13898763ffffffff6125ac16565b8015611f835760405162461bcd60e51b815260040180806020018281038252603e815260200180613539603e913960400191505060405180910390fd5b80821015610b525760405162461bcd60e51b815260040180806020018281038252603e8152602001806134fb603e913960400191505060405180910390fd5b600081836132095760405162461bcd60e51b8152602060048201818152835160248401528351909283926044909101919085019080838360008315612f64578181015183820152602001612f4c565b50600083858161321557fe5b0495945050505050565b604080516060810182526000808252602082018190529181019190915290565b60405180610100016040528060008152602001600081526020016000815260200160008152602001600081526020016000815260200160008152602001600081525090565b604051806101a00160405280600081526020016000815260200160008152602001600015158152602001600081526020016000815260200160008152602001600081526020016000815260200160008152602001600081526020016000815260200160008152509056fe426f72726f7765724f70733a204f7065726174696f6e206d757374206c65617665207661756c74207769746820494352203e3d20434352426f72726f7765724f70733a2043616c6c657220646f65736e74206861766520656e6f7567682042504420746f206d616b652072657061796d656e741682adcf84a5197a236a80c9ffe2e7233619140acb7839754c27cdc21799192c426f72726f7765724f7065726174696f6e733a2043616e6e6f7420776974686472617720616e642061646420636f6c6c426f72726f7765724f70733a204f7065726174696f6e206e6f74207065726d697474656420647572696e67205265636f76657279204d6f6465426f72726f7765724f70733a205661756c7420646f6573206e6f74206578697374206f7220697320636c6f7365644d6178206665652070657263656e74616765206d757374206c657373207468616e206f7220657175616c20746f2031303025426f72726f7765724f70733a205468657265206d75737420626520656974686572206120636f6c6c61746572616c206368616e6765206f7220612064656274206368616e6765536166654d6174683a206d756c7469706c69636174696f6e206f766572666c6f77426f72726f7765724f70733a20416e206f7065726174696f6e207468617420776f756c6420726573756c7420696e20544352203c20434352206973206e6f74207065726d6974746564426f72726f7765724f70733a2043616e6e6f7420646563726561736520796f7572205661756c7427732049435220696e205265636f76657279204d6f6465426f72726f7765724f70733a20436f6c6c61746572616c207769746864726177616c206e6f74207065726d6974746564205265636f76657279204d6f6465426f72726f7765724f70733a20416e206f7065726174696f6e207468617420776f756c6420726573756c7420696e20494352203c204d4352206973206e6f74207065726d6974746564426f72726f7765724f70733a205661756c742773206e65742064656274206d7573742062652067726561746572207468616e206d696e696d756d426f72726f7765724f70733a2043616c6c6572206973206e6f742053746162696c69747920506f6f6c4d6178206665652070657263656e74616765206d757374206265206265747765656e20302e352520616e642031303025426f72726f7765724f70733a20416d6f756e7420726570616964206d757374206e6f74206265206c6172676572207468616e20746865205661756c7427732064656274426f72726f7765724f70733a204465627420696e637265617365207265717569726573206e6f6e2d7a65726f20646562744368616e6765426f72726f7765724f70733a2053656e64696e67205242544320746f20416374697665506f6f6c206661696c6564a26469706673582212208b9a31873b7ceaecbc351907070d4d3be0e318061db3e6adc30c74d37aed8cea64736f6c634300060b0033608060405234801561001057600080fd5b50600080546001600160a01b0319163390811782556040519091907f8be0079c531659141344cd1fd0a4f28419497f9722a3daafe3b4186f6b6457e0908290a3610bbd8061005f6000396000f3fe6080604052600436106100b65760003560e01c80638f07158d1161006f5780638f07158d1461021c5780638f32d59b14610231578063a3f4df7e1461025a578063aac1846f146102e4578063b7f8cf9b146102f9578063c9ceb9511461030e578063d3ed5d19146103385761010f565b80630b622ab2146101145780633d8b8cb2146101455780633efe643b1461015a5780634a945f8d1461019557806377a4b5b7146101e05780638da5cb5b146102075761010f565b3661010f576100c3610362565b6005546100d6903463ffffffff6103c216565b600581905560408051918252517fd14e94350575a9b95caac82376e72b4abb5c2281ea487c75356692a5a4c900619181900360200190a1005b600080fd5b34801561012057600080fd5b50610129610423565b604080516001600160a01b039092168252519081900360200190f35b34801561015157600080fd5b50610129610432565b34801561016657600080fd5b506101936004803603604081101561017d57600080fd5b506001600160a01b038135169060200135610441565b005b3480156101a157600080fd5b50610193600480360360808110156101b857600080fd5b506001600160a01b038135811691602081013582169160408201358116916060013516610582565b3480156101ec57600080fd5b506101f561073b565b60408051918252519081900360200190f35b34801561021357600080fd5b50610129610741565b34801561022857600080fd5b506101f5610750565b34801561023d57600080fd5b50610246610756565b604080519115158252519081900360200190f35b34801561026657600080fd5b5061026f610767565b6040805160208082528351818301528351919283929083019185019080838360005b838110156102a9578181015183820152602001610291565b50505050905090810190601f1680156102d65780820380516001836020036101000a031916815260200191505b509250505060405180910390f35b3480156102f057600080fd5b5061012961078d565b34801561030557600080fd5b5061012961079c565b34801561031a57600080fd5b506101936004803603602081101561033157600080fd5b50356107ab565b34801561034457600080fd5b506101936004803603602081101561035b57600080fd5b5035610800565b6001546001600160a01b031633148061038557506004546001600160a01b031633145b6103c05760405162461bcd60e51b8152600401808060200182810382526031815260200180610b046031913960400191505060405180910390fd5b565b60008282018381101561041c576040805162461bcd60e51b815260206004820152601b60248201527f536166654d6174683a206164646974696f6e206f766572666c6f770000000000604482015290519081900360640190fd5b9392505050565b6003546001600160a01b031681565b6002546001600160a01b031681565b61044961081b565b60055461045c908263ffffffff61088e16565b600581905560408051918252517fd14e94350575a9b95caac82376e72b4abb5c2281ea487c75356692a5a4c900619181900360200190a1604080516001600160a01b03841681526020810183905281517f1083bc5da936d61fceb9f9e509171faa5ae4756c47a742bf3fa2f9b4cd8132fe929181900390910190a16040516000906001600160a01b0384169083908381818185875af1925050503d8060008114610522576040519150601f19603f3d011682016040523d82523d6000602084013e610527565b606091505b505090508061057d576040805162461bcd60e51b815260206004820152601f60248201527f416374697665506f6f6c3a2073656e64696e672052425443206661696c656400604482015290519081900360640190fd5b505050565b61058a610756565b6105db576040805162461bcd60e51b815260206004820181905260248201527f4f776e61626c653a2063616c6c6572206973206e6f7420746865206f776e6572604482015290519081900360640190fd5b6105e4846108d0565b6105ed836108d0565b6105f6826108d0565b6105ff816108d0565b600180546001600160a01b038087166001600160a01b031992831681179093556002805487831690841617905560038054868316908416179055600480549185169190921617905560408051918252517f3ca631ffcd2a9b5d9ae18543fc82f58eb4ca33af9e6ab01b7a8e95331e6ed9859181900360200190a1604080516001600160a01b038516815290517fd396f45b3a6c41f9744b157261875945681f8e23587ae1d7d34377aad3bb16239181900360200190a1604080516001600160a01b038416815290517f82966d27eea39b038ee0fa30cd16532bb24f6e65d31cb58fb227aa5766cdcc7f9181900360200190a1604080516001600160a01b038316815290517f5ee0cae2f063ed938bb55046f6a932fb6ae792bf43624806bb90abe68a50be9b9181900360200190a1610735610983565b50505050565b60055490565b6000546001600160a01b031690565b60065490565b6000546001600160a01b0316331490565b6040518060400160405280600a8152602001691058dd1a5d99541bdbdb60b21b81525081565b6004546001600160a01b031681565b6001546001600160a01b031681565b6107b36109cd565b6006546107c6908263ffffffff6103c216565b600681905560408051918252517fcac349f15c3887cb8a96c54edac9fd67b329ab3c915f2d64121c6e1ce39634e09181900360200190a150565b61080861081b565b6006546107c6908263ffffffff61088e16565b6001546001600160a01b031633148061083e57506002546001600160a01b031633145b8061085357506003546001600160a01b031633145b6103c05760405162461bcd60e51b8152600401808060200182810382526053815260200180610b356053913960600191505060405180910390fd5b600061041c83836040518060400160405280601e81526020017f536166654d6174683a207375627472616374696f6e206f766572666c6f770000815250610a2b565b6001600160a01b03811661092b576040805162461bcd60e51b815260206004820152601e60248201527f4163636f756e742063616e6e6f74206265207a65726f20616464726573730000604482015290519081900360640190fd5b803b8061097f576040805162461bcd60e51b815260206004820181905260248201527f4163636f756e7420636f64652073697a652063616e6e6f74206265207a65726f604482015290519081900360640190fd5b5050565b600080546040516001600160a01b03909116907f8be0079c531659141344cd1fd0a4f28419497f9722a3daafe3b4186f6b6457e0908390a3600080546001600160a01b0319169055565b6001546001600160a01b03163314806109f057506002546001600160a01b031633145b6103c05760405162461bcd60e51b8152600401808060200182810382526041815260200180610ac36041913960600191505060405180910390fd5b60008184841115610aba5760405162461bcd60e51b81526004018080602001828103825283818151815260200191508051906020019080838360005b83811015610a7f578181015183820152602001610a67565b50505050905090810190601f168015610aac5780820380516001836020036101000a031916815260200191505b509250505060405180910390fd5b50505090039056fe416374697665506f6f6c3a2043616c6c6572206973206e65697468657220426f72726f7765724f7065726174696f6e73206e6f72205661756c744d616e61676572416374697665506f6f6c3a2043616c6c6572206973206e65697468657220424f206e6f722044656661756c7420506f6f6c416374697665506f6f6c3a2043616c6c6572206973206e65697468657220426f72726f7765724f7065726174696f6e73206e6f72205661756c744d616e61676572206e6f722053746162696c697479506f6f6ca264697066735822122001a180123da72b1bd8804e83bbf1916b73ad2e5ce24202f6620bf7dbb00f553964736f6c634300060b0033608060405234801561001057600080fd5b50600080546001600160a01b0319163390811782556040519091907f8be0079c531659141344cd1fd0a4f28419497f9722a3daafe3b4186f6b6457e0908290a36109988061005f6000396000f3fe6080604052600436106100a05760003560e01c80638f32d59b116100645780638f32d59b146101ac57806390107afe146101d5578063a3f4df7e14610210578063b08bc7221461029a578063c9ceb951146102af578063d3ed5d19146102d9576100f9565b80633d8b8cb2146100fe578063704390391461012f57806377a4b5b71461015b5780638da5cb5b146101825780638f07158d14610197576100f9565b366100f9576100ad610303565b6003546100c0903463ffffffff61034e16565b600381905560408051918252517fcf83d008582f2a07709ef1828f94eb57959070e919c2745b444cbf0e4f03fe029181900360200190a1005b600080fd5b34801561010a57600080fd5b506101136103af565b604080516001600160a01b039092168252519081900360200190f35b34801561013b57600080fd5b506101596004803603602081101561015257600080fd5b50356103be565b005b34801561016757600080fd5b5061017061050e565b60408051918252519081900360200190f35b34801561018e57600080fd5b50610113610514565b3480156101a357600080fd5b50610170610523565b3480156101b857600080fd5b506101c1610529565b604080519115158252519081900360200190f35b3480156101e157600080fd5b50610159600480360360408110156101f857600080fd5b506001600160a01b038135811691602001351661053a565b34801561021c57600080fd5b5061022561064d565b6040805160208082528351818301528351919283929083019185019080838360005b8381101561025f578181015183820152602001610247565b50505050905090810190601f16801561028c5780820380516001836020036101000a031916815260200191505b509250505060405180910390f35b3480156102a657600080fd5b50610113610674565b3480156102bb57600080fd5b50610159600480360360208110156102d257600080fd5b5035610683565b3480156102e557600080fd5b50610159600480360360208110156102fc57600080fd5b50356106d8565b6002546001600160a01b0316331461034c5760405162461bcd60e51b815260040180806020018281038252602981526020018061090f6029913960400191505060405180910390fd5b565b6000828201838110156103a8576040805162461bcd60e51b815260206004820152601b60248201527f536166654d6174683a206164646974696f6e206f766572666c6f770000000000604482015290519081900360640190fd5b9392505050565b6001546001600160a01b031681565b6103c66106f3565b6002546003546001600160a01b03909116906103e8908363ffffffff61073c16565b600381905560408051918252517fcf83d008582f2a07709ef1828f94eb57959070e919c2745b444cbf0e4f03fe029181900360200190a1604080516001600160a01b03831681526020810184905281517f1083bc5da936d61fceb9f9e509171faa5ae4756c47a742bf3fa2f9b4cd8132fe929181900390910190a16040516000906001600160a01b0383169084908381818185875af1925050503d80600081146104ae576040519150601f19603f3d011682016040523d82523d6000602084013e6104b3565b606091505b5050905080610509576040805162461bcd60e51b815260206004820181905260248201527f44656661756c74506f6f6c3a2073656e64696e672052425443206661696c6564604482015290519081900360640190fd5b505050565b60035490565b6000546001600160a01b031690565b60045490565b6000546001600160a01b0316331490565b610542610529565b610593576040805162461bcd60e51b815260206004820181905260248201527f4f776e61626c653a2063616c6c6572206973206e6f7420746865206f776e6572604482015290519081900360640190fd5b61059c8261077e565b6105a58161077e565b600180546001600160a01b038085166001600160a01b03199283168117909355600280549185169190921617905560408051918252517fd396f45b3a6c41f9744b157261875945681f8e23587ae1d7d34377aad3bb16239181900360200190a1604080516001600160a01b038316815290517f78f058b189175430c48dc02699e3a0031ea4ff781536dc2fab847de4babdd8829181900360200190a161064961082d565b5050565b6040518060400160405280600b81526020016a111959985d5b1d141bdbdb60aa1b81525081565b6002546001600160a01b031681565b61068b6106f3565b60045461069e908263ffffffff61034e16565b600481905560408051918252517f4b512a992a3ca66c5fa41995ff6f92f98215162f47524329d4cd3be1995c1c169181900360200190a150565b6106e06106f3565b60045461069e908263ffffffff61073c16565b6001546001600160a01b0316331461034c5760405162461bcd60e51b815260040180806020018281038252602b815260200180610938602b913960400191505060405180910390fd5b60006103a883836040518060400160405280601e81526020017f536166654d6174683a207375627472616374696f6e206f766572666c6f770000815250610877565b6001600160a01b0381166107d9576040805162461bcd60e51b815260206004820152601e60248201527f4163636f756e742063616e6e6f74206265207a65726f20616464726573730000604482015290519081900360640190fd5b803b80610649576040805162461bcd60e51b815260206004820181905260248201527f4163636f756e7420636f64652073697a652063616e6e6f74206265207a65726f604482015290519081900360640190fd5b600080546040516001600160a01b03909116907f8be0079c531659141344cd1fd0a4f28419497f9722a3daafe3b4186f6b6457e0908390a3600080546001600160a01b0319169055565b600081848411156109065760405162461bcd60e51b81526004018080602001828103825283818151815260200191508051906020019080838360005b838110156108cb5781810151838201526020016108b3565b50505050905090810190601f1680156108f85780820380516001836020036101000a031916815260200191505b509250505060405180910390fd5b50505090039056fe44656661756c74506f6f6c3a2043616c6c6572206973206e6f742074686520416374697665506f6f6c44656661756c74506f6f6c3a2043616c6c6572206973206e6f7420746865205661756c744d616e61676572a2646970667358221220c9a6592ab379f821a93b986377f2f6b9282c51f5f09de3093e705063f99d3e0764736f6c634300060b00336080604052670de0b6b3a764000060105534801561001c57600080fd5b50600380546001600160a01b031916339081179091556040516000907f8be0079c531659141344cd1fd0a4f28419497f9722a3daafe3b4186f6b6457e0908290a36139258061006c6000396000f3fe6080604052600436106102975760003560e01c806382e0a5741161015a578063a619cc1f116100c1578063dde598b91161007a578063dde598b914610912578063df9cd84f14610927578063eaa8ba7f1461095a578063f7d5b0b1146109bf578063f92d3433146109f2578063fc7e286d14610a07576102de565b8063a619cc1f14610821578063a7bfff9714610836578063ce4b5bbe14610882578063d5929f9c14610897578063d816708e146108ca578063dd590496146108fd576102de565b80638ea17638116101135780638ea17638146107115780638f32d59b1461074457806395fb16bb1461076d578063a20baee614610576578063a3f4df7e14610782578063a4e59ac81461080c576102de565b806382e0a5741461064f57806386da08241461068a578063887105d3146106bd5780638a4adf24146106d25780638b8fbd92146106e75780638da5cb5b146106fc576102de565b80635d2de642116101fe57806377553ad4116101b757806377553ad4146105d157806377a4b5b7146105e657806378b0903b146105fb578063794e572414610610578063795d26c3146106255780637f7dde4a1461063a576102de565b80635d2de642146104f55780635f788d65146105285780637165f24f1461056157806372fe25aa14610576578063741bef1a1461058b57806376671808146105a0576102de565b8063335525ad11610250578063335525ad1461042b5780633cc742251461045b57806341c200c01461048c5780634870dd9a146104a1578063556be101146104b65780635733d58f146104e0576102de565b80630c06d0e8146102e357806316b9d3c51461030a5780631bf435551461037457806328a0a04d146103895780632a9a67b6146103c45780632e54bf9514610401576102de565b366102de576102a4610a5b565b6009546102b7903463ffffffff610aa616565b6009819055604080519182525160008051602061365f8339815191529181900360200190a1005b600080fd5b3480156102ef57600080fd5b506102f8610b09565b60408051918252519081900360200190f35b34801561031657600080fd5b5061033d6004803603602081101561032d57600080fd5b50356001600160a01b0316610b0f565b604080519586526020860194909452848401929092526001600160801b039081166060850152166080830152519081900360a00190f35b34801561038057600080fd5b506102f8610b4a565b34801561039557600080fd5b506102f8600480360360408110156103ac57600080fd5b506001600160801b0381358116916020013516610b57565b3480156103d057600080fd5b506103ff600480360360408110156103e757600080fd5b506001600160a01b0381358116916020013516610b74565b005b34801561040d57600080fd5b506103ff6004803603602081101561042457600080fd5b5035610da4565b34801561043757600080fd5b506103ff6004803603604081101561044e57600080fd5b5080359060200135610f2d565b34801561046757600080fd5b50610470610f91565b604080516001600160a01b039092168252519081900360200190f35b34801561049857600080fd5b506102f8610fa0565b3480156104ad57600080fd5b506102f8610fa6565b3480156104c257600080fd5b506103ff600480360360208110156104d957600080fd5b5035610fab565b3480156104ec57600080fd5b506102f8611020565b34801561050157600080fd5b506102f86004803603602081101561051857600080fd5b50356001600160a01b031661102c565b34801561053457600080fd5b506103ff6004803603604081101561054b57600080fd5b50803590602001356001600160a01b031661103e565b34801561056d57600080fd5b506104706111bf565b34801561058257600080fd5b506102f86111ce565b34801561059757600080fd5b506104706111da565b3480156105ac57600080fd5b506105b56111e9565b604080516001600160801b039092168252519081900360200190f35b3480156105dd57600080fd5b506104706111ff565b3480156105f257600080fd5b506102f861120e565b34801561060757600080fd5b506102f8611214565b34801561061c57600080fd5b506102f861121a565b34801561063157600080fd5b506102f8611226565b34801561064657600080fd5b50610470611327565b34801561065b57600080fd5b506102f86004803603604081101561067257600080fd5b506001600160801b0381358116916020013516611336565b34801561069657600080fd5b5061033d600480360360208110156106ad57600080fd5b50356001600160a01b0316611353565b3480156106c957600080fd5b506102f861138e565b3480156106de57600080fd5b5061047061144a565b3480156106f357600080fd5b506102f8611459565b34801561070857600080fd5b5061047061145f565b34801561071d57600080fd5b506102f86004803603602081101561073457600080fd5b50356001600160a01b031661146e565b34801561075057600080fd5b50610759611574565b604080519115158252519081900360200190f35b34801561077957600080fd5b50610470611585565b34801561078e57600080fd5b50610797611594565b6040805160208082528351818301528351919283929083019185019080838360005b838110156107d15781810151838201526020016107b9565b50505050905090810190601f1680156107fe5780820380516001836020036101000a031916815260200191505b509250505060405180910390f35b34801561081857600080fd5b506105b56115bd565b34801561082d57600080fd5b506102f86115cc565b34801561084257600080fd5b506108696004803603602081101561085957600080fd5b50356001600160a01b03166115d9565b6040805192835290151560208301528051918290030190f35b34801561088e57600080fd5b506102f86115f5565b3480156108a357600080fd5b506102f8600480360360208110156108ba57600080fd5b50356001600160a01b03166115fd565b3480156108d657600080fd5b506102f8600480360360208110156108ed57600080fd5b50356001600160a01b03166116a3565b34801561090957600080fd5b50610470611740565b34801561091e57600080fd5b506102f861174f565b34801561093357600080fd5b506102f86004803603602081101561094a57600080fd5b50356001600160a01b0316611755565b34801561096657600080fd5b506103ff600480360360e081101561097d57600080fd5b506001600160a01b038135811691602081013582169160408201358116916060810135821691608082013581169160a081013582169160c090910135166117f2565b3480156109cb57600080fd5b506102f8600480360360208110156109e257600080fd5b50356001600160a01b0316611aa3565b3480156109fe57600080fd5b506102f8611ba0565b348015610a1357600080fd5b50610a3a60048036036020811015610a2a57600080fd5b50356001600160a01b0316611bab565b604080519283526001600160a01b0390911660208301528051918290030190f35b6000546001600160a01b03163314610aa45760405162461bcd60e51b815260040180806020018281038252602781526020018061367f6027913960400191505060405180910390fd5b565b600082820183811015610b00576040805162461bcd60e51b815260206004820152601b60248201527f536166654d6174683a206164646974696f6e206f766572666c6f770000000000604482015290519081900360640190fd5b90505b92915050565b60145481565b600f602052600090815260409020805460018201546002830154600390930154919290916001600160801b0380821691600160801b90041685565b686194049f30f720000081565b601260209081526000928352604080842090915290825290205481565b336000908152600b6020526040902054610b8d81611bcd565b610b9633611c0f565b610b9f33611cc6565b6008546001600160a01b0316610bb481611d12565b6000610bbf336116a3565b90506000610bcc336115fd565b90506000610be0858363ffffffff611d8616565b336000818152600b60205260409020600101549192506001600160a01b0390911690610c0e90869083611dc8565b6000610c1982611755565b905080610c268382611f67565b6040805182815233602082015281516001600160a01b038616926000805160206138d0833981519152928290030190a2610c6033866120b3565b6040805187815260208101869052815133926000805160206135f9833981519152928290030190a26040805186815290513391600080516020613738833981519152919081900360200190a2600954610cbf908763ffffffff611d8616565b6009819055604080519182525160008051602061365f8339815191529181900360200190a1604080513381526020810188905281517f1083bc5da936d61fceb9f9e509171faa5ae4756c47a742bf3fa2f9b4cd8132fe929181900390910190a16004805460408051630e4df55f60e01b815233938101939093526001600160a01b038d811660248501528c811660448501529051911691630e4df55f91899160648082019260009290919082900301818588803b158015610d7f57600080fd5b505af1158015610d93573d6000803e3d6000fd5b505050505050505050505050505050565b8015610db257610db2612239565b336000908152600b6020526040902054610dcb81611bcd565b6008546001600160a01b0316610de081611d12565b6000610deb336116a3565b90506000610df8336115fd565b90506000610e0686836123f6565b90506000610e1a868463ffffffff611d8616565b336000818152600b60205260409020600101549192506001600160a01b0390911690610e4890879083611dc8565b6000610e5382611755565b90506000610e67828663ffffffff611d8616565b9050610e738382611f67565b6040805182815233602082015281516001600160a01b038616926000805160206138d0833981519152928290030190a2610ead338661240c565b6000610ebf878763ffffffff611d8616565b9050610ecb33826120b3565b6040805182815290513391600080516020613738833981519152919081900360200190a26040805189815260208101879052815133926000805160206135f9833981519152928290030190a2610f2088612492565b5050505050505050505050565b610f3561259e565b600a54801580610f43575082155b15610f4e5750610f8d565b600854610f63906001600160a01b0316611d12565b600080610f718486856125e7565b91509150610f7f82826126e0565b610f8984866129da565b5050505b5050565b6001546001600160a01b031681565b60155481565b60c881565b610fb433612b14565b610fbd33612b6f565b610fc681612bc5565b336000818152600d60209081526040918290208481556001908101805460ff19169091179055815184815291517f19bc932fb9e16a8b5a1e41be9f4c2de59d5ddd7567b8b81405f532ca00a9880e9281900390910190a250565b6714d1120d7b16000081565b600e6020526000908152604090205481565b61104781612c0c565b61105033612b14565b61105982612c78565b336000908152600b60205260409020546008546001600160a01b031661107e81611d12565b8161108d5761108d3384612cb7565b6000611098336116a3565b905060006110a5336115fd565b905060006110b9858363ffffffff611d8616565b336000818152600b60205260409020600101549192506001600160a01b03909116906110e790869083611dc8565b60006110f282611755565b90506000611106828b63ffffffff610aa616565b90506111128382611f67565b6040805182815233602082015281516001600160a01b038616926000805160206138d0833981519152928290030190a261114c338b612d11565b600061115e868c63ffffffff610aa616565b905061116a33826120b3565b6040805182815290513391600080516020613738833981519152919081900360200190a26040805188815260208101879052815133926000805160206135f9833981519152928290030190a2610f2087612492565b6007546001600160a01b031681565b670de0b6b3a764000081565b6002546001600160a01b031681565b601154600160801b90046001600160801b031681565b6004546001600160a01b031681565b60095490565b60165481565b670f43fc2c04ee000081565b6000805460408051638f07158d60e01b8152905183926001600160a01b031691638f07158d916004808301926020929190829003018186803b15801561126b57600080fd5b505afa15801561127f573d6000803e3d6000fd5b505050506040513d602081101561129557600080fd5b505160015460408051638f07158d60e01b815290519293506000926001600160a01b0390921691638f07158d91600480820192602092909190829003018186803b1580156112e257600080fd5b505afa1580156112f6573d6000803e3d6000fd5b505050506040513d602081101561130c57600080fd5b50519050611320828263ffffffff610aa616565b9250505090565b6000546001600160a01b031681565b601360209081526000928352604080842090915290825290205481565b600c602052600090815260409020805460018201546002830154600390930154919290916001600160801b0380821691600160801b90041685565b60008054604080516377a4b5b760e01b8152905183926001600160a01b0316916377a4b5b7916004808301926020929190829003018186803b1580156113d357600080fd5b505afa1580156113e7573d6000803e3d6000fd5b505050506040513d60208110156113fd57600080fd5b5051600154604080516377a4b5b760e01b815290519293506000926001600160a01b03909216916377a4b5b791600480820192602092909190829003018186803b1580156112e257600080fd5b6005546001600160a01b031681565b60105481565b6003546001600160a01b031690565b6001600160a01b0381166000908152600e60205260408120548061149657600091505061156f565b6001600160a01b0383166000908152600d6020526040812054906114c8670de0b6b3a76400008363ffffffff611d8616565b90506114d2613563565b506001600160a01b0385166000908152600f60209081526040808320815160a08101835281548152600182015493810193909352600281015491830191909152600301546001600160801b038082166060840152600160801b90910416608082015290611567670de0b6b3a764000061155b61154e8886612ddb565b869063ffffffff612ecd16565b9063ffffffff612f2616565b955050505050505b919050565b6003546001600160a01b0316331490565b6008546001600160a01b031681565b6040518060400160405280600d81526020016c14dd18589a5b1a5d1e541bdbdb609a1b81525081565b6011546001600160801b031681565b680ad78ebc5ac620000081565b600d602052600090815260409020805460019091015460ff1682565b633b9aca0081565b6001600160a01b0381166000908152600b60205260408120548061162557600091505061156f565b61162d613563565b506001600160a01b0383166000908152600c60209081526040808320815160a08101835281548152600182015493810193909352600281015491830191909152600301546001600160801b038082166060840152600160801b9091041660808201529061169a8383612f68565b95945050505050565b6001600160a01b0381166000908152600b6020526040812054806116cb57600091505061156f565b6116d3613563565b506001600160a01b0383166000908152600c60209081526040808320815160a08101835281548152600182015493810193909352600281015491830191909152600301546001600160801b038082166060840152600160801b9091041660808201529061169a8383613064565b6006546001600160a01b031681565b600a5490565b6001600160a01b0381166000908152600e60205260408120548061177d57600091505061156f565b611785613563565b506001600160a01b0383166000908152600f60209081526040808320815160a08101835281548152600182015493810193909352600281015491830191909152600301546001600160801b038082166060840152600160801b9091041660808201529061169a8383612f68565b6117fa611574565b61184b576040805162461bcd60e51b815260206004820181905260248201527f4f776e61626c653a2063616c6c6572206973206e6f7420746865206f776e6572604482015290519081900360640190fd5b611854876130ef565b61185d866130ef565b611866856130ef565b61186f846130ef565b611878836130ef565b611881826130ef565b61188a816130ef565b600480546001600160a01b03199081166001600160a01b038a81169182179093556005805483168a85161790556000805483168985161790556006805483168885161790556007805483168785161790556002805483168685161790556008805490921692841692909217905560408051918252517f3ca631ffcd2a9b5d9ae18543fc82f58eb4ca33af9e6ab01b7a8e95331e6ed985916020908290030190a1604080516001600160a01b038816815290517fd396f45b3a6c41f9744b157261875945681f8e23587ae1d7d34377aad3bb16239181900360200190a1604080516001600160a01b038716815290517f78f058b189175430c48dc02699e3a0031ea4ff781536dc2fab847de4babdd8829181900360200190a1604080516001600160a01b038616815290517f4e62a526dbb1c27a0df55dad97eaa57df1e3a95bb380a0bbe38dc5fbc07bb6699181900360200190a1604080516001600160a01b038516815290517fb92ab72da68990756a2b6a93fce7497a60e992b19dd9529f601a977e88117d3c9181900360200190a1604080516001600160a01b038416815290517f8c537274438aa850a330284665d81a85dd38267d09e4050d416bfc94142db2649181900360200190a1604080516001600160a01b038316815290517f3055265812fb8447b9ada4a5d804ec43bd528ec40e89c952bbc7b85dc5ac68119181900360200190a1611a9a61319e565b50505050505050565b6001600160a01b0381166000908152600b602052604081205480611acb57600091505061156f565b6001600160a01b038084166000908152600b6020526040812060010154909116908115611b10576001600160a01b0382166000908152600d6020526040902054611b1a565b670de0b6b3a76400005b9050611b24613563565b506001600160a01b0385166000908152600c60209081526040808320815160a08101835281548152600182015493810193909352600281015491830191909152600301546001600160801b038082166060840152600160801b90910416608082015290611567670de0b6b3a764000061155b61154e8886612ddb565b6611c37937e0800081565b600b60205260009081526040902080546001909101546001600160a01b031682565b60008111611c0c5760405162461bcd60e51b81526004018080602001828103825260308152602001806138a06030913960400191505060405180910390fd5b50565b6005546040805163180d97c160e01b81526001600160a01b0384811660048301529151919092169163180d97c1916024808301926020929190829003018186803b158015611c5c57600080fd5b505afa158015611c70573d6000803e3d6000fd5b505050506040513d6020811015611c8657600080fd5b5051600114611c0c5760405162461bcd60e51b81526004018080602001828103825260478152602001806136ca6047913960600191505060405180910390fd5b6000611cd1826116a3565b905060008111610f8d5760405162461bcd60e51b81526004018080602001828103825260328152602001806135a56032913960400191505060405180910390fd5b6000816001600160a01b0316631a431c8a6040518163ffffffff1660e01b8152600401602060405180830381600087803b158015611d4f57600080fd5b505af1158015611d63573d6000803e3d6000fd5b505050506040513d6020811015611d7957600080fd5b50519050610f8d816131e8565b6000610b0083836040518060400160405280601e81526020017f536166654d6174683a207375627472616374696f6e206f766572666c6f770000815250613303565b6001600160a01b03811615611e9d576000611de28261146e565b9050836001600160a01b031663dbec01c483836040518363ffffffff1660e01b815260040180836001600160a01b03166001600160a01b0316815260200182815260200192505050600060405180830381600087803b158015611e4457600080fd5b505af1158015611e58573d6000803e3d6000fd5b50506040805184815290516001600160a01b03861693507fd4c50dca240288bb73b0b4da8f2351cfdb90ca861e8122443de6ac626f63347392509081900360200190a2505b6000611ea883611aa3565b9050836001600160a01b031663dbec01c484836040518363ffffffff1660e01b815260040180836001600160a01b03166001600160a01b0316815260200182815260200192505050600060405180830381600087803b158015611f0a57600080fd5b505af1158015611f1e573d6000803e3d6000fd5b50506040805184815290516001600160a01b03871693507f17961f7b8dfc86df03315fc297a16f6f849dc758f9599517f84cca7acf56f62d92509081900360200190a250505050565b6001600160a01b0382166000908152600e6020526040902081905580611ff7576001600160a01b0382166000818152600f60209081526040808320838155600181018490556002810184905560030183905580518381529182019290925281517fbb1322f85cc7cc8bac4e172a5bc5dcc0c1959007f9a030032abf9258205f0e45929181900390910190a2610f8d565b6011546010546001600160801b03600160801b80840482166000818152601360209081526040808320978616808452978252808320546001600160a01b038b16808552600f845293829020600181018990556002810182905560030180546001600160801b0319168a17909716958502959095179095558451868152908101849052845192959491927fbb1322f85cc7cc8bac4e172a5bc5dcc0c1959007f9a030032abf9258205f0e45929181900390910190a2505050505050565b6001600160a01b0382166000908152600b6020526040902081905580612161576001600160a01b0382166000818152600b60209081526040808320600190810180546001600160a01b0319169055600c83528184208481559081018490556002810184905560030183905580518381529182018390528181019290925290517f2d6cc0bcdf72c9486f6451bde6b80f44066f4558f77f44dbfedbe7d8b295225a9181900360600190a2610f8d565b6011546010546001600160801b03600160801b8084048216600081815260126020908152604080832097861680845297825280832054848452601383528184208985528352818420546001600160a01b038c16808652600c855294839020600181018a90558281556002810182905560030180546001600160801b0319168b179098169686029690961790965580518781529182018690528181018590525192959493927f2d6cc0bcdf72c9486f6451bde6b80f44066f4558f77f44dbfedbe7d8b295225a916060908290030190a250505050505050565b60025460408051630fdb11cf60e01b815290516000926001600160a01b031691630fdb11cf91600480830192602092919082900301818787803b15801561227f57600080fd5b505af1158015612293573d6000803e3d6000fd5b505050506040513d60208110156122a957600080fd5b505160075460408051634d62283160e01b815290519293506000926001600160a01b0390921691634d62283191600480820192602092909190829003018186803b1580156122f657600080fd5b505afa15801561230a573d6000803e3d6000fd5b505050506040513d602081101561232057600080fd5b505160055460408051630d293c7160e41b81526001600160a01b038085166004830152602482018790529151939450600093919092169163d293c710916044808301926020929190829003018186803b15801561237c57600080fd5b505afa158015612390573d6000803e3d6000fd5b505050506040513d60208110156123a657600080fd5b50519050670f43fc2c04ee00008110156123f15760405162461bcd60e51b81526004018080602001828103825260448152602001806137d56044913960600191505060405180910390fd5b505050565b60008183106124055781610b00565b5090919050565b8061241657610f8d565b60065460408051631062c15f60e11b81523060048201526001600160a01b03858116602483015260448201859052915191909216916320c582be91606480830192600092919082900301818387803b15801561247157600080fd5b505af1158015612485573d6000803e3d6000fd5b50505050610f8d8161339a565b8061249c57611c0c565b6009546000906124b2908363ffffffff611d8616565b600981905560408051828152905191925060008051602061365f833981519152919081900360200190a1604080513381526020810184905281517f1083bc5da936d61fceb9f9e509171faa5ae4756c47a742bf3fa2f9b4cd8132fe929181900390910190a1604051600090339084908381818185875af1925050503d8060008114612559576040519150601f19603f3d011682016040523d82523d6000602084013e61255e565b606091505b50509050806123f15760405162461bcd60e51b81526004018080602001828103825260228152602001806135d76022913960400191505060405180910390fd5b6005546001600160a01b03163314610aa45760405162461bcd60e51b81526004018080602001828103825260298152602001806137586029913960400191505060405180910390fd5b600080600061261960155461260d670de0b6b3a764000089612ecd90919063ffffffff16565b9063ffffffff610aa616565b90508385111561262557fe5b83851415612642576000601655670de0b6b3a764000091506126a2565b6016546000906126709061266488670de0b6b3a764000063ffffffff612ecd16565b9063ffffffff611d8616565b9050612687600161260d838863ffffffff612f2616565b925061269d81612664858863ffffffff612ecd16565b601655505b6126b2818563ffffffff612f2616565b92506126d46126c7848663ffffffff612ecd16565b829063ffffffff611d8616565b60155550935093915050565b6010546000670de0b6b3a76400008311156126f757fe5b6000612711670de0b6b3a76400008563ffffffff611d8616565b6011546001600160801b03600160801b8204811660008181526012602090815260408083209490951680835293905292832054939450909290916127558988612ecd565b90506000612769838363ffffffff610aa616565b6001600160801b038086166000818152601260209081526040808320948b16808452948252918290208590558151858152908101929092528181019290925290519192507fe12e2cd2c9afa8069203ca07e7eff1edce4a075686d0736a8e7e0d593597b207919081900360600190a1856128a0576127f76001600160801b038516600163ffffffff6133f016565b601180546001600160801b03908116600160801b938216840217918290556040805193909204168252517fb50f0f59e7cb5b421dc77581c3a9919e3806e076e5fa78a874c3f120cb7d874d916020908290030190a1601180546001600160801b0319169055604080516000815290517f1f9dfc70cd666adb18a39d60a797518f7b4febf4b6e24ef37d44f6e1e7219fbe9181900360200190a1670de0b6b3a7640000965061298c565b633b9aca006128c1670de0b6b3a764000061155b8b8a63ffffffff612ecd16565b101561296d576128f7670de0b6b3a764000061155b633b9aca006128eb8c8b63ffffffff612ecd16565b9063ffffffff612ecd16565b96506129136001600160801b038616600163ffffffff6133f016565b601180546001600160801b0319166001600160801b0392831617908190556040805191909216815290517f1f9dfc70cd666adb18a39d60a797518f7b4febf4b6e24ef37d44f6e1e7219fbe916020908290030190a161298c565b612989670de0b6b3a764000061155b8a8963ffffffff612ecd16565b96505b6000871161299657fe5b60108790556040805188815290517fc1a9618cb59ebca77cbdbc2949f126823c407ff13edb285fd0262519a9c18e8c9181900360200190a150505050505050505050565b600080546040805163d3ed5d1960e01b81526004810185905290516001600160a01b0390921692839263d3ed5d1992602480820193929182900301818387803b158015612a2657600080fd5b505af1158015612a3a573d6000803e3d6000fd5b50505050612a478261339a565b60065460408051632770a7eb60e21b81523060048201526024810185905290516001600160a01b0390921691639dc29fac9160448082019260009290919082900301818387803b158015612a9a57600080fd5b505af1158015612aae573d6000803e3d6000fd5b505060408051633efe643b60e01b81523060048201526024810187905290516001600160a01b0385169350633efe643b9250604480830192600092919082900301818387803b158015612b0057600080fd5b505af1158015611a9a573d6000803e3d6000fd5b6001600160a01b0381166000908152600d602052604090206001015460ff1615611c0c5760405162461bcd60e51b815260040180806020018281038252603981526020018061383f6039913960400191505060405180910390fd5b6001600160a01b0381166000908152600b60205260409020548015610f8d5760405162461bcd60e51b81526004018080602001828103825260288152602001806138786028913960400191505060405180910390fd5b670de0b6b3a7640000811115611c0c5760405162461bcd60e51b81526004018080602001828103825260338152602001806137a26033913960400191505060405180910390fd5b6001600160a01b0381166000908152600d602052604090206001015460ff1680612c3d57506001600160a01b038116155b611c0c5760405162461bcd60e51b81526004018080602001828103825260468152602001806136196046913960600191505060405180910390fd5b60008111611c0c5760405162461bcd60e51b81526004018080602001828103825260268152602001806138196026913960400191505060405180910390fd5b6001600160a01b038281166000818152600b602052604080822060010180546001600160a01b0319169486169485179055517f094c08e96a8890877a8390b4f967180a7507ad8622244d05fcd0f9f8e086564e9190a35050565b60065460408051632ee65eeb60e21b81526001600160a01b038581166004830152306024830152604482018590529151919092169163bb997bac91606480830192600092919082900301818387803b158015612d6c57600080fd5b505af1158015612d80573d6000803e3d6000fd5b5050600a5460009250612d9a91508363ffffffff610aa616565b600a8190556040805182815290519192507f04f9cd5878b2cea62f27ec8ef7e39a30992a83725c0e57ecc902ef5204d2c228919081900360200190a1505050565b608081015160608201516040808401516020808601516001600160801b03808716600090815260138452858120918716815292529281205490949392908590612e2a908463ffffffff611d8616565b6001600160801b03808716600090815260136020526040812092935091612e8d91633b9aca0091908490612e67908a16600163ffffffff6133f016565b6001600160801b031681526020810191909152604001600020549063ffffffff612f2616565b90506000612ebf670de0b6b3a764000061155b8681612eb2888863ffffffff610aa616565b8f9063ffffffff612ecd16565b9a9950505050505050505050565b600082612edc57506000610b03565b82820282848281612ee957fe5b0414610b005760405162461bcd60e51b81526004018080602001828103825260218152602001806137816021913960400191505060405180910390fd5b6000610b0083836040518060400160405280601a81526020017f536166654d6174683a206469766973696f6e206279207a65726f000000000000815250613440565b6020810151606082015160808301516011546000939291906001600160801b03600160801b90910481169082161015612fa75760009350505050610b03565b6011546000908190612fc8906001600160801b03168563ffffffff6134a516565b90506001600160801b038116612ff857612ff18561155b6010548b612ecd90919063ffffffff16565b9150613030565b806001600160801b03166001141561302b57612ff1633b9aca0061155b8761155b6010548d612ecd90919063ffffffff16565b600091505b61304488633b9aca0063ffffffff612f2616565b82101561305957600095505050505050610b03565b509695505050505050565b6080810151606082015182516020808501516001600160801b038086166000908152601284526040808220928716825291909352822054919493929185906130b2908463ffffffff611d8616565b6001600160801b03808716600090815260126020526040812092935091612e8d91633b9aca0091908490612e67908a16600163ffffffff6133f016565b6001600160a01b03811661314a576040805162461bcd60e51b815260206004820152601e60248201527f4163636f756e742063616e6e6f74206265207a65726f20616464726573730000604482015290519081900360640190fd5b803b80610f8d576040805162461bcd60e51b815260206004820181905260248201527f4163636f756e7420636f64652073697a652063616e6e6f74206265207a65726f604482015290519081900360640190fd5b6003546040516000916001600160a01b0316907f8be0079c531659141344cd1fd0a4f28419497f9722a3daafe3b4186f6b6457e0908390a3600380546001600160a01b0319169055565b600a548015806131f6575081155b156132015750611c0c565b600061320d83836134fe565b9050600061322660105483612ecd90919063ffffffff16565b6011546001600160801b03600160801b82048116600090815260136020908152604080832093909416825291909152205490915061326a908263ffffffff610aa616565b601180546001600160801b03600160801b808304821660009081526013602081815260408084209686168452958152858320979097559454918204831680825294865283812091909216808352908552908290205482519081529384019290925282810191909152517f2d6127771b164a9cc8827d24b5955db2a77e7a81dac389107ebb8bce9fb649689181900360600190a150505050565b600081848411156133925760405162461bcd60e51b81526004018080602001828103825283818151815260200191508051906020019080838360005b8381101561335757818101518382015260200161333f565b50505050905090810190601f1680156133845780820380516001836020036101000a031916815260200191505b509250505060405180910390fd5b505050900390565b600a546000906133b0908363ffffffff611d8616565b600a8190556040805182815290519192507f04f9cd5878b2cea62f27ec8ef7e39a30992a83725c0e57ecc902ef5204d2c228919081900360200190a15050565b60008282016001600160801b038085169082161015610b005760405162461bcd60e51b81526004018080602001828103825260248152602001806136a66024913960400191505060405180910390fd5b6000818361348f5760405162461bcd60e51b815260206004820181815283516024840152835190928392604490910191908501908083836000831561335757818101518382015260200161333f565b50600083858161349b57fe5b0495945050505050565b6000826001600160801b0316826001600160801b031611156134f85760405162461bcd60e51b81526004018080602001828103825260278152602001806137116027913960400191505060405180910390fd5b50900390565b60008061352260145461260d670de0b6b3a764000087612ecd90919063ffffffff16565b90506000613536828563ffffffff612f2616565b905061355861354b828663ffffffff612ecd16565b839063ffffffff611d8616565b601455949350505050565b6040518060a0016040528060008152602001600081526020016000815260200160006001600160801b0316815260200160006001600160801b03168152509056fe53746162696c697479506f6f6c3a2063616c6c6572206d7573742068617665206e6f6e2d7a65726f2052425443204761696e53746162696c697479506f6f6c3a2073656e64696e672052425443206661696c65647647f21296d3f6e9eaef6c11921ee86c648fa7541741ac00d93e8a6901476fea53746162696c697479506f6f6c3a20546167206d757374206265206120726567697374657265642066726f6e7420656e642c206f7220746865207a65726f2061646472657373ddac403fcb80275f20059952b43947e9e5600acc486e918a7a94cf51f81655ce53746162696c697479506f6f6c3a2043616c6c6572206973206e6f7420416374697665506f6f6c4d6f6e657970536166654d6174683132383a206164646974696f6e206f766572666c6f7753746162696c697479506f6f6c3a2063616c6c6572206d757374206861766520616e20616374697665207661756c7420746f20776974686472617720524254434761696e20746f4d6f6e657970536166654d6174683132383a207375627472616374696f6e206f766572666c6f77bce78369dccab09eec1986f4d409ab09ffbb47d65423e5148fcf98411c5111c953746162696c697479506f6f6c3a2043616c6c6572206973206e6f74205661756c744d616e61676572536166654d6174683a206d756c7469706c69636174696f6e206f766572666c6f7753746162696c697479506f6f6c3a204b69636b6261636b2072617465206d75737420626520696e2072616e6765205b302c315d53746162696c697479506f6f6c3a2043616e6e6f74207769746864726177207768696c6520746865726520617265207661756c7473207769746820494352203c204d435253746162696c697479506f6f6c3a20416d6f756e74206d757374206265206e6f6e2d7a65726f53746162696c697479506f6f6c3a206d757374206e6f7420616c7265616479206265206120726567697374657265642066726f6e7420656e6453746162696c697479506f6f6c3a2055736572206d7573742068617665206e6f206465706f73697453746162696c697479506f6f6c3a2055736572206d75737420686176652061206e6f6e2d7a65726f206465706f73697499920012339b5a3368d3a04b8606ce412c46ed92b7dcd8602d41fc8862cb8f25a2646970667358221220c4ab6a106f63fc07632c2f7260235dcd59a018bdcec3919f2a39bf13799670da64736f6c634300060b00336080604052348015600f57600080fd5b50603f80601d6000396000f3fe6080604052600080fdfea26469706673582212203648343d63c220eb75ca468e060efb4cb5aee806ed854f75a28383b863d1054a64736f6c634300060b00336101606040523480156200001257600080fd5b50604051620018a1380380620018a1833981810160405260608110156200003857600080fd5b50805160208201516040909201519091906200005d836001600160e01b036200025216565b62000071826001600160e01b036200025216565b62000085816001600160e01b036200025216565b6001600160601b0319606084901b1661010052604080516001600160a01b038516815290517fd396f45b3a6c41f9744b157261875945681f8e23587ae1d7d34377aad3bb16239181900360200190a16001600160601b0319606083901b1661012052604080516001600160a01b038416815290517f82966d27eea39b038ee0fa30cd16532bb24f6e65d31cb58fb227aa5766cdcc7f9181900360200190a16001600160601b0319606082901b1661014052604080516001600160a01b038316815290517f3ca631ffcd2a9b5d9ae18543fc82f58eb4ca33af9e6ab01b7a8e95331e6ed9859181900360200190a1604080518082018252600e81526d2128221029ba30b13632b1b7b4b760911b602091820152815180830190925260018252603160f81b9101527f74a19ba808b36373f265921c3351f9b933083fb9bb59269b6fb3ab0e357d275260c08190527fc89efdaa54c0f20c7adf612882df0950f5a951637e0307cdcb4c672f298b8bc660e08190526200020a6001600160e01b036200030716565b60a052620002437f8b73c3c69bb8fe3d512ecc4cf759cc79239f7b179b0ffacaa9a75d522b39400f83836001600160e01b036200030b16565b608052506200036c9350505050565b6001600160a01b038116620002ae576040805162461bcd60e51b815260206004820152601e60248201527f4163636f756e742063616e6e6f74206265207a65726f20616464726573730000604482015290519081900360640190fd5b803b8062000303576040805162461bcd60e51b815260206004820181905260248201527f4163636f756e7420636f64652073697a652063616e6e6f74206265207a65726f604482015290519081900360640190fd5b5050565b4690565b6000838383620003236001600160e01b036200030716565b6040805160208082019690965280820194909452606084019290925260808301523060a0808401919091528151808403909101815260c090920190528051910120949350505050565b60805160a05160c05160e0516101005160601c6101205160601c6101405160601c6114a6620003fb6000398061076b5280610d585280610ece5280610fc95250806105275280610b3e5280610cdd528061102e528061114c5250806106465280610b0c5280610d1a5280610ffb525080610a54525080610a335250806109b95250806109e952506114a66000f3fe608060405234801561001057600080fd5b506004361061014d5760003560e01c806354fd4d50116100c3578063a9059cbb1161007c578063a9059cbb146103f5578063b7f8cf9b14610421578063bb997bac14610429578063d505accf1461045f578063dd62ed3e146104b0578063f698da25146104de5761014d565b806354fd4d501461034157806370a08231146103495780637ecebe001461036f57806395d89b41146103955780639dc29fac1461039d578063a457c2d7146103c95761014d565b806320c582be1161011557806320c582be1461025557806323b872dd1461028d578063313ce567146102c357806339509351146102e15780633d8b8cb21461030d57806340c10f19146103155761014d565b806306fdde0314610152578063095ea7b3146101cf5780630b622ab21461020f57806310ce43bd1461023357806318160ddd1461024d575b600080fd5b61015a6104e6565b6040805160208082528351818301528351919283929083019185019080838360005b8381101561019457818101518382015260200161017c565b50505050905090810190601f1680156101c15780820380516001836020036101000a031916815260200191505b509250505060405180910390f35b6101fb600480360360408110156101e557600080fd5b506001600160a01b03813516906020013561050f565b604080519115158252519081900360200190f35b610217610525565b604080516001600160a01b039092168252519081900360200190f35b61023b610549565b60408051918252519081900360200190f35b61023b61056d565b61028b6004803603606081101561026b57600080fd5b506001600160a01b03813581169160208101359091169060400135610573565b005b6101fb600480360360608110156102a357600080fd5b506001600160a01b0381358116916020810135909116906040013561058b565b6102cb610603565b6040805160ff9092168252519081900360200190f35b6101fb600480360360408110156102f757600080fd5b506001600160a01b038135169060200135610608565b610217610644565b61028b6004803603604081101561032b57600080fd5b506001600160a01b038135169060200135610668565b61015a61067e565b61023b6004803603602081101561035f57600080fd5b50356001600160a01b0316610699565b61023b6004803603602081101561038557600080fd5b50356001600160a01b03166106b4565b61015a6106cf565b61028b600480360360408110156103b357600080fd5b506001600160a01b0381351690602001356106ec565b6101fb600480360360408110156103df57600080fd5b506001600160a01b0381351690602001356106fe565b6101fb6004803603604081101561040b57600080fd5b506001600160a01b038135169060200135610753565b610217610769565b61028b6004803603606081101561043f57600080fd5b506001600160a01b0381358116916020810135909116906040013561078d565b61028b600480360360e081101561047557600080fd5b506001600160a01b03813581169160208101359091169060408101359060608101359060ff6080820135169060a08101359060c00135610795565b61023b600480360360408110156104c657600080fd5b506001600160a01b038135811691602001351661098a565b61023b6109b5565b60408051808201909152600e81526d2128221029ba30b13632b1b7b4b760911b60208201525b90565b600061051c338484610a7f565b50600192915050565b7f000000000000000000000000000000000000000000000000000000000000000081565b7f6e71edae12b1b97f4d1f60370fef10105fa2faae0126114a169c64845d6126c990565b60005490565b61057b610b01565b610586838383610b9d565b505050565b600061059683610c7f565b6105a1848484610b9d565b6105f984336105f4856040518060600160405280602881526020016113cf602891396001600160a01b038a166000908152600360209081526040808320338452909152902054919063ffffffff610dcb16565b610a7f565b5060019392505050565b601290565b3360008181526003602090815260408083206001600160a01b0387168452909152812054909161051c9185906105f4908663ffffffff610e6216565b7f000000000000000000000000000000000000000000000000000000000000000081565b610670610ec3565b61067a8282610f2a565b5050565b6040805180820190915260018152603160f81b602082015290565b6001600160a01b031660009081526002602052604090205490565b6001600160a01b031660009081526001602052604090205490565b60408051808201909152600381526210941160ea1b602082015290565b6106f4610fbe565b61067a828261108b565b600061051c33846105f48560405180606001604052806025815260200161144c602591393360009081526003602090815260408083206001600160a01b038d168452909152902054919063ffffffff610dcb16565b600061075e83610c7f565b61051c338484610b9d565b7f000000000000000000000000000000000000000000000000000000000000000081565b61057b611141565b428410156107e2576040805162461bcd60e51b81526020600482015260156024820152744250443a206578706972656420646561646c696e6560581b604482015290519081900360640190fd5b60006107ec6109b5565b6001600160a01b03808a166000818152600160208181526040808420805480850190915581517f6e71edae12b1b97f4d1f60370fef10105fa2faae0126114a169c64845d6126c98185015280830196909652958e166060860152608085018d905260a085019590955260c08085018c90528551808603909101815260e08501865280519082012061190160f01b6101008601526101028501969096526101228085019690965284518085039096018652610142840180865286519682019690962095839052610162840180865286905260ff8a166101828501526101a284018990526101c284018890529351949550909390926101e2808401939192601f1981019281900390910190855afa158015610909573d6000803e3d6000fd5b505050602060405103519050886001600160a01b0316816001600160a01b031614610974576040805162461bcd60e51b81526020600482015260166024820152754250443a20696e76616c6964207369676e617475726560501b604482015290519081900360640190fd5b61097f898989610a7f565b505050505050505050565b6001600160a01b03918216600090815260036020908152604080832093909416825291909152205490565b60007f00000000000000000000000000000000000000000000000000000000000000006109e06111a8565b1415610a0d57507f000000000000000000000000000000000000000000000000000000000000000061050c565b610a787f8b73c3c69bb8fe3d512ecc4cf759cc79239f7b179b0ffacaa9a75d522b39400f7f00000000000000000000000000000000000000000000000000000000000000007f00000000000000000000000000000000000000000000000000000000000000006111ac565b905061050c565b6001600160a01b038316610a8f57fe5b6001600160a01b038216610a9f57fe5b6001600160a01b03808416600081815260036020908152604080832094871680845294825291829020859055815185815291517f8c5be1e5ebec7d5bd14f71427d1e84f3dd0314c0f7b2291e5b200ac8c7c3b9259281900390910190a3505050565b336001600160a01b037f0000000000000000000000000000000000000000000000000000000000000000161480610b605750336001600160a01b037f000000000000000000000000000000000000000000000000000000000000000016145b610b9b5760405162461bcd60e51b81526004018080602001828103825260358152602001806113f76035913960400191505060405180910390fd5b565b6001600160a01b038316610bad57fe5b6001600160a01b038216610bbd57fe5b610c00816040518060600160405280602681526020016113a9602691396001600160a01b038616600090815260026020526040902054919063ffffffff610dcb16565b6001600160a01b038085166000908152600260205260408082209390935590841681522054610c35908263ffffffff610e6216565b6001600160a01b03808416600081815260026020908152604091829020949094558051858152905191939287169260008051602061142c83398151915292918290030190a3505050565b6001600160a01b03811615801590610ca057506001600160a01b0381163014155b610cdb5760405162461bcd60e51b81526004018080602001828103825260528152602001806113016052913960600191505060405180910390fd5b7f00000000000000000000000000000000000000000000000000000000000000006001600160a01b0316816001600160a01b031614158015610d4f57507f00000000000000000000000000000000000000000000000000000000000000006001600160a01b0316816001600160a01b031614155b8015610d8d57507f00000000000000000000000000000000000000000000000000000000000000006001600160a01b0316816001600160a01b031614155b610dc85760405162461bcd60e51b81526004018080602001828103825260568152602001806113536056913960600191505060405180910390fd5b50565b60008184841115610e5a5760405162461bcd60e51b81526004018080602001828103825283818151815260200191508051906020019080838360005b83811015610e1f578181015183820152602001610e07565b50505050905090810190601f168015610e4c5780820380516001836020036101000a031916815260200191505b509250505060405180910390fd5b505050900390565b600082820183811015610ebc576040805162461bcd60e51b815260206004820152601b60248201527f536166654d6174683a206164646974696f6e206f766572666c6f770000000000604482015290519081900360640190fd5b9392505050565b336001600160a01b037f00000000000000000000000000000000000000000000000000000000000000001614610b9b5760405162461bcd60e51b815260040180806020018281038252602a815260200180611269602a913960400191505060405180910390fd5b6001600160a01b038216610f3a57fe5b600054610f4d908263ffffffff610e6216565b60009081556001600160a01b038316815260026020526040902054610f78908263ffffffff610e6216565b6001600160a01b038316600081815260026020908152604080832094909455835185815293519293919260008051602061142c8339815191529281900390910190a35050565b336001600160a01b037f000000000000000000000000000000000000000000000000000000000000000016148061101d5750336001600160a01b037f000000000000000000000000000000000000000000000000000000000000000016145b806110505750336001600160a01b037f000000000000000000000000000000000000000000000000000000000000000016145b610b9b5760405162461bcd60e51b815260040180806020018281038252604c815260200180611293604c913960600191505060405180910390fd5b6001600160a01b03821661109b57fe5b6110de816040518060600160405280602281526020016112df602291396001600160a01b038516600090815260026020526040902054919063ffffffff610dcb16565b6001600160a01b0383166000908152600260205260408120919091555461110b908263ffffffff61120216565b60009081556040805183815290516001600160a01b0385169160008051602061142c833981519152919081900360200190a35050565b336001600160a01b037f00000000000000000000000000000000000000000000000000000000000000001614610b9b5760405162461bcd60e51b81526004018080602001828103825260248152602001806112456024913960400191505060405180910390fd5b4690565b60008383836111b96111a8565b6040805160208082019690965280820194909452606084019290925260808301523060a0808401919091528151808403909101815260c090920190528051910120949350505050565b6000610ebc83836040518060400160405280601e81526020017f536166654d6174683a207375627472616374696f6e206f766572666c6f770000815250610dcb56fe4250443a2043616c6c6572206973206e6f74207468652053746162696c697479506f6f6c425044546f6b656e3a2043616c6c6572206973206e6f7420426f72726f7765724f7065726174696f6e734250443a2043616c6c6572206973206e65697468657220426f72726f7765724f7065726174696f6e73206e6f72205661756c744d616e61676572206e6f722053746162696c697479506f6f6c45524332303a206275726e20616d6f756e7420657863656564732062616c616e63654250443a2043616e6e6f74207472616e7366657220746f6b656e73206469726563746c7920746f207468652042504420746f6b656e20636f6e7472616374206f7220746865207a65726f20616464726573734250443a2043616e6e6f74207472616e7366657220746f6b656e73206469726563746c7920746f207468652053746162696c697479506f6f6c2c205661756c744d616e61676572206f7220426f72726f7765724f707345524332303a207472616e7366657220616d6f756e7420657863656564732062616c616e636545524332303a207472616e7366657220616d6f756e74206578636565647320616c6c6f77616e63654250443a2043616c6c6572206973206e656974686572205661756c744d616e61676572206e6f722053746162696c697479506f6f6cddf252ad1be2c89b69c2b068fc378daa952ba7f163c4a11628f55a4df523b3ef45524332303a2064656372656173656420616c6c6f77616e63652062656c6f77207a65726fa2646970667358221220e2754458e0e36fd08ad9545fd836b54f3eb8ad7b07a775440d6f5b887e8d516364736f6c634300060b0033608060405234801561001057600080fd5b50600080546001600160a01b0319163390811782556040519091907f8be0079c531659141344cd1fd0a4f28419497f9722a3daafe3b4186f6b6457e0908290a3610b3b8061005f6000396000f3fe6080604052600436106100a05760003560e01c80638f32d59b116100645780638f32d59b146101b75780639b56d6c9146101e0578063a3f4df7e14610213578063b08bc7221461029d578063b32beb5b146102b2578063b7f8cf9b146102e5576100c5565b8063363bf964146100ca5780633d8b8cb2146101115780633f10abab1461014257806377a4b5b71461017b5780638da5cb5b146101a2576100c5565b366100c5576100ad6102fa565b6004546100c0903463ffffffff61034516565b600455005b600080fd5b3480156100d657600080fd5b5061010f600480360360608110156100ed57600080fd5b506001600160a01b0381358116916020810135821691604090910135166103a6565b005b34801561011d57600080fd5b5061012661050c565b604080516001600160a01b039092168252519081900360200190f35b34801561014e57600080fd5b5061010f6004803603604081101561016557600080fd5b506001600160a01b03813516906020013561051b565b34801561018757600080fd5b506101906105a7565b60408051918252519081900360200190f35b3480156101ae57600080fd5b506101266105ad565b3480156101c357600080fd5b506101cc6105bc565b604080519115158252519081900360200190f35b3480156101ec57600080fd5b506101906004803603602081101561020357600080fd5b50356001600160a01b03166105cd565b34801561021f57600080fd5b506102286105e8565b6040805160208082528351818301528351919283929083019185019080838360005b8381101561026257818101518382015260200161024a565b50505050905090810190601f16801561028f5780820380516001836020036101000a031916815260200191505b509250505060405180910390f35b3480156102a957600080fd5b50610126610613565b3480156102be57600080fd5b5061010f600480360360208110156102d557600080fd5b50356001600160a01b0316610622565b3480156102f157600080fd5b506101266107b7565b6003546001600160a01b031633146103435760405162461bcd60e51b815260040180806020018281038252602a815260200180610a5b602a913960400191505060405180910390fd5b565b60008282018381101561039f576040805162461bcd60e51b815260206004820152601b60248201527f536166654d6174683a206164646974696f6e206f766572666c6f770000000000604482015290519081900360640190fd5b9392505050565b6103ae6105bc565b6103ff576040805162461bcd60e51b815260206004820181905260248201527f4f776e61626c653a2063616c6c6572206973206e6f7420746865206f776e6572604482015290519081900360640190fd5b610408836107c6565b610411826107c6565b61041a816107c6565b600180546001600160a01b038086166001600160a01b0319928316811790935560028054868316908416179055600380549185169190921617905560408051918252517f3ca631ffcd2a9b5d9ae18543fc82f58eb4ca33af9e6ab01b7a8e95331e6ed9859181900360200190a1604080516001600160a01b038416815290517fd396f45b3a6c41f9744b157261875945681f8e23587ae1d7d34377aad3bb16239181900360200190a1604080516001600160a01b038316815290517f78f058b189175430c48dc02699e3a0031ea4ff781536dc2fab847de4babdd8829181900360200190a1610507610879565b505050565b6002546001600160a01b031681565b6105236108c3565b6001600160a01b03821660009081526005602052604081205461054c908363ffffffff61034516565b6001600160a01b0384166000818152600560209081526040918290208490558151848152915193945091927ff0393a34d05e6567686ad4e097f9d9d2781565957394f1f0d984e5d8e6378f20929181900390910190a2505050565b60045490565b6000546001600160a01b031690565b6000546001600160a01b0316331490565b6001600160a01b031660009081526005602052604090205490565b6040518060400160405280600f81526020016e10dbdb1b14dd5c9c1b1d5cd41bdbdb608a1b81525081565b6003546001600160a01b031681565b61062a61090c565b6001600160a01b0381166000908152600560205260409020548061067f5760405162461bcd60e51b8152600401808060200182810382526031815260200180610a2a6031913960400191505060405180910390fd5b6001600160a01b03821660008181526005602090815260408083208390558051928352517ff0393a34d05e6567686ad4e097f9d9d2781565957394f1f0d984e5d8e6378f209281900390910190a26004546106e0908263ffffffff61095516565b600455604080516001600160a01b03841681526020810183905281517f1083bc5da936d61fceb9f9e509171faa5ae4756c47a742bf3fa2f9b4cd8132fe929181900390910190a16040516000906001600160a01b0384169083908381818185875af1925050503d8060008114610772576040519150601f19603f3d011682016040523d82523d6000602084013e610777565b606091505b50509050806105075760405162461bcd60e51b8152600401808060200182810382526024815260200180610ab06024913960400191505060405180910390fd5b6001546001600160a01b031681565b6001600160a01b038116610821576040805162461bcd60e51b815260206004820152601e60248201527f4163636f756e742063616e6e6f74206265207a65726f20616464726573730000604482015290519081900360640190fd5b803b80610875576040805162461bcd60e51b815260206004820181905260248201527f4163636f756e7420636f64652073697a652063616e6e6f74206265207a65726f604482015290519081900360640190fd5b5050565b600080546040516001600160a01b03909116907f8be0079c531659141344cd1fd0a4f28419497f9722a3daafe3b4186f6b6457e0908390a3600080546001600160a01b0319169055565b6002546001600160a01b031633146103435760405162461bcd60e51b815260040180806020018281038252602b815260200180610a85602b913960400191505060405180910390fd5b6001546001600160a01b031633146103435760405162461bcd60e51b8152600401808060200182810382526032815260200180610ad46032913960400191505060405180910390fd5b600061039f83836040518060400160405280601e81526020017f536166654d6174683a207375627472616374696f6e206f766572666c6f77000081525060008184841115610a215760405162461bcd60e51b81526004018080602001828103825283818151815260200191508051906020019080838360005b838110156109e65781810151838201526020016109ce565b50505050905090810190601f168015610a135780820380516001836020036101000a031916815260200191505b509250505060405180910390fd5b50505090039056fe436f6c6c537572706c7573506f6f6c3a204e6f20636f6c6c61746572616c20617661696c61626c6520746f20636c61696d436f6c6c537572706c7573506f6f6c3a2043616c6c6572206973206e6f742041637469766520506f6f6c436f6c6c537572706c7573506f6f6c3a2043616c6c6572206973206e6f74205661756c744d616e61676572436f6c6c537572706c7573506f6f6c3a2073656e64696e672052425443206661696c6564436f6c6c537572706c7573506f6f6c3a2043616c6c6572206973206e6f7420426f72726f776572204f7065726174696f6e73a2646970667358221220e7ddfdf84fbc8addfb15be3be583808e3fbc7d6769bb19ac79fc144ce0889d5264736f6c634300060b00336080604052680ad78ebc5ac620000060005534801561001d57600080fd5b5060cb8061002c6000396000f3fe6080604052348015600f57600080fd5b5060043610603c5760003560e01c80630fdb11cf14604157806391b7f5ed14605957806398d5fdca146041575b600080fd5b60476087565b60408051918252519081900360200190f35b607360048036036020811015606d57600080fd5b5035608d565b604080519115158252519081900360200190f35b60005490565b60005560019056fea2646970667358221220987d1afde74388e098a39b40724f88f529e6c3ebb79473037c7e38555b3a243e64736f6c634300060b0033608060405234801561001057600080fd5b50600080546001600160a01b0319163390811782556040519091907f8be0079c531659141344cd1fd0a4f28419497f9722a3daafe3b4186f6b6457e0908290a36118ce8061005f6000396000f3fe608060405234801561001057600080fd5b50600436106101375760003560e01c806373d4a13a116100b8578063a3f4df7e1161007c578063a3f4df7e1461036a578063b72703ac146103e7578063b7f8cf9b1461040d578063babd3d9a14610415578063de8fa4311461041d578063f376d7981461042557610137565b806373d4a13a146102f2578063765e01591461032c5780638a4adf24146103525780638da5cb5b1461035a5780638f32d59b1461036257610137565b806346f7cf87116100ff57806346f7cf87146102665780634d622831146102a25780635dbe47e8146102aa57806363e1d57c146102d0578063681fe70c146102ea57610137565b80631e2231431461013c57806329092d0e146101605780632be21260146101885780633fce12d5146101c4578063416980dc1461020c575b600080fd5b610144610459565b604080516001600160a01b039092168252519081900360200190f35b6101866004803603602081101561017657600080fd5b50356001600160a01b0316610468565b005b6101866004803603608081101561019e57600080fd5b506001600160a01b0381358116916020810135916040820135811691606001351661047c565b6101f8600480360360608110156101da57600080fd5b508035906001600160a01b0360208201358116916040013516610531565b604080519115158252519081900360200190f35b6102406004803603606081101561022257600080fd5b508035906001600160a01b0360208201358116916040013516610554565b604080516001600160a01b03938416815291909216602082015281519081900390910190f35b6101866004803603608081101561027c57600080fd5b506001600160a01b0381358116916020810135916040820135811691606001351661057e565b610144610593565b6101f8600480360360208110156102c057600080fd5b50356001600160a01b03166105a2565b6102d86105c0565b60408051918252519081900360200190f35b6101f86105c6565b6102fa6105cd565b604080516001600160a01b03958616815293909416602084015282840191909152606082015290519081900360800190f35b6101446004803603602081101561034257600080fd5b50356001600160a01b03166105ec565b61014461060f565b61014461061e565b6101f861062d565b61037261063e565b6040805160208082528351818301528351919283929083019185019080838360005b838110156103ac578181015183820152602001610394565b50505050905090810190601f1680156103d95780820380516001836020036101000a031916815260200191505b509250505060405180910390f35b610144600480360360208110156103fd57600080fd5b50356001600160a01b0316610666565b610144610687565b6101f8610696565b6102d86106a0565b6101866004803603606081101561043b57600080fd5b508035906001600160a01b03602082013581169160400135166106a6565b6003546001600160a01b031690565b6104706107fe565b61047981610849565b50565b6002546001600160a01b031661049181610a7d565b61049a856105a2565b6104d55760405162461bcd60e51b815260040180806020018281038252602a8152602001806117c8602a913960400191505060405180910390fd5b600084116105145760405162461bcd60e51b81526004018080602001828103825260238152602001806117a56023913960400191505060405180910390fd5b61051d85610849565b61052a8186868686610ad9565b5050505050565b60025460009061054c906001600160a01b0316858585610e5d565b949350505050565b6002546000908190610571906001600160a01b0316868686611104565b915091505b935093915050565b6002546001600160a01b031661051d81610a7d565b6004546001600160a01b031690565b6001600160a01b031660009081526007602052604090205460ff1690565b60055490565b6006541590565b6003546004546005546006546001600160a01b03938416939092169184565b6001600160a01b0390811660009081526007602052604090205461010090041690565b6002546001600160a01b031681565b6000546001600160a01b031690565b6000546001600160a01b0316331490565b6040518060400160405280600c81526020016b536f727465645661756c747360a01b81525081565b6001600160a01b039081166000908152600760205260409020600101541690565b6001546001600160a01b031681565b6005546006541490565b60065490565b6106ae61062d565b6106ff576040805162461bcd60e51b815260206004820181905260248201527f4f776e61626c653a2063616c6c6572206973206e6f7420746865206f776e6572604482015290519081900360640190fd5b6000831161073e5760405162461bcd60e51b81526004018080602001828103825260228152602001806118776022913960400191505060405180910390fd5b610747826112f1565b610750816112f1565b6005839055600280546001600160a01b038085166001600160a01b03199283168117909355600180549185169190921617905560408051918252517fd396f45b3a6c41f9744b157261875945681f8e23587ae1d7d34377aad3bb16239181900360200190a1604080516001600160a01b038316815290517f3ca631ffcd2a9b5d9ae18543fc82f58eb4ca33af9e6ab01b7a8e95331e6ed9859181900360200190a16107f96113a4565b505050565b6002546001600160a01b031633146108475760405162461bcd60e51b815260040180806020018281038252602c81526020018061181e602c913960400191505060405180910390fd5b565b610852816105a2565b61088d5760405162461bcd60e51b815260040180806020018281038252602a8152602001806117c8602a913960400191505060405180910390fd5b600654600110156109d3576003546001600160a01b03828116911614156108fc576001600160a01b03818116600090815260076020526040808220546003805461010090920485166001600160a01b0319928316179081905590931682529020600101805490911690556109ce565b6004546001600160a01b0382811691161415610963576001600160a01b0380821660009081526007602052604080822060010154600480546001600160a01b03191691851691909117908190559092168152208054610100600160a81b03191690556109ce565b6001600160a01b038082166000908152600760205260408082208054600180830180548716865284862080546101009485900489168502610100600160a81b03199091161790555492549190910485168452919092200180546001600160a01b031916919092161790555b6109f0565b600380546001600160a01b03199081169091556004805490911690555b6001600160a01b038116600090815260076020526040902080546001600160a81b0319168155600190810180546001600160a01b0319169055600654610a3b9163ffffffff6113ee16565b600655604080516001600160a01b038316815290517fcfc24166db4bb677e857cacabd1541fb2b30645021b27c5130419589b84db52b9181900360200190a150565b6001546001600160a01b0316331480610a9e5750336001600160a01b038216145b6104795760405162461bcd60e51b815260040180806020018281038252602d81526020018061184a602d913960400191505060405180910390fd5b610ae1610696565b15610b33576040805162461bcd60e51b815260206004820152601a60248201527f536f727465645661756c74733a204c6973742069732066756c6c000000000000604482015290519081900360640190fd5b610b3c846105a2565b15610b785760405162461bcd60e51b815260040180806020018281038252602c8152602001806117f2602c913960400191505060405180910390fd5b6001600160a01b038416610bd3576040805162461bcd60e51b815260206004820152601f60248201527f536f727465645661756c74733a2049642063616e6e6f74206265207a65726f00604482015290519081900360640190fd5b60008311610c125760405162461bcd60e51b81526004018080602001828103825260238152602001806117a56023913960400191505060405180910390fd5b8181610c2087868484610e5d565b610c3657610c3087868484611104565b90925090505b6001600160a01b038087166000908152600760205260409020805460ff191660011790558216158015610c7057506001600160a01b038116155b15610ca557600380546001600160a01b0388166001600160a01b03199182168117909255600480549091169091179055610df9565b6001600160a01b038216610d1957600380546001600160a01b03888116600081815260076020526040808220805495851661010002610100600160a81b0319909616959095179094558454909216825291902060010180546001600160a01b03199081168317909155825416179055610df9565b6001600160a01b038116610d8957600480546001600160a01b0388811660008181526007602052604080822060010180549585166001600160a01b031996871617905585549093168152919091208054610100600160a81b03191661010083021790558254909116179055610df9565b6001600160a01b038087166000818152600760205260408082208054858716610100818102610100600160a81b031993841617845560019384018054988b166001600160a01b0319998a168117909155865284862080549188029190931617909155835291200180549092161790555b600654610e0d90600163ffffffff61143716565b600655604080516001600160a01b03881681526020810187905281517fe02b43adbee0c123de070a04554a71877a0007e2fc161466299cae3c094fe82f929181900390910190a150505050505050565b60006001600160a01b038316158015610e7d57506001600160a01b038216155b15610e9157610e8a6105c6565b905061054c565b6001600160a01b038316610f43576003546001600160a01b038381169116148015610e8a5750846001600160a01b031663b0d8e181836040518263ffffffff1660e01b815260040180826001600160a01b03166001600160a01b0316815260200191505060206040518083038186803b158015610f0d57600080fd5b505afa158015610f21573d6000803e3d6000fd5b505050506040513d6020811015610f3757600080fd5b5051841015905061054c565b6001600160a01b038216610ff5576004546001600160a01b038481169116148015610e8a5750846001600160a01b031663b0d8e181846040518263ffffffff1660e01b815260040180826001600160a01b03166001600160a01b0316815260200191505060206040518083038186803b158015610fbf57600080fd5b505afa158015610fd3573d6000803e3d6000fd5b505050506040513d6020811015610fe957600080fd5b5051841115905061054c565b6001600160a01b03838116600090815260076020526040902054610100900481169083161480156110a7575083856001600160a01b031663b0d8e181856040518263ffffffff1660e01b815260040180826001600160a01b03166001600160a01b0316815260200191505060206040518083038186803b15801561107857600080fd5b505afa15801561108c573d6000803e3d6000fd5b505050506040513d60208110156110a257600080fd5b505110155b8015610e8a5750846001600160a01b031663b0d8e181836040518263ffffffff1660e01b815260040180826001600160a01b03166001600160a01b0316815260200191505060206040518083038186803b158015610f0d57600080fd5b60008083836001600160a01b038216156111b757611121826105a2565b15806111ad5750876001600160a01b031663b0d8e181836040518263ffffffff1660e01b815260040180826001600160a01b03166001600160a01b0316815260200191505060206040518083038186803b15801561117e57600080fd5b505afa158015611192573d6000803e3d6000fd5b505050506040513d60208110156111a857600080fd5b505187115b156111b757600091505b6001600160a01b03811615611264576111cf816105a2565b158061125b5750876001600160a01b031663b0d8e181826040518263ffffffff1660e01b815260040180826001600160a01b03166001600160a01b0316815260200191505060206040518083038186803b15801561122c57600080fd5b505afa158015611240573d6000803e3d6000fd5b505050506040513d602081101561125657600080fd5b505187105b15611264575060005b6001600160a01b03821615801561128257506001600160a01b038116155b156112ab576003546112a090899089906001600160a01b0316611491565b9350935050506112e8565b6001600160a01b0382166112c4576112a08888836115d2565b6001600160a01b0381166112dd576112a0888884611491565b6112a0888884611491565b94509492505050565b6001600160a01b03811661134c576040805162461bcd60e51b815260206004820152601e60248201527f4163636f756e742063616e6e6f74206265207a65726f20616464726573730000604482015290519081900360640190fd5b803b806113a0576040805162461bcd60e51b815260206004820181905260248201527f4163636f756e7420636f64652073697a652063616e6e6f74206265207a65726f604482015290519081900360640190fd5b5050565b600080546040516001600160a01b03909116907f8be0079c531659141344cd1fd0a4f28419497f9722a3daafe3b4186f6b6457e0908390a3600080546001600160a01b0319169055565b600061143083836040518060400160405280601e81526020017f536166654d6174683a207375627472616374696f6e206f766572666c6f77000081525061170d565b9392505050565b600082820183811015611430576040805162461bcd60e51b815260206004820152601b60248201527f536166654d6174683a206164646974696f6e206f766572666c6f770000000000604482015290519081900360640190fd5b60035460009081906001600160a01b0384811691161480156115345750846001600160a01b031663b0d8e181846040518263ffffffff1660e01b815260040180826001600160a01b03166001600160a01b0316815260200191505060206040518083038186803b15801561150457600080fd5b505afa158015611518573d6000803e3d6000fd5b505050506040513d602081101561152e57600080fd5b50518410155b1561154457506000905081610576565b6001600160a01b038084166000908152600760205260409020548491610100909104165b6001600160a01b03821615801590611589575061158787878484610e5d565b155b156115c657506001600160a01b03908116600090815260076020526040808220546101009081900484168084529190922054909291900416611568565b90969095509350505050565b60045460009081906001600160a01b0384811691161480156116755750846001600160a01b031663b0d8e181846040518263ffffffff1660e01b815260040180826001600160a01b03166001600160a01b0316815260200191505060206040518083038186803b15801561164557600080fd5b505afa158015611659573d6000803e3d6000fd5b505050506040513d602081101561166f57600080fd5b50518411155b1561168557508190506000610576565b6001600160a01b038084166000908152600760205260409020600101548491165b6001600160a01b038216158015906116c757506116c587878385610e5d565b155b1561170257506001600160a01b03908116600090815260076020526040808220600190810154841680845291909220909101549091166116a6565b969095509350505050565b6000818484111561179c5760405162461bcd60e51b81526004018080602001828103825283818151815260200191508051906020019080838360005b83811015611761578181015183820152602001611749565b50505050905090810190601f16801561178e5780820380516001836020036101000a031916815260200191505b509250505060405180910390fd5b50505090039056fe536f727465645661756c74733a204e494352206d75737420626520706f736974697665536f727465645661756c74733a204c69737420646f6573206e6f7420636f6e7461696e20746865206964536f727465645661756c74733a204c69737420616c726561647920636f6e7461696e7320746865206e6f6465536f727465645661756c74733a2043616c6c6572206973206e6f7420746865205661756c744d616e61676572536f727465645661756c74733a2043616c6c6572206973206e65697468657220424f206e6f72205661756c744d536f727465645661756c74733a2053697a652063616ee2809974206265207a65726fa2646970667358221220e6c28e38952bd3ce9ecd4a2ed94a60b3aa906314d73a10d33d50aa0537d3654064736f6c634300060b0033608060405234801561001057600080fd5b50604051610e35380380610e358339818101604052608081101561003357600080fd5b50805160208201516040830151606090930151600080546001600160a01b039485166001600160a01b0319918216179091556001805493851693821693909317909255600280549484169483169490941790935560038054929093169116179055610d92806100a36000396000f3fe6080604052600436106100ed5760003560e01c8063935606061161008557806393560606146103285780639f8f048b1461033d578063a356f15b1461037e578063aa47ebb9146103c7578063c68fbf4e14610409578063cc51a6c214610486578063cf83544f146104bf578063d466e4eb146104f8578063d94bcec214610531576100f4565b80632eb5eac9146100f957806332e859b91461012557806335b1017914610159578063390b5f27146101b457806348173b99146102015780634c36240b146102515780634d37261f1461028a578063641b09b6146102bd5780637bbb0f5e146102e7576100f4565b366100f457005b600080fd5b34801561010557600080fd5b506101236004803603602081101561011c57600080fd5b5035610574565b005b6101236004803603606081101561013b57600080fd5b508035906001600160a01b03602082013581169160400135166105d7565b34801561016557600080fd5b50610123600480360360e081101561017c57600080fd5b508035906001600160a01b03602082013581169160408101358216916060820135169060808101359060a08101359060c0013561064e565b3480156101c057600080fd5b506101ed600480360360408110156101d757600080fd5b506001600160a01b0381351690602001356106e6565b604080519115158252519081900360200190f35b610123600480360360e081101561021757600080fd5b5080359060208101359060408101359060608101351515906001600160a01b03608082013581169160a08101359091169060c00135610772565b34801561025d57600080fd5b506101236004803603604081101561027457600080fd5b50803590602001356001600160a01b031661080a565b34801561029657600080fd5b50610123600480360360208110156102ad57600080fd5b50356001600160a01b031661087b565b3480156102c957600080fd5b50610123600480360360208110156102e057600080fd5b50356108c6565b3480156102f357600080fd5b506101236004803603606081101561030a57600080fd5b508035906001600160a01b0360208201358116916040013516610913565b34801561033457600080fd5b5061012361098d565b34801561034957600080fd5b506101236004803603606081101561036057600080fd5b508035906001600160a01b03602082013581169160400135166109f7565b34801561038a57600080fd5b50610123600480360360808110156103a157600080fd5b508035906001600160a01b03602082013581169160408101359091169060600135610a54565b610123600480360360a08110156103dd57600080fd5b508035906020810135906001600160a01b03604082013581169160608101359091169060800135610ab8565b34801561041557600080fd5b506101236004803603602081101561042c57600080fd5b81019060208101813564010000000081111561044757600080fd5b82018360208201111561045957600080fd5b8035906020019184602083028401116401000000008311171561047b57600080fd5b509092509050610b3f565b34801561049257600080fd5b506101ed600480360360408110156104a957600080fd5b506001600160a01b038135169060200135610bbc565b3480156104cb57600080fd5b506101ed600480360360408110156104e257600080fd5b506001600160a01b038135169060200135610c15565b34801561050457600080fd5b506101ed6004803603604081101561051b57600080fd5b506001600160a01b038135169060200135610c6e565b34801561053d57600080fd5b506101ed6004803603606081101561055457600080fd5b506001600160a01b03813581169160208101359091169060400135610cc7565b6000805460408051631675846360e21b81526004810185905290516001600160a01b03909216926359d6118c9260248084019382900301818387803b1580156105bc57600080fd5b505af11580156105d0573d6000803e3d6000fd5b5050505050565b600154604080516368647db160e01b81526001600160a01b0385811660048301528481166024830152915191909216916368647db191869160448082019260009290919082900301818588803b15801561063057600080fd5b505af1158015610644573d6000803e3d6000fd5b5050505050505050565b6000805460408051635e69ba9360e11b8152600481018b90526001600160a01b038a81166024830152898116604483015288811660648301526084820188905260a4820187905260c482018690529151919092169263bcd375269260e4808201939182900301818387803b1580156106c557600080fd5b505af11580156106d9573d6000803e3d6000fd5b5050505050505050505050565b6003546040805163a9059cbb60e01b81526001600160a01b038581166004830152602482018590529151600093929092169163a9059cbb9160448082019260209290919082900301818787803b15801561073f57600080fd5b505af1158015610753573d6000803e3d6000fd5b505050506040513d602081101561076957600080fd5b50519392505050565b600154604080516339269dc760e01b815260048101849052602481018990526044810188905286151560648201526001600160a01b03868116608483015285811660a4830152915191909216916339269dc7918a9160c48082019260009290919082900301818588803b1580156107e857600080fd5b505af11580156107fc573d6000803e3d6000fd5b505050505050505050505050565b60025460408051635f788d6560e01b8152600481018590526001600160a01b03848116602483015291519190921691635f788d6591604480830192600092919082900301818387803b15801561085f57600080fd5b505af1158015610873573d6000803e3d6000fd5b505050505050565b60008054604080516305f0caad60e31b81526001600160a01b03858116600483015291519190921692632f865568926024808201939182900301818387803b1580156105bc57600080fd5b60025460408051632e54bf9560e01b81526004810184905290516001600160a01b0390921691632e54bf959160248082019260009290919082900301818387803b1580156105bc57600080fd5b6001546040805163154c09cf60e21b8152600481018690526001600160a01b038581166024830152848116604483015291519190921691635530273c91606480830192600092919082900301818387803b15801561097057600080fd5b505af1158015610984573d6000803e3d6000fd5b50505050505050565b600160009054906101000a90046001600160a01b03166001600160a01b03166318976fa26040518163ffffffff1660e01b8152600401600060405180830381600087803b1580156109dd57600080fd5b505af11580156109f1573d6000803e3d6000fd5b50505050565b600154604080516311b0bd6160e01b8152600481018690526001600160a01b0385811660248301528481166044830152915191909216916311b0bd6191606480830192600092919082900301818387803b15801561097057600080fd5b600154604080516318c1e84160e21b815260048101849052602481018790526001600160a01b038681166044830152858116606483015291519190921691636307a10491608480830192600092919082900301818387803b15801561063057600080fd5b60015460408051636bf70e3360e01b815260048101849052602481018790526001600160a01b038681166044830152858116606483015291519190921691636bf70e3391889160848082019260009290919082900301818588803b158015610b1f57600080fd5b505af1158015610b33573d6000803e3d6000fd5b50505050505050505050565b60005460405163c590844f60e01b8152602060048201818152602483018590526001600160a01b039093169263c590844f92869286929182916044909101908590850280828437600081840152601f19601f8201169050808301925050509350505050600060405180830381600087803b15801561085f57600080fd5b60035460408051633950935160e01b81526001600160a01b038581166004830152602482018590529151600093929092169163395093519160448082019260209290919082900301818787803b15801561073f57600080fd5b6003546040805163095ea7b360e01b81526001600160a01b038581166004830152602482018590529151600093929092169163095ea7b39160448082019260209290919082900301818787803b15801561073f57600080fd5b6003546040805163a457c2d760e01b81526001600160a01b038581166004830152602482018590529151600093929092169163a457c2d79160448082019260209290919082900301818787803b15801561073f57600080fd5b600354604080516323b872dd60e01b81526001600160a01b038681166004830152858116602483015260448201859052915160009392909216916323b872dd9160648082019260209290919082900301818787803b158015610d2857600080fd5b505af1158015610d3c573d6000803e3d6000fd5b505050506040513d6020811015610d5257600080fd5b505194935050505056fea2646970667358221220c419c00563037b72464836555cb7176f78519fe36d53b7120d690a83b78b01a864736f6c634300060b0033",
  "linkReferences": {},
  "deployedLinkReferences": {}
}