{
  "_format": "hh-sol-artifact-1",
  "contractName": "FunctionCaller",
  "sourceName": "contracts/TestContracts/FunctionCaller.sol",
  "abi": [
    {
      "inputs": [],
      "name": "priceFeedAddress",
      "outputs": [
        {
          "internalType": "address",
          "name": "",
          "type": "address"
        }
      ],
      "stateMutability": "view",
      "type": "function"
    },
    {
      "inputs": [
        {
          "internalType": "address",
          "name": "_priceFeedAddress",
          "type": "address"
        }
      ],
      "name": "setPriceFeedAddress",
      "outputs": [],
      "stateMutability": "nonpayable",
      "type": "function"
    },
    {
      "inputs": [
        {
          "internalType": "address",
          "name": "_sortedVaultsAddress",
          "type": "address"
        }
      ],
      "name": "setSortedVaultsAddress",
      "outputs": [],
      "stateMutability": "nonpayable",
      "type": "function"
    },
    {
      "inputs": [
        {
          "internalType": "address",
          "name": "_vaultManagerAddress",
          "type": "address"
        }
      ],
      "name": "setVaultManagerAddress",
      "outputs": [],
      "stateMutability": "nonpayable",
      "type": "function"
    },
    {
      "inputs": [],
      "name": "sortedVaultsAddress",
      "outputs": [
        {
          "internalType": "address",
          "name": "",
          "type": "address"
        }
      ],
      "stateMutability": "view",
      "type": "function"
    },
    {
      "inputs": [
        {
          "internalType": "uint256",
          "name": "_NICR",
          "type": "uint256"
        },
        {
          "internalType": "address",
          "name": "_prevId",
          "type": "address"
        },
        {
          "internalType": "address",
          "name": "_nextId",
          "type": "address"
        }
      ],
      "name": "sortedVaults_findInsertPosition",
      "outputs": [
        {
          "internalType": "address",
          "name": "",
          "type": "address"
        },
        {
          "internalType": "address",
          "name": "",
          "type": "address"
        }
      ],
      "stateMutability": "nonpayable",
      "type": "function"
    },
    {
      "inputs": [],
      "name": "vaultManagerAddress",
      "outputs": [
        {
          "internalType": "address",
          "name": "",
          "type": "address"
        }
      ],
      "stateMutability": "view",
      "type": "function"
    },
    {
      "inputs": [
        {
          "internalType": "address",
          "name": "_address",
          "type": "address"
        },
        {
          "internalType": "uint256",
          "name": "_price",
          "type": "uint256"
        }
      ],
      "name": "vaultManager_getCurrentICR",
      "outputs": [
        {
          "internalType": "uint256",
          "name": "",
          "type": "uint256"
        }
      ],
      "stateMutability": "nonpayable",
      "type": "function"
    }
  ],
  "bytecode": "0x608060405234801561001057600080fd5b506103c6806100206000396000f3fe608060405234801561001057600080fd5b50600436106100775760003560e01c8062cf5db41461007c5780630d31651f146100a457806310c60df0146100fe578063185415e21461013c57806323068ac6146101605780633d8b8cb2146101865780636dd9a1db1461018e578063e0abca0b146101b4575b600080fd5b6100a26004803603602081101561009257600080fd5b50356001600160a01b03166101bc565b005b6100d8600480360360608110156100ba57600080fd5b508035906001600160a01b03602082013581169160400135166101e8565b604080516001600160a01b03938416815291909216602082015281519081900390910190f35b61012a6004803603604081101561011457600080fd5b506001600160a01b038135169060200135610283565b60408051918252519081900360200190f35b61014461030b565b604080516001600160a01b039092168252519081900360200190f35b6100a26004803603602081101561017657600080fd5b50356001600160a01b031661031a565b610144610346565b6100a2600480360360208110156101a457600080fd5b50356001600160a01b0316610355565b610144610381565b600580546001600160a01b039092166001600160a01b0319928316811790915560048054909216179055565b6002546040805163105a603760e21b8152600481018690526001600160a01b03858116602483015284811660448301528251600094859492169263416980dc926064808301939192829003018186803b15801561024457600080fd5b505afa158015610258573d6000803e3d6000fd5b505050506040513d604081101561026e57600080fd5b50805160209091015190969095509350505050565b6000805460408051630d293c7160e41b81526001600160a01b038681166004830152602482018690529151919092169163d293c710916044808301926020929190829003018186803b1580156102d857600080fd5b505afa1580156102ec573d6000803e3d6000fd5b505050506040513d602081101561030257600080fd5b50519392505050565b6003546001600160a01b031681565b600180546001600160a01b039092166001600160a01b0319928316811790915560008054909216179055565b6001546001600160a01b031681565b600180546001600160a01b039092166001600160a01b0319928316811790915560028054909216179055565b6005546001600160a01b03168156fea26469706673582212206f81970c55a297162f49fb9f99c87b97607fbe84af2a05c64de328da0e7fe8e464736f6c634300060b0033",
  "linkReferences": {},
  "deployedLinkReferences": {}
}