{
  "_format": "hh-sol-artifact-1",
  "contractName": "MPStakingTester",
  "sourceName": "contracts/TestContracts/MPStakingTester.sol",
  "abi": [
    {
      "anonymous": false,
      "inputs": [
        {
          "indexed": false,
          "internalType": "address",
          "name": "_activePoolAddress",
          "type": "address"
        }
      ],
      "name": "ActivePoolAddressSet",
      "type": "event"
    },
    {
      "anonymous": false,
      "inputs": [
        {
          "indexed": false,
          "internalType": "address",
          "name": "_bpdTokenAddress",
          "type": "address"
        }
      ],
      "name": "BPDTokenAddressSet",
      "type": "event"
    },
    {
      "anonymous": false,
      "inputs": [
        {
          "indexed": false,
          "internalType": "address",
          "name": "_account",
          "type": "address"
        },
        {
          "indexed": false,
          "internalType": "uint256",
          "name": "_amount",
          "type": "uint256"
        }
      ],
      "name": "BitcoinSent",
      "type": "event"
    },
    {
      "anonymous": false,
      "inputs": [
        {
          "indexed": false,
          "internalType": "address",
          "name": "_borrowerOperationsAddress",
          "type": "address"
        }
      ],
      "name": "BorrowerOperationsAddressSet",
      "type": "event"
    },
    {
      "anonymous": false,
      "inputs": [
        {
          "indexed": false,
          "internalType": "uint256",
          "name": "_F_BPD",
          "type": "uint256"
        }
      ],
      "name": "F_BPDUpdated",
      "type": "event"
    },
    {
      "anonymous": false,
      "inputs": [
        {
          "indexed": false,
          "internalType": "uint256",
          "name": "_F_RBTC",
          "type": "uint256"
        }
      ],
      "name": "F_RBTCUpdated",
      "type": "event"
    },
    {
      "anonymous": false,
      "inputs": [
        {
          "indexed": false,
          "internalType": "address",
          "name": "_mpTokenAddress",
          "type": "address"
        }
      ],
      "name": "MPTokenAddressSet",
      "type": "event"
    },
    {
      "anonymous": false,
      "inputs": [
        {
          "indexed": true,
          "internalType": "address",
          "name": "previousOwner",
          "type": "address"
        },
        {
          "indexed": true,
          "internalType": "address",
          "name": "newOwner",
          "type": "address"
        }
      ],
      "name": "OwnershipTransferred",
      "type": "event"
    },
    {
      "anonymous": false,
      "inputs": [
        {
          "indexed": true,
          "internalType": "address",
          "name": "staker",
          "type": "address"
        },
        {
          "indexed": false,
          "internalType": "uint256",
          "name": "newStake",
          "type": "uint256"
        }
      ],
      "name": "StakeChanged",
      "type": "event"
    },
    {
      "anonymous": false,
      "inputs": [
        {
          "indexed": false,
          "internalType": "address",
          "name": "_staker",
          "type": "address"
        },
        {
          "indexed": false,
          "internalType": "uint256",
          "name": "_F_RBTC",
          "type": "uint256"
        },
        {
          "indexed": false,
          "internalType": "uint256",
          "name": "_F_BPD",
          "type": "uint256"
        }
      ],
      "name": "StakerSnapshotsUpdated",
      "type": "event"
    },
    {
      "anonymous": false,
      "inputs": [
        {
          "indexed": true,
          "internalType": "address",
          "name": "staker",
          "type": "address"
        },
        {
          "indexed": false,
          "internalType": "uint256",
          "name": "BPDGain",
          "type": "uint256"
        },
        {
          "indexed": false,
          "internalType": "uint256",
          "name": "RBTCGain",
          "type": "uint256"
        }
      ],
      "name": "StakingGainsWithdrawn",
      "type": "event"
    },
    {
      "anonymous": false,
      "inputs": [
        {
          "indexed": false,
          "internalType": "uint256",
          "name": "_totalMPStaked",
          "type": "uint256"
        }
      ],
      "name": "TotalMPStakedUpdated",
      "type": "event"
    },
    {
      "anonymous": false,
      "inputs": [
        {
          "indexed": false,
          "internalType": "address",
          "name": "_vaultManager",
          "type": "address"
        }
      ],
      "name": "VaultManagerAddressSet",
      "type": "event"
    },
    {
      "inputs": [],
      "name": "DECIMAL_PRECISION",
      "outputs": [
        {
          "internalType": "uint256",
          "name": "",
          "type": "uint256"
        }
      ],
      "stateMutability": "view",
      "type": "function"
    },
    {
      "inputs": [],
      "name": "F_BPD",
      "outputs": [
        {
          "internalType": "uint256",
          "name": "",
          "type": "uint256"
        }
      ],
      "stateMutability": "view",
      "type": "function"
    },
    {
      "inputs": [],
      "name": "F_RBTC",
      "outputs": [
        {
          "internalType": "uint256",
          "name": "",
          "type": "uint256"
        }
      ],
      "stateMutability": "view",
      "type": "function"
    },
    {
      "inputs": [],
      "name": "NAME",
      "outputs": [
        {
          "internalType": "string",
          "name": "",
          "type": "string"
        }
      ],
      "stateMutability": "view",
      "type": "function"
    },
    {
      "inputs": [],
      "name": "activePoolAddress",
      "outputs": [
        {
          "internalType": "address",
          "name": "",
          "type": "address"
        }
      ],
      "stateMutability": "view",
      "type": "function"
    },
    {
      "inputs": [],
      "name": "borrowerOperationsAddress",
      "outputs": [
        {
          "internalType": "address",
          "name": "",
          "type": "address"
        }
      ],
      "stateMutability": "view",
      "type": "function"
    },
    {
      "inputs": [],
      "name": "bpdToken",
      "outputs": [
        {
          "internalType": "contract IBPDToken",
          "name": "",
          "type": "address"
        }
      ],
      "stateMutability": "view",
      "type": "function"
    },
    {
      "inputs": [
        {
          "internalType": "address",
          "name": "_user",
          "type": "address"
        }
      ],
      "name": "getPendingBPDGain",
      "outputs": [
        {
          "internalType": "uint256",
          "name": "",
          "type": "uint256"
        }
      ],
      "stateMutability": "view",
      "type": "function"
    },
    {
      "inputs": [
        {
          "internalType": "address",
          "name": "_user",
          "type": "address"
        }
      ],
      "name": "getPendingRBTCGain",
      "outputs": [
        {
          "internalType": "uint256",
          "name": "",
          "type": "uint256"
        }
      ],
      "stateMutability": "view",
      "type": "function"
    },
    {
      "inputs": [
        {
          "internalType": "uint256",
          "name": "_BPDFee",
          "type": "uint256"
        }
      ],
      "name": "increaseF_BPD",
      "outputs": [],
      "stateMutability": "nonpayable",
      "type": "function"
    },
    {
      "inputs": [
        {
          "internalType": "uint256",
          "name": "_RBTCFee",
          "type": "uint256"
        }
      ],
      "name": "increaseF_RBTC",
      "outputs": [],
      "stateMutability": "nonpayable",
      "type": "function"
    },
    {
      "inputs": [],
      "name": "isOwner",
      "outputs": [
        {
          "internalType": "bool",
          "name": "",
          "type": "bool"
        }
      ],
      "stateMutability": "view",
      "type": "function"
    },
    {
      "inputs": [],
      "name": "mpToken",
      "outputs": [
        {
          "internalType": "contract IMPToken",
          "name": "",
          "type": "address"
        }
      ],
      "stateMutability": "view",
      "type": "function"
    },
    {
      "inputs": [],
      "name": "owner",
      "outputs": [
        {
          "internalType": "address",
          "name": "",
          "type": "address"
        }
      ],
      "stateMutability": "view",
      "type": "function"
    },
    {
      "inputs": [],
      "name": "requireCallerIsVaultManager",
      "outputs": [],
      "stateMutability": "view",
      "type": "function"
    },
    {
      "inputs": [
        {
          "internalType": "address",
          "name": "_mpTokenAddress",
          "type": "address"
        },
        {
          "internalType": "address",
          "name": "_bpdTokenAddress",
          "type": "address"
        },
        {
          "internalType": "address",
          "name": "_vaultManagerAddress",
          "type": "address"
        },
        {
          "internalType": "address",
          "name": "_borrowerOperationsAddress",
          "type": "address"
        },
        {
          "internalType": "address",
          "name": "_activePoolAddress",
          "type": "address"
        }
      ],
      "name": "setAddresses",
      "outputs": [],
      "stateMutability": "nonpayable",
      "type": "function"
    },
    {
      "inputs": [
        {
          "internalType": "address",
          "name": "",
          "type": "address"
        }
      ],
      "name": "snapshots",
      "outputs": [
        {
          "internalType": "uint256",
          "name": "F_RBTC_Snapshot",
          "type": "uint256"
        },
        {
          "internalType": "uint256",
          "name": "F_BPD_Snapshot",
          "type": "uint256"
        }
      ],
      "stateMutability": "view",
      "type": "function"
    },
    {
      "inputs": [
        {
          "internalType": "uint256",
          "name": "_MPamount",
          "type": "uint256"
        }
      ],
      "name": "stake",
      "outputs": [],
      "stateMutability": "nonpayable",
      "type": "function"
    },
    {
      "inputs": [
        {
          "internalType": "address",
          "name": "",
          "type": "address"
        }
      ],
      "name": "stakes",
      "outputs": [
        {
          "internalType": "uint256",
          "name": "",
          "type": "uint256"
        }
      ],
      "stateMutability": "view",
      "type": "function"
    },
    {
      "inputs": [],
      "name": "totalMPStaked",
      "outputs": [
        {
          "internalType": "uint256",
          "name": "",
          "type": "uint256"
        }
      ],
      "stateMutability": "view",
      "type": "function"
    },
    {
      "inputs": [
        {
          "internalType": "uint256",
          "name": "_MPamount",
          "type": "uint256"
        }
      ],
      "name": "unstake",
      "outputs": [],
      "stateMutability": "nonpayable",
      "type": "function"
    },
    {
      "inputs": [],
      "name": "vaultManagerAddress",
      "outputs": [
        {
          "internalType": "address",
          "name": "",
          "type": "address"
        }
      ],
      "stateMutability": "view",
      "type": "function"
    },
    {
      "stateMutability": "payable",
      "type": "receive"
    }
  ],
  "bytecode": "0x608060405234801561001057600080fd5b50600080546001600160a01b0319163390811782556040519091907f8be0079c531659141344cd1fd0a4f28419497f9722a3daafe3b4186f6b6457e0908290a36115308061005f6000396000f3fe6080604052600436106101395760003560e01c80638da5cb5b116100ab578063a694fc3a1161006f578063a694fc3a14610446578063b08bc72214610470578063b7f8cf9b14610485578063d1ad72a81461049a578063dd590496146104cd578063f64eb8b1146104e257610148565b80638da5cb5b146103545780638f32d59b146103695780638fd880a714610392578063a20baee6146103a7578063a3f4df7e146103bc57610148565b806334b3081f116100fd57806334b3081f14610243578063359642c61461028f5780633d8b8cb2146102a457806355f1f3c6146102d55780635b2048fe146102ea5780635dd68acd146102ff57610148565b806316934fc41461014d57806316ce2240146101925780631e96390b146101bc5780632c80b423146101ef5780632e17de781461021957610148565b36610148576101466104f7565b005b600080fd5b34801561015957600080fd5b506101806004803603602081101561017057600080fd5b50356001600160a01b0316610542565b60408051918252519081900360200190f35b34801561019e57600080fd5b50610146600480360360208110156101b557600080fd5b5035610554565b3480156101c857600080fd5b50610180600480360360208110156101df57600080fd5b50356001600160a01b03166105e3565b3480156101fb57600080fd5b506101466004803603602081101561021257600080fd5b50356105f4565b34801561022557600080fd5b506101466004803603602081101561023c57600080fd5b5035610677565b34801561024f57600080fd5b506102766004803603602081101561026657600080fd5b50356001600160a01b03166108bb565b6040805192835260208301919091528051918290030190f35b34801561029b57600080fd5b506101806108d4565b3480156102b057600080fd5b506102b96108da565b604080516001600160a01b039092168252519081900360200190f35b3480156102e157600080fd5b506101806108e9565b3480156102f657600080fd5b506102b96108ef565b34801561030b57600080fd5b50610146600480360360a081101561032257600080fd5b506001600160a01b038135811691602081013582169160408201358116916060810135821691608090910135166108fe565b34801561036057600080fd5b506102b9610b0a565b34801561037557600080fd5b5061037e610b19565b604080519115158252519081900360200190f35b34801561039e57600080fd5b50610146610b2a565b3480156103b357600080fd5b50610180610b32565b3480156103c857600080fd5b506103d1610b3e565b6040805160208082528351818301528351919283929083019185019080838360005b8381101561040b5781810151838201526020016103f3565b50505050905090810190601f1680156104385780820380516001836020036101000a031916815260200191505b509250505060405180910390f35b34801561045257600080fd5b506101466004803603602081101561046957600080fd5b5035610b63565b34801561047c57600080fd5b506102b9610d80565b34801561049157600080fd5b506102b9610d8f565b3480156104a657600080fd5b50610180600480360360208110156104bd57600080fd5b50356001600160a01b0316610d9e565b3480156104d957600080fd5b506102b9610da9565b3480156104ee57600080fd5b50610180610db8565b600a546001600160a01b031633146105405760405162461bcd60e51b815260040180806020018281038252602381526020018061148d6023913960400191505060405180910390fd5b565b60016020526000908152604090205481565b61055c610dbe565b60025460009015610595576002546105929061058684670de0b6b3a764000063ffffffff610e0716565b9063ffffffff610e6716565b90505b6004546105a8908263ffffffff610ea916565b600481905560408051918252517fb2b3cfae184c4d1b9099b4e0ba91c76319a2a3f31f8908cd2849701b2c910a6b9181900360200190a15050565b60006105ee82610f03565b92915050565b6105fc610f70565b60025460009015610629576002546106269061058684670de0b6b3a764000063ffffffff610e0716565b90505b60035461063c908263ffffffff610ea916565b600381905560408051918252517f75ee776382c8316661b614022628a4a031c20a7c6749979912a7a680559ab0f39181900360200190a15050565b3360009081526001602052604090205461069081610fcf565b600061069b33610f03565b905060006106a833611011565b90506106b333611054565b83156107f15760006106c585856110c6565b905060006106d9858363ffffffff6110dc16565b336000908152600160205260409020819055600254909150610701908363ffffffff6110dc16565b600281905560408051918252517f35f39baa268d9f8633216b097bd56e9e819f581f96b99f9a2a7cb8b91d93e8589181900360200190a16006546040805163a9059cbb60e01b81523360048201526024810185905290516001600160a01b039092169163a9059cbb916044808201926020929091908290030181600087803b15801561078c57600080fd5b505af11580156107a0573d6000803e3d6000fd5b505050506040513d60208110156107b657600080fd5b505060408051828152905133917f39df0e5286a3ef2f42a0bf52f32cfe2c58e5b0405f47fe512f2c2439e4cfe204919081900360200190a250505b6040805182815260208101849052815133927ff744d34ca1cb25acfa4180df5f09a67306107110a9f4b6ed99bb3be259738215928290030190a26007546040805163a9059cbb60e01b81523360048201526024810184905290516001600160a01b039092169163a9059cbb916044808201926020929091908290030181600087803b15801561087f57600080fd5b505af1158015610893573d6000803e3d6000fd5b505050506040513d60208110156108a957600080fd5b506108b590508261111e565b50505050565b6005602052600090815260409020805460019091015482565b60035481565b6008546001600160a01b031681565b60025481565b6006546001600160a01b031681565b610906610b19565b610957576040805162461bcd60e51b815260206004820181905260248201527f4f776e61626c653a2063616c6c6572206973206e6f7420746865206f776e6572604482015290519081900360640190fd5b610960856111e4565b610969846111e4565b610972836111e4565b61097b826111e4565b610984816111e4565b600680546001600160a01b038088166001600160a01b03199283168117909355600780548883169084161790556008805487831690841617905560098054868316908416179055600a80549185169190921617905560408051918252517f78ad23489374e5dbc904a43b0998bfcd502862c76f9ec6665648236329ab0c819181900360200190a1604080516001600160a01b038616815290517f78ad23489374e5dbc904a43b0998bfcd502862c76f9ec6665648236329ab0c819181900360200190a1604080516001600160a01b038516815290517f74bc209195886ee9cd42dcd3e30912f08b4b4337c5a4f1c69b99ddd31aadd7d79181900360200190a1604080516001600160a01b038416815290517f5962f8af633c4df1ab230096f773a514ee5adf7785c621ecdcdb764cb7f6e3919181900360200190a1604080516001600160a01b038316815290517f8f6a6e7d20a3233e0a79883272259ffbd7a243734e397bc2b4642c79d7fa8a6d9181900360200190a1610b03611293565b5050505050565b6000546001600160a01b031690565b6000546001600160a01b0316331490565b610540610f70565b670de0b6b3a764000081565b604051806040016040528060098152602001684d505374616b696e6760b81b81525081565b610b6c816112dd565b3360009081526001602052604081205490808215610b9b57610b8d33610f03565b9150610b9833611011565b90505b610ba433611054565b6000610bb6848663ffffffff610ea916565b336000908152600160205260409020819055600254909150610bde908663ffffffff610ea916565b600281905560408051918252517f35f39baa268d9f8633216b097bd56e9e819f581f96b99f9a2a7cb8b91d93e8589181900360200190a160065460408051632224489360e11b81523360048201526024810188905290516001600160a01b039092169163444891269160448082019260009290919082900301818387803b158015610c6857600080fd5b505af1158015610c7c573d6000803e3d6000fd5b50506040805184815290513393507f39df0e5286a3ef2f42a0bf52f32cfe2c58e5b0405f47fe512f2c2439e4cfe20492509081900360200190a26040805183815260208101859052815133927ff744d34ca1cb25acfa4180df5f09a67306107110a9f4b6ed99bb3be259738215928290030190a28315610b03576007546040805163a9059cbb60e01b81523360048201526024810185905290516001600160a01b039092169163a9059cbb916044808201926020929091908290030181600087803b158015610d4a57600080fd5b505af1158015610d5e573d6000803e3d6000fd5b505050506040513d6020811015610d7457600080fd5b50610b0390508361111e565b600a546001600160a01b031681565b6009546001600160a01b031681565b60006105ee82611011565b6007546001600160a01b031681565b60045481565b6009546001600160a01b031633146105405760405162461bcd60e51b81526004018080602001828103825260248152602001806114696024913960400191505060405180910390fd5b600082610e16575060006105ee565b82820282848281610e2357fe5b0414610e605760405162461bcd60e51b81526004018080602001828103825260218152602001806114da6021913960400191505060405180910390fd5b9392505050565b6000610e6083836040518060400160405280601a81526020017f536166654d6174683a206469766973696f6e206279207a65726f00000000000081525061131c565b600082820183811015610e60576040805162461bcd60e51b815260206004820152601b60248201527f536166654d6174683a206164646974696f6e206f766572666c6f770000000000604482015290519081900360640190fd5b6001600160a01b0381166000908152600560205260408120546003548290610f6890670de0b6b3a76400009061058690610f43908663ffffffff6110dc16565b6001600160a01b0388166000908152600160205260409020549063ffffffff610e0716565b949350505050565b6008546001600160a01b03163314610540576040805162461bcd60e51b815260206004820152601f60248201527f4d505374616b696e673a2063616c6c6572206973206e6f74205661756c744d00604482015290519081900360640190fd5b6000811161100e5760405162461bcd60e51b815260040180806020018281038252602a8152602001806114b0602a913960400191505060405180910390fd5b50565b6001600160a01b0381166000908152600560205260408120600101546004548290610f6890670de0b6b3a76400009061058690610f43908663ffffffff6110dc16565b600380546001600160a01b038316600081815260056020908152604091829020938455600454600190940184905593548151928352938201939093528083019190915290517f6b5cf27595af4428271524e0a5abd2b63f6fee1a61e31970490f5a10e257a1cd9181900360600190a150565b60008183106110d55781610e60565b5090919050565b6000610e6083836040518060400160405280601e81526020017f536166654d6174683a207375627472616374696f6e206f766572666c6f7700008152506113be565b604080513381526020810183905281517f1083bc5da936d61fceb9f9e509171faa5ae4756c47a742bf3fa2f9b4cd8132fe929181900390910190a1604051600090339083908381818185875af1925050503d806000811461119b576040519150601f19603f3d011682016040523d82523d6000602084013e6111a0565b606091505b50509050806111e05760405162461bcd60e51b815260040180806020018281038252602e81526020018061143b602e913960400191505060405180910390fd5b5050565b6001600160a01b03811661123f576040805162461bcd60e51b815260206004820152601e60248201527f4163636f756e742063616e6e6f74206265207a65726f20616464726573730000604482015290519081900360640190fd5b803b806111e0576040805162461bcd60e51b815260206004820181905260248201527f4163636f756e7420636f64652073697a652063616e6e6f74206265207a65726f604482015290519081900360640190fd5b600080546040516001600160a01b03909116907f8be0079c531659141344cd1fd0a4f28419497f9722a3daafe3b4186f6b6457e0908390a3600080546001600160a01b0319169055565b6000811161100e5760405162461bcd60e51b81526004018080602001828103825260228152602001806114196022913960400191505060405180910390fd5b600081836113a85760405162461bcd60e51b81526004018080602001828103825283818151815260200191508051906020019080838360005b8381101561136d578181015183820152602001611355565b50505050905090810190601f16801561139a5780820380516001836020036101000a031916815260200191505b509250505060405180910390fd5b5060008385816113b457fe5b0495945050505050565b600081848411156114105760405162461bcd60e51b815260206004820181815283516024840152835190928392604490910191908501908083836000831561136d578181015183820152602001611355565b50505090039056fe4d505374616b696e673a20416d6f756e74206d757374206265206e6f6e2d7a65726f4d505374616b696e673a204661696c656420746f2073656e6420616363756d756c6174656420524254434761696e4d505374616b696e673a2063616c6c6572206973206e6f7420426f72726f7765724f70734d505374616b696e673a2063616c6c6572206973206e6f7420416374697665506f6f6c4d505374616b696e673a2055736572206d75737420686176652061206e6f6e2d7a65726f207374616b65536166654d6174683a206d756c7469706c69636174696f6e206f766572666c6f77a26469706673582212206cfa4197c019e78039068ac4bb458abcc633b8dbb3d4a752ed705b487cd692d764736f6c634300060b0033",
  "linkReferences": {},
  "deployedLinkReferences": {}
}