{
  "_format": "hh-sol-artifact-1",
  "contractName": "MPTokenTester",
  "sourceName": "contracts/TestContracts/MPTokenTester.sol",
  "abi": [
    {
      "inputs": [
        {
          "internalType": "address",
          "name": "_communityIssuanceAddress",
          "type": "address"
        },
        {
          "internalType": "address",
          "name": "_mpStakingAddress",
          "type": "address"
        },
        {
          "internalType": "address",
          "name": "_lockupFactoryAddress",
          "type": "address"
        },
        {
          "internalType": "address",
          "name": "_bountyAddress",
          "type": "address"
        },
        {
          "internalType": "address",
          "name": "_lpRewardsAddress",
          "type": "address"
        },
        {
          "internalType": "address",
          "name": "_multisigAddress",
          "type": "address"
        }
      ],
      "stateMutability": "nonpayable",
      "type": "constructor"
    },
    {
      "anonymous": false,
      "inputs": [
        {
          "indexed": true,
          "internalType": "address",
          "name": "owner",
          "type": "address"
        },
        {
          "indexed": true,
          "internalType": "address",
          "name": "spender",
          "type": "address"
        },
        {
          "indexed": false,
          "internalType": "uint256",
          "name": "value",
          "type": "uint256"
        }
      ],
      "name": "Approval",
      "type": "event"
    },
    {
      "anonymous": false,
      "inputs": [
        {
          "indexed": false,
          "internalType": "address",
          "name": "_communityIssuanceAddress",
          "type": "address"
        }
      ],
      "name": "CommunityIssuanceAddressSet",
      "type": "event"
    },
    {
      "anonymous": false,
      "inputs": [
        {
          "indexed": false,
          "internalType": "address",
          "name": "_lockupContractFactoryAddress",
          "type": "address"
        }
      ],
      "name": "LockupContractFactoryAddressSet",
      "type": "event"
    },
    {
      "anonymous": false,
      "inputs": [
        {
          "indexed": false,
          "internalType": "address",
          "name": "_mpStakingAddress",
          "type": "address"
        }
      ],
      "name": "MPStakingAddressSet",
      "type": "event"
    },
    {
      "anonymous": false,
      "inputs": [
        {
          "indexed": true,
          "internalType": "address",
          "name": "from",
          "type": "address"
        },
        {
          "indexed": true,
          "internalType": "address",
          "name": "to",
          "type": "address"
        },
        {
          "indexed": false,
          "internalType": "uint256",
          "name": "value",
          "type": "uint256"
        }
      ],
      "name": "Transfer",
      "type": "event"
    },
    {
      "inputs": [],
      "name": "ONE_YEAR_IN_SECONDS",
      "outputs": [
        {
          "internalType": "uint256",
          "name": "",
          "type": "uint256"
        }
      ],
      "stateMutability": "view",
      "type": "function"
    },
    {
      "inputs": [
        {
          "internalType": "address",
          "name": "owner",
          "type": "address"
        },
        {
          "internalType": "address",
          "name": "spender",
          "type": "address"
        }
      ],
      "name": "allowance",
      "outputs": [
        {
          "internalType": "uint256",
          "name": "",
          "type": "uint256"
        }
      ],
      "stateMutability": "view",
      "type": "function"
    },
    {
      "inputs": [
        {
          "internalType": "address",
          "name": "spender",
          "type": "address"
        },
        {
          "internalType": "uint256",
          "name": "amount",
          "type": "uint256"
        }
      ],
      "name": "approve",
      "outputs": [
        {
          "internalType": "bool",
          "name": "",
          "type": "bool"
        }
      ],
      "stateMutability": "nonpayable",
      "type": "function"
    },
    {
      "inputs": [
        {
          "internalType": "address",
          "name": "account",
          "type": "address"
        }
      ],
      "name": "balanceOf",
      "outputs": [
        {
          "internalType": "uint256",
          "name": "",
          "type": "uint256"
        }
      ],
      "stateMutability": "view",
      "type": "function"
    },
    {
      "inputs": [
        {
          "internalType": "address",
          "name": "owner",
          "type": "address"
        },
        {
          "internalType": "address",
          "name": "spender",
          "type": "address"
        },
        {
          "internalType": "uint256",
          "name": "amount",
          "type": "uint256"
        }
      ],
      "name": "callInternalApprove",
      "outputs": [
        {
          "internalType": "bool",
          "name": "",
          "type": "bool"
        }
      ],
      "stateMutability": "nonpayable",
      "type": "function"
    },
    {
      "inputs": [
        {
          "internalType": "address",
          "name": "sender",
          "type": "address"
        },
        {
          "internalType": "address",
          "name": "recipient",
          "type": "address"
        },
        {
          "internalType": "uint256",
          "name": "amount",
          "type": "uint256"
        }
      ],
      "name": "callInternalTransfer",
      "outputs": [
        {
          "internalType": "bool",
          "name": "",
          "type": "bool"
        }
      ],
      "stateMutability": "nonpayable",
      "type": "function"
    },
    {
      "inputs": [],
      "name": "communityIssuanceAddress",
      "outputs": [
        {
          "internalType": "address",
          "name": "",
          "type": "address"
        }
      ],
      "stateMutability": "view",
      "type": "function"
    },
    {
      "inputs": [],
      "name": "decimals",
      "outputs": [
        {
          "internalType": "uint8",
          "name": "",
          "type": "uint8"
        }
      ],
      "stateMutability": "view",
      "type": "function"
    },
    {
      "inputs": [
        {
          "internalType": "address",
          "name": "spender",
          "type": "address"
        },
        {
          "internalType": "uint256",
          "name": "subtractedValue",
          "type": "uint256"
        }
      ],
      "name": "decreaseAllowance",
      "outputs": [
        {
          "internalType": "bool",
          "name": "",
          "type": "bool"
        }
      ],
      "stateMutability": "nonpayable",
      "type": "function"
    },
    {
      "inputs": [],
      "name": "domainSeparator",
      "outputs": [
        {
          "internalType": "bytes32",
          "name": "",
          "type": "bytes32"
        }
      ],
      "stateMutability": "view",
      "type": "function"
    },
    {
      "inputs": [],
      "name": "getChainId",
      "outputs": [
        {
          "internalType": "uint256",
          "name": "chainID",
          "type": "uint256"
        }
      ],
      "stateMutability": "pure",
      "type": "function"
    },
    {
      "inputs": [],
      "name": "getDeploymentStartTime",
      "outputs": [
        {
          "internalType": "uint256",
          "name": "",
          "type": "uint256"
        }
      ],
      "stateMutability": "view",
      "type": "function"
    },
    {
      "inputs": [],
      "name": "getLpRewardsEntitlement",
      "outputs": [
        {
          "internalType": "uint256",
          "name": "",
          "type": "uint256"
        }
      ],
      "stateMutability": "view",
      "type": "function"
    },
    {
      "inputs": [
        {
          "internalType": "address",
          "name": "spender",
          "type": "address"
        },
        {
          "internalType": "uint256",
          "name": "addedValue",
          "type": "uint256"
        }
      ],
      "name": "increaseAllowance",
      "outputs": [
        {
          "internalType": "bool",
          "name": "",
          "type": "bool"
        }
      ],
      "stateMutability": "nonpayable",
      "type": "function"
    },
    {
      "inputs": [],
      "name": "lockupContractFactory",
      "outputs": [
        {
          "internalType": "contract ILockupContractFactory",
          "name": "",
          "type": "address"
        }
      ],
      "stateMutability": "view",
      "type": "function"
    },
    {
      "inputs": [],
      "name": "mpStakingAddress",
      "outputs": [
        {
          "internalType": "address",
          "name": "",
          "type": "address"
        }
      ],
      "stateMutability": "view",
      "type": "function"
    },
    {
      "inputs": [],
      "name": "multisigAddress",
      "outputs": [
        {
          "internalType": "address",
          "name": "",
          "type": "address"
        }
      ],
      "stateMutability": "view",
      "type": "function"
    },
    {
      "inputs": [],
      "name": "name",
      "outputs": [
        {
          "internalType": "string",
          "name": "",
          "type": "string"
        }
      ],
      "stateMutability": "view",
      "type": "function"
    },
    {
      "inputs": [
        {
          "internalType": "address",
          "name": "owner",
          "type": "address"
        }
      ],
      "name": "nonces",
      "outputs": [
        {
          "internalType": "uint256",
          "name": "",
          "type": "uint256"
        }
      ],
      "stateMutability": "view",
      "type": "function"
    },
    {
      "inputs": [
        {
          "internalType": "address",
          "name": "owner",
          "type": "address"
        },
        {
          "internalType": "address",
          "name": "spender",
          "type": "address"
        },
        {
          "internalType": "uint256",
          "name": "amount",
          "type": "uint256"
        },
        {
          "internalType": "uint256",
          "name": "deadline",
          "type": "uint256"
        },
        {
          "internalType": "uint8",
          "name": "v",
          "type": "uint8"
        },
        {
          "internalType": "bytes32",
          "name": "r",
          "type": "bytes32"
        },
        {
          "internalType": "bytes32",
          "name": "s",
          "type": "bytes32"
        }
      ],
      "name": "permit",
      "outputs": [],
      "stateMutability": "nonpayable",
      "type": "function"
    },
    {
      "inputs": [],
      "name": "permitTypeHash",
      "outputs": [
        {
          "internalType": "bytes32",
          "name": "",
          "type": "bytes32"
        }
      ],
      "stateMutability": "view",
      "type": "function"
    },
    {
      "inputs": [
        {
          "internalType": "address",
          "name": "_sender",
          "type": "address"
        },
        {
          "internalType": "uint256",
          "name": "_amount",
          "type": "uint256"
        }
      ],
      "name": "sendToMPStaking",
      "outputs": [],
      "stateMutability": "nonpayable",
      "type": "function"
    },
    {
      "inputs": [],
      "name": "symbol",
      "outputs": [
        {
          "internalType": "string",
          "name": "",
          "type": "string"
        }
      ],
      "stateMutability": "view",
      "type": "function"
    },
    {
      "inputs": [],
      "name": "totalSupply",
      "outputs": [
        {
          "internalType": "uint256",
          "name": "",
          "type": "uint256"
        }
      ],
      "stateMutability": "view",
      "type": "function"
    },
    {
      "inputs": [
        {
          "internalType": "address",
          "name": "recipient",
          "type": "address"
        },
        {
          "internalType": "uint256",
          "name": "amount",
          "type": "uint256"
        }
      ],
      "name": "transfer",
      "outputs": [
        {
          "internalType": "bool",
          "name": "",
          "type": "bool"
        }
      ],
      "stateMutability": "nonpayable",
      "type": "function"
    },
    {
      "inputs": [
        {
          "internalType": "address",
          "name": "sender",
          "type": "address"
        },
        {
          "internalType": "address",
          "name": "recipient",
          "type": "address"
        },
        {
          "internalType": "uint256",
          "name": "amount",
          "type": "uint256"
        }
      ],
      "name": "transferFrom",
      "outputs": [
        {
          "internalType": "bool",
          "name": "",
          "type": "bool"
        }
      ],
      "stateMutability": "nonpayable",
      "type": "function"
    },
    {
      "inputs": [
        {
          "internalType": "address",
          "name": "account",
          "type": "address"
        },
        {
          "internalType": "uint256",
          "name": "amount",
          "type": "uint256"
        }
      ],
      "name": "unprotectedMint",
      "outputs": [],
      "stateMutability": "nonpayable",
      "type": "function"
    },
    {
      "inputs": [
        {
          "internalType": "address",
          "name": "_sender",
          "type": "address"
        },
        {
          "internalType": "uint256",
          "name": "_amount",
          "type": "uint256"
        }
      ],
      "name": "unprotectedSendToMPStaking",
      "outputs": [],
      "stateMutability": "nonpayable",
      "type": "function"
    },
    {
      "inputs": [],
      "name": "version",
      "outputs": [
        {
          "internalType": "string",
          "name": "",
          "type": "string"
        }
      ],
      "stateMutability": "view",
      "type": "function"
    }
  ],
  "bytecode": "0x6101c060405269d3c21bcecceda10000006004553480156200002057600080fd5b5060405162001e5b38038062001e5b833981810160405260c08110156200004657600080fd5b508051602082015160408301516060840151608085015160a090950151939492939192909185858585858562000085866001600160e01b036200028316565b62000099856001600160e01b036200028316565b620000ad846001600160e01b036200028316565b6001600160601b0319606082811b821661012052426101005287811b82166101405286811b82166101605285901b166101a052604080518082018252600281526104d560f41b602091820152815180830190925260018252603160f81b9101527f83960bcf2c2148ba3de98557730f9c83d643a1a2e59f49d9fc5d991909d2ed8f60c08190527fc89efdaa54c0f20c7adf612882df0950f5a951637e0307cdcb4c672f298b8bc660e08190526200016c6001600160e01b036200033816565b60a052620001a57f8b73c3c69bb8fe3d512ecc4cf759cc79239f7b179b0ffacaa9a75d522b39400f83836001600160e01b036200033c16565b6080526a08ab8fea65b94cbf880000620001c986826001600160e01b036200039d16565b6a8ab8fef99fdd01e4d80000620001ea8a826001600160e01b036200039d16565b6a05c7b5390dc4d4d84c00006101808190526200021187826001600160e01b036200039d16565b6000620002548262000240856200024088620002406101f46004546200049e60201b62000c041790919060201c565b6200050560201b62000c5d1790919060201c565b90506200026b87826001600160e01b036200039d16565b50505050505050505050505050505050505062000645565b6001600160a01b038116620002df576040805162461bcd60e51b815260206004820152601e60248201527f4163636f756e742063616e6e6f74206265207a65726f20616464726573730000604482015290519081900360640190fd5b803b8062000334576040805162461bcd60e51b815260206004820181905260248201527f4163636f756e7420636f64652073697a652063616e6e6f74206265207a65726f604482015290519081900360640190fd5b5050565b4690565b6000838383620003546001600160e01b036200033816565b6040805160208082019690965280820194909452606084019290925260808301523060a0808401919091528151808403909101815260c090920190528051910120949350505050565b6001600160a01b038216620003f9576040805162461bcd60e51b815260206004820152601f60248201527f45524332303a206d696e7420746f20746865207a65726f206164647265737300604482015290519081900360640190fd5b62000415816002546200054f60201b62000c9f1790919060201c565b6002556001600160a01b038216600090815260208181526040909120546200044891839062000c9f6200054f821b17901c565b6001600160a01b0383166000818152602081815260408083209490945583518581529351929391927fddf252ad1be2c89b69c2b068fc378daa952ba7f163c4a11628f55a4df523b3ef9281900390910190a35050565b600082620004af57506000620004ff565b82820282848281620004bd57fe5b0414620004fc5760405162461bcd60e51b815260040180806020018281038252602181526020018062001e3a6021913960400191505060405180910390fd5b90505b92915050565b6000620004fc83836040518060400160405280601e81526020017f536166654d6174683a207375627472616374696f6e206f766572666c6f770000815250620005aa60201b60201c565b600082820183811015620004fc576040805162461bcd60e51b815260206004820152601b60248201527f536166654d6174683a206164646974696f6e206f766572666c6f770000000000604482015290519081900360640190fd5b600081848411156200063d5760405162461bcd60e51b81526004018080602001828103825283818151815260200191508051906020019080838360005b8381101562000601578181015183820152602001620005e7565b50505050905090810190601f1680156200062f5780820380516001836020036101000a031916815260200191505b509250505060405180910390fd5b505050900390565b60805160a05160c05160e051610100516101205160601c6101405160601c6101605160601c610180516101a05160601c61174f620006eb60003980610807528061136252508061082b5250806105d3528061075d5280610f7752806111e5525080610ae55280610f3a5250806107925280610e6a528061133c5250806107175280610df2525080610bd9525080610bb8525080610b3e525080610b6e525061174f6000f3fe608060405234801561001057600080fd5b506004361061018f5760003560e01c80635462870d116100e4578063974f559011610092578063974f55901461047d578063a457c2d714610485578063a9059cbb146104b1578063d505accf146104dd578063d874ea741461052e578063dd62ed3e14610536578063e7c8fed414610564578063f698da251461056c5761018f565b80635462870d146103ed57806354fd4d50146103f557806370a08231146103fd5780637b30436a146104235780637ecebe001461044f578063811c5b4d1461047557806395d89b41146101de5761018f565b8063313ce56711610141578063313ce567146103035780633408e47014610321578063387a54d914610329578063395093511461035f5780633c84b7c21461038b57806344489126146103935780635099f99f146103c15761018f565b806303d999461461019457806306fdde03146101de578063095ea7b31461025b5780630d4d22141461028757806310ce43bd146102ab57806318160ddd146102c557806323b872dd146102cd575b600080fd5b6101ca600480360360608110156101aa57600080fd5b506001600160a01b03813581169160208101359091169060400135610574565b604080519115158252519081900360200190f35b6101e6610588565b6040805160208082528351818301528351919283929083019185019080838360005b83811015610220578181015183820152602001610208565b50505050905090810190601f16801561024d5780820380516001836020036101000a031916815260200191505b509250505060405180910390f35b6101ca6004803603604081101561027157600080fd5b506001600160a01b0381351690602001356105a5565b61028f6105d1565b604080516001600160a01b039092168252519081900360200190f35b6102b36105f5565b60408051918252519081900360200190f35b6102b3610619565b6101ca600480360360608110156102e357600080fd5b506001600160a01b0381358116916020810135909116906040013561061f565b61030b6106ad565b6040805160ff9092168252519081900360200190f35b6102b36106b2565b6101ca6004803603606081101561033f57600080fd5b506001600160a01b038135811691602081013590911690604001356106b6565b6101ca6004803603604081101561037557600080fd5b506001600160a01b0381351690602001356106c3565b6102b3610715565b6103bf600480360360408110156103a957600080fd5b506001600160a01b038135169060200135610739565b005b6103bf600480360360408110156103d757600080fd5b506001600160a01b038135169060200135610786565b61028f610790565b6101e66107b4565b6102b36004803603602081101561041357600080fd5b50356001600160a01b03166107cf565b6103bf6004803603604081101561043957600080fd5b506001600160a01b038135169060200135610741565b6102b36004803603602081101561046557600080fd5b50356001600160a01b03166107ea565b61028f610805565b6102b3610829565b6101ca6004803603604081101561049b57600080fd5b506001600160a01b03813516906020013561084d565b6101ca600480360360408110156104c757600080fd5b506001600160a01b0381351690602001356108b7565b6103bf600480360360e08110156104f357600080fd5b506001600160a01b03813581169160208101359091169060408101359060608101359060ff6080820135169060a08101359060c001356108f2565b61028f610ae3565b6102b36004803603604081101561054c57600080fd5b506001600160a01b0381358116916020013516610b07565b6102b3610b32565b6102b3610b3a565b6000610581848484610cf9565b9392505050565b60408051808201909152600281526104d560f41b60208201525b90565b60006105af610de5565b156105bc576105bc610e22565b6105c7338484610cf9565b5060015b92915050565b7f000000000000000000000000000000000000000000000000000000000000000081565b7f6e71edae12b1b97f4d1f60370fef10105fa2faae0126114a169c64845d6126c990565b60025490565b6000610629610de5565b156106375761063784610e68565b61064083610edc565b61064b848484610fe7565b6106a3843361069e856040518060600160405280602881526020016115ef602891396001600160a01b038a166000908152600160209081526040808320338452909152902054919063ffffffff61114316565b610cf9565b5060019392505050565b601290565b4690565b6000610581848484610fe7565b60006106cd610de5565b156106da576106da610e22565b3360008181526001602090815260408083206001600160a01b03881684529091529020546105c79190859061069e908663ffffffff610c9f16565b7f000000000000000000000000000000000000000000000000000000000000000090565b6107416111da565b610749610de5565b156107575761075782610e68565b610782827f000000000000000000000000000000000000000000000000000000000000000083610fe7565b5050565b6107828282611241565b7f000000000000000000000000000000000000000000000000000000000000000081565b6040805180820190915260018152603160f81b602082015290565b6001600160a01b031660009081526020819052604090205490565b6001600160a01b031660009081526003602052604090205490565b7f000000000000000000000000000000000000000000000000000000000000000081565b7f000000000000000000000000000000000000000000000000000000000000000090565b6000610857610de5565b1561086457610864610e22565b6105c7338461069e856040518060600160405280602581526020016116f5602591393360009081526001602090815260408083206001600160a01b038d168452909152902054919063ffffffff61114316565b60006108c1611331565b80156108d057506108d0610de5565b156108de576108de83611360565b6108e783610edc565b6105c7338484610fe7565b4284101561093e576040805162461bcd60e51b81526020600482015260146024820152734d503a206578706972656420646561646c696e6560601b604482015290519081900360640190fd5b6000610948610b3a565b6001600160a01b03808a1660008181526003602090815260408083208054600180820190925582517f6e71edae12b1b97f4d1f60370fef10105fa2faae0126114a169c64845d6126c98186015280840196909652958e166060860152608085018d905260a085019590955260c08085018c90528151808603909101815260e08501825280519083012061190160f01b6101008601526101028501969096526101228085019690965280518085039096018652610142840180825286519683019690962095839052610162840180825286905260ff8a166101828501526101a284018990526101c284018890525194955090936101e280840193601f198301929081900390910190855afa158015610a63573d6000803e3d6000fd5b505050602060405103519050886001600160a01b0316816001600160a01b031614610acd576040805162461bcd60e51b81526020600482015260156024820152744d503a20696e76616c6964207369676e617475726560581b604482015290519081900360640190fd5b610ad8898989610cf9565b505050505050505050565b7f000000000000000000000000000000000000000000000000000000000000000081565b6001600160a01b03918216600090815260016020908152604080832093909416825291909152205490565b6301e1338081565b60007f0000000000000000000000000000000000000000000000000000000000000000610b656106b2565b1415610b9257507f00000000000000000000000000000000000000000000000000000000000000006105a2565b610bfd7f8b73c3c69bb8fe3d512ecc4cf759cc79239f7b179b0ffacaa9a75d522b39400f7f00000000000000000000000000000000000000000000000000000000000000007f000000000000000000000000000000000000000000000000000000000000000061143d565b90506105a2565b600082610c13575060006105cb565b82820282848281610c2057fe5b04146105815760405162461bcd60e51b81526004018080602001828103825260218152602001806115ce6021913960400191505060405180910390fd5b600061058183836040518060400160405280601e81526020017f536166654d6174683a207375627472616374696f6e206f766572666c6f770000815250611143565b600082820183811015610581576040805162461bcd60e51b815260206004820152601b60248201527f536166654d6174683a206164646974696f6e206f766572666c6f770000000000604482015290519081900360640190fd5b6001600160a01b038316610d3e5760405162461bcd60e51b81526004018080602001828103825260248152602001806116816024913960400191505060405180910390fd5b6001600160a01b038216610d835760405162461bcd60e51b81526004018080602001828103825260228152602001806115076022913960400191505060405180910390fd5b6001600160a01b03808416600081815260016020908152604080832094871680845294825291829020859055815185815291517f8c5be1e5ebec7d5bd14f71427d1e84f3dd0314c0f7b2291e5b200ac8c7c3b9259281900390910190a3505050565b60006301e13380610e1c427f000000000000000000000000000000000000000000000000000000000000000063ffffffff610c5d16565b10905090565b610e2a611331565b15610e665760405162461bcd60e51b81526004018080602001828103825260288152602001806114df6028913960400191505060405180910390fd5b565b7f00000000000000000000000000000000000000000000000000000000000000006001600160a01b0316816001600160a01b03161415610ed95760405162461bcd60e51b81526004018080602001828103825260288152602001806114b76028913960400191505060405180910390fd5b50565b6001600160a01b03811615801590610efd57506001600160a01b0381163014155b610f385760405162461bcd60e51b81526004018080602001828103825260508152602001806116a56050913960600191505060405180910390fd5b7f00000000000000000000000000000000000000000000000000000000000000006001600160a01b0316816001600160a01b031614158015610fac57507f00000000000000000000000000000000000000000000000000000000000000006001600160a01b0316816001600160a01b031614155b610ed95760405162461bcd60e51b815260040180806020018281038252605181526020018061154f6051913960600191505060405180910390fd5b6001600160a01b03831661102c5760405162461bcd60e51b81526004018080602001828103825260258152602001806116176025913960400191505060405180910390fd5b6001600160a01b0382166110715760405162461bcd60e51b81526004018080602001828103825260238152602001806114946023913960400191505060405180910390fd5b6110b481604051806060016040528060268152602001611529602691396001600160a01b038616600090815260208190526040902054919063ffffffff61114316565b6001600160a01b0380851660009081526020819052604080822093909355908416815220546110e9908263ffffffff610c9f16565b6001600160a01b038084166000818152602081815260409182902094909455805185815290519193928716927fddf252ad1be2c89b69c2b068fc378daa952ba7f163c4a11628f55a4df523b3ef92918290030190a3505050565b600081848411156111d25760405162461bcd60e51b81526004018080602001828103825283818151815260200191508051906020019080838360005b8381101561119757818101518382015260200161117f565b50505050905090810190601f1680156111c45780820380516001836020036101000a031916815260200191505b509250505060405180910390fd5b505050900390565b336001600160a01b037f00000000000000000000000000000000000000000000000000000000000000001614610e665760405162461bcd60e51b815260040180806020018281038252602e8152602001806115a0602e913960400191505060405180910390fd5b6001600160a01b03821661129c576040805162461bcd60e51b815260206004820152601f60248201527f45524332303a206d696e7420746f20746865207a65726f206164647265737300604482015290519081900360640190fd5b6002546112af908263ffffffff610c9f16565b6002556001600160a01b0382166000908152602081905260409020546112db908263ffffffff610c9f16565b6001600160a01b0383166000818152602081815260408083209490945583518581529351929391927fddf252ad1be2c89b69c2b068fc378daa952ba7f163c4a11628f55a4df523b3ef9281900390910190a35050565b336001600160a01b037f0000000000000000000000000000000000000000000000000000000000000000161490565b7f00000000000000000000000000000000000000000000000000000000000000006001600160a01b031663bb7603f1826040518263ffffffff1660e01b815260040180826001600160a01b03166001600160a01b0316815260200191505060206040518083038186803b1580156113d657600080fd5b505afa1580156113ea573d6000803e3d6000fd5b505050506040513d602081101561140057600080fd5b5051610ed95760405162461bcd60e51b815260040180806020018281038252604581526020018061163c6045913960600191505060405180910390fd5b600083838361144a6106b2565b6040805160208082019690965280820194909452606084019290925260808301523060a0808401919091528151808403909101815260c09092019052805191012094935050505056fe45524332303a207472616e7366657220746f20746865207a65726f20616464726573734d50546f6b656e3a2073656e646572206d757374206e6f7420626520746865206d756c74697369674d50546f6b656e3a2063616c6c6572206d757374206e6f7420626520746865206d756c746973696745524332303a20617070726f766520746f20746865207a65726f206164647265737345524332303a207472616e7366657220616d6f756e7420657863656564732062616c616e63654d503a2043616e6e6f74207472616e7366657220746f6b656e73206469726563746c7920746f2074686520636f6d6d756e6974792069737375616e6365206f72207374616b696e6720636f6e74726163744d50546f6b656e3a2063616c6c6572206d75737420626520746865204d505374616b696e6720636f6e7472616374536166654d6174683a206d756c7469706c69636174696f6e206f766572666c6f7745524332303a207472616e7366657220616d6f756e74206578636565647320616c6c6f77616e636545524332303a207472616e736665722066726f6d20746865207a65726f20616464726573734d50546f6b656e3a20726563697069656e74206d7573742062652061204c6f636b7570436f6e7472616374207265676973746572656420696e2074686520466163746f727945524332303a20617070726f76652066726f6d20746865207a65726f20616464726573734d503a2043616e6e6f74207472616e7366657220746f6b656e73206469726563746c7920746f20746865204d5020746f6b656e20636f6e7472616374206f7220746865207a65726f206164647265737345524332303a2064656372656173656420616c6c6f77616e63652062656c6f77207a65726fa26469706673582212205107110e59171c1b6b5465e568787c53c7199a499d8e508adf94417bf4a7edca64736f6c634300060b0033536166654d6174683a206d756c7469706c69636174696f6e206f766572666c6f77",
  "linkReferences": {},
  "deployedLinkReferences": {}
}