{
  "_format": "hh-sol-artifact-1",
  "contractName": "MPToken",
  "sourceName": "contracts/MP/MPToken.sol",
  "abi": [
    {
      "inputs": [
        {
          "internalType": "address",
          "name": "_communityIssuanceAddress",
          "type": "address"
        },
        {
          "internalType": "address",
          "name": "_mpStakingAddress",
          "type": "address"
        },
        {
          "internalType": "address",
          "name": "_lockupFactoryAddress",
          "type": "address"
        },
        {
          "internalType": "address",
          "name": "_bountyAddress",
          "type": "address"
        },
        {
          "internalType": "address",
          "name": "_lpRewardsAddress",
          "type": "address"
        },
        {
          "internalType": "address",
          "name": "_multisigAddress",
          "type": "address"
        }
      ],
      "stateMutability": "nonpayable",
      "type": "constructor"
    },
    {
      "anonymous": false,
      "inputs": [
        {
          "indexed": true,
          "internalType": "address",
          "name": "owner",
          "type": "address"
        },
        {
          "indexed": true,
          "internalType": "address",
          "name": "spender",
          "type": "address"
        },
        {
          "indexed": false,
          "internalType": "uint256",
          "name": "value",
          "type": "uint256"
        }
      ],
      "name": "Approval",
      "type": "event"
    },
    {
      "anonymous": false,
      "inputs": [
        {
          "indexed": false,
          "internalType": "address",
          "name": "_communityIssuanceAddress",
          "type": "address"
        }
      ],
      "name": "CommunityIssuanceAddressSet",
      "type": "event"
    },
    {
      "anonymous": false,
      "inputs": [
        {
          "indexed": false,
          "internalType": "address",
          "name": "_lockupContractFactoryAddress",
          "type": "address"
        }
      ],
      "name": "LockupContractFactoryAddressSet",
      "type": "event"
    },
    {
      "anonymous": false,
      "inputs": [
        {
          "indexed": false,
          "internalType": "address",
          "name": "_mpStakingAddress",
          "type": "address"
        }
      ],
      "name": "MPStakingAddressSet",
      "type": "event"
    },
    {
      "anonymous": false,
      "inputs": [
        {
          "indexed": true,
          "internalType": "address",
          "name": "from",
          "type": "address"
        },
        {
          "indexed": true,
          "internalType": "address",
          "name": "to",
          "type": "address"
        },
        {
          "indexed": false,
          "internalType": "uint256",
          "name": "value",
          "type": "uint256"
        }
      ],
      "name": "Transfer",
      "type": "event"
    },
    {
      "inputs": [],
      "name": "ONE_YEAR_IN_SECONDS",
      "outputs": [
        {
          "internalType": "uint256",
          "name": "",
          "type": "uint256"
        }
      ],
      "stateMutability": "view",
      "type": "function"
    },
    {
      "inputs": [
        {
          "internalType": "address",
          "name": "owner",
          "type": "address"
        },
        {
          "internalType": "address",
          "name": "spender",
          "type": "address"
        }
      ],
      "name": "allowance",
      "outputs": [
        {
          "internalType": "uint256",
          "name": "",
          "type": "uint256"
        }
      ],
      "stateMutability": "view",
      "type": "function"
    },
    {
      "inputs": [
        {
          "internalType": "address",
          "name": "spender",
          "type": "address"
        },
        {
          "internalType": "uint256",
          "name": "amount",
          "type": "uint256"
        }
      ],
      "name": "approve",
      "outputs": [
        {
          "internalType": "bool",
          "name": "",
          "type": "bool"
        }
      ],
      "stateMutability": "nonpayable",
      "type": "function"
    },
    {
      "inputs": [
        {
          "internalType": "address",
          "name": "account",
          "type": "address"
        }
      ],
      "name": "balanceOf",
      "outputs": [
        {
          "internalType": "uint256",
          "name": "",
          "type": "uint256"
        }
      ],
      "stateMutability": "view",
      "type": "function"
    },
    {
      "inputs": [],
      "name": "communityIssuanceAddress",
      "outputs": [
        {
          "internalType": "address",
          "name": "",
          "type": "address"
        }
      ],
      "stateMutability": "view",
      "type": "function"
    },
    {
      "inputs": [],
      "name": "decimals",
      "outputs": [
        {
          "internalType": "uint8",
          "name": "",
          "type": "uint8"
        }
      ],
      "stateMutability": "view",
      "type": "function"
    },
    {
      "inputs": [
        {
          "internalType": "address",
          "name": "spender",
          "type": "address"
        },
        {
          "internalType": "uint256",
          "name": "subtractedValue",
          "type": "uint256"
        }
      ],
      "name": "decreaseAllowance",
      "outputs": [
        {
          "internalType": "bool",
          "name": "",
          "type": "bool"
        }
      ],
      "stateMutability": "nonpayable",
      "type": "function"
    },
    {
      "inputs": [],
      "name": "domainSeparator",
      "outputs": [
        {
          "internalType": "bytes32",
          "name": "",
          "type": "bytes32"
        }
      ],
      "stateMutability": "view",
      "type": "function"
    },
    {
      "inputs": [],
      "name": "getDeploymentStartTime",
      "outputs": [
        {
          "internalType": "uint256",
          "name": "",
          "type": "uint256"
        }
      ],
      "stateMutability": "view",
      "type": "function"
    },
    {
      "inputs": [],
      "name": "getLpRewardsEntitlement",
      "outputs": [
        {
          "internalType": "uint256",
          "name": "",
          "type": "uint256"
        }
      ],
      "stateMutability": "view",
      "type": "function"
    },
    {
      "inputs": [
        {
          "internalType": "address",
          "name": "spender",
          "type": "address"
        },
        {
          "internalType": "uint256",
          "name": "addedValue",
          "type": "uint256"
        }
      ],
      "name": "increaseAllowance",
      "outputs": [
        {
          "internalType": "bool",
          "name": "",
          "type": "bool"
        }
      ],
      "stateMutability": "nonpayable",
      "type": "function"
    },
    {
      "inputs": [],
      "name": "lockupContractFactory",
      "outputs": [
        {
          "internalType": "contract ILockupContractFactory",
          "name": "",
          "type": "address"
        }
      ],
      "stateMutability": "view",
      "type": "function"
    },
    {
      "inputs": [],
      "name": "mpStakingAddress",
      "outputs": [
        {
          "internalType": "address",
          "name": "",
          "type": "address"
        }
      ],
      "stateMutability": "view",
      "type": "function"
    },
    {
      "inputs": [],
      "name": "multisigAddress",
      "outputs": [
        {
          "internalType": "address",
          "name": "",
          "type": "address"
        }
      ],
      "stateMutability": "view",
      "type": "function"
    },
    {
      "inputs": [],
      "name": "name",
      "outputs": [
        {
          "internalType": "string",
          "name": "",
          "type": "string"
        }
      ],
      "stateMutability": "view",
      "type": "function"
    },
    {
      "inputs": [
        {
          "internalType": "address",
          "name": "owner",
          "type": "address"
        }
      ],
      "name": "nonces",
      "outputs": [
        {
          "internalType": "uint256",
          "name": "",
          "type": "uint256"
        }
      ],
      "stateMutability": "view",
      "type": "function"
    },
    {
      "inputs": [
        {
          "internalType": "address",
          "name": "owner",
          "type": "address"
        },
        {
          "internalType": "address",
          "name": "spender",
          "type": "address"
        },
        {
          "internalType": "uint256",
          "name": "amount",
          "type": "uint256"
        },
        {
          "internalType": "uint256",
          "name": "deadline",
          "type": "uint256"
        },
        {
          "internalType": "uint8",
          "name": "v",
          "type": "uint8"
        },
        {
          "internalType": "bytes32",
          "name": "r",
          "type": "bytes32"
        },
        {
          "internalType": "bytes32",
          "name": "s",
          "type": "bytes32"
        }
      ],
      "name": "permit",
      "outputs": [],
      "stateMutability": "nonpayable",
      "type": "function"
    },
    {
      "inputs": [],
      "name": "permitTypeHash",
      "outputs": [
        {
          "internalType": "bytes32",
          "name": "",
          "type": "bytes32"
        }
      ],
      "stateMutability": "view",
      "type": "function"
    },
    {
      "inputs": [
        {
          "internalType": "address",
          "name": "_sender",
          "type": "address"
        },
        {
          "internalType": "uint256",
          "name": "_amount",
          "type": "uint256"
        }
      ],
      "name": "sendToMPStaking",
      "outputs": [],
      "stateMutability": "nonpayable",
      "type": "function"
    },
    {
      "inputs": [],
      "name": "symbol",
      "outputs": [
        {
          "internalType": "string",
          "name": "",
          "type": "string"
        }
      ],
      "stateMutability": "view",
      "type": "function"
    },
    {
      "inputs": [],
      "name": "totalSupply",
      "outputs": [
        {
          "internalType": "uint256",
          "name": "",
          "type": "uint256"
        }
      ],
      "stateMutability": "view",
      "type": "function"
    },
    {
      "inputs": [
        {
          "internalType": "address",
          "name": "recipient",
          "type": "address"
        },
        {
          "internalType": "uint256",
          "name": "amount",
          "type": "uint256"
        }
      ],
      "name": "transfer",
      "outputs": [
        {
          "internalType": "bool",
          "name": "",
          "type": "bool"
        }
      ],
      "stateMutability": "nonpayable",
      "type": "function"
    },
    {
      "inputs": [
        {
          "internalType": "address",
          "name": "sender",
          "type": "address"
        },
        {
          "internalType": "address",
          "name": "recipient",
          "type": "address"
        },
        {
          "internalType": "uint256",
          "name": "amount",
          "type": "uint256"
        }
      ],
      "name": "transferFrom",
      "outputs": [
        {
          "internalType": "bool",
          "name": "",
          "type": "bool"
        }
      ],
      "stateMutability": "nonpayable",
      "type": "function"
    },
    {
      "inputs": [],
      "name": "version",
      "outputs": [
        {
          "internalType": "string",
          "name": "",
          "type": "string"
        }
      ],
      "stateMutability": "view",
      "type": "function"
    }
  ],
  "bytecode": "0x6101c060405269d3c21bcecceda10000006004553480156200002057600080fd5b5060405162001c3838038062001c38833981810160405260c08110156200004657600080fd5b508051602082015160408301516060840151608085015160a09095015193949293919290916200007f866001600160e01b036200027716565b62000093856001600160e01b036200027716565b620000a7846001600160e01b036200027716565b6001600160601b0319606082811b821661012052426101005287811b82166101405286811b82166101605285901b166101a052604080518082018252600281526104d560f41b602091820152815180830190925260018252603160f81b9101527f83960bcf2c2148ba3de98557730f9c83d643a1a2e59f49d9fc5d991909d2ed8f60c08190527fc89efdaa54c0f20c7adf612882df0950f5a951637e0307cdcb4c672f298b8bc660e0819052620001666001600160e01b036200032c16565b60a0526200019f7f8b73c3c69bb8fe3d512ecc4cf759cc79239f7b179b0ffacaa9a75d522b39400f83836001600160e01b036200033016565b6080526a08ab8fea65b94cbf880000620001c386826001600160e01b036200039116565b6a8ab8fef99fdd01e4d80000620001e48a826001600160e01b036200039116565b6a05c7b5390dc4d4d84c00006101808190526200020b87826001600160e01b036200039116565b60006200024e826200023a856200023a886200023a6101f46004546200049260201b62000ad21790919060201c565b620004f960201b62000b321790919060201c565b90506200026587826001600160e01b036200039116565b50505050505050505050505062000639565b6001600160a01b038116620002d3576040805162461bcd60e51b815260206004820152601e60248201527f4163636f756e742063616e6e6f74206265207a65726f20616464726573730000604482015290519081900360640190fd5b803b8062000328576040805162461bcd60e51b815260206004820181905260248201527f4163636f756e7420636f64652073697a652063616e6e6f74206265207a65726f604482015290519081900360640190fd5b5050565b4690565b6000838383620003486001600160e01b036200032c16565b6040805160208082019690965280820194909452606084019290925260808301523060a0808401919091528151808403909101815260c090920190528051910120949350505050565b6001600160a01b038216620003ed576040805162461bcd60e51b815260206004820152601f60248201527f45524332303a206d696e7420746f20746865207a65726f206164647265737300604482015290519081900360640190fd5b62000409816002546200054360201b62000b741790919060201c565b6002556001600160a01b038216600090815260208181526040909120546200043c91839062000b7462000543821b17901c565b6001600160a01b0383166000818152602081815260408083209490945583518581529351929391927fddf252ad1be2c89b69c2b068fc378daa952ba7f163c4a11628f55a4df523b3ef9281900390910190a35050565b600082620004a357506000620004f3565b82820282848281620004b157fe5b0414620004f05760405162461bcd60e51b815260040180806020018281038252602181526020018062001c176021913960400191505060405180910390fd5b90505b92915050565b6000620004f083836040518060400160405280601e81526020017f536166654d6174683a207375627472616374696f6e206f766572666c6f7700008152506200059e60201b60201c565b600082820183811015620004f0576040805162461bcd60e51b815260206004820152601b60248201527f536166654d6174683a206164646974696f6e206f766572666c6f770000000000604482015290519081900360640190fd5b60008184841115620006315760405162461bcd60e51b81526004018080602001828103825283818151815260200191508051906020019080838360005b83811015620005f5578181015183820152602001620005db565b50505050905090810190601f168015620006235780820380516001836020036101000a031916815260200191505b509250505060405180910390fd5b505050900390565b60805160a05160c05160e051610100516101205160601c6101405160601c6101605160601c610180516101a05160601c611538620006df600039806106d552806111475250806106f95250806104bc52806106355280610e4c52806110ba5250806109b35280610e0f5250806106605280610d3f52806111215250806105ef5280610bdb525080610aa7525080610a86525080610a0c525080610a3c52506115386000f3fe608060405234801561001057600080fd5b50600436106101585760003560e01c806370a08231116100c3578063a9059cbb1161007c578063a9059cbb146103ae578063d505accf146103da578063d874ea741461042b578063dd62ed3e14610433578063e7c8fed414610461578063f698da251461046957610158565b806370a08231146103265780637ecebe001461034c578063811c5b4d1461037257806395d89b411461015d578063974f55901461037a578063a457c2d71461038257610158565b8063313ce56711610115578063313ce5671461029657806339509351146102b45780633c84b7c2146102e057806344489126146102e85780635462870d1461031657806354fd4d501461031e57610158565b806306fdde031461015d578063095ea7b3146101da5780630d4d22141461021a57806310ce43bd1461023e57806318160ddd1461025857806323b872dd14610260575b600080fd5b610165610471565b6040805160208082528351818301528351919283929083019185019080838360005b8381101561019f578181015183820152602001610187565b50505050905090810190601f1680156101cc5780820380516001836020036101000a031916815260200191505b509250505060405180910390f35b610206600480360360408110156101f057600080fd5b506001600160a01b03813516906020013561048e565b604080519115158252519081900360200190f35b6102226104ba565b604080516001600160a01b039092168252519081900360200190f35b6102466104de565b60408051918252519081900360200190f35b610246610502565b6102066004803603606081101561027657600080fd5b506001600160a01b03813581169160208101359091169060400135610508565b61029e610596565b6040805160ff9092168252519081900360200190f35b610206600480360360408110156102ca57600080fd5b506001600160a01b03813516906020013561059b565b6102466105ed565b610314600480360360408110156102fe57600080fd5b506001600160a01b038135169060200135610611565b005b61022261065e565b610165610682565b6102466004803603602081101561033c57600080fd5b50356001600160a01b031661069d565b6102466004803603602081101561036257600080fd5b50356001600160a01b03166106b8565b6102226106d3565b6102466106f7565b6102066004803603604081101561039857600080fd5b506001600160a01b03813516906020013561071b565b610206600480360360408110156103c457600080fd5b506001600160a01b038135169060200135610785565b610314600480360360e08110156103f057600080fd5b506001600160a01b03813581169160208101359091169060408101359060608101359060ff6080820135169060a08101359060c001356107c0565b6102226109b1565b6102466004803603604081101561044957600080fd5b506001600160a01b03813581169160200135166109d5565b610246610a00565b610246610a08565b60408051808201909152600281526104d560f41b60208201525b90565b6000610498610bce565b156104a5576104a5610c0b565b6104b0338484610c51565b5060015b92915050565b7f000000000000000000000000000000000000000000000000000000000000000081565b7f6e71edae12b1b97f4d1f60370fef10105fa2faae0126114a169c64845d6126c990565b60025490565b6000610512610bce565b156105205761052084610d3d565b61052983610db1565b610534848484610ebc565b61058c8433610587856040518060600160405280602881526020016113d8602891396001600160a01b038a166000908152600160209081526040808320338452909152902054919063ffffffff61101816565b610c51565b5060019392505050565b601290565b60006105a5610bce565b156105b2576105b2610c0b565b3360008181526001602090815260408083206001600160a01b03881684529091529020546104b091908590610587908663ffffffff610b7416565b7f000000000000000000000000000000000000000000000000000000000000000090565b6106196110af565b610621610bce565b1561062f5761062f82610d3d565b61065a827f000000000000000000000000000000000000000000000000000000000000000083610ebc565b5050565b7f000000000000000000000000000000000000000000000000000000000000000081565b6040805180820190915260018152603160f81b602082015290565b6001600160a01b031660009081526020819052604090205490565b6001600160a01b031660009081526003602052604090205490565b7f000000000000000000000000000000000000000000000000000000000000000081565b7f000000000000000000000000000000000000000000000000000000000000000090565b6000610725610bce565b1561073257610732610c0b565b6104b03384610587856040518060600160405280602581526020016114de602591393360009081526001602090815260408083206001600160a01b038d168452909152902054919063ffffffff61101816565b600061078f611116565b801561079e575061079e610bce565b156107ac576107ac83611145565b6107b583610db1565b6104b0338484610ebc565b4284101561080c576040805162461bcd60e51b81526020600482015260146024820152734d503a206578706972656420646561646c696e6560601b604482015290519081900360640190fd5b6000610816610a08565b6001600160a01b03808a1660008181526003602090815260408083208054600180820190925582517f6e71edae12b1b97f4d1f60370fef10105fa2faae0126114a169c64845d6126c98186015280840196909652958e166060860152608085018d905260a085019590955260c08085018c90528151808603909101815260e08501825280519083012061190160f01b6101008601526101028501969096526101228085019690965280518085039096018652610142840180825286519683019690962095839052610162840180825286905260ff8a166101828501526101a284018990526101c284018890525194955090936101e280840193601f198301929081900390910190855afa158015610931573d6000803e3d6000fd5b505050602060405103519050886001600160a01b0316816001600160a01b03161461099b576040805162461bcd60e51b81526020600482015260156024820152744d503a20696e76616c6964207369676e617475726560581b604482015290519081900360640190fd5b6109a6898989610c51565b505050505050505050565b7f000000000000000000000000000000000000000000000000000000000000000081565b6001600160a01b03918216600090815260016020908152604080832093909416825291909152205490565b6301e1338081565b60007f0000000000000000000000000000000000000000000000000000000000000000610a33611222565b1415610a6057507f000000000000000000000000000000000000000000000000000000000000000061048b565b610acb7f8b73c3c69bb8fe3d512ecc4cf759cc79239f7b179b0ffacaa9a75d522b39400f7f00000000000000000000000000000000000000000000000000000000000000007f0000000000000000000000000000000000000000000000000000000000000000611226565b905061048b565b600082610ae1575060006104b4565b82820282848281610aee57fe5b0414610b2b5760405162461bcd60e51b81526004018080602001828103825260218152602001806113b76021913960400191505060405180910390fd5b9392505050565b6000610b2b83836040518060400160405280601e81526020017f536166654d6174683a207375627472616374696f6e206f766572666c6f770000815250611018565b600082820183811015610b2b576040805162461bcd60e51b815260206004820152601b60248201527f536166654d6174683a206164646974696f6e206f766572666c6f770000000000604482015290519081900360640190fd5b60006301e13380610c05427f000000000000000000000000000000000000000000000000000000000000000063ffffffff610b3216565b10905090565b610c13611116565b15610c4f5760405162461bcd60e51b81526004018080602001828103825260288152602001806112c86028913960400191505060405180910390fd5b565b6001600160a01b038316610c965760405162461bcd60e51b815260040180806020018281038252602481526020018061146a6024913960400191505060405180910390fd5b6001600160a01b038216610cdb5760405162461bcd60e51b81526004018080602001828103825260228152602001806112f06022913960400191505060405180910390fd5b6001600160a01b03808416600081815260016020908152604080832094871680845294825291829020859055815185815291517f8c5be1e5ebec7d5bd14f71427d1e84f3dd0314c0f7b2291e5b200ac8c7c3b9259281900390910190a3505050565b7f00000000000000000000000000000000000000000000000000000000000000006001600160a01b0316816001600160a01b03161415610dae5760405162461bcd60e51b81526004018080602001828103825260288152602001806112a06028913960400191505060405180910390fd5b50565b6001600160a01b03811615801590610dd257506001600160a01b0381163014155b610e0d5760405162461bcd60e51b815260040180806020018281038252605081526020018061148e6050913960600191505060405180910390fd5b7f00000000000000000000000000000000000000000000000000000000000000006001600160a01b0316816001600160a01b031614158015610e8157507f00000000000000000000000000000000000000000000000000000000000000006001600160a01b0316816001600160a01b031614155b610dae5760405162461bcd60e51b81526004018080602001828103825260518152602001806113386051913960600191505060405180910390fd5b6001600160a01b038316610f015760405162461bcd60e51b81526004018080602001828103825260258152602001806114006025913960400191505060405180910390fd5b6001600160a01b038216610f465760405162461bcd60e51b815260040180806020018281038252602381526020018061127d6023913960400191505060405180910390fd5b610f8981604051806060016040528060268152602001611312602691396001600160a01b038616600090815260208190526040902054919063ffffffff61101816565b6001600160a01b038085166000908152602081905260408082209390935590841681522054610fbe908263ffffffff610b7416565b6001600160a01b038084166000818152602081815260409182902094909455805185815290519193928716927fddf252ad1be2c89b69c2b068fc378daa952ba7f163c4a11628f55a4df523b3ef92918290030190a3505050565b600081848411156110a75760405162461bcd60e51b81526004018080602001828103825283818151815260200191508051906020019080838360005b8381101561106c578181015183820152602001611054565b50505050905090810190601f1680156110995780820380516001836020036101000a031916815260200191505b509250505060405180910390fd5b505050900390565b336001600160a01b037f00000000000000000000000000000000000000000000000000000000000000001614610c4f5760405162461bcd60e51b815260040180806020018281038252602e815260200180611389602e913960400191505060405180910390fd5b336001600160a01b037f0000000000000000000000000000000000000000000000000000000000000000161490565b7f00000000000000000000000000000000000000000000000000000000000000006001600160a01b031663bb7603f1826040518263ffffffff1660e01b815260040180826001600160a01b03166001600160a01b0316815260200191505060206040518083038186803b1580156111bb57600080fd5b505afa1580156111cf573d6000803e3d6000fd5b505050506040513d60208110156111e557600080fd5b5051610dae5760405162461bcd60e51b81526004018080602001828103825260458152602001806114256045913960600191505060405180910390fd5b4690565b6000838383611233611222565b6040805160208082019690965280820194909452606084019290925260808301523060a0808401919091528151808403909101815260c09092019052805191012094935050505056fe45524332303a207472616e7366657220746f20746865207a65726f20616464726573734d50546f6b656e3a2073656e646572206d757374206e6f7420626520746865206d756c74697369674d50546f6b656e3a2063616c6c6572206d757374206e6f7420626520746865206d756c746973696745524332303a20617070726f766520746f20746865207a65726f206164647265737345524332303a207472616e7366657220616d6f756e7420657863656564732062616c616e63654d503a2043616e6e6f74207472616e7366657220746f6b656e73206469726563746c7920746f2074686520636f6d6d756e6974792069737375616e6365206f72207374616b696e6720636f6e74726163744d50546f6b656e3a2063616c6c6572206d75737420626520746865204d505374616b696e6720636f6e7472616374536166654d6174683a206d756c7469706c69636174696f6e206f766572666c6f7745524332303a207472616e7366657220616d6f756e74206578636565647320616c6c6f77616e636545524332303a207472616e736665722066726f6d20746865207a65726f20616464726573734d50546f6b656e3a20726563697069656e74206d7573742062652061204c6f636b7570436f6e7472616374207265676973746572656420696e2074686520466163746f727945524332303a20617070726f76652066726f6d20746865207a65726f20616464726573734d503a2043616e6e6f74207472616e7366657220746f6b656e73206469726563746c7920746f20746865204d5020746f6b656e20636f6e7472616374206f7220746865207a65726f206164647265737345524332303a2064656372656173656420616c6c6f77616e63652062656c6f77207a65726fa26469706673582212200b3e2d219cc66135cb9a0f8efd155a646c7bfc8bb88540a233d6864bee404b9764736f6c634300060b0033536166654d6174683a206d756c7469706c69636174696f6e206f766572666c6f77",
  "linkReferences": {},
  "deployedLinkReferences": {}
}