{
  "_format": "hh-sol-artifact-1",
  "contractName": "PriceFeedTester",
  "sourceName": "contracts/TestContracts/PriceFeedTester.sol",
  "abi": [
    {
      "anonymous": false,
      "inputs": [
        {
          "indexed": false,
          "internalType": "uint256",
          "name": "_lastGoodPrice",
          "type": "uint256"
        }
      ],
      "name": "LastGoodPriceUpdated",
      "type": "event"
    },
    {
      "anonymous": false,
      "inputs": [
        {
          "indexed": true,
          "internalType": "address",
          "name": "previousOwner",
          "type": "address"
        },
        {
          "indexed": true,
          "internalType": "address",
          "name": "newOwner",
          "type": "address"
        }
      ],
      "name": "OwnershipTransferred",
      "type": "event"
    },
    {
      "anonymous": false,
      "inputs": [
        {
          "indexed": false,
          "internalType": "uint8",
          "name": "index",
          "type": "uint8"
        },
        {
          "indexed": false,
          "internalType": "address",
          "name": "priceFeedAddress",
          "type": "address"
        }
      ],
      "name": "PriceFeedBroken",
      "type": "event"
    },
    {
      "anonymous": false,
      "inputs": [
        {
          "indexed": false,
          "internalType": "uint8",
          "name": "index",
          "type": "uint8"
        },
        {
          "indexed": false,
          "internalType": "address",
          "name": "newPriceFeedAddress",
          "type": "address"
        }
      ],
      "name": "PriceFeedUpdated",
      "type": "event"
    },
    {
      "inputs": [],
      "name": "NAME",
      "outputs": [
        {
          "internalType": "string",
          "name": "",
          "type": "string"
        }
      ],
      "stateMutability": "view",
      "type": "function"
    },
    {
      "inputs": [],
      "name": "fetchPrice",
      "outputs": [
        {
          "internalType": "uint256",
          "name": "",
          "type": "uint256"
        }
      ],
      "stateMutability": "nonpayable",
      "type": "function"
    },
    {
      "inputs": [],
      "name": "isOwner",
      "outputs": [
        {
          "internalType": "bool",
          "name": "",
          "type": "bool"
        }
      ],
      "stateMutability": "view",
      "type": "function"
    },
    {
      "inputs": [],
      "name": "lastGoodPrice",
      "outputs": [
        {
          "internalType": "uint256",
          "name": "",
          "type": "uint256"
        }
      ],
      "stateMutability": "view",
      "type": "function"
    },
    {
      "inputs": [],
      "name": "owner",
      "outputs": [
        {
          "internalType": "address",
          "name": "",
          "type": "address"
        }
      ],
      "stateMutability": "view",
      "type": "function"
    },
    {
      "inputs": [
        {
          "internalType": "address[]",
          "name": "priceFeedAddresses",
          "type": "address[]"
        }
      ],
      "name": "setAddresses",
      "outputs": [],
      "stateMutability": "nonpayable",
      "type": "function"
    }
  ],
  "bytecode": "0x608060405234801561001057600080fd5b50600080546001600160a01b0319163390811782556040519091907f8be0079c531659141344cd1fd0a4f28419497f9722a3daafe3b4186f6b6457e0908290a36107578061005f6000396000f3fe608060405234801561001057600080fd5b50600436106100625760003560e01c80630490be83146100675780630fdb11cf146100815780638da5cb5b146100895780638f32d59b146100ad578063a3f4df7e146100c9578063b957172114610146575b600080fd5b61006f6101eb565b60408051918252519081900360200190f35b61006f6101f1565b610091610340565b604080516001600160a01b039092168252519081900360200190f35b6100b561034f565b604080519115158252519081900360200190f35b6100d1610360565b6040805160208082528351818301528351919283929083019185019080838360005b8381101561010b5781810151838201526020016100f3565b50505050905090810190601f1680156101385780820380516001836020036101000a031916815260200191505b509250505060405180910390f35b6101e96004803603602081101561015c57600080fd5b81019060208101813564010000000081111561017757600080fd5b82018360208201111561018957600080fd5b803590602001918460208302840111640100000000831117156101ab57600080fd5b919080806020026020016040519081016040528093929190818152602001838360200280828437600092019190915250929550610385945050505050565b005b60035481565b6000805b60028160ff1610156103375760008060018360ff166002811061021457fe5b0154604080516350d25bcd60e01b815281516001600160a01b03909316926350d25bcd92600480840193919291829003018186803b15801561025557600080fd5b505afa158015610269573d6000803e3d6000fd5b505050506040513d604081101561027f57600080fd5b508051602090910151909250905080156102d55760038290556040805183815290517f4d29de21de555af78a62fc82dd4bc05e9ae5b0660a37f04729527e0f22780cd39181900360200190a150915061033d9050565b7f19f3630adb38b0aca2b2ad2b9db00888aef6e2b79bbf683a6c4992500998ea708360018560ff166002811061030757fe5b01546040805160ff90931683526001600160a01b0390911660208301528051918290030190a150506001016101f5565b50506003545b90565b6000546001600160a01b031690565b6000546001600160a01b0316331490565b60405180604001604052806009815260200168141c9a58d95199595960ba1b81525081565b61038d61034f565b6103de576040805162461bcd60e51b815260206004820181905260248201527f4f776e61626c653a2063616c6c6572206973206e6f7420746865206f776e6572604482015290519081900360640190fd5b600281511461041e5760405162461bcd60e51b81526004018080602001828103825260218152602001806107016021913960400191505060405180910390fd5b60005b81518160ff16101561049457600061044f82848460ff168151811061044257fe5b60200260200101516104a0565b60038190556040805182815290519192507f4d29de21de555af78a62fc82dd4bc05e9ae5b0660a37f04729527e0f22780cd3919081900360200190a150600101610421565b5061049d610603565b50565b60006104ab8261064d565b8160018460ff16600281106104bc57fe5b0180546001600160a01b0319166001600160a01b0392909216919091179055600080600160ff8616600281106104ee57fe5b0154604080516350d25bcd60e01b815281516001600160a01b03909316926350d25bcd92600480840193919291829003018186803b15801561052f57600080fd5b505afa158015610543573d6000803e3d6000fd5b505050506040513d604081101561055957600080fd5b5080516020909101519092509050806105b5576040805162461bcd60e51b815260206004820152601960248201527850726963652066656564206973206e6f7420776f726b696e6760381b604482015290519081900360640190fd5b6040805160ff871681526001600160a01b038616602082015281517f97f7578becfa7a6013824d8ab1174e8c0522d468cd75e7a7e7fc4bde27338442929181900390910190a1509392505050565b600080546040516001600160a01b03909116907f8be0079c531659141344cd1fd0a4f28419497f9722a3daafe3b4186f6b6457e0908390a3600080546001600160a01b0319169055565b6001600160a01b0381166106a8576040805162461bcd60e51b815260206004820152601e60248201527f4163636f756e742063616e6e6f74206265207a65726f20616464726573730000604482015290519081900360640190fd5b803b806106fc576040805162461bcd60e51b815260206004820181905260248201527f4163636f756e7420636f64652073697a652063616e6e6f74206265207a65726f604482015290519081900360640190fd5b505056fe507269636546656564206d75737420686176652032207072696365206665656473a264697066735822122006268b0c79273ce685f19ca4d06e9d32c0fc2fb26ed0b17e3dfb8f1820d54cef64736f6c634300060b0033",
  "linkReferences": {},
  "deployedLinkReferences": {}
}