{
  "_format": "hh-sol-artifact-1",
  "contractName": "RSKExternalPriceFeed",
  "sourceName": "contracts/Dependencies/RSKExternalPriceFeed.sol",
  "abi": [
    {
      "anonymous": false,
      "inputs": [
        {
          "indexed": true,
          "internalType": "address",
          "name": "previousOwner",
          "type": "address"
        },
        {
          "indexed": true,
          "internalType": "address",
          "name": "newOwner",
          "type": "address"
        }
      ],
      "name": "OwnershipTransferred",
      "type": "event"
    },
    {
      "inputs": [],
      "name": "NAME",
      "outputs": [
        {
          "internalType": "string",
          "name": "",
          "type": "string"
        }
      ],
      "stateMutability": "view",
      "type": "function"
    },
    {
      "inputs": [],
      "name": "isOwner",
      "outputs": [
        {
          "internalType": "bool",
          "name": "",
          "type": "bool"
        }
      ],
      "stateMutability": "view",
      "type": "function"
    },
    {
      "inputs": [],
      "name": "lastGoodPrice",
      "outputs": [
        {
          "internalType": "uint256",
          "name": "",
          "type": "uint256"
        }
      ],
      "stateMutability": "view",
      "type": "function"
    },
    {
      "inputs": [],
      "name": "latestAnswer",
      "outputs": [
        {
          "internalType": "uint256",
          "name": "",
          "type": "uint256"
        },
        {
          "internalType": "bool",
          "name": "",
          "type": "bool"
        }
      ],
      "stateMutability": "view",
      "type": "function"
    },
    {
      "inputs": [],
      "name": "owner",
      "outputs": [
        {
          "internalType": "address",
          "name": "",
          "type": "address"
        }
      ],
      "stateMutability": "view",
      "type": "function"
    },
    {
      "inputs": [
        {
          "internalType": "address",
          "name": "_rskOracleAddress",
          "type": "address"
        }
      ],
      "name": "setAddress",
      "outputs": [],
      "stateMutability": "nonpayable",
      "type": "function"
    }
  ],
  "bytecode": "0x608060405234801561001057600080fd5b50600080546001600160a01b0319163390811782556040519091907f8be0079c531659141344cd1fd0a4f28419497f9722a3daafe3b4186f6b6457e0908290a36104218061005f6000396000f3fe608060405234801561001057600080fd5b50600436106100625760003560e01c80630490be831461006757806350d25bcd146100815780638da5cb5b146100a25780638f32d59b146100c6578063a3f4df7e146100e2578063e30081a01461015f575b600080fd5b61006f610187565b60408051918252519081900360200190f35b61008961018d565b6040805192835290151560208301528051918290030190f35b6100aa610216565b604080516001600160a01b039092168252519081900360200190f35b6100ce610225565b604080519115158252519081900360200190f35b6100ea610236565b6040805160208082528351818301528351919283929083019185019080838360005b8381101561012457818101518382015260200161010c565b50505050905090810190601f1680156101515780820380516001836020036101000a031916815260200191505b509250505060405180910390f35b6101856004803603602081101561017557600080fd5b50356001600160a01b0316610266565b005b60025481565b6000806000600160009054906101000a90046001600160a01b03166001600160a01b03166338b4e3386040518163ffffffff1660e01b8152600401604080518083038186803b1580156101df57600080fd5b505afa1580156101f3573d6000803e3d6000fd5b505050506040513d604081101561020957600080fd5b5051925050508015159091565b6000546001600160a01b031690565b6000546001600160a01b0316331490565b604051806040016040528060148152602001731494d2d15e1d195c9b985b141c9a58d95199595960621b81525081565b61026e610225565b6102bf576040805162461bcd60e51b815260206004820181905260248201527f4f776e61626c653a2063616c6c6572206973206e6f7420746865206f776e6572604482015290519081900360640190fd5b6102c8816102ee565b600180546001600160a01b0319166001600160a01b0383161790556102eb6103a1565b50565b6001600160a01b038116610349576040805162461bcd60e51b815260206004820152601e60248201527f4163636f756e742063616e6e6f74206265207a65726f20616464726573730000604482015290519081900360640190fd5b803b8061039d576040805162461bcd60e51b815260206004820181905260248201527f4163636f756e7420636f64652073697a652063616e6e6f74206265207a65726f604482015290519081900360640190fd5b5050565b600080546040516001600160a01b03909116907f8be0079c531659141344cd1fd0a4f28419497f9722a3daafe3b4186f6b6457e0908390a3600080546001600160a01b031916905556fea264697066735822122046eeff09f956caef6718538ff007a296f97cb6d51143481eb7e4c08df4a11db664736f6c634300060b0033",
  "linkReferences": {},
  "deployedLinkReferences": {}
}