{
  "_format": "hh-sol-artifact-1",
  "contractName": "RskSwapPool",
  "sourceName": "contracts/LPRewards/RskSwapPool.sol",
  "abi": [
    {
      "anonymous": false,
      "inputs": [
        {
          "indexed": false,
          "internalType": "address",
          "name": "_mpTokenAddress",
          "type": "address"
        }
      ],
      "name": "MPTokenAddressChanged",
      "type": "event"
    },
    {
      "anonymous": false,
      "inputs": [
        {
          "indexed": true,
          "internalType": "address",
          "name": "previousOwner",
          "type": "address"
        },
        {
          "indexed": true,
          "internalType": "address",
          "name": "newOwner",
          "type": "address"
        }
      ],
      "name": "OwnershipTransferred",
      "type": "event"
    },
    {
      "anonymous": false,
      "inputs": [
        {
          "indexed": false,
          "internalType": "uint256",
          "name": "reward",
          "type": "uint256"
        }
      ],
      "name": "RewardAdded",
      "type": "event"
    },
    {
      "anonymous": false,
      "inputs": [
        {
          "indexed": true,
          "internalType": "address",
          "name": "user",
          "type": "address"
        },
        {
          "indexed": false,
          "internalType": "uint256",
          "name": "reward",
          "type": "uint256"
        }
      ],
      "name": "RewardPaid",
      "type": "event"
    },
    {
      "anonymous": false,
      "inputs": [
        {
          "indexed": false,
          "internalType": "address",
          "name": "_rskSwapTokenAddress",
          "type": "address"
        }
      ],
      "name": "RskSwapTokenAddressChanged",
      "type": "event"
    },
    {
      "anonymous": false,
      "inputs": [
        {
          "indexed": true,
          "internalType": "address",
          "name": "user",
          "type": "address"
        },
        {
          "indexed": false,
          "internalType": "uint256",
          "name": "amount",
          "type": "uint256"
        }
      ],
      "name": "Staked",
      "type": "event"
    },
    {
      "anonymous": false,
      "inputs": [
        {
          "indexed": true,
          "internalType": "address",
          "name": "user",
          "type": "address"
        },
        {
          "indexed": false,
          "internalType": "uint256",
          "name": "amount",
          "type": "uint256"
        }
      ],
      "name": "Withdrawn",
      "type": "event"
    },
    {
      "inputs": [],
      "name": "NAME",
      "outputs": [
        {
          "internalType": "string",
          "name": "",
          "type": "string"
        }
      ],
      "stateMutability": "view",
      "type": "function"
    },
    {
      "inputs": [
        {
          "internalType": "address",
          "name": "account",
          "type": "address"
        }
      ],
      "name": "balanceOf",
      "outputs": [
        {
          "internalType": "uint256",
          "name": "",
          "type": "uint256"
        }
      ],
      "stateMutability": "view",
      "type": "function"
    },
    {
      "inputs": [],
      "name": "claimReward",
      "outputs": [],
      "stateMutability": "nonpayable",
      "type": "function"
    },
    {
      "inputs": [],
      "name": "duration",
      "outputs": [
        {
          "internalType": "uint256",
          "name": "",
          "type": "uint256"
        }
      ],
      "stateMutability": "view",
      "type": "function"
    },
    {
      "inputs": [
        {
          "internalType": "address",
          "name": "account",
          "type": "address"
        }
      ],
      "name": "earned",
      "outputs": [
        {
          "internalType": "uint256",
          "name": "",
          "type": "uint256"
        }
      ],
      "stateMutability": "view",
      "type": "function"
    },
    {
      "inputs": [],
      "name": "isOwner",
      "outputs": [
        {
          "internalType": "bool",
          "name": "",
          "type": "bool"
        }
      ],
      "stateMutability": "view",
      "type": "function"
    },
    {
      "inputs": [],
      "name": "lastTimeRewardApplicable",
      "outputs": [
        {
          "internalType": "uint256",
          "name": "",
          "type": "uint256"
        }
      ],
      "stateMutability": "view",
      "type": "function"
    },
    {
      "inputs": [],
      "name": "lastUpdateTime",
      "outputs": [
        {
          "internalType": "uint256",
          "name": "",
          "type": "uint256"
        }
      ],
      "stateMutability": "view",
      "type": "function"
    },
    {
      "inputs": [],
      "name": "mpToken",
      "outputs": [
        {
          "internalType": "contract IMPToken",
          "name": "",
          "type": "address"
        }
      ],
      "stateMutability": "view",
      "type": "function"
    },
    {
      "inputs": [],
      "name": "owner",
      "outputs": [
        {
          "internalType": "address",
          "name": "",
          "type": "address"
        }
      ],
      "stateMutability": "view",
      "type": "function"
    },
    {
      "inputs": [],
      "name": "periodFinish",
      "outputs": [
        {
          "internalType": "uint256",
          "name": "",
          "type": "uint256"
        }
      ],
      "stateMutability": "view",
      "type": "function"
    },
    {
      "inputs": [],
      "name": "rewardPerToken",
      "outputs": [
        {
          "internalType": "uint256",
          "name": "",
          "type": "uint256"
        }
      ],
      "stateMutability": "view",
      "type": "function"
    },
    {
      "inputs": [],
      "name": "rewardPerTokenStored",
      "outputs": [
        {
          "internalType": "uint256",
          "name": "",
          "type": "uint256"
        }
      ],
      "stateMutability": "view",
      "type": "function"
    },
    {
      "inputs": [],
      "name": "rewardRate",
      "outputs": [
        {
          "internalType": "uint256",
          "name": "",
          "type": "uint256"
        }
      ],
      "stateMutability": "view",
      "type": "function"
    },
    {
      "inputs": [
        {
          "internalType": "address",
          "name": "",
          "type": "address"
        }
      ],
      "name": "rewards",
      "outputs": [
        {
          "internalType": "uint256",
          "name": "",
          "type": "uint256"
        }
      ],
      "stateMutability": "view",
      "type": "function"
    },
    {
      "inputs": [],
      "name": "rskSwapToken",
      "outputs": [
        {
          "internalType": "contract IERC20",
          "name": "",
          "type": "address"
        }
      ],
      "stateMutability": "view",
      "type": "function"
    },
    {
      "inputs": [
        {
          "internalType": "address",
          "name": "_mpTokenAddress",
          "type": "address"
        },
        {
          "internalType": "address",
          "name": "_rskSwapTokenAddress",
          "type": "address"
        },
        {
          "internalType": "uint256",
          "name": "_duration",
          "type": "uint256"
        }
      ],
      "name": "setParams",
      "outputs": [],
      "stateMutability": "nonpayable",
      "type": "function"
    },
    {
      "inputs": [
        {
          "internalType": "uint256",
          "name": "amount",
          "type": "uint256"
        }
      ],
      "name": "stake",
      "outputs": [],
      "stateMutability": "nonpayable",
      "type": "function"
    },
    {
      "inputs": [],
      "name": "totalSupply",
      "outputs": [
        {
          "internalType": "uint256",
          "name": "",
          "type": "uint256"
        }
      ],
      "stateMutability": "view",
      "type": "function"
    },
    {
      "inputs": [
        {
          "internalType": "address",
          "name": "",
          "type": "address"
        }
      ],
      "name": "userRewardPerTokenPaid",
      "outputs": [
        {
          "internalType": "uint256",
          "name": "",
          "type": "uint256"
        }
      ],
      "stateMutability": "view",
      "type": "function"
    },
    {
      "inputs": [
        {
          "internalType": "uint256",
          "name": "amount",
          "type": "uint256"
        }
      ],
      "name": "withdraw",
      "outputs": [],
      "stateMutability": "nonpayable",
      "type": "function"
    },
    {
      "inputs": [],
      "name": "withdrawAndClaim",
      "outputs": [],
      "stateMutability": "nonpayable",
      "type": "function"
    }
  ],
  "bytecode": "0x60806040526000600655600060075534801561001a57600080fd5b50600380546001600160a01b031916339081179091556040516000907f8be0079c531659141344cd1fd0a4f28419497f9722a3daafe3b4186f6b6457e0908290a36113e38061006a6000396000f3fe608060405234801561001057600080fd5b50600436106101415760003560e01c80638da5cb5b116100b8578063c7c751b01161007c578063c7c751b01461034f578063c8f33c9114610357578063cd3daf9d1461035f578063d443772414610367578063df136d651461036f578063ebe2b12b1461037757610141565b80638da5cb5b146102895780638f32d59b14610291578063a3f4df7e146102ad578063a694fc3a1461032a578063b88a802f1461034757610141565b8063509db2f61161010a578063509db2f6146101d35780635b2048fe1461020957806370a082311461022d5780637b0a47ee1461025357806380faa57d1461025b5780638b8763471461026357610141565b80628cc262146101465780630700037d1461017e5780630fb5a6b4146101a457806318160ddd146101ac5780632e1a7d4d146101b4575b600080fd5b61016c6004803603602081101561015c57600080fd5b50356001600160a01b031661037f565b60408051918252519081900360200190f35b61016c6004803603602081101561019457600080fd5b50356001600160a01b0316610405565b61016c610417565b61016c61041d565b6101d1600480360360208110156101ca57600080fd5b5035610424565b005b6101d1600480360360608110156101e957600080fd5b506001600160a01b038135811691602081013590911690604001356104ff565b610211610692565b604080516001600160a01b039092168252519081900360200190f35b61016c6004803603602081101561024357600080fd5b50356001600160a01b03166106a1565b61016c6106bc565b61016c6106c2565b61016c6004803603602081101561027957600080fd5b50356001600160a01b03166106d5565b6102116106e7565b6102996106f6565b604080519115158252519081900360200190f35b6102b5610707565b6040805160208082528351818301528351919283929083019185019080838360005b838110156102ef5781810151838201526020016102d7565b50505050905090810190601f16801561031c5780820380516001836020036101000a031916815260200191505b509250505060405180910390f35b6101d16004803603602081101561034057600080fd5b503561072e565b6101d161080e565b610211610985565b61016c610994565b61016c61099a565b6101d16109ee565b61016c610a09565b61016c610a0f565b6001600160a01b0381166000908152600b6020908152604080832054600a9092528220546103ff91906103f390670de0b6b3a7640000906103e7906103d2906103c661099a565b9063ffffffff610a1516565b6103db886106a1565b9063ffffffff610a5e16565b9063ffffffff610ab716565b9063ffffffff610af916565b92915050565b600b6020526000908152604090205481565b60045481565b6001545b90565b6000811161046d576040805162461bcd60e51b8152602060048201526011602482015270043616e6e6f74207769746864726177203607c1b604482015290519081900360640190fd5b6000546001600160a01b03166104b45760405162461bcd60e51b81526004018080602001828103825260298152602001806113146029913960400191505060405180910390fd5b6104bd33610b53565b6104c681610ba2565b60408051828152905133917f7084f5476618d8e60b11ef0d7d3f06914655adb8793e28ff7f018d4c76d505d5919081900360200190a250565b6105076106f6565b610558576040805162461bcd60e51b815260206004820181905260248201527f4f776e61626c653a2063616c6c6572206973206e6f7420746865206f776e6572604482015290519081900360640190fd5b61056183610c06565b61056a82610c06565b600080546001600160a01b038085166001600160a01b0319928316179092556005805486841692169190911790819055600483815560408051630974f55960e41b8152905161060d94939093169263974f559092828101926020929190829003018186803b1580156105db57600080fd5b505afa1580156105ef573d6000803e3d6000fd5b505050506040513d602081101561060557600080fd5b505182610cb9565b604080516001600160a01b038516815290517ff2a19986125782837c7e63f4dbed68ecfe2c4238efb5fa9509ac0a429598b2ce9181900360200190a1604080516001600160a01b038416815290517fa3d5582e773961eb86dcf7c04bc1b021a2db2c9d23904fc80fc578131d3f79109181900360200190a161068d610db7565b505050565b6005546001600160a01b031681565b6001600160a01b031660009081526002602052604090205490565b60075481565b60006106d042600654610e01565b905090565b600a6020526000908152604090205481565b6003546001600160a01b031690565b6003546001600160a01b0316331490565b6040518060400160405280600b81526020016a149cdad4ddd85c141bdbdb60aa1b81525081565b60008111610774576040805162461bcd60e51b815260206004820152600e60248201526d043616e6e6f74207374616b6520360941b604482015290519081900360640190fd5b6000546001600160a01b03166107bb5760405162461bcd60e51b81526004018080602001828103825260298152602001806113146029913960400191505060405180910390fd5b6107c3610e17565b6107cc33610b53565b6107d581610e5b565b60408051828152905133917f9e71bc8eea02a63969f509818f2dafb9254532904319f9dbda79b67bd34a5f3d919081900360200190a250565b6000546001600160a01b03166108555760405162461bcd60e51b81526004018080602001828103825260298152602001806113146029913960400191505060405180910390fd5b61085d610e17565b61086633610b53565b60006108713361037f565b9050600081116108bb576040805162461bcd60e51b815260206004820152601060248201526f4e6f7468696e6720746f20636c61696d60801b604482015290519081900360640190fd5b336000818152600b60209081526040808320839055600554815163a9059cbb60e01b815260048101959095526024850186905290516001600160a01b039091169363a9059cbb9360448083019493928390030190829087803b15801561092057600080fd5b505af1158015610934573d6000803e3d6000fd5b505050506040513d602081101561094a57600080fd5b505060408051828152905133917fe2403640ba68fed3a2f88b7557551d1993f84b99bb10ff833f0cf8db0c5e0486919081900360200190a250565b6000546001600160a01b031681565b60085481565b60006109a461041d565b6109b15750600954610421565b6106d06109df6109bf61041d565b6103e7670de0b6b3a76400006103db6007546103db6008546103c66106c2565b6009549063ffffffff610af916565b6109ff6109fa336106a1565b610424565b610a0761080e565b565b60095481565b60065481565b6000610a5783836040518060400160405280601e81526020017f536166654d6174683a207375627472616374696f6e206f766572666c6f770000815250610ebd565b9392505050565b600082610a6d575060006103ff565b82820282848281610a7a57fe5b0414610a575760405162461bcd60e51b81526004018080602001828103825260218152602001806113636021913960400191505060405180910390fd5b6000610a5783836040518060400160405280601a81526020017f536166654d6174683a206469766973696f6e206279207a65726f000000000000815250610f54565b600082820183811015610a57576040805162461bcd60e51b815260206004820152601b60248201527f536166654d6174683a206164646974696f6e206f766572666c6f770000000000604482015290519081900360640190fd5b610b5b610fb9565b6001600160a01b038116610b6b57fe5b610b748161037f565b6001600160a01b039091166000908152600b6020908152604080832093909355600954600a90915291902055565b600154610bb5908263ffffffff610a1516565b60015533600090815260026020526040902054610bd8908263ffffffff610a1516565b336000818152600260205260408120929092559054610c03916001600160a01b039091169083610fd1565b50565b6001600160a01b038116610c61576040805162461bcd60e51b815260206004820152601e60248201527f4163636f756e742063616e6e6f74206265207a65726f20616464726573730000604482015290519081900360640190fd5b803b80610cb5576040805162461bcd60e51b815260206004820181905260248201527f4163636f756e7420636f64652073697a652063616e6e6f74206265207a65726f604482015290519081900360640190fd5b5050565b60008211610cc357fe5b600554604080516370a0823160e01b815230600482015290516001600160a01b03909216916370a0823191602480820192602092909190829003018186803b158015610d0e57600080fd5b505afa158015610d22573d6000803e3d6000fd5b505050506040513d6020811015610d3857600080fd5b50518214610d4257fe5b60065415610d4c57fe5b610d54610fb9565b610d64828263ffffffff610ab716565b600755426008819055610d7d908263ffffffff610af916565b6006556040805183815290517fde88a922e0d3b88b24e9623efeb464919c6bf9f66857a65e2bfcf2ce87a9433d9181900360200190a15050565b6003546040516000916001600160a01b0316907f8be0079c531659141344cd1fd0a4f28419497f9722a3daafe3b4186f6b6457e0908390a3600380546001600160a01b0319169055565b6000818310610e105781610a57565b5090919050565b610e1f61041d565b610a0757600060065411610e2f57fe5b610e56610e4760085442610a1590919063ffffffff16565b6006549063ffffffff610af916565b600655565b600154610e6e908263ffffffff610af916565b60015533600090815260026020526040902054610e91908263ffffffff610af916565b336000818152600260205260408120929092559054610c03916001600160a01b03909116903084611023565b60008184841115610f4c5760405162461bcd60e51b81526004018080602001828103825283818151815260200191508051906020019080838360005b83811015610f11578181015183820152602001610ef9565b50505050905090810190601f168015610f3e5780820380516001836020036101000a031916815260200191505b509250505060405180910390fd5b505050900390565b60008183610fa35760405162461bcd60e51b8152602060048201818152835160248401528351909283926044909101919085019080838360008315610f11578181015183820152602001610ef9565b506000838581610faf57fe5b0495945050505050565b610fc161099a565b600955610fcc6106c2565b600855565b604080516001600160a01b038416602482015260448082018490528251808303909101815260649091019091526020810180516001600160e01b031663a9059cbb60e01b17905261068d908490611083565b604080516001600160a01b0380861660248301528416604482015260648082018490528251808303909101815260849091019091526020810180516001600160e01b03166323b872dd60e01b17905261107d908590611083565b50505050565b60606110d8826040518060400160405280602081526020017f5361666545524332303a206c6f772d6c6576656c2063616c6c206661696c6564815250856001600160a01b03166111349092919063ffffffff16565b80519091501561068d578080602001905160208110156110f757600080fd5b505161068d5760405162461bcd60e51b815260040180806020018281038252602a815260200180611384602a913960400191505060405180910390fd5b6060611143848460008561114b565b949350505050565b60608247101561118c5760405162461bcd60e51b815260040180806020018281038252602681526020018061133d6026913960400191505060405180910390fd5b611195856112a7565b6111e6576040805162461bcd60e51b815260206004820152601d60248201527f416464726573733a2063616c6c20746f206e6f6e2d636f6e7472616374000000604482015290519081900360640190fd5b60006060866001600160a01b031685876040518082805190602001908083835b602083106112255780518252601f199092019160209182019101611206565b6001836020036101000a03801982511681845116808217855250505050505090500191505060006040518083038185875af1925050503d8060008114611287576040519150601f19603f3d011682016040523d82523d6000602084013e61128c565b606091505b509150915061129c8282866112ad565b979650505050505050565b3b151590565b606083156112bc575081610a57565b8251156112cc5782518084602001fd5b60405162461bcd60e51b8152602060048201818152845160248401528451859391928392604401919085019080838360008315610f11578181015183820152602001610ef956fe4c697175696469747920506f6f6c20546f6b656e20686173206e6f74206265656e2073657420796574416464726573733a20696e73756666696369656e742062616c616e636520666f722063616c6c536166654d6174683a206d756c7469706c69636174696f6e206f766572666c6f775361666545524332303a204552433230206f7065726174696f6e20646964206e6f742073756363656564a2646970667358221220bb30894666b8725ac272fa22dd8b07c59702fed1edaea1fbfb5561d4d8ec716d64736f6c634300060b0033",
  "linkReferences": {},
  "deployedLinkReferences": {}
}