{
  "_format": "hh-sol-artifact-1",
  "contractName": "SortedVaultsTester",
  "sourceName": "contracts/TestContracts/SortedVaultsTester.sol",
  "abi": [
    {
      "inputs": [
        {
          "internalType": "address",
          "name": "",
          "type": "address"
        },
        {
          "internalType": "uint256",
          "name": "",
          "type": "uint256"
        }
      ],
      "name": "getCurrentICR",
      "outputs": [
        {
          "internalType": "uint256",
          "name": "",
          "type": "uint256"
        }
      ],
      "stateMutability": "pure",
      "type": "function"
    },
    {
      "inputs": [
        {
          "internalType": "address",
          "name": "",
          "type": "address"
        }
      ],
      "name": "getNominalICR",
      "outputs": [
        {
          "internalType": "uint256",
          "name": "",
          "type": "uint256"
        }
      ],
      "stateMutability": "pure",
      "type": "function"
    },
    {
      "inputs": [
        {
          "internalType": "address",
          "name": "_id",
          "type": "address"
        },
        {
          "internalType": "uint256",
          "name": "_NICR",
          "type": "uint256"
        },
        {
          "internalType": "address",
          "name": "_prevId",
          "type": "address"
        },
        {
          "internalType": "address",
          "name": "_nextId",
          "type": "address"
        }
      ],
      "name": "insert",
      "outputs": [],
      "stateMutability": "nonpayable",
      "type": "function"
    },
    {
      "inputs": [
        {
          "internalType": "address",
          "name": "_id",
          "type": "address"
        },
        {
          "internalType": "uint256",
          "name": "_newNICR",
          "type": "uint256"
        },
        {
          "internalType": "address",
          "name": "_prevId",
          "type": "address"
        },
        {
          "internalType": "address",
          "name": "_nextId",
          "type": "address"
        }
      ],
      "name": "reInsert",
      "outputs": [],
      "stateMutability": "nonpayable",
      "type": "function"
    },
    {
      "inputs": [
        {
          "internalType": "address",
          "name": "_id",
          "type": "address"
        }
      ],
      "name": "remove",
      "outputs": [],
      "stateMutability": "nonpayable",
      "type": "function"
    },
    {
      "inputs": [
        {
          "internalType": "address",
          "name": "_sortedVaultsAddress",
          "type": "address"
        }
      ],
      "name": "setSortedVaults",
      "outputs": [],
      "stateMutability": "nonpayable",
      "type": "function"
    }
  ],
  "bytecode": "0x608060405234801561001057600080fd5b5061033f806100206000396000f3fe608060405234801561001057600080fd5b50600436106100625760003560e01c806329092d0e146100675780632be212601461008f57806346f7cf87146100cb57806364ee285614610107578063b0d8e1811461012d578063d293c71014610165575b600080fd5b61008d6004803603602081101561007d57600080fd5b50356001600160a01b0316610191565b005b61008d600480360360808110156100a557600080fd5b506001600160a01b038135811691602081013591604082013581169160600135166101f7565b61008d600480360360808110156100e157600080fd5b506001600160a01b03813581169160208101359160408201358116916060013516610277565b61008d6004803603602081101561011d57600080fd5b50356001600160a01b03166102d9565b6101536004803603602081101561014357600080fd5b50356001600160a01b03166102fb565b60408051918252519081900360200190f35b6101536004803603604081101561017b57600080fd5b506001600160a01b038135169060200135610301565b6000805460408051631484968760e11b81526001600160a01b038581166004830152915191909216926329092d0e926024808201939182900301818387803b1580156101dc57600080fd5b505af11580156101f0573d6000803e3d6000fd5b5050505050565b600080546040805163015f109360e51b81526001600160a01b038881166004830152602482018890528681166044830152858116606483015291519190921692632be21260926084808201939182900301818387803b15801561025957600080fd5b505af115801561026d573d6000803e3d6000fd5b5050505050505050565b60008054604080516346f7cf8760e01b81526001600160a01b0388811660048301526024820188905286811660448301528581166064830152915191909216926346f7cf87926084808201939182900301818387803b15801561025957600080fd5b600080546001600160a01b0319166001600160a01b0392909216919091179055565b50600190565b60019291505056fea26469706673582212209697768a437efa38b3694dc5eb6b3aa9c21924ac5c9b9d67156e2b5e29aa3e4464736f6c634300060b0033",
  "linkReferences": {},
  "deployedLinkReferences": {}
}