{
  "_format": "hh-sol-artifact-1",
  "contractName": "StabilityPool",
  "sourceName": "contracts/StabilityPool.sol",
  "abi": [
    {
      "anonymous": false,
      "inputs": [
        {
          "indexed": false,
          "internalType": "address",
          "name": "_newActivePoolAddress",
          "type": "address"
        }
      ],
      "name": "ActivePoolAddressChanged",
      "type": "event"
    },
    {
      "anonymous": false,
      "inputs": [
        {
          "indexed": false,
          "internalType": "address",
          "name": "_newBPDTokenAddress",
          "type": "address"
        }
      ],
      "name": "BPDTokenAddressChanged",
      "type": "event"
    },
    {
      "anonymous": false,
      "inputs": [
        {
          "indexed": false,
          "internalType": "address",
          "name": "_to",
          "type": "address"
        },
        {
          "indexed": false,
          "internalType": "uint256",
          "name": "_amount",
          "type": "uint256"
        }
      ],
      "name": "BitcoinSent",
      "type": "event"
    },
    {
      "anonymous": false,
      "inputs": [
        {
          "indexed": false,
          "internalType": "address",
          "name": "_newBorrowerOperationsAddress",
          "type": "address"
        }
      ],
      "name": "BorrowerOperationsAddressChanged",
      "type": "event"
    },
    {
      "anonymous": false,
      "inputs": [
        {
          "indexed": false,
          "internalType": "address",
          "name": "_newCommunityIssuanceAddress",
          "type": "address"
        }
      ],
      "name": "CommunityIssuanceAddressChanged",
      "type": "event"
    },
    {
      "anonymous": false,
      "inputs": [
        {
          "indexed": false,
          "internalType": "address",
          "name": "_newDefaultPoolAddress",
          "type": "address"
        }
      ],
      "name": "DefaultPoolAddressChanged",
      "type": "event"
    },
    {
      "anonymous": false,
      "inputs": [
        {
          "indexed": true,
          "internalType": "address",
          "name": "_depositor",
          "type": "address"
        },
        {
          "indexed": false,
          "internalType": "uint256",
          "name": "_P",
          "type": "uint256"
        },
        {
          "indexed": false,
          "internalType": "uint256",
          "name": "_S",
          "type": "uint256"
        },
        {
          "indexed": false,
          "internalType": "uint256",
          "name": "_G",
          "type": "uint256"
        }
      ],
      "name": "DepositSnapshotUpdated",
      "type": "event"
    },
    {
      "anonymous": false,
      "inputs": [
        {
          "indexed": false,
          "internalType": "uint128",
          "name": "_currentEpoch",
          "type": "uint128"
        }
      ],
      "name": "EpochUpdated",
      "type": "event"
    },
    {
      "anonymous": false,
      "inputs": [
        {
          "indexed": true,
          "internalType": "address",
          "name": "_frontEnd",
          "type": "address"
        },
        {
          "indexed": false,
          "internalType": "uint256",
          "name": "_kickbackRate",
          "type": "uint256"
        }
      ],
      "name": "FrontEndRegistered",
      "type": "event"
    },
    {
      "anonymous": false,
      "inputs": [
        {
          "indexed": true,
          "internalType": "address",
          "name": "_frontEnd",
          "type": "address"
        },
        {
          "indexed": false,
          "internalType": "uint256",
          "name": "_P",
          "type": "uint256"
        },
        {
          "indexed": false,
          "internalType": "uint256",
          "name": "_G",
          "type": "uint256"
        }
      ],
      "name": "FrontEndSnapshotUpdated",
      "type": "event"
    },
    {
      "anonymous": false,
      "inputs": [
        {
          "indexed": true,
          "internalType": "address",
          "name": "_frontEnd",
          "type": "address"
        },
        {
          "indexed": false,
          "internalType": "uint256",
          "name": "_newFrontEndStake",
          "type": "uint256"
        },
        {
          "indexed": false,
          "internalType": "address",
          "name": "_depositor",
          "type": "address"
        }
      ],
      "name": "FrontEndStakeChanged",
      "type": "event"
    },
    {
      "anonymous": false,
      "inputs": [
        {
          "indexed": true,
          "internalType": "address",
          "name": "_depositor",
          "type": "address"
        },
        {
          "indexed": true,
          "internalType": "address",
          "name": "_frontEnd",
          "type": "address"
        }
      ],
      "name": "FrontEndTagSet",
      "type": "event"
    },
    {
      "anonymous": false,
      "inputs": [
        {
          "indexed": false,
          "internalType": "uint256",
          "name": "_G",
          "type": "uint256"
        },
        {
          "indexed": false,
          "internalType": "uint128",
          "name": "_epoch",
          "type": "uint128"
        },
        {
          "indexed": false,
          "internalType": "uint128",
          "name": "_scale",
          "type": "uint128"
        }
      ],
      "name": "G_Updated",
      "type": "event"
    },
    {
      "anonymous": false,
      "inputs": [
        {
          "indexed": true,
          "internalType": "address",
          "name": "_depositor",
          "type": "address"
        },
        {
          "indexed": false,
          "internalType": "uint256",
          "name": "_MP",
          "type": "uint256"
        }
      ],
      "name": "MPPaidToDepositor",
      "type": "event"
    },
    {
      "anonymous": false,
      "inputs": [
        {
          "indexed": true,
          "internalType": "address",
          "name": "_frontEnd",
          "type": "address"
        },
        {
          "indexed": false,
          "internalType": "uint256",
          "name": "_MP",
          "type": "uint256"
        }
      ],
      "name": "MPPaidToFrontEnd",
      "type": "event"
    },
    {
      "anonymous": false,
      "inputs": [
        {
          "indexed": true,
          "internalType": "address",
          "name": "previousOwner",
          "type": "address"
        },
        {
          "indexed": true,
          "internalType": "address",
          "name": "newOwner",
          "type": "address"
        }
      ],
      "name": "OwnershipTransferred",
      "type": "event"
    },
    {
      "anonymous": false,
      "inputs": [
        {
          "indexed": false,
          "internalType": "uint256",
          "name": "_P",
          "type": "uint256"
        }
      ],
      "name": "P_Updated",
      "type": "event"
    },
    {
      "anonymous": false,
      "inputs": [
        {
          "indexed": false,
          "internalType": "address",
          "name": "_newPriceFeedAddress",
          "type": "address"
        }
      ],
      "name": "PriceFeedAddressChanged",
      "type": "event"
    },
    {
      "anonymous": false,
      "inputs": [
        {
          "indexed": true,
          "internalType": "address",
          "name": "_depositor",
          "type": "address"
        },
        {
          "indexed": false,
          "internalType": "uint256",
          "name": "_RBTC",
          "type": "uint256"
        },
        {
          "indexed": false,
          "internalType": "uint256",
          "name": "_BPDLoss",
          "type": "uint256"
        }
      ],
      "name": "RBTCGainWithdrawn",
      "type": "event"
    },
    {
      "anonymous": false,
      "inputs": [
        {
          "indexed": false,
          "internalType": "uint256",
          "name": "_S",
          "type": "uint256"
        },
        {
          "indexed": false,
          "internalType": "uint128",
          "name": "_epoch",
          "type": "uint128"
        },
        {
          "indexed": false,
          "internalType": "uint128",
          "name": "_scale",
          "type": "uint128"
        }
      ],
      "name": "S_Updated",
      "type": "event"
    },
    {
      "anonymous": false,
      "inputs": [
        {
          "indexed": false,
          "internalType": "uint128",
          "name": "_currentScale",
          "type": "uint128"
        }
      ],
      "name": "ScaleUpdated",
      "type": "event"
    },
    {
      "anonymous": false,
      "inputs": [
        {
          "indexed": false,
          "internalType": "address",
          "name": "_newSortedVaultsAddress",
          "type": "address"
        }
      ],
      "name": "SortedVaultsAddressChanged",
      "type": "event"
    },
    {
      "anonymous": false,
      "inputs": [
        {
          "indexed": false,
          "internalType": "uint256",
          "name": "_newBalance",
          "type": "uint256"
        }
      ],
      "name": "StabilityPoolBPDBalanceUpdated",
      "type": "event"
    },
    {
      "anonymous": false,
      "inputs": [
        {
          "indexed": false,
          "internalType": "uint256",
          "name": "_newBalance",
          "type": "uint256"
        }
      ],
      "name": "StabilityPoolRBTCBalanceUpdated",
      "type": "event"
    },
    {
      "anonymous": false,
      "inputs": [
        {
          "indexed": true,
          "internalType": "address",
          "name": "_depositor",
          "type": "address"
        },
        {
          "indexed": false,
          "internalType": "uint256",
          "name": "_newDeposit",
          "type": "uint256"
        }
      ],
      "name": "UserDepositChanged",
      "type": "event"
    },
    {
      "anonymous": false,
      "inputs": [
        {
          "indexed": false,
          "internalType": "address",
          "name": "_newVaultManagerAddress",
          "type": "address"
        }
      ],
      "name": "VaultManagerAddressChanged",
      "type": "event"
    },
    {
      "inputs": [],
      "name": "BORROWING_FEE_FLOOR",
      "outputs": [
        {
          "internalType": "uint256",
          "name": "",
          "type": "uint256"
        }
      ],
      "stateMutability": "view",
      "type": "function"
    },
    {
      "inputs": [],
      "name": "BPD_GAS_COMPENSATION",
      "outputs": [
        {
          "internalType": "uint256",
          "name": "",
          "type": "uint256"
        }
      ],
      "stateMutability": "view",
      "type": "function"
    },
    {
      "inputs": [],
      "name": "CCR",
      "outputs": [
        {
          "internalType": "uint256",
          "name": "",
          "type": "uint256"
        }
      ],
      "stateMutability": "view",
      "type": "function"
    },
    {
      "inputs": [],
      "name": "DECIMAL_PRECISION",
      "outputs": [
        {
          "internalType": "uint256",
          "name": "",
          "type": "uint256"
        }
      ],
      "stateMutability": "view",
      "type": "function"
    },
    {
      "inputs": [],
      "name": "MCR",
      "outputs": [
        {
          "internalType": "uint256",
          "name": "",
          "type": "uint256"
        }
      ],
      "stateMutability": "view",
      "type": "function"
    },
    {
      "inputs": [],
      "name": "MIN_NET_DEBT",
      "outputs": [
        {
          "internalType": "uint256",
          "name": "",
          "type": "uint256"
        }
      ],
      "stateMutability": "view",
      "type": "function"
    },
    {
      "inputs": [],
      "name": "NAME",
      "outputs": [
        {
          "internalType": "string",
          "name": "",
          "type": "string"
        }
      ],
      "stateMutability": "view",
      "type": "function"
    },
    {
      "inputs": [],
      "name": "P",
      "outputs": [
        {
          "internalType": "uint256",
          "name": "",
          "type": "uint256"
        }
      ],
      "stateMutability": "view",
      "type": "function"
    },
    {
      "inputs": [],
      "name": "PERCENT_DIVISOR",
      "outputs": [
        {
          "internalType": "uint256",
          "name": "",
          "type": "uint256"
        }
      ],
      "stateMutability": "view",
      "type": "function"
    },
    {
      "inputs": [],
      "name": "SCALE_FACTOR",
      "outputs": [
        {
          "internalType": "uint256",
          "name": "",
          "type": "uint256"
        }
      ],
      "stateMutability": "view",
      "type": "function"
    },
    {
      "inputs": [],
      "name": "_100pct",
      "outputs": [
        {
          "internalType": "uint256",
          "name": "",
          "type": "uint256"
        }
      ],
      "stateMutability": "view",
      "type": "function"
    },
    {
      "inputs": [],
      "name": "activePool",
      "outputs": [
        {
          "internalType": "contract IActivePool",
          "name": "",
          "type": "address"
        }
      ],
      "stateMutability": "view",
      "type": "function"
    },
    {
      "inputs": [],
      "name": "borrowerOperations",
      "outputs": [
        {
          "internalType": "contract IBorrowerOperations",
          "name": "",
          "type": "address"
        }
      ],
      "stateMutability": "view",
      "type": "function"
    },
    {
      "inputs": [],
      "name": "bpdToken",
      "outputs": [
        {
          "internalType": "contract IBPDToken",
          "name": "",
          "type": "address"
        }
      ],
      "stateMutability": "view",
      "type": "function"
    },
    {
      "inputs": [],
      "name": "communityIssuance",
      "outputs": [
        {
          "internalType": "contract ICommunityIssuance",
          "name": "",
          "type": "address"
        }
      ],
      "stateMutability": "view",
      "type": "function"
    },
    {
      "inputs": [],
      "name": "currentEpoch",
      "outputs": [
        {
          "internalType": "uint128",
          "name": "",
          "type": "uint128"
        }
      ],
      "stateMutability": "view",
      "type": "function"
    },
    {
      "inputs": [],
      "name": "currentScale",
      "outputs": [
        {
          "internalType": "uint128",
          "name": "",
          "type": "uint128"
        }
      ],
      "stateMutability": "view",
      "type": "function"
    },
    {
      "inputs": [],
      "name": "defaultPool",
      "outputs": [
        {
          "internalType": "contract IDefaultPool",
          "name": "",
          "type": "address"
        }
      ],
      "stateMutability": "view",
      "type": "function"
    },
    {
      "inputs": [
        {
          "internalType": "address",
          "name": "",
          "type": "address"
        }
      ],
      "name": "depositSnapshots",
      "outputs": [
        {
          "internalType": "uint256",
          "name": "S",
          "type": "uint256"
        },
        {
          "internalType": "uint256",
          "name": "P",
          "type": "uint256"
        },
        {
          "internalType": "uint256",
          "name": "G",
          "type": "uint256"
        },
        {
          "internalType": "uint128",
          "name": "scale",
          "type": "uint128"
        },
        {
          "internalType": "uint128",
          "name": "epoch",
          "type": "uint128"
        }
      ],
      "stateMutability": "view",
      "type": "function"
    },
    {
      "inputs": [
        {
          "internalType": "address",
          "name": "",
          "type": "address"
        }
      ],
      "name": "deposits",
      "outputs": [
        {
          "internalType": "uint256",
          "name": "initialValue",
          "type": "uint256"
        },
        {
          "internalType": "address",
          "name": "frontEndTag",
          "type": "address"
        }
      ],
      "stateMutability": "view",
      "type": "function"
    },
    {
      "inputs": [
        {
          "internalType": "uint128",
          "name": "",
          "type": "uint128"
        },
        {
          "internalType": "uint128",
          "name": "",
          "type": "uint128"
        }
      ],
      "name": "epochToScaleToG",
      "outputs": [
        {
          "internalType": "uint256",
          "name": "",
          "type": "uint256"
        }
      ],
      "stateMutability": "view",
      "type": "function"
    },
    {
      "inputs": [
        {
          "internalType": "uint128",
          "name": "",
          "type": "uint128"
        },
        {
          "internalType": "uint128",
          "name": "",
          "type": "uint128"
        }
      ],
      "name": "epochToScaleToSum",
      "outputs": [
        {
          "internalType": "uint256",
          "name": "",
          "type": "uint256"
        }
      ],
      "stateMutability": "view",
      "type": "function"
    },
    {
      "inputs": [
        {
          "internalType": "address",
          "name": "",
          "type": "address"
        }
      ],
      "name": "frontEndSnapshots",
      "outputs": [
        {
          "internalType": "uint256",
          "name": "S",
          "type": "uint256"
        },
        {
          "internalType": "uint256",
          "name": "P",
          "type": "uint256"
        },
        {
          "internalType": "uint256",
          "name": "G",
          "type": "uint256"
        },
        {
          "internalType": "uint128",
          "name": "scale",
          "type": "uint128"
        },
        {
          "internalType": "uint128",
          "name": "epoch",
          "type": "uint128"
        }
      ],
      "stateMutability": "view",
      "type": "function"
    },
    {
      "inputs": [
        {
          "internalType": "address",
          "name": "",
          "type": "address"
        }
      ],
      "name": "frontEndStakes",
      "outputs": [
        {
          "internalType": "uint256",
          "name": "",
          "type": "uint256"
        }
      ],
      "stateMutability": "view",
      "type": "function"
    },
    {
      "inputs": [
        {
          "internalType": "address",
          "name": "",
          "type": "address"
        }
      ],
      "name": "frontEnds",
      "outputs": [
        {
          "internalType": "uint256",
          "name": "kickbackRate",
          "type": "uint256"
        },
        {
          "internalType": "bool",
          "name": "registered",
          "type": "bool"
        }
      ],
      "stateMutability": "view",
      "type": "function"
    },
    {
      "inputs": [
        {
          "internalType": "address",
          "name": "_depositor",
          "type": "address"
        }
      ],
      "name": "getCompoundedBPDDeposit",
      "outputs": [
        {
          "internalType": "uint256",
          "name": "",
          "type": "uint256"
        }
      ],
      "stateMutability": "view",
      "type": "function"
    },
    {
      "inputs": [
        {
          "internalType": "address",
          "name": "_frontEnd",
          "type": "address"
        }
      ],
      "name": "getCompoundedFrontEndStake",
      "outputs": [
        {
          "internalType": "uint256",
          "name": "",
          "type": "uint256"
        }
      ],
      "stateMutability": "view",
      "type": "function"
    },
    {
      "inputs": [
        {
          "internalType": "address",
          "name": "_depositor",
          "type": "address"
        }
      ],
      "name": "getDepositorMPGain",
      "outputs": [
        {
          "internalType": "uint256",
          "name": "",
          "type": "uint256"
        }
      ],
      "stateMutability": "view",
      "type": "function"
    },
    {
      "inputs": [
        {
          "internalType": "address",
          "name": "_depositor",
          "type": "address"
        }
      ],
      "name": "getDepositorRBTCGain",
      "outputs": [
        {
          "internalType": "uint256",
          "name": "",
          "type": "uint256"
        }
      ],
      "stateMutability": "view",
      "type": "function"
    },
    {
      "inputs": [],
      "name": "getEntireSystemColl",
      "outputs": [
        {
          "internalType": "uint256",
          "name": "entireSystemColl",
          "type": "uint256"
        }
      ],
      "stateMutability": "view",
      "type": "function"
    },
    {
      "inputs": [],
      "name": "getEntireSystemDebt",
      "outputs": [
        {
          "internalType": "uint256",
          "name": "entireSystemDebt",
          "type": "uint256"
        }
      ],
      "stateMutability": "view",
      "type": "function"
    },
    {
      "inputs": [
        {
          "internalType": "address",
          "name": "_frontEnd",
          "type": "address"
        }
      ],
      "name": "getFrontEndMPGain",
      "outputs": [
        {
          "internalType": "uint256",
          "name": "",
          "type": "uint256"
        }
      ],
      "stateMutability": "view",
      "type": "function"
    },
    {
      "inputs": [],
      "name": "getRBTC",
      "outputs": [
        {
          "internalType": "uint256",
          "name": "",
          "type": "uint256"
        }
      ],
      "stateMutability": "view",
      "type": "function"
    },
    {
      "inputs": [],
      "name": "getTotalBPDDeposits",
      "outputs": [
        {
          "internalType": "uint256",
          "name": "",
          "type": "uint256"
        }
      ],
      "stateMutability": "view",
      "type": "function"
    },
    {
      "inputs": [],
      "name": "isOwner",
      "outputs": [
        {
          "internalType": "bool",
          "name": "",
          "type": "bool"
        }
      ],
      "stateMutability": "view",
      "type": "function"
    },
    {
      "inputs": [],
      "name": "lastBPDLossError_Offset",
      "outputs": [
        {
          "internalType": "uint256",
          "name": "",
          "type": "uint256"
        }
      ],
      "stateMutability": "view",
      "type": "function"
    },
    {
      "inputs": [],
      "name": "lastMPError",
      "outputs": [
        {
          "internalType": "uint256",
          "name": "",
          "type": "uint256"
        }
      ],
      "stateMutability": "view",
      "type": "function"
    },
    {
      "inputs": [],
      "name": "lastRBTCError_Offset",
      "outputs": [
        {
          "internalType": "uint256",
          "name": "",
          "type": "uint256"
        }
      ],
      "stateMutability": "view",
      "type": "function"
    },
    {
      "inputs": [
        {
          "internalType": "uint256",
          "name": "_debtToOffset",
          "type": "uint256"
        },
        {
          "internalType": "uint256",
          "name": "_collToAdd",
          "type": "uint256"
        }
      ],
      "name": "offset",
      "outputs": [],
      "stateMutability": "nonpayable",
      "type": "function"
    },
    {
      "inputs": [],
      "name": "owner",
      "outputs": [
        {
          "internalType": "address",
          "name": "",
          "type": "address"
        }
      ],
      "stateMutability": "view",
      "type": "function"
    },
    {
      "inputs": [],
      "name": "priceFeed",
      "outputs": [
        {
          "internalType": "contract IPriceFeed",
          "name": "",
          "type": "address"
        }
      ],
      "stateMutability": "view",
      "type": "function"
    },
    {
      "inputs": [
        {
          "internalType": "uint256",
          "name": "_amount",
          "type": "uint256"
        },
        {
          "internalType": "address",
          "name": "_frontEndTag",
          "type": "address"
        }
      ],
      "name": "provideToSP",
      "outputs": [],
      "stateMutability": "nonpayable",
      "type": "function"
    },
    {
      "inputs": [
        {
          "internalType": "uint256",
          "name": "_kickbackRate",
          "type": "uint256"
        }
      ],
      "name": "registerFrontEnd",
      "outputs": [],
      "stateMutability": "nonpayable",
      "type": "function"
    },
    {
      "inputs": [
        {
          "internalType": "address",
          "name": "_borrowerOperationsAddress",
          "type": "address"
        },
        {
          "internalType": "address",
          "name": "_vaultManagerAddress",
          "type": "address"
        },
        {
          "internalType": "address",
          "name": "_activePoolAddress",
          "type": "address"
        },
        {
          "internalType": "address",
          "name": "_bpdTokenAddress",
          "type": "address"
        },
        {
          "internalType": "address",
          "name": "_sortedVaultsAddress",
          "type": "address"
        },
        {
          "internalType": "address",
          "name": "_priceFeedAddress",
          "type": "address"
        },
        {
          "internalType": "address",
          "name": "_communityIssuanceAddress",
          "type": "address"
        }
      ],
      "name": "setAddresses",
      "outputs": [],
      "stateMutability": "nonpayable",
      "type": "function"
    },
    {
      "inputs": [],
      "name": "sortedVaults",
      "outputs": [
        {
          "internalType": "contract ISortedVaults",
          "name": "",
          "type": "address"
        }
      ],
      "stateMutability": "view",
      "type": "function"
    },
    {
      "inputs": [],
      "name": "vaultManager",
      "outputs": [
        {
          "internalType": "contract IVaultManager",
          "name": "",
          "type": "address"
        }
      ],
      "stateMutability": "view",
      "type": "function"
    },
    {
      "inputs": [
        {
          "internalType": "uint256",
          "name": "_amount",
          "type": "uint256"
        }
      ],
      "name": "withdrawFromSP",
      "outputs": [],
      "stateMutability": "nonpayable",
      "type": "function"
    },
    {
      "inputs": [
        {
          "internalType": "address",
          "name": "_upperHint",
          "type": "address"
        },
        {
          "internalType": "address",
          "name": "_lowerHint",
          "type": "address"
        }
      ],
      "name": "withdrawRBTCGainToVault",
      "outputs": [],
      "stateMutability": "nonpayable",
      "type": "function"
    },
    {
      "stateMutability": "payable",
      "type": "receive"
    }
  ],
  "bytecode": "0x6080604052670de0b6b3a764000060105534801561001c57600080fd5b50600380546001600160a01b031916339081179091556040516000907f8be0079c531659141344cd1fd0a4f28419497f9722a3daafe3b4186f6b6457e0908290a36139258061006c6000396000f3fe6080604052600436106102975760003560e01c806382e0a5741161015a578063a619cc1f116100c1578063dde598b91161007a578063dde598b914610912578063df9cd84f14610927578063eaa8ba7f1461095a578063f7d5b0b1146109bf578063f92d3433146109f2578063fc7e286d14610a07576102de565b8063a619cc1f14610821578063a7bfff9714610836578063ce4b5bbe14610882578063d5929f9c14610897578063d816708e146108ca578063dd590496146108fd576102de565b80638ea17638116101135780638ea17638146107115780638f32d59b1461074457806395fb16bb1461076d578063a20baee614610576578063a3f4df7e14610782578063a4e59ac81461080c576102de565b806382e0a5741461064f57806386da08241461068a578063887105d3146106bd5780638a4adf24146106d25780638b8fbd92146106e75780638da5cb5b146106fc576102de565b80635d2de642116101fe57806377553ad4116101b757806377553ad4146105d157806377a4b5b7146105e657806378b0903b146105fb578063794e572414610610578063795d26c3146106255780637f7dde4a1461063a576102de565b80635d2de642146104f55780635f788d65146105285780637165f24f1461056157806372fe25aa14610576578063741bef1a1461058b57806376671808146105a0576102de565b8063335525ad11610250578063335525ad1461042b5780633cc742251461045b57806341c200c01461048c5780634870dd9a146104a1578063556be101146104b65780635733d58f146104e0576102de565b80630c06d0e8146102e357806316b9d3c51461030a5780631bf435551461037457806328a0a04d146103895780632a9a67b6146103c45780632e54bf9514610401576102de565b366102de576102a4610a5b565b6009546102b7903463ffffffff610aa616565b6009819055604080519182525160008051602061365f8339815191529181900360200190a1005b600080fd5b3480156102ef57600080fd5b506102f8610b09565b60408051918252519081900360200190f35b34801561031657600080fd5b5061033d6004803603602081101561032d57600080fd5b50356001600160a01b0316610b0f565b604080519586526020860194909452848401929092526001600160801b039081166060850152166080830152519081900360a00190f35b34801561038057600080fd5b506102f8610b4a565b34801561039557600080fd5b506102f8600480360360408110156103ac57600080fd5b506001600160801b0381358116916020013516610b57565b3480156103d057600080fd5b506103ff600480360360408110156103e757600080fd5b506001600160a01b0381358116916020013516610b74565b005b34801561040d57600080fd5b506103ff6004803603602081101561042457600080fd5b5035610da4565b34801561043757600080fd5b506103ff6004803603604081101561044e57600080fd5b5080359060200135610f2d565b34801561046757600080fd5b50610470610f91565b604080516001600160a01b039092168252519081900360200190f35b34801561049857600080fd5b506102f8610fa0565b3480156104ad57600080fd5b506102f8610fa6565b3480156104c257600080fd5b506103ff600480360360208110156104d957600080fd5b5035610fab565b3480156104ec57600080fd5b506102f8611020565b34801561050157600080fd5b506102f86004803603602081101561051857600080fd5b50356001600160a01b031661102c565b34801561053457600080fd5b506103ff6004803603604081101561054b57600080fd5b50803590602001356001600160a01b031661103e565b34801561056d57600080fd5b506104706111bf565b34801561058257600080fd5b506102f86111ce565b34801561059757600080fd5b506104706111da565b3480156105ac57600080fd5b506105b56111e9565b604080516001600160801b039092168252519081900360200190f35b3480156105dd57600080fd5b506104706111ff565b3480156105f257600080fd5b506102f861120e565b34801561060757600080fd5b506102f8611214565b34801561061c57600080fd5b506102f861121a565b34801561063157600080fd5b506102f8611226565b34801561064657600080fd5b50610470611327565b34801561065b57600080fd5b506102f86004803603604081101561067257600080fd5b506001600160801b0381358116916020013516611336565b34801561069657600080fd5b5061033d600480360360208110156106ad57600080fd5b50356001600160a01b0316611353565b3480156106c957600080fd5b506102f861138e565b3480156106de57600080fd5b5061047061144a565b3480156106f357600080fd5b506102f8611459565b34801561070857600080fd5b5061047061145f565b34801561071d57600080fd5b506102f86004803603602081101561073457600080fd5b50356001600160a01b031661146e565b34801561075057600080fd5b50610759611574565b604080519115158252519081900360200190f35b34801561077957600080fd5b50610470611585565b34801561078e57600080fd5b50610797611594565b6040805160208082528351818301528351919283929083019185019080838360005b838110156107d15781810151838201526020016107b9565b50505050905090810190601f1680156107fe5780820380516001836020036101000a031916815260200191505b509250505060405180910390f35b34801561081857600080fd5b506105b56115bd565b34801561082d57600080fd5b506102f86115cc565b34801561084257600080fd5b506108696004803603602081101561085957600080fd5b50356001600160a01b03166115d9565b6040805192835290151560208301528051918290030190f35b34801561088e57600080fd5b506102f86115f5565b3480156108a357600080fd5b506102f8600480360360208110156108ba57600080fd5b50356001600160a01b03166115fd565b3480156108d657600080fd5b506102f8600480360360208110156108ed57600080fd5b50356001600160a01b03166116a3565b34801561090957600080fd5b50610470611740565b34801561091e57600080fd5b506102f861174f565b34801561093357600080fd5b506102f86004803603602081101561094a57600080fd5b50356001600160a01b0316611755565b34801561096657600080fd5b506103ff600480360360e081101561097d57600080fd5b506001600160a01b038135811691602081013582169160408201358116916060810135821691608082013581169160a081013582169160c090910135166117f2565b3480156109cb57600080fd5b506102f8600480360360208110156109e257600080fd5b50356001600160a01b0316611aa3565b3480156109fe57600080fd5b506102f8611ba0565b348015610a1357600080fd5b50610a3a60048036036020811015610a2a57600080fd5b50356001600160a01b0316611bab565b604080519283526001600160a01b0390911660208301528051918290030190f35b6000546001600160a01b03163314610aa45760405162461bcd60e51b815260040180806020018281038252602781526020018061367f6027913960400191505060405180910390fd5b565b600082820183811015610b00576040805162461bcd60e51b815260206004820152601b60248201527f536166654d6174683a206164646974696f6e206f766572666c6f770000000000604482015290519081900360640190fd5b90505b92915050565b60145481565b600f602052600090815260409020805460018201546002830154600390930154919290916001600160801b0380821691600160801b90041685565b686194049f30f720000081565b601260209081526000928352604080842090915290825290205481565b336000908152600b6020526040902054610b8d81611bcd565b610b9633611c0f565b610b9f33611cc6565b6008546001600160a01b0316610bb481611d12565b6000610bbf336116a3565b90506000610bcc336115fd565b90506000610be0858363ffffffff611d8616565b336000818152600b60205260409020600101549192506001600160a01b0390911690610c0e90869083611dc8565b6000610c1982611755565b905080610c268382611f67565b6040805182815233602082015281516001600160a01b038616926000805160206138d0833981519152928290030190a2610c6033866120b3565b6040805187815260208101869052815133926000805160206135f9833981519152928290030190a26040805186815290513391600080516020613738833981519152919081900360200190a2600954610cbf908763ffffffff611d8616565b6009819055604080519182525160008051602061365f8339815191529181900360200190a1604080513381526020810188905281517f1083bc5da936d61fceb9f9e509171faa5ae4756c47a742bf3fa2f9b4cd8132fe929181900390910190a16004805460408051630e4df55f60e01b815233938101939093526001600160a01b038d811660248501528c811660448501529051911691630e4df55f91899160648082019260009290919082900301818588803b158015610d7f57600080fd5b505af1158015610d93573d6000803e3d6000fd5b505050505050505050505050505050565b8015610db257610db2612239565b336000908152600b6020526040902054610dcb81611bcd565b6008546001600160a01b0316610de081611d12565b6000610deb336116a3565b90506000610df8336115fd565b90506000610e0686836123f6565b90506000610e1a868463ffffffff611d8616565b336000818152600b60205260409020600101549192506001600160a01b0390911690610e4890879083611dc8565b6000610e5382611755565b90506000610e67828663ffffffff611d8616565b9050610e738382611f67565b6040805182815233602082015281516001600160a01b038616926000805160206138d0833981519152928290030190a2610ead338661240c565b6000610ebf878763ffffffff611d8616565b9050610ecb33826120b3565b6040805182815290513391600080516020613738833981519152919081900360200190a26040805189815260208101879052815133926000805160206135f9833981519152928290030190a2610f2088612492565b5050505050505050505050565b610f3561259e565b600a54801580610f43575082155b15610f4e5750610f8d565b600854610f63906001600160a01b0316611d12565b600080610f718486856125e7565b91509150610f7f82826126e0565b610f8984866129da565b5050505b5050565b6001546001600160a01b031681565b60155481565b60c881565b610fb433612b14565b610fbd33612b6f565b610fc681612bc5565b336000818152600d60209081526040918290208481556001908101805460ff19169091179055815184815291517f19bc932fb9e16a8b5a1e41be9f4c2de59d5ddd7567b8b81405f532ca00a9880e9281900390910190a250565b6714d1120d7b16000081565b600e6020526000908152604090205481565b61104781612c0c565b61105033612b14565b61105982612c78565b336000908152600b60205260409020546008546001600160a01b031661107e81611d12565b8161108d5761108d3384612cb7565b6000611098336116a3565b905060006110a5336115fd565b905060006110b9858363ffffffff611d8616565b336000818152600b60205260409020600101549192506001600160a01b03909116906110e790869083611dc8565b60006110f282611755565b90506000611106828b63ffffffff610aa616565b90506111128382611f67565b6040805182815233602082015281516001600160a01b038616926000805160206138d0833981519152928290030190a261114c338b612d11565b600061115e868c63ffffffff610aa616565b905061116a33826120b3565b6040805182815290513391600080516020613738833981519152919081900360200190a26040805188815260208101879052815133926000805160206135f9833981519152928290030190a2610f2087612492565b6007546001600160a01b031681565b670de0b6b3a764000081565b6002546001600160a01b031681565b601154600160801b90046001600160801b031681565b6004546001600160a01b031681565b60095490565b60165481565b670f43fc2c04ee000081565b6000805460408051638f07158d60e01b8152905183926001600160a01b031691638f07158d916004808301926020929190829003018186803b15801561126b57600080fd5b505afa15801561127f573d6000803e3d6000fd5b505050506040513d602081101561129557600080fd5b505160015460408051638f07158d60e01b815290519293506000926001600160a01b0390921691638f07158d91600480820192602092909190829003018186803b1580156112e257600080fd5b505afa1580156112f6573d6000803e3d6000fd5b505050506040513d602081101561130c57600080fd5b50519050611320828263ffffffff610aa616565b9250505090565b6000546001600160a01b031681565b601360209081526000928352604080842090915290825290205481565b600c602052600090815260409020805460018201546002830154600390930154919290916001600160801b0380821691600160801b90041685565b60008054604080516377a4b5b760e01b8152905183926001600160a01b0316916377a4b5b7916004808301926020929190829003018186803b1580156113d357600080fd5b505afa1580156113e7573d6000803e3d6000fd5b505050506040513d60208110156113fd57600080fd5b5051600154604080516377a4b5b760e01b815290519293506000926001600160a01b03909216916377a4b5b791600480820192602092909190829003018186803b1580156112e257600080fd5b6005546001600160a01b031681565b60105481565b6003546001600160a01b031690565b6001600160a01b0381166000908152600e60205260408120548061149657600091505061156f565b6001600160a01b0383166000908152600d6020526040812054906114c8670de0b6b3a76400008363ffffffff611d8616565b90506114d2613563565b506001600160a01b0385166000908152600f60209081526040808320815160a08101835281548152600182015493810193909352600281015491830191909152600301546001600160801b038082166060840152600160801b90910416608082015290611567670de0b6b3a764000061155b61154e8886612ddb565b869063ffffffff612ecd16565b9063ffffffff612f2616565b955050505050505b919050565b6003546001600160a01b0316331490565b6008546001600160a01b031681565b6040518060400160405280600d81526020016c14dd18589a5b1a5d1e541bdbdb609a1b81525081565b6011546001600160801b031681565b680ad78ebc5ac620000081565b600d602052600090815260409020805460019091015460ff1682565b633b9aca0081565b6001600160a01b0381166000908152600b60205260408120548061162557600091505061156f565b61162d613563565b506001600160a01b0383166000908152600c60209081526040808320815160a08101835281548152600182015493810193909352600281015491830191909152600301546001600160801b038082166060840152600160801b9091041660808201529061169a8383612f68565b95945050505050565b6001600160a01b0381166000908152600b6020526040812054806116cb57600091505061156f565b6116d3613563565b506001600160a01b0383166000908152600c60209081526040808320815160a08101835281548152600182015493810193909352600281015491830191909152600301546001600160801b038082166060840152600160801b9091041660808201529061169a8383613064565b6006546001600160a01b031681565b600a5490565b6001600160a01b0381166000908152600e60205260408120548061177d57600091505061156f565b611785613563565b506001600160a01b0383166000908152600f60209081526040808320815160a08101835281548152600182015493810193909352600281015491830191909152600301546001600160801b038082166060840152600160801b9091041660808201529061169a8383612f68565b6117fa611574565b61184b576040805162461bcd60e51b815260206004820181905260248201527f4f776e61626c653a2063616c6c6572206973206e6f7420746865206f776e6572604482015290519081900360640190fd5b611854876130ef565b61185d866130ef565b611866856130ef565b61186f846130ef565b611878836130ef565b611881826130ef565b61188a816130ef565b600480546001600160a01b03199081166001600160a01b038a81169182179093556005805483168a85161790556000805483168985161790556006805483168885161790556007805483168785161790556002805483168685161790556008805490921692841692909217905560408051918252517f3ca631ffcd2a9b5d9ae18543fc82f58eb4ca33af9e6ab01b7a8e95331e6ed985916020908290030190a1604080516001600160a01b038816815290517fd396f45b3a6c41f9744b157261875945681f8e23587ae1d7d34377aad3bb16239181900360200190a1604080516001600160a01b038716815290517f78f058b189175430c48dc02699e3a0031ea4ff781536dc2fab847de4babdd8829181900360200190a1604080516001600160a01b038616815290517f4e62a526dbb1c27a0df55dad97eaa57df1e3a95bb380a0bbe38dc5fbc07bb6699181900360200190a1604080516001600160a01b038516815290517fb92ab72da68990756a2b6a93fce7497a60e992b19dd9529f601a977e88117d3c9181900360200190a1604080516001600160a01b038416815290517f8c537274438aa850a330284665d81a85dd38267d09e4050d416bfc94142db2649181900360200190a1604080516001600160a01b038316815290517f3055265812fb8447b9ada4a5d804ec43bd528ec40e89c952bbc7b85dc5ac68119181900360200190a1611a9a61319e565b50505050505050565b6001600160a01b0381166000908152600b602052604081205480611acb57600091505061156f565b6001600160a01b038084166000908152600b6020526040812060010154909116908115611b10576001600160a01b0382166000908152600d6020526040902054611b1a565b670de0b6b3a76400005b9050611b24613563565b506001600160a01b0385166000908152600c60209081526040808320815160a08101835281548152600182015493810193909352600281015491830191909152600301546001600160801b038082166060840152600160801b90910416608082015290611567670de0b6b3a764000061155b61154e8886612ddb565b6611c37937e0800081565b600b60205260009081526040902080546001909101546001600160a01b031682565b60008111611c0c5760405162461bcd60e51b81526004018080602001828103825260308152602001806138a06030913960400191505060405180910390fd5b50565b6005546040805163180d97c160e01b81526001600160a01b0384811660048301529151919092169163180d97c1916024808301926020929190829003018186803b158015611c5c57600080fd5b505afa158015611c70573d6000803e3d6000fd5b505050506040513d6020811015611c8657600080fd5b5051600114611c0c5760405162461bcd60e51b81526004018080602001828103825260478152602001806136ca6047913960600191505060405180910390fd5b6000611cd1826116a3565b905060008111610f8d5760405162461bcd60e51b81526004018080602001828103825260328152602001806135a56032913960400191505060405180910390fd5b6000816001600160a01b0316631a431c8a6040518163ffffffff1660e01b8152600401602060405180830381600087803b158015611d4f57600080fd5b505af1158015611d63573d6000803e3d6000fd5b505050506040513d6020811015611d7957600080fd5b50519050610f8d816131e8565b6000610b0083836040518060400160405280601e81526020017f536166654d6174683a207375627472616374696f6e206f766572666c6f770000815250613303565b6001600160a01b03811615611e9d576000611de28261146e565b9050836001600160a01b031663dbec01c483836040518363ffffffff1660e01b815260040180836001600160a01b03166001600160a01b0316815260200182815260200192505050600060405180830381600087803b158015611e4457600080fd5b505af1158015611e58573d6000803e3d6000fd5b50506040805184815290516001600160a01b03861693507fd4c50dca240288bb73b0b4da8f2351cfdb90ca861e8122443de6ac626f63347392509081900360200190a2505b6000611ea883611aa3565b9050836001600160a01b031663dbec01c484836040518363ffffffff1660e01b815260040180836001600160a01b03166001600160a01b0316815260200182815260200192505050600060405180830381600087803b158015611f0a57600080fd5b505af1158015611f1e573d6000803e3d6000fd5b50506040805184815290516001600160a01b03871693507f17961f7b8dfc86df03315fc297a16f6f849dc758f9599517f84cca7acf56f62d92509081900360200190a250505050565b6001600160a01b0382166000908152600e6020526040902081905580611ff7576001600160a01b0382166000818152600f60209081526040808320838155600181018490556002810184905560030183905580518381529182019290925281517fbb1322f85cc7cc8bac4e172a5bc5dcc0c1959007f9a030032abf9258205f0e45929181900390910190a2610f8d565b6011546010546001600160801b03600160801b80840482166000818152601360209081526040808320978616808452978252808320546001600160a01b038b16808552600f845293829020600181018990556002810182905560030180546001600160801b0319168a17909716958502959095179095558451868152908101849052845192959491927fbb1322f85cc7cc8bac4e172a5bc5dcc0c1959007f9a030032abf9258205f0e45929181900390910190a2505050505050565b6001600160a01b0382166000908152600b6020526040902081905580612161576001600160a01b0382166000818152600b60209081526040808320600190810180546001600160a01b0319169055600c83528184208481559081018490556002810184905560030183905580518381529182018390528181019290925290517f2d6cc0bcdf72c9486f6451bde6b80f44066f4558f77f44dbfedbe7d8b295225a9181900360600190a2610f8d565b6011546010546001600160801b03600160801b8084048216600081815260126020908152604080832097861680845297825280832054848452601383528184208985528352818420546001600160a01b038c16808652600c855294839020600181018a90558281556002810182905560030180546001600160801b0319168b179098169686029690961790965580518781529182018690528181018590525192959493927f2d6cc0bcdf72c9486f6451bde6b80f44066f4558f77f44dbfedbe7d8b295225a916060908290030190a250505050505050565b60025460408051630fdb11cf60e01b815290516000926001600160a01b031691630fdb11cf91600480830192602092919082900301818787803b15801561227f57600080fd5b505af1158015612293573d6000803e3d6000fd5b505050506040513d60208110156122a957600080fd5b505160075460408051634d62283160e01b815290519293506000926001600160a01b0390921691634d62283191600480820192602092909190829003018186803b1580156122f657600080fd5b505afa15801561230a573d6000803e3d6000fd5b505050506040513d602081101561232057600080fd5b505160055460408051630d293c7160e41b81526001600160a01b038085166004830152602482018790529151939450600093919092169163d293c710916044808301926020929190829003018186803b15801561237c57600080fd5b505afa158015612390573d6000803e3d6000fd5b505050506040513d60208110156123a657600080fd5b50519050670f43fc2c04ee00008110156123f15760405162461bcd60e51b81526004018080602001828103825260448152602001806137d56044913960600191505060405180910390fd5b505050565b60008183106124055781610b00565b5090919050565b8061241657610f8d565b60065460408051631062c15f60e11b81523060048201526001600160a01b03858116602483015260448201859052915191909216916320c582be91606480830192600092919082900301818387803b15801561247157600080fd5b505af1158015612485573d6000803e3d6000fd5b50505050610f8d8161339a565b8061249c57611c0c565b6009546000906124b2908363ffffffff611d8616565b600981905560408051828152905191925060008051602061365f833981519152919081900360200190a1604080513381526020810184905281517f1083bc5da936d61fceb9f9e509171faa5ae4756c47a742bf3fa2f9b4cd8132fe929181900390910190a1604051600090339084908381818185875af1925050503d8060008114612559576040519150601f19603f3d011682016040523d82523d6000602084013e61255e565b606091505b50509050806123f15760405162461bcd60e51b81526004018080602001828103825260228152602001806135d76022913960400191505060405180910390fd5b6005546001600160a01b03163314610aa45760405162461bcd60e51b81526004018080602001828103825260298152602001806137586029913960400191505060405180910390fd5b600080600061261960155461260d670de0b6b3a764000089612ecd90919063ffffffff16565b9063ffffffff610aa616565b90508385111561262557fe5b83851415612642576000601655670de0b6b3a764000091506126a2565b6016546000906126709061266488670de0b6b3a764000063ffffffff612ecd16565b9063ffffffff611d8616565b9050612687600161260d838863ffffffff612f2616565b925061269d81612664858863ffffffff612ecd16565b601655505b6126b2818563ffffffff612f2616565b92506126d46126c7848663ffffffff612ecd16565b829063ffffffff611d8616565b60155550935093915050565b6010546000670de0b6b3a76400008311156126f757fe5b6000612711670de0b6b3a76400008563ffffffff611d8616565b6011546001600160801b03600160801b8204811660008181526012602090815260408083209490951680835293905292832054939450909290916127558988612ecd565b90506000612769838363ffffffff610aa616565b6001600160801b038086166000818152601260209081526040808320948b16808452948252918290208590558151858152908101929092528181019290925290519192507fe12e2cd2c9afa8069203ca07e7eff1edce4a075686d0736a8e7e0d593597b207919081900360600190a1856128a0576127f76001600160801b038516600163ffffffff6133f016565b601180546001600160801b03908116600160801b938216840217918290556040805193909204168252517fb50f0f59e7cb5b421dc77581c3a9919e3806e076e5fa78a874c3f120cb7d874d916020908290030190a1601180546001600160801b0319169055604080516000815290517f1f9dfc70cd666adb18a39d60a797518f7b4febf4b6e24ef37d44f6e1e7219fbe9181900360200190a1670de0b6b3a7640000965061298c565b633b9aca006128c1670de0b6b3a764000061155b8b8a63ffffffff612ecd16565b101561296d576128f7670de0b6b3a764000061155b633b9aca006128eb8c8b63ffffffff612ecd16565b9063ffffffff612ecd16565b96506129136001600160801b038616600163ffffffff6133f016565b601180546001600160801b0319166001600160801b0392831617908190556040805191909216815290517f1f9dfc70cd666adb18a39d60a797518f7b4febf4b6e24ef37d44f6e1e7219fbe916020908290030190a161298c565b612989670de0b6b3a764000061155b8a8963ffffffff612ecd16565b96505b6000871161299657fe5b60108790556040805188815290517fc1a9618cb59ebca77cbdbc2949f126823c407ff13edb285fd0262519a9c18e8c9181900360200190a150505050505050505050565b600080546040805163d3ed5d1960e01b81526004810185905290516001600160a01b0390921692839263d3ed5d1992602480820193929182900301818387803b158015612a2657600080fd5b505af1158015612a3a573d6000803e3d6000fd5b50505050612a478261339a565b60065460408051632770a7eb60e21b81523060048201526024810185905290516001600160a01b0390921691639dc29fac9160448082019260009290919082900301818387803b158015612a9a57600080fd5b505af1158015612aae573d6000803e3d6000fd5b505060408051633efe643b60e01b81523060048201526024810187905290516001600160a01b0385169350633efe643b9250604480830192600092919082900301818387803b158015612b0057600080fd5b505af1158015611a9a573d6000803e3d6000fd5b6001600160a01b0381166000908152600d602052604090206001015460ff1615611c0c5760405162461bcd60e51b815260040180806020018281038252603981526020018061383f6039913960400191505060405180910390fd5b6001600160a01b0381166000908152600b60205260409020548015610f8d5760405162461bcd60e51b81526004018080602001828103825260288152602001806138786028913960400191505060405180910390fd5b670de0b6b3a7640000811115611c0c5760405162461bcd60e51b81526004018080602001828103825260338152602001806137a26033913960400191505060405180910390fd5b6001600160a01b0381166000908152600d602052604090206001015460ff1680612c3d57506001600160a01b038116155b611c0c5760405162461bcd60e51b81526004018080602001828103825260468152602001806136196046913960600191505060405180910390fd5b60008111611c0c5760405162461bcd60e51b81526004018080602001828103825260268152602001806138196026913960400191505060405180910390fd5b6001600160a01b038281166000818152600b602052604080822060010180546001600160a01b0319169486169485179055517f094c08e96a8890877a8390b4f967180a7507ad8622244d05fcd0f9f8e086564e9190a35050565b60065460408051632ee65eeb60e21b81526001600160a01b038581166004830152306024830152604482018590529151919092169163bb997bac91606480830192600092919082900301818387803b158015612d6c57600080fd5b505af1158015612d80573d6000803e3d6000fd5b5050600a5460009250612d9a91508363ffffffff610aa616565b600a8190556040805182815290519192507f04f9cd5878b2cea62f27ec8ef7e39a30992a83725c0e57ecc902ef5204d2c228919081900360200190a1505050565b608081015160608201516040808401516020808601516001600160801b03808716600090815260138452858120918716815292529281205490949392908590612e2a908463ffffffff611d8616565b6001600160801b03808716600090815260136020526040812092935091612e8d91633b9aca0091908490612e67908a16600163ffffffff6133f016565b6001600160801b031681526020810191909152604001600020549063ffffffff612f2616565b90506000612ebf670de0b6b3a764000061155b8681612eb2888863ffffffff610aa616565b8f9063ffffffff612ecd16565b9a9950505050505050505050565b600082612edc57506000610b03565b82820282848281612ee957fe5b0414610b005760405162461bcd60e51b81526004018080602001828103825260218152602001806137816021913960400191505060405180910390fd5b6000610b0083836040518060400160405280601a81526020017f536166654d6174683a206469766973696f6e206279207a65726f000000000000815250613440565b6020810151606082015160808301516011546000939291906001600160801b03600160801b90910481169082161015612fa75760009350505050610b03565b6011546000908190612fc8906001600160801b03168563ffffffff6134a516565b90506001600160801b038116612ff857612ff18561155b6010548b612ecd90919063ffffffff16565b9150613030565b806001600160801b03166001141561302b57612ff1633b9aca0061155b8761155b6010548d612ecd90919063ffffffff16565b600091505b61304488633b9aca0063ffffffff612f2616565b82101561305957600095505050505050610b03565b509695505050505050565b6080810151606082015182516020808501516001600160801b038086166000908152601284526040808220928716825291909352822054919493929185906130b2908463ffffffff611d8616565b6001600160801b03808716600090815260126020526040812092935091612e8d91633b9aca0091908490612e67908a16600163ffffffff6133f016565b6001600160a01b03811661314a576040805162461bcd60e51b815260206004820152601e60248201527f4163636f756e742063616e6e6f74206265207a65726f20616464726573730000604482015290519081900360640190fd5b803b80610f8d576040805162461bcd60e51b815260206004820181905260248201527f4163636f756e7420636f64652073697a652063616e6e6f74206265207a65726f604482015290519081900360640190fd5b6003546040516000916001600160a01b0316907f8be0079c531659141344cd1fd0a4f28419497f9722a3daafe3b4186f6b6457e0908390a3600380546001600160a01b0319169055565b600a548015806131f6575081155b156132015750611c0c565b600061320d83836134fe565b9050600061322660105483612ecd90919063ffffffff16565b6011546001600160801b03600160801b82048116600090815260136020908152604080832093909416825291909152205490915061326a908263ffffffff610aa616565b601180546001600160801b03600160801b808304821660009081526013602081815260408084209686168452958152858320979097559454918204831680825294865283812091909216808352908552908290205482519081529384019290925282810191909152517f2d6127771b164a9cc8827d24b5955db2a77e7a81dac389107ebb8bce9fb649689181900360600190a150505050565b600081848411156133925760405162461bcd60e51b81526004018080602001828103825283818151815260200191508051906020019080838360005b8381101561335757818101518382015260200161333f565b50505050905090810190601f1680156133845780820380516001836020036101000a031916815260200191505b509250505060405180910390fd5b505050900390565b600a546000906133b0908363ffffffff611d8616565b600a8190556040805182815290519192507f04f9cd5878b2cea62f27ec8ef7e39a30992a83725c0e57ecc902ef5204d2c228919081900360200190a15050565b60008282016001600160801b038085169082161015610b005760405162461bcd60e51b81526004018080602001828103825260248152602001806136a66024913960400191505060405180910390fd5b6000818361348f5760405162461bcd60e51b815260206004820181815283516024840152835190928392604490910191908501908083836000831561335757818101518382015260200161333f565b50600083858161349b57fe5b0495945050505050565b6000826001600160801b0316826001600160801b031611156134f85760405162461bcd60e51b81526004018080602001828103825260278152602001806137116027913960400191505060405180910390fd5b50900390565b60008061352260145461260d670de0b6b3a764000087612ecd90919063ffffffff16565b90506000613536828563ffffffff612f2616565b905061355861354b828663ffffffff612ecd16565b839063ffffffff611d8616565b601455949350505050565b6040518060a0016040528060008152602001600081526020016000815260200160006001600160801b0316815260200160006001600160801b03168152509056fe53746162696c697479506f6f6c3a2063616c6c6572206d7573742068617665206e6f6e2d7a65726f2052425443204761696e53746162696c697479506f6f6c3a2073656e64696e672052425443206661696c65647647f21296d3f6e9eaef6c11921ee86c648fa7541741ac00d93e8a6901476fea53746162696c697479506f6f6c3a20546167206d757374206265206120726567697374657265642066726f6e7420656e642c206f7220746865207a65726f2061646472657373ddac403fcb80275f20059952b43947e9e5600acc486e918a7a94cf51f81655ce53746162696c697479506f6f6c3a2043616c6c6572206973206e6f7420416374697665506f6f6c4d6f6e657970536166654d6174683132383a206164646974696f6e206f766572666c6f7753746162696c697479506f6f6c3a2063616c6c6572206d757374206861766520616e20616374697665207661756c7420746f20776974686472617720524254434761696e20746f4d6f6e657970536166654d6174683132383a207375627472616374696f6e206f766572666c6f77bce78369dccab09eec1986f4d409ab09ffbb47d65423e5148fcf98411c5111c953746162696c697479506f6f6c3a2043616c6c6572206973206e6f74205661756c744d616e61676572536166654d6174683a206d756c7469706c69636174696f6e206f766572666c6f7753746162696c697479506f6f6c3a204b69636b6261636b2072617465206d75737420626520696e2072616e6765205b302c315d53746162696c697479506f6f6c3a2043616e6e6f74207769746864726177207768696c6520746865726520617265207661756c7473207769746820494352203c204d435253746162696c697479506f6f6c3a20416d6f756e74206d757374206265206e6f6e2d7a65726f53746162696c697479506f6f6c3a206d757374206e6f7420616c7265616479206265206120726567697374657265642066726f6e7420656e6453746162696c697479506f6f6c3a2055736572206d7573742068617665206e6f206465706f73697453746162696c697479506f6f6c3a2055736572206d75737420686176652061206e6f6e2d7a65726f206465706f73697499920012339b5a3368d3a04b8606ce412c46ed92b7dcd8602d41fc8862cb8f25a2646970667358221220c4ab6a106f63fc07632c2f7260235dcd59a018bdcec3919f2a39bf13799670da64736f6c634300060b0033",
  "linkReferences": {},
  "deployedLinkReferences": {}
}