{
  "_format": "hh-sol-artifact-1",
  "contractName": "StabilityPoolTester",
  "sourceName": "contracts/TestContracts/StabilityPoolTester.sol",
  "abi": [
    {
      "anonymous": false,
      "inputs": [
        {
          "indexed": false,
          "internalType": "address",
          "name": "_newActivePoolAddress",
          "type": "address"
        }
      ],
      "name": "ActivePoolAddressChanged",
      "type": "event"
    },
    {
      "anonymous": false,
      "inputs": [
        {
          "indexed": false,
          "internalType": "address",
          "name": "_newBPDTokenAddress",
          "type": "address"
        }
      ],
      "name": "BPDTokenAddressChanged",
      "type": "event"
    },
    {
      "anonymous": false,
      "inputs": [
        {
          "indexed": false,
          "internalType": "address",
          "name": "_to",
          "type": "address"
        },
        {
          "indexed": false,
          "internalType": "uint256",
          "name": "_amount",
          "type": "uint256"
        }
      ],
      "name": "BitcoinSent",
      "type": "event"
    },
    {
      "anonymous": false,
      "inputs": [
        {
          "indexed": false,
          "internalType": "address",
          "name": "_newBorrowerOperationsAddress",
          "type": "address"
        }
      ],
      "name": "BorrowerOperationsAddressChanged",
      "type": "event"
    },
    {
      "anonymous": false,
      "inputs": [
        {
          "indexed": false,
          "internalType": "address",
          "name": "_newCommunityIssuanceAddress",
          "type": "address"
        }
      ],
      "name": "CommunityIssuanceAddressChanged",
      "type": "event"
    },
    {
      "anonymous": false,
      "inputs": [
        {
          "indexed": false,
          "internalType": "address",
          "name": "_newDefaultPoolAddress",
          "type": "address"
        }
      ],
      "name": "DefaultPoolAddressChanged",
      "type": "event"
    },
    {
      "anonymous": false,
      "inputs": [
        {
          "indexed": true,
          "internalType": "address",
          "name": "_depositor",
          "type": "address"
        },
        {
          "indexed": false,
          "internalType": "uint256",
          "name": "_P",
          "type": "uint256"
        },
        {
          "indexed": false,
          "internalType": "uint256",
          "name": "_S",
          "type": "uint256"
        },
        {
          "indexed": false,
          "internalType": "uint256",
          "name": "_G",
          "type": "uint256"
        }
      ],
      "name": "DepositSnapshotUpdated",
      "type": "event"
    },
    {
      "anonymous": false,
      "inputs": [
        {
          "indexed": false,
          "internalType": "uint128",
          "name": "_currentEpoch",
          "type": "uint128"
        }
      ],
      "name": "EpochUpdated",
      "type": "event"
    },
    {
      "anonymous": false,
      "inputs": [
        {
          "indexed": true,
          "internalType": "address",
          "name": "_frontEnd",
          "type": "address"
        },
        {
          "indexed": false,
          "internalType": "uint256",
          "name": "_kickbackRate",
          "type": "uint256"
        }
      ],
      "name": "FrontEndRegistered",
      "type": "event"
    },
    {
      "anonymous": false,
      "inputs": [
        {
          "indexed": true,
          "internalType": "address",
          "name": "_frontEnd",
          "type": "address"
        },
        {
          "indexed": false,
          "internalType": "uint256",
          "name": "_P",
          "type": "uint256"
        },
        {
          "indexed": false,
          "internalType": "uint256",
          "name": "_G",
          "type": "uint256"
        }
      ],
      "name": "FrontEndSnapshotUpdated",
      "type": "event"
    },
    {
      "anonymous": false,
      "inputs": [
        {
          "indexed": true,
          "internalType": "address",
          "name": "_frontEnd",
          "type": "address"
        },
        {
          "indexed": false,
          "internalType": "uint256",
          "name": "_newFrontEndStake",
          "type": "uint256"
        },
        {
          "indexed": false,
          "internalType": "address",
          "name": "_depositor",
          "type": "address"
        }
      ],
      "name": "FrontEndStakeChanged",
      "type": "event"
    },
    {
      "anonymous": false,
      "inputs": [
        {
          "indexed": true,
          "internalType": "address",
          "name": "_depositor",
          "type": "address"
        },
        {
          "indexed": true,
          "internalType": "address",
          "name": "_frontEnd",
          "type": "address"
        }
      ],
      "name": "FrontEndTagSet",
      "type": "event"
    },
    {
      "anonymous": false,
      "inputs": [
        {
          "indexed": false,
          "internalType": "uint256",
          "name": "_G",
          "type": "uint256"
        },
        {
          "indexed": false,
          "internalType": "uint128",
          "name": "_epoch",
          "type": "uint128"
        },
        {
          "indexed": false,
          "internalType": "uint128",
          "name": "_scale",
          "type": "uint128"
        }
      ],
      "name": "G_Updated",
      "type": "event"
    },
    {
      "anonymous": false,
      "inputs": [
        {
          "indexed": true,
          "internalType": "address",
          "name": "_depositor",
          "type": "address"
        },
        {
          "indexed": false,
          "internalType": "uint256",
          "name": "_MP",
          "type": "uint256"
        }
      ],
      "name": "MPPaidToDepositor",
      "type": "event"
    },
    {
      "anonymous": false,
      "inputs": [
        {
          "indexed": true,
          "internalType": "address",
          "name": "_frontEnd",
          "type": "address"
        },
        {
          "indexed": false,
          "internalType": "uint256",
          "name": "_MP",
          "type": "uint256"
        }
      ],
      "name": "MPPaidToFrontEnd",
      "type": "event"
    },
    {
      "anonymous": false,
      "inputs": [
        {
          "indexed": true,
          "internalType": "address",
          "name": "previousOwner",
          "type": "address"
        },
        {
          "indexed": true,
          "internalType": "address",
          "name": "newOwner",
          "type": "address"
        }
      ],
      "name": "OwnershipTransferred",
      "type": "event"
    },
    {
      "anonymous": false,
      "inputs": [
        {
          "indexed": false,
          "internalType": "uint256",
          "name": "_P",
          "type": "uint256"
        }
      ],
      "name": "P_Updated",
      "type": "event"
    },
    {
      "anonymous": false,
      "inputs": [
        {
          "indexed": false,
          "internalType": "address",
          "name": "_newPriceFeedAddress",
          "type": "address"
        }
      ],
      "name": "PriceFeedAddressChanged",
      "type": "event"
    },
    {
      "anonymous": false,
      "inputs": [
        {
          "indexed": true,
          "internalType": "address",
          "name": "_depositor",
          "type": "address"
        },
        {
          "indexed": false,
          "internalType": "uint256",
          "name": "_RBTC",
          "type": "uint256"
        },
        {
          "indexed": false,
          "internalType": "uint256",
          "name": "_BPDLoss",
          "type": "uint256"
        }
      ],
      "name": "RBTCGainWithdrawn",
      "type": "event"
    },
    {
      "anonymous": false,
      "inputs": [
        {
          "indexed": false,
          "internalType": "uint256",
          "name": "_S",
          "type": "uint256"
        },
        {
          "indexed": false,
          "internalType": "uint128",
          "name": "_epoch",
          "type": "uint128"
        },
        {
          "indexed": false,
          "internalType": "uint128",
          "name": "_scale",
          "type": "uint128"
        }
      ],
      "name": "S_Updated",
      "type": "event"
    },
    {
      "anonymous": false,
      "inputs": [
        {
          "indexed": false,
          "internalType": "uint128",
          "name": "_currentScale",
          "type": "uint128"
        }
      ],
      "name": "ScaleUpdated",
      "type": "event"
    },
    {
      "anonymous": false,
      "inputs": [
        {
          "indexed": false,
          "internalType": "address",
          "name": "_newSortedVaultsAddress",
          "type": "address"
        }
      ],
      "name": "SortedVaultsAddressChanged",
      "type": "event"
    },
    {
      "anonymous": false,
      "inputs": [
        {
          "indexed": false,
          "internalType": "uint256",
          "name": "_newBalance",
          "type": "uint256"
        }
      ],
      "name": "StabilityPoolBPDBalanceUpdated",
      "type": "event"
    },
    {
      "anonymous": false,
      "inputs": [
        {
          "indexed": false,
          "internalType": "uint256",
          "name": "_newBalance",
          "type": "uint256"
        }
      ],
      "name": "StabilityPoolRBTCBalanceUpdated",
      "type": "event"
    },
    {
      "anonymous": false,
      "inputs": [
        {
          "indexed": true,
          "internalType": "address",
          "name": "_depositor",
          "type": "address"
        },
        {
          "indexed": false,
          "internalType": "uint256",
          "name": "_newDeposit",
          "type": "uint256"
        }
      ],
      "name": "UserDepositChanged",
      "type": "event"
    },
    {
      "anonymous": false,
      "inputs": [
        {
          "indexed": false,
          "internalType": "address",
          "name": "_newVaultManagerAddress",
          "type": "address"
        }
      ],
      "name": "VaultManagerAddressChanged",
      "type": "event"
    },
    {
      "inputs": [],
      "name": "BORROWING_FEE_FLOOR",
      "outputs": [
        {
          "internalType": "uint256",
          "name": "",
          "type": "uint256"
        }
      ],
      "stateMutability": "view",
      "type": "function"
    },
    {
      "inputs": [],
      "name": "BPD_GAS_COMPENSATION",
      "outputs": [
        {
          "internalType": "uint256",
          "name": "",
          "type": "uint256"
        }
      ],
      "stateMutability": "view",
      "type": "function"
    },
    {
      "inputs": [],
      "name": "CCR",
      "outputs": [
        {
          "internalType": "uint256",
          "name": "",
          "type": "uint256"
        }
      ],
      "stateMutability": "view",
      "type": "function"
    },
    {
      "inputs": [],
      "name": "DECIMAL_PRECISION",
      "outputs": [
        {
          "internalType": "uint256",
          "name": "",
          "type": "uint256"
        }
      ],
      "stateMutability": "view",
      "type": "function"
    },
    {
      "inputs": [],
      "name": "MCR",
      "outputs": [
        {
          "internalType": "uint256",
          "name": "",
          "type": "uint256"
        }
      ],
      "stateMutability": "view",
      "type": "function"
    },
    {
      "inputs": [],
      "name": "MIN_NET_DEBT",
      "outputs": [
        {
          "internalType": "uint256",
          "name": "",
          "type": "uint256"
        }
      ],
      "stateMutability": "view",
      "type": "function"
    },
    {
      "inputs": [],
      "name": "NAME",
      "outputs": [
        {
          "internalType": "string",
          "name": "",
          "type": "string"
        }
      ],
      "stateMutability": "view",
      "type": "function"
    },
    {
      "inputs": [],
      "name": "P",
      "outputs": [
        {
          "internalType": "uint256",
          "name": "",
          "type": "uint256"
        }
      ],
      "stateMutability": "view",
      "type": "function"
    },
    {
      "inputs": [],
      "name": "PERCENT_DIVISOR",
      "outputs": [
        {
          "internalType": "uint256",
          "name": "",
          "type": "uint256"
        }
      ],
      "stateMutability": "view",
      "type": "function"
    },
    {
      "inputs": [],
      "name": "SCALE_FACTOR",
      "outputs": [
        {
          "internalType": "uint256",
          "name": "",
          "type": "uint256"
        }
      ],
      "stateMutability": "view",
      "type": "function"
    },
    {
      "inputs": [],
      "name": "_100pct",
      "outputs": [
        {
          "internalType": "uint256",
          "name": "",
          "type": "uint256"
        }
      ],
      "stateMutability": "view",
      "type": "function"
    },
    {
      "inputs": [],
      "name": "activePool",
      "outputs": [
        {
          "internalType": "contract IActivePool",
          "name": "",
          "type": "address"
        }
      ],
      "stateMutability": "view",
      "type": "function"
    },
    {
      "inputs": [],
      "name": "borrowerOperations",
      "outputs": [
        {
          "internalType": "contract IBorrowerOperations",
          "name": "",
          "type": "address"
        }
      ],
      "stateMutability": "view",
      "type": "function"
    },
    {
      "inputs": [],
      "name": "bpdToken",
      "outputs": [
        {
          "internalType": "contract IBPDToken",
          "name": "",
          "type": "address"
        }
      ],
      "stateMutability": "view",
      "type": "function"
    },
    {
      "inputs": [],
      "name": "communityIssuance",
      "outputs": [
        {
          "internalType": "contract ICommunityIssuance",
          "name": "",
          "type": "address"
        }
      ],
      "stateMutability": "view",
      "type": "function"
    },
    {
      "inputs": [],
      "name": "currentEpoch",
      "outputs": [
        {
          "internalType": "uint128",
          "name": "",
          "type": "uint128"
        }
      ],
      "stateMutability": "view",
      "type": "function"
    },
    {
      "inputs": [],
      "name": "currentScale",
      "outputs": [
        {
          "internalType": "uint128",
          "name": "",
          "type": "uint128"
        }
      ],
      "stateMutability": "view",
      "type": "function"
    },
    {
      "inputs": [],
      "name": "defaultPool",
      "outputs": [
        {
          "internalType": "contract IDefaultPool",
          "name": "",
          "type": "address"
        }
      ],
      "stateMutability": "view",
      "type": "function"
    },
    {
      "inputs": [
        {
          "internalType": "address",
          "name": "",
          "type": "address"
        }
      ],
      "name": "depositSnapshots",
      "outputs": [
        {
          "internalType": "uint256",
          "name": "S",
          "type": "uint256"
        },
        {
          "internalType": "uint256",
          "name": "P",
          "type": "uint256"
        },
        {
          "internalType": "uint256",
          "name": "G",
          "type": "uint256"
        },
        {
          "internalType": "uint128",
          "name": "scale",
          "type": "uint128"
        },
        {
          "internalType": "uint128",
          "name": "epoch",
          "type": "uint128"
        }
      ],
      "stateMutability": "view",
      "type": "function"
    },
    {
      "inputs": [
        {
          "internalType": "address",
          "name": "",
          "type": "address"
        }
      ],
      "name": "deposits",
      "outputs": [
        {
          "internalType": "uint256",
          "name": "initialValue",
          "type": "uint256"
        },
        {
          "internalType": "address",
          "name": "frontEndTag",
          "type": "address"
        }
      ],
      "stateMutability": "view",
      "type": "function"
    },
    {
      "inputs": [
        {
          "internalType": "uint128",
          "name": "",
          "type": "uint128"
        },
        {
          "internalType": "uint128",
          "name": "",
          "type": "uint128"
        }
      ],
      "name": "epochToScaleToG",
      "outputs": [
        {
          "internalType": "uint256",
          "name": "",
          "type": "uint256"
        }
      ],
      "stateMutability": "view",
      "type": "function"
    },
    {
      "inputs": [
        {
          "internalType": "uint128",
          "name": "",
          "type": "uint128"
        },
        {
          "internalType": "uint128",
          "name": "",
          "type": "uint128"
        }
      ],
      "name": "epochToScaleToSum",
      "outputs": [
        {
          "internalType": "uint256",
          "name": "",
          "type": "uint256"
        }
      ],
      "stateMutability": "view",
      "type": "function"
    },
    {
      "inputs": [
        {
          "internalType": "address",
          "name": "",
          "type": "address"
        }
      ],
      "name": "frontEndSnapshots",
      "outputs": [
        {
          "internalType": "uint256",
          "name": "S",
          "type": "uint256"
        },
        {
          "internalType": "uint256",
          "name": "P",
          "type": "uint256"
        },
        {
          "internalType": "uint256",
          "name": "G",
          "type": "uint256"
        },
        {
          "internalType": "uint128",
          "name": "scale",
          "type": "uint128"
        },
        {
          "internalType": "uint128",
          "name": "epoch",
          "type": "uint128"
        }
      ],
      "stateMutability": "view",
      "type": "function"
    },
    {
      "inputs": [
        {
          "internalType": "address",
          "name": "",
          "type": "address"
        }
      ],
      "name": "frontEndStakes",
      "outputs": [
        {
          "internalType": "uint256",
          "name": "",
          "type": "uint256"
        }
      ],
      "stateMutability": "view",
      "type": "function"
    },
    {
      "inputs": [
        {
          "internalType": "address",
          "name": "",
          "type": "address"
        }
      ],
      "name": "frontEnds",
      "outputs": [
        {
          "internalType": "uint256",
          "name": "kickbackRate",
          "type": "uint256"
        },
        {
          "internalType": "bool",
          "name": "registered",
          "type": "bool"
        }
      ],
      "stateMutability": "view",
      "type": "function"
    },
    {
      "inputs": [
        {
          "internalType": "address",
          "name": "_depositor",
          "type": "address"
        }
      ],
      "name": "getCompoundedBPDDeposit",
      "outputs": [
        {
          "internalType": "uint256",
          "name": "",
          "type": "uint256"
        }
      ],
      "stateMutability": "view",
      "type": "function"
    },
    {
      "inputs": [
        {
          "internalType": "address",
          "name": "_frontEnd",
          "type": "address"
        }
      ],
      "name": "getCompoundedFrontEndStake",
      "outputs": [
        {
          "internalType": "uint256",
          "name": "",
          "type": "uint256"
        }
      ],
      "stateMutability": "view",
      "type": "function"
    },
    {
      "inputs": [
        {
          "internalType": "address",
          "name": "_depositor",
          "type": "address"
        }
      ],
      "name": "getDepositorMPGain",
      "outputs": [
        {
          "internalType": "uint256",
          "name": "",
          "type": "uint256"
        }
      ],
      "stateMutability": "view",
      "type": "function"
    },
    {
      "inputs": [
        {
          "internalType": "address",
          "name": "_depositor",
          "type": "address"
        }
      ],
      "name": "getDepositorRBTCGain",
      "outputs": [
        {
          "internalType": "uint256",
          "name": "",
          "type": "uint256"
        }
      ],
      "stateMutability": "view",
      "type": "function"
    },
    {
      "inputs": [],
      "name": "getEntireSystemColl",
      "outputs": [
        {
          "internalType": "uint256",
          "name": "entireSystemColl",
          "type": "uint256"
        }
      ],
      "stateMutability": "view",
      "type": "function"
    },
    {
      "inputs": [],
      "name": "getEntireSystemDebt",
      "outputs": [
        {
          "internalType": "uint256",
          "name": "entireSystemDebt",
          "type": "uint256"
        }
      ],
      "stateMutability": "view",
      "type": "function"
    },
    {
      "inputs": [
        {
          "internalType": "address",
          "name": "_frontEnd",
          "type": "address"
        }
      ],
      "name": "getFrontEndMPGain",
      "outputs": [
        {
          "internalType": "uint256",
          "name": "",
          "type": "uint256"
        }
      ],
      "stateMutability": "view",
      "type": "function"
    },
    {
      "inputs": [],
      "name": "getRBTC",
      "outputs": [
        {
          "internalType": "uint256",
          "name": "",
          "type": "uint256"
        }
      ],
      "stateMutability": "view",
      "type": "function"
    },
    {
      "inputs": [],
      "name": "getTotalBPDDeposits",
      "outputs": [
        {
          "internalType": "uint256",
          "name": "",
          "type": "uint256"
        }
      ],
      "stateMutability": "view",
      "type": "function"
    },
    {
      "inputs": [],
      "name": "isOwner",
      "outputs": [
        {
          "internalType": "bool",
          "name": "",
          "type": "bool"
        }
      ],
      "stateMutability": "view",
      "type": "function"
    },
    {
      "inputs": [],
      "name": "lastBPDLossError_Offset",
      "outputs": [
        {
          "internalType": "uint256",
          "name": "",
          "type": "uint256"
        }
      ],
      "stateMutability": "view",
      "type": "function"
    },
    {
      "inputs": [],
      "name": "lastMPError",
      "outputs": [
        {
          "internalType": "uint256",
          "name": "",
          "type": "uint256"
        }
      ],
      "stateMutability": "view",
      "type": "function"
    },
    {
      "inputs": [],
      "name": "lastRBTCError_Offset",
      "outputs": [
        {
          "internalType": "uint256",
          "name": "",
          "type": "uint256"
        }
      ],
      "stateMutability": "view",
      "type": "function"
    },
    {
      "inputs": [
        {
          "internalType": "uint256",
          "name": "_debtToOffset",
          "type": "uint256"
        },
        {
          "internalType": "uint256",
          "name": "_collToAdd",
          "type": "uint256"
        }
      ],
      "name": "offset",
      "outputs": [],
      "stateMutability": "nonpayable",
      "type": "function"
    },
    {
      "inputs": [],
      "name": "owner",
      "outputs": [
        {
          "internalType": "address",
          "name": "",
          "type": "address"
        }
      ],
      "stateMutability": "view",
      "type": "function"
    },
    {
      "inputs": [],
      "name": "priceFeed",
      "outputs": [
        {
          "internalType": "contract IPriceFeed",
          "name": "",
          "type": "address"
        }
      ],
      "stateMutability": "view",
      "type": "function"
    },
    {
      "inputs": [
        {
          "internalType": "uint256",
          "name": "_amount",
          "type": "uint256"
        },
        {
          "internalType": "address",
          "name": "_frontEndTag",
          "type": "address"
        }
      ],
      "name": "provideToSP",
      "outputs": [],
      "stateMutability": "nonpayable",
      "type": "function"
    },
    {
      "inputs": [
        {
          "internalType": "uint256",
          "name": "_kickbackRate",
          "type": "uint256"
        }
      ],
      "name": "registerFrontEnd",
      "outputs": [],
      "stateMutability": "nonpayable",
      "type": "function"
    },
    {
      "inputs": [
        {
          "internalType": "address",
          "name": "_borrowerOperationsAddress",
          "type": "address"
        },
        {
          "internalType": "address",
          "name": "_vaultManagerAddress",
          "type": "address"
        },
        {
          "internalType": "address",
          "name": "_activePoolAddress",
          "type": "address"
        },
        {
          "internalType": "address",
          "name": "_bpdTokenAddress",
          "type": "address"
        },
        {
          "internalType": "address",
          "name": "_sortedVaultsAddress",
          "type": "address"
        },
        {
          "internalType": "address",
          "name": "_priceFeedAddress",
          "type": "address"
        },
        {
          "internalType": "address",
          "name": "_communityIssuanceAddress",
          "type": "address"
        }
      ],
      "name": "setAddresses",
      "outputs": [],
      "stateMutability": "nonpayable",
      "type": "function"
    },
    {
      "inputs": [],
      "name": "sortedVaults",
      "outputs": [
        {
          "internalType": "contract ISortedVaults",
          "name": "",
          "type": "address"
        }
      ],
      "stateMutability": "view",
      "type": "function"
    },
    {
      "inputs": [],
      "name": "unprotectedPayable",
      "outputs": [],
      "stateMutability": "payable",
      "type": "function"
    },
    {
      "inputs": [],
      "name": "vaultManager",
      "outputs": [
        {
          "internalType": "contract IVaultManager",
          "name": "",
          "type": "address"
        }
      ],
      "stateMutability": "view",
      "type": "function"
    },
    {
      "inputs": [
        {
          "internalType": "uint256",
          "name": "_amount",
          "type": "uint256"
        }
      ],
      "name": "withdrawFromSP",
      "outputs": [],
      "stateMutability": "nonpayable",
      "type": "function"
    },
    {
      "inputs": [
        {
          "internalType": "address",
          "name": "_upperHint",
          "type": "address"
        },
        {
          "internalType": "address",
          "name": "_lowerHint",
          "type": "address"
        }
      ],
      "name": "withdrawRBTCGainToVault",
      "outputs": [],
      "stateMutability": "nonpayable",
      "type": "function"
    },
    {
      "stateMutability": "payable",
      "type": "receive"
    }
  ],
  "bytecode": "0x6080604052670de0b6b3a764000060105534801561001c57600080fd5b50600380546001600160a01b031916339081179091556040516000907f8be0079c531659141344cd1fd0a4f28419497f9722a3daafe3b4186f6b6457e0908290a36139508061006c6000396000f3fe6080604052600436106102a25760003560e01c806382e0a57411610165578063a619cc1f116100cc578063dde598b911610085578063dde598b91461091d578063df9cd84f14610932578063eaa8ba7f14610965578063f3af7c3b146109ca578063f7d5b0b1146109d2578063f92d343314610a05578063fc7e286d14610a1a576102e9565b8063a619cc1f1461082c578063a7bfff9714610841578063ce4b5bbe1461088d578063d5929f9c146108a2578063d816708e146108d5578063dd59049614610908576102e9565b80638ea176381161011e5780638ea176381461071c5780638f32d59b1461074f57806395fb16bb14610778578063a20baee614610581578063a3f4df7e1461078d578063a4e59ac814610817576102e9565b806382e0a5741461065a57806386da082414610695578063887105d3146106c85780638a4adf24146106dd5780638b8fbd92146106f25780638da5cb5b14610707576102e9565b80635d2de6421161020957806377553ad4116101c257806377553ad4146105dc57806377a4b5b7146105f157806378b0903b14610606578063794e57241461061b578063795d26c3146106305780637f7dde4a14610645576102e9565b80635d2de642146105005780635f788d65146105335780637165f24f1461056c57806372fe25aa14610581578063741bef1a1461059657806376671808146105ab576102e9565b8063335525ad1161025b578063335525ad146104365780633cc742251461046657806341c200c0146104975780634870dd9a146104ac578063556be101146104c15780635733d58f146104eb576102e9565b80630c06d0e8146102ee57806316b9d3c5146103155780631bf435551461037f57806328a0a04d146103945780632a9a67b6146103cf5780632e54bf951461040c576102e9565b366102e9576102af610a6e565b6009546102c2903463ffffffff610ab916565b6009819055604080519182525160008051602061368a8339815191529181900360200190a1005b600080fd5b3480156102fa57600080fd5b50610303610b1c565b60408051918252519081900360200190f35b34801561032157600080fd5b506103486004803603602081101561033857600080fd5b50356001600160a01b0316610b22565b604080519586526020860194909452848401929092526001600160801b039081166060850152166080830152519081900360a00190f35b34801561038b57600080fd5b50610303610b5d565b3480156103a057600080fd5b50610303600480360360408110156103b757600080fd5b506001600160801b0381358116916020013516610b6a565b3480156103db57600080fd5b5061040a600480360360408110156103f257600080fd5b506001600160a01b0381358116916020013516610b87565b005b34801561041857600080fd5b5061040a6004803603602081101561042f57600080fd5b5035610db7565b34801561044257600080fd5b5061040a6004803603604081101561045957600080fd5b5080359060200135610f40565b34801561047257600080fd5b5061047b610fa4565b604080516001600160a01b039092168252519081900360200190f35b3480156104a357600080fd5b50610303610fb3565b3480156104b857600080fd5b50610303610fb9565b3480156104cd57600080fd5b5061040a600480360360208110156104e457600080fd5b5035610fbe565b3480156104f757600080fd5b50610303611033565b34801561050c57600080fd5b506103036004803603602081101561052357600080fd5b50356001600160a01b031661103f565b34801561053f57600080fd5b5061040a6004803603604081101561055657600080fd5b50803590602001356001600160a01b0316611051565b34801561057857600080fd5b5061047b6111d2565b34801561058d57600080fd5b506103036111e1565b3480156105a257600080fd5b5061047b6111ed565b3480156105b757600080fd5b506105c06111fc565b604080516001600160801b039092168252519081900360200190f35b3480156105e857600080fd5b5061047b611212565b3480156105fd57600080fd5b50610303611221565b34801561061257600080fd5b50610303611227565b34801561062757600080fd5b5061030361122d565b34801561063c57600080fd5b50610303611239565b34801561065157600080fd5b5061047b61133a565b34801561066657600080fd5b506103036004803603604081101561067d57600080fd5b506001600160801b0381358116916020013516611349565b3480156106a157600080fd5b50610348600480360360208110156106b857600080fd5b50356001600160a01b0316611366565b3480156106d457600080fd5b506103036113a1565b3480156106e957600080fd5b5061047b61145d565b3480156106fe57600080fd5b5061030361146c565b34801561071357600080fd5b5061047b611472565b34801561072857600080fd5b506103036004803603602081101561073f57600080fd5b50356001600160a01b0316611481565b34801561075b57600080fd5b50610764611587565b604080519115158252519081900360200190f35b34801561078457600080fd5b5061047b611598565b34801561079957600080fd5b506107a26115a7565b6040805160208082528351818301528351919283929083019185019080838360005b838110156107dc5781810151838201526020016107c4565b50505050905090810190601f1680156108095780820380516001836020036101000a031916815260200191505b509250505060405180910390f35b34801561082357600080fd5b506105c06115d0565b34801561083857600080fd5b506103036115df565b34801561084d57600080fd5b506108746004803603602081101561086457600080fd5b50356001600160a01b03166115ec565b6040805192835290151560208301528051918290030190f35b34801561089957600080fd5b50610303611608565b3480156108ae57600080fd5b50610303600480360360208110156108c557600080fd5b50356001600160a01b0316611610565b3480156108e157600080fd5b50610303600480360360208110156108f857600080fd5b50356001600160a01b03166116b6565b34801561091457600080fd5b5061047b611753565b34801561092957600080fd5b50610303611762565b34801561093e57600080fd5b506103036004803603602081101561095557600080fd5b50356001600160a01b0316611768565b34801561097157600080fd5b5061040a600480360360e081101561098857600080fd5b506001600160a01b038135811691602081013582169160408201358116916060810135821691608082013581169160a081013582169160c09091013516611805565b61040a611ab6565b3480156109de57600080fd5b50610303600480360360208110156109f557600080fd5b50356001600160a01b0316611ace565b348015610a1157600080fd5b50610303611bcb565b348015610a2657600080fd5b50610a4d60048036036020811015610a3d57600080fd5b50356001600160a01b0316611bd6565b604080519283526001600160a01b0390911660208301528051918290030190f35b6000546001600160a01b03163314610ab75760405162461bcd60e51b81526004018080602001828103825260278152602001806136aa6027913960400191505060405180910390fd5b565b600082820183811015610b13576040805162461bcd60e51b815260206004820152601b60248201527f536166654d6174683a206164646974696f6e206f766572666c6f770000000000604482015290519081900360640190fd5b90505b92915050565b60145481565b600f602052600090815260409020805460018201546002830154600390930154919290916001600160801b0380821691600160801b90041685565b686194049f30f720000081565b601260209081526000928352604080842090915290825290205481565b336000908152600b6020526040902054610ba081611bf8565b610ba933611c3a565b610bb233611cf1565b6008546001600160a01b0316610bc781611d3d565b6000610bd2336116b6565b90506000610bdf33611610565b90506000610bf3858363ffffffff611db116565b336000818152600b60205260409020600101549192506001600160a01b0390911690610c2190869083611df3565b6000610c2c82611768565b905080610c398382611f92565b6040805182815233602082015281516001600160a01b038616926000805160206138fb833981519152928290030190a2610c7333866120de565b604080518781526020810186905281513392600080516020613624833981519152928290030190a26040805186815290513391600080516020613763833981519152919081900360200190a2600954610cd2908763ffffffff611db116565b6009819055604080519182525160008051602061368a8339815191529181900360200190a1604080513381526020810188905281517f1083bc5da936d61fceb9f9e509171faa5ae4756c47a742bf3fa2f9b4cd8132fe929181900390910190a16004805460408051630e4df55f60e01b815233938101939093526001600160a01b038d811660248501528c811660448501529051911691630e4df55f91899160648082019260009290919082900301818588803b158015610d9257600080fd5b505af1158015610da6573d6000803e3d6000fd5b505050505050505050505050505050565b8015610dc557610dc5612264565b336000908152600b6020526040902054610dde81611bf8565b6008546001600160a01b0316610df381611d3d565b6000610dfe336116b6565b90506000610e0b33611610565b90506000610e198683612421565b90506000610e2d868463ffffffff611db116565b336000818152600b60205260409020600101549192506001600160a01b0390911690610e5b90879083611df3565b6000610e6682611768565b90506000610e7a828663ffffffff611db116565b9050610e868382611f92565b6040805182815233602082015281516001600160a01b038616926000805160206138fb833981519152928290030190a2610ec03386612437565b6000610ed2878763ffffffff611db116565b9050610ede33826120de565b6040805182815290513391600080516020613763833981519152919081900360200190a2604080518981526020810187905281513392600080516020613624833981519152928290030190a2610f33886124bd565b5050505050505050505050565b610f486125c9565b600a54801580610f56575082155b15610f615750610fa0565b600854610f76906001600160a01b0316611d3d565b600080610f84848685612612565b91509150610f92828261270b565b610f9c8486612a05565b5050505b5050565b6001546001600160a01b031681565b60155481565b60c881565b610fc733612b3f565b610fd033612b9a565b610fd981612bf0565b336000818152600d60209081526040918290208481556001908101805460ff19169091179055815184815291517f19bc932fb9e16a8b5a1e41be9f4c2de59d5ddd7567b8b81405f532ca00a9880e9281900390910190a250565b6714d1120d7b16000081565b600e6020526000908152604090205481565b61105a81612c37565b61106333612b3f565b61106c82612ca3565b336000908152600b60205260409020546008546001600160a01b031661109181611d3d565b816110a0576110a03384612ce2565b60006110ab336116b6565b905060006110b833611610565b905060006110cc858363ffffffff611db116565b336000818152600b60205260409020600101549192506001600160a01b03909116906110fa90869083611df3565b600061110582611768565b90506000611119828b63ffffffff610ab916565b90506111258382611f92565b6040805182815233602082015281516001600160a01b038616926000805160206138fb833981519152928290030190a261115f338b612d3c565b6000611171868c63ffffffff610ab916565b905061117d33826120de565b6040805182815290513391600080516020613763833981519152919081900360200190a2604080518881526020810187905281513392600080516020613624833981519152928290030190a2610f33876124bd565b6007546001600160a01b031681565b670de0b6b3a764000081565b6002546001600160a01b031681565b601154600160801b90046001600160801b031681565b6004546001600160a01b031681565b60095490565b60165481565b670f43fc2c04ee000081565b6000805460408051638f07158d60e01b8152905183926001600160a01b031691638f07158d916004808301926020929190829003018186803b15801561127e57600080fd5b505afa158015611292573d6000803e3d6000fd5b505050506040513d60208110156112a857600080fd5b505160015460408051638f07158d60e01b815290519293506000926001600160a01b0390921691638f07158d91600480820192602092909190829003018186803b1580156112f557600080fd5b505afa158015611309573d6000803e3d6000fd5b505050506040513d602081101561131f57600080fd5b50519050611333828263ffffffff610ab916565b9250505090565b6000546001600160a01b031681565b601360209081526000928352604080842090915290825290205481565b600c602052600090815260409020805460018201546002830154600390930154919290916001600160801b0380821691600160801b90041685565b60008054604080516377a4b5b760e01b8152905183926001600160a01b0316916377a4b5b7916004808301926020929190829003018186803b1580156113e657600080fd5b505afa1580156113fa573d6000803e3d6000fd5b505050506040513d602081101561141057600080fd5b5051600154604080516377a4b5b760e01b815290519293506000926001600160a01b03909216916377a4b5b791600480820192602092909190829003018186803b1580156112f557600080fd5b6005546001600160a01b031681565b60105481565b6003546001600160a01b031690565b6001600160a01b0381166000908152600e6020526040812054806114a9576000915050611582565b6001600160a01b0383166000908152600d6020526040812054906114db670de0b6b3a76400008363ffffffff611db116565b90506114e561358e565b506001600160a01b0385166000908152600f60209081526040808320815160a08101835281548152600182015493810193909352600281015491830191909152600301546001600160801b038082166060840152600160801b9091041660808201529061157a670de0b6b3a764000061156e6115618886612e06565b869063ffffffff612ef816565b9063ffffffff612f5116565b955050505050505b919050565b6003546001600160a01b0316331490565b6008546001600160a01b031681565b6040518060400160405280600d81526020016c14dd18589a5b1a5d1e541bdbdb609a1b81525081565b6011546001600160801b031681565b680ad78ebc5ac620000081565b600d602052600090815260409020805460019091015460ff1682565b633b9aca0081565b6001600160a01b0381166000908152600b602052604081205480611638576000915050611582565b61164061358e565b506001600160a01b0383166000908152600c60209081526040808320815160a08101835281548152600182015493810193909352600281015491830191909152600301546001600160801b038082166060840152600160801b909104166080820152906116ad8383612f93565b95945050505050565b6001600160a01b0381166000908152600b6020526040812054806116de576000915050611582565b6116e661358e565b506001600160a01b0383166000908152600c60209081526040808320815160a08101835281548152600182015493810193909352600281015491830191909152600301546001600160801b038082166060840152600160801b909104166080820152906116ad838361308f565b6006546001600160a01b031681565b600a5490565b6001600160a01b0381166000908152600e602052604081205480611790576000915050611582565b61179861358e565b506001600160a01b0383166000908152600f60209081526040808320815160a08101835281548152600182015493810193909352600281015491830191909152600301546001600160801b038082166060840152600160801b909104166080820152906116ad8383612f93565b61180d611587565b61185e576040805162461bcd60e51b815260206004820181905260248201527f4f776e61626c653a2063616c6c6572206973206e6f7420746865206f776e6572604482015290519081900360640190fd5b6118678761311a565b6118708661311a565b6118798561311a565b6118828461311a565b61188b8361311a565b6118948261311a565b61189d8161311a565b600480546001600160a01b03199081166001600160a01b038a81169182179093556005805483168a85161790556000805483168985161790556006805483168885161790556007805483168785161790556002805483168685161790556008805490921692841692909217905560408051918252517f3ca631ffcd2a9b5d9ae18543fc82f58eb4ca33af9e6ab01b7a8e95331e6ed985916020908290030190a1604080516001600160a01b038816815290517fd396f45b3a6c41f9744b157261875945681f8e23587ae1d7d34377aad3bb16239181900360200190a1604080516001600160a01b038716815290517f78f058b189175430c48dc02699e3a0031ea4ff781536dc2fab847de4babdd8829181900360200190a1604080516001600160a01b038616815290517f4e62a526dbb1c27a0df55dad97eaa57df1e3a95bb380a0bbe38dc5fbc07bb6699181900360200190a1604080516001600160a01b038516815290517fb92ab72da68990756a2b6a93fce7497a60e992b19dd9529f601a977e88117d3c9181900360200190a1604080516001600160a01b038416815290517f8c537274438aa850a330284665d81a85dd38267d09e4050d416bfc94142db2649181900360200190a1604080516001600160a01b038316815290517f3055265812fb8447b9ada4a5d804ec43bd528ec40e89c952bbc7b85dc5ac68119181900360200190a1611aad6131c9565b50505050505050565b600954611ac9903463ffffffff610ab916565b600955565b6001600160a01b0381166000908152600b602052604081205480611af6576000915050611582565b6001600160a01b038084166000908152600b6020526040812060010154909116908115611b3b576001600160a01b0382166000908152600d6020526040902054611b45565b670de0b6b3a76400005b9050611b4f61358e565b506001600160a01b0385166000908152600c60209081526040808320815160a08101835281548152600182015493810193909352600281015491830191909152600301546001600160801b038082166060840152600160801b9091041660808201529061157a670de0b6b3a764000061156e6115618886612e06565b6611c37937e0800081565b600b60205260009081526040902080546001909101546001600160a01b031682565b60008111611c375760405162461bcd60e51b81526004018080602001828103825260308152602001806138cb6030913960400191505060405180910390fd5b50565b6005546040805163180d97c160e01b81526001600160a01b0384811660048301529151919092169163180d97c1916024808301926020929190829003018186803b158015611c8757600080fd5b505afa158015611c9b573d6000803e3d6000fd5b505050506040513d6020811015611cb157600080fd5b5051600114611c375760405162461bcd60e51b81526004018080602001828103825260478152602001806136f56047913960600191505060405180910390fd5b6000611cfc826116b6565b905060008111610fa05760405162461bcd60e51b81526004018080602001828103825260328152602001806135d06032913960400191505060405180910390fd5b6000816001600160a01b0316631a431c8a6040518163ffffffff1660e01b8152600401602060405180830381600087803b158015611d7a57600080fd5b505af1158015611d8e573d6000803e3d6000fd5b505050506040513d6020811015611da457600080fd5b50519050610fa081613213565b6000610b1383836040518060400160405280601e81526020017f536166654d6174683a207375627472616374696f6e206f766572666c6f77000081525061332e565b6001600160a01b03811615611ec8576000611e0d82611481565b9050836001600160a01b031663dbec01c483836040518363ffffffff1660e01b815260040180836001600160a01b03166001600160a01b0316815260200182815260200192505050600060405180830381600087803b158015611e6f57600080fd5b505af1158015611e83573d6000803e3d6000fd5b50506040805184815290516001600160a01b03861693507fd4c50dca240288bb73b0b4da8f2351cfdb90ca861e8122443de6ac626f63347392509081900360200190a2505b6000611ed383611ace565b9050836001600160a01b031663dbec01c484836040518363ffffffff1660e01b815260040180836001600160a01b03166001600160a01b0316815260200182815260200192505050600060405180830381600087803b158015611f3557600080fd5b505af1158015611f49573d6000803e3d6000fd5b50506040805184815290516001600160a01b03871693507f17961f7b8dfc86df03315fc297a16f6f849dc758f9599517f84cca7acf56f62d92509081900360200190a250505050565b6001600160a01b0382166000908152600e6020526040902081905580612022576001600160a01b0382166000818152600f60209081526040808320838155600181018490556002810184905560030183905580518381529182019290925281517fbb1322f85cc7cc8bac4e172a5bc5dcc0c1959007f9a030032abf9258205f0e45929181900390910190a2610fa0565b6011546010546001600160801b03600160801b80840482166000818152601360209081526040808320978616808452978252808320546001600160a01b038b16808552600f845293829020600181018990556002810182905560030180546001600160801b0319168a17909716958502959095179095558451868152908101849052845192959491927fbb1322f85cc7cc8bac4e172a5bc5dcc0c1959007f9a030032abf9258205f0e45929181900390910190a2505050505050565b6001600160a01b0382166000908152600b602052604090208190558061218c576001600160a01b0382166000818152600b60209081526040808320600190810180546001600160a01b0319169055600c83528184208481559081018490556002810184905560030183905580518381529182018390528181019290925290517f2d6cc0bcdf72c9486f6451bde6b80f44066f4558f77f44dbfedbe7d8b295225a9181900360600190a2610fa0565b6011546010546001600160801b03600160801b8084048216600081815260126020908152604080832097861680845297825280832054848452601383528184208985528352818420546001600160a01b038c16808652600c855294839020600181018a90558281556002810182905560030180546001600160801b0319168b179098169686029690961790965580518781529182018690528181018590525192959493927f2d6cc0bcdf72c9486f6451bde6b80f44066f4558f77f44dbfedbe7d8b295225a916060908290030190a250505050505050565b60025460408051630fdb11cf60e01b815290516000926001600160a01b031691630fdb11cf91600480830192602092919082900301818787803b1580156122aa57600080fd5b505af11580156122be573d6000803e3d6000fd5b505050506040513d60208110156122d457600080fd5b505160075460408051634d62283160e01b815290519293506000926001600160a01b0390921691634d62283191600480820192602092909190829003018186803b15801561232157600080fd5b505afa158015612335573d6000803e3d6000fd5b505050506040513d602081101561234b57600080fd5b505160055460408051630d293c7160e41b81526001600160a01b038085166004830152602482018790529151939450600093919092169163d293c710916044808301926020929190829003018186803b1580156123a757600080fd5b505afa1580156123bb573d6000803e3d6000fd5b505050506040513d60208110156123d157600080fd5b50519050670f43fc2c04ee000081101561241c5760405162461bcd60e51b81526004018080602001828103825260448152602001806138006044913960600191505060405180910390fd5b505050565b60008183106124305781610b13565b5090919050565b8061244157610fa0565b60065460408051631062c15f60e11b81523060048201526001600160a01b03858116602483015260448201859052915191909216916320c582be91606480830192600092919082900301818387803b15801561249c57600080fd5b505af11580156124b0573d6000803e3d6000fd5b50505050610fa0816133c5565b806124c757611c37565b6009546000906124dd908363ffffffff611db116565b600981905560408051828152905191925060008051602061368a833981519152919081900360200190a1604080513381526020810184905281517f1083bc5da936d61fceb9f9e509171faa5ae4756c47a742bf3fa2f9b4cd8132fe929181900390910190a1604051600090339084908381818185875af1925050503d8060008114612584576040519150601f19603f3d011682016040523d82523d6000602084013e612589565b606091505b505090508061241c5760405162461bcd60e51b81526004018080602001828103825260228152602001806136026022913960400191505060405180910390fd5b6005546001600160a01b03163314610ab75760405162461bcd60e51b81526004018080602001828103825260298152602001806137836029913960400191505060405180910390fd5b6000806000612644601554612638670de0b6b3a764000089612ef890919063ffffffff16565b9063ffffffff610ab916565b90508385111561265057fe5b8385141561266d576000601655670de0b6b3a764000091506126cd565b60165460009061269b9061268f88670de0b6b3a764000063ffffffff612ef816565b9063ffffffff611db116565b90506126b26001612638838863ffffffff612f5116565b92506126c88161268f858863ffffffff612ef816565b601655505b6126dd818563ffffffff612f5116565b92506126ff6126f2848663ffffffff612ef816565b829063ffffffff611db116565b60155550935093915050565b6010546000670de0b6b3a764000083111561272257fe5b600061273c670de0b6b3a76400008563ffffffff611db116565b6011546001600160801b03600160801b8204811660008181526012602090815260408083209490951680835293905292832054939450909290916127808988612ef8565b90506000612794838363ffffffff610ab916565b6001600160801b038086166000818152601260209081526040808320948b16808452948252918290208590558151858152908101929092528181019290925290519192507fe12e2cd2c9afa8069203ca07e7eff1edce4a075686d0736a8e7e0d593597b207919081900360600190a1856128cb576128226001600160801b038516600163ffffffff61341b16565b601180546001600160801b03908116600160801b938216840217918290556040805193909204168252517fb50f0f59e7cb5b421dc77581c3a9919e3806e076e5fa78a874c3f120cb7d874d916020908290030190a1601180546001600160801b0319169055604080516000815290517f1f9dfc70cd666adb18a39d60a797518f7b4febf4b6e24ef37d44f6e1e7219fbe9181900360200190a1670de0b6b3a764000096506129b7565b633b9aca006128ec670de0b6b3a764000061156e8b8a63ffffffff612ef816565b101561299857612922670de0b6b3a764000061156e633b9aca006129168c8b63ffffffff612ef816565b9063ffffffff612ef816565b965061293e6001600160801b038616600163ffffffff61341b16565b601180546001600160801b0319166001600160801b0392831617908190556040805191909216815290517f1f9dfc70cd666adb18a39d60a797518f7b4febf4b6e24ef37d44f6e1e7219fbe916020908290030190a16129b7565b6129b4670de0b6b3a764000061156e8a8963ffffffff612ef816565b96505b600087116129c157fe5b60108790556040805188815290517fc1a9618cb59ebca77cbdbc2949f126823c407ff13edb285fd0262519a9c18e8c9181900360200190a150505050505050505050565b600080546040805163d3ed5d1960e01b81526004810185905290516001600160a01b0390921692839263d3ed5d1992602480820193929182900301818387803b158015612a5157600080fd5b505af1158015612a65573d6000803e3d6000fd5b50505050612a72826133c5565b60065460408051632770a7eb60e21b81523060048201526024810185905290516001600160a01b0390921691639dc29fac9160448082019260009290919082900301818387803b158015612ac557600080fd5b505af1158015612ad9573d6000803e3d6000fd5b505060408051633efe643b60e01b81523060048201526024810187905290516001600160a01b0385169350633efe643b9250604480830192600092919082900301818387803b158015612b2b57600080fd5b505af1158015611aad573d6000803e3d6000fd5b6001600160a01b0381166000908152600d602052604090206001015460ff1615611c375760405162461bcd60e51b815260040180806020018281038252603981526020018061386a6039913960400191505060405180910390fd5b6001600160a01b0381166000908152600b60205260409020548015610fa05760405162461bcd60e51b81526004018080602001828103825260288152602001806138a36028913960400191505060405180910390fd5b670de0b6b3a7640000811115611c375760405162461bcd60e51b81526004018080602001828103825260338152602001806137cd6033913960400191505060405180910390fd5b6001600160a01b0381166000908152600d602052604090206001015460ff1680612c6857506001600160a01b038116155b611c375760405162461bcd60e51b81526004018080602001828103825260468152602001806136446046913960600191505060405180910390fd5b60008111611c375760405162461bcd60e51b81526004018080602001828103825260268152602001806138446026913960400191505060405180910390fd5b6001600160a01b038281166000818152600b602052604080822060010180546001600160a01b0319169486169485179055517f094c08e96a8890877a8390b4f967180a7507ad8622244d05fcd0f9f8e086564e9190a35050565b60065460408051632ee65eeb60e21b81526001600160a01b038581166004830152306024830152604482018590529151919092169163bb997bac91606480830192600092919082900301818387803b158015612d9757600080fd5b505af1158015612dab573d6000803e3d6000fd5b5050600a5460009250612dc591508363ffffffff610ab916565b600a8190556040805182815290519192507f04f9cd5878b2cea62f27ec8ef7e39a30992a83725c0e57ecc902ef5204d2c228919081900360200190a1505050565b608081015160608201516040808401516020808601516001600160801b03808716600090815260138452858120918716815292529281205490949392908590612e55908463ffffffff611db116565b6001600160801b03808716600090815260136020526040812092935091612eb891633b9aca0091908490612e92908a16600163ffffffff61341b16565b6001600160801b031681526020810191909152604001600020549063ffffffff612f5116565b90506000612eea670de0b6b3a764000061156e8681612edd888863ffffffff610ab916565b8f9063ffffffff612ef816565b9a9950505050505050505050565b600082612f0757506000610b16565b82820282848281612f1457fe5b0414610b135760405162461bcd60e51b81526004018080602001828103825260218152602001806137ac6021913960400191505060405180910390fd5b6000610b1383836040518060400160405280601a81526020017f536166654d6174683a206469766973696f6e206279207a65726f00000000000081525061346b565b6020810151606082015160808301516011546000939291906001600160801b03600160801b90910481169082161015612fd25760009350505050610b16565b6011546000908190612ff3906001600160801b03168563ffffffff6134d016565b90506001600160801b0381166130235761301c8561156e6010548b612ef890919063ffffffff16565b915061305b565b806001600160801b0316600114156130565761301c633b9aca0061156e8761156e6010548d612ef890919063ffffffff16565b600091505b61306f88633b9aca0063ffffffff612f5116565b82101561308457600095505050505050610b16565b509695505050505050565b6080810151606082015182516020808501516001600160801b038086166000908152601284526040808220928716825291909352822054919493929185906130dd908463ffffffff611db116565b6001600160801b03808716600090815260126020526040812092935091612eb891633b9aca0091908490612e92908a16600163ffffffff61341b16565b6001600160a01b038116613175576040805162461bcd60e51b815260206004820152601e60248201527f4163636f756e742063616e6e6f74206265207a65726f20616464726573730000604482015290519081900360640190fd5b803b80610fa0576040805162461bcd60e51b815260206004820181905260248201527f4163636f756e7420636f64652073697a652063616e6e6f74206265207a65726f604482015290519081900360640190fd5b6003546040516000916001600160a01b0316907f8be0079c531659141344cd1fd0a4f28419497f9722a3daafe3b4186f6b6457e0908390a3600380546001600160a01b0319169055565b600a54801580613221575081155b1561322c5750611c37565b60006132388383613529565b9050600061325160105483612ef890919063ffffffff16565b6011546001600160801b03600160801b820481166000908152601360209081526040808320939094168252919091522054909150613295908263ffffffff610ab916565b601180546001600160801b03600160801b808304821660009081526013602081815260408084209686168452958152858320979097559454918204831680825294865283812091909216808352908552908290205482519081529384019290925282810191909152517f2d6127771b164a9cc8827d24b5955db2a77e7a81dac389107ebb8bce9fb649689181900360600190a150505050565b600081848411156133bd5760405162461bcd60e51b81526004018080602001828103825283818151815260200191508051906020019080838360005b8381101561338257818101518382015260200161336a565b50505050905090810190601f1680156133af5780820380516001836020036101000a031916815260200191505b509250505060405180910390fd5b505050900390565b600a546000906133db908363ffffffff611db116565b600a8190556040805182815290519192507f04f9cd5878b2cea62f27ec8ef7e39a30992a83725c0e57ecc902ef5204d2c228919081900360200190a15050565b60008282016001600160801b038085169082161015610b135760405162461bcd60e51b81526004018080602001828103825260248152602001806136d16024913960400191505060405180910390fd5b600081836134ba5760405162461bcd60e51b815260206004820181815283516024840152835190928392604490910191908501908083836000831561338257818101518382015260200161336a565b5060008385816134c657fe5b0495945050505050565b6000826001600160801b0316826001600160801b031611156135235760405162461bcd60e51b815260040180806020018281038252602781526020018061373c6027913960400191505060405180910390fd5b50900390565b60008061354d601454612638670de0b6b3a764000087612ef890919063ffffffff16565b90506000613561828563ffffffff612f5116565b9050613583613576828663ffffffff612ef816565b839063ffffffff611db116565b601455949350505050565b6040518060a0016040528060008152602001600081526020016000815260200160006001600160801b0316815260200160006001600160801b03168152509056fe53746162696c697479506f6f6c3a2063616c6c6572206d7573742068617665206e6f6e2d7a65726f2052425443204761696e53746162696c697479506f6f6c3a2073656e64696e672052425443206661696c65647647f21296d3f6e9eaef6c11921ee86c648fa7541741ac00d93e8a6901476fea53746162696c697479506f6f6c3a20546167206d757374206265206120726567697374657265642066726f6e7420656e642c206f7220746865207a65726f2061646472657373ddac403fcb80275f20059952b43947e9e5600acc486e918a7a94cf51f81655ce53746162696c697479506f6f6c3a2043616c6c6572206973206e6f7420416374697665506f6f6c4d6f6e657970536166654d6174683132383a206164646974696f6e206f766572666c6f7753746162696c697479506f6f6c3a2063616c6c6572206d757374206861766520616e20616374697665207661756c7420746f20776974686472617720524254434761696e20746f4d6f6e657970536166654d6174683132383a207375627472616374696f6e206f766572666c6f77bce78369dccab09eec1986f4d409ab09ffbb47d65423e5148fcf98411c5111c953746162696c697479506f6f6c3a2043616c6c6572206973206e6f74205661756c744d616e61676572536166654d6174683a206d756c7469706c69636174696f6e206f766572666c6f7753746162696c697479506f6f6c3a204b69636b6261636b2072617465206d75737420626520696e2072616e6765205b302c315d53746162696c697479506f6f6c3a2043616e6e6f74207769746864726177207768696c6520746865726520617265207661756c7473207769746820494352203c204d435253746162696c697479506f6f6c3a20416d6f756e74206d757374206265206e6f6e2d7a65726f53746162696c697479506f6f6c3a206d757374206e6f7420616c7265616479206265206120726567697374657265642066726f6e7420656e6453746162696c697479506f6f6c3a2055736572206d7573742068617665206e6f206465706f73697453746162696c697479506f6f6c3a2055736572206d75737420686176652061206e6f6e2d7a65726f206465706f73697499920012339b5a3368d3a04b8606ce412c46ed92b7dcd8602d41fc8862cb8f25a2646970667358221220d3f240f0af120cebd2c6b03274023ac3f679ced7cd9e3a99adb1a870c7a2c9af64736f6c634300060b0033",
  "linkReferences": {},
  "deployedLinkReferences": {}
}