{
  "_format": "hh-sol-artifact-1",
  "contractName": "VaultManagerTester",
  "sourceName": "contracts/TestContracts/CDPManagerTester.sol",
  "abi": [
    {
      "anonymous": false,
      "inputs": [
        {
          "indexed": false,
          "internalType": "address",
          "name": "_activePoolAddress",
          "type": "address"
        }
      ],
      "name": "ActivePoolAddressChanged",
      "type": "event"
    },
    {
      "anonymous": false,
      "inputs": [
        {
          "indexed": false,
          "internalType": "address",
          "name": "_newBPDTokenAddress",
          "type": "address"
        }
      ],
      "name": "BPDTokenAddressChanged",
      "type": "event"
    },
    {
      "anonymous": false,
      "inputs": [
        {
          "indexed": false,
          "internalType": "uint256",
          "name": "_baseRate",
          "type": "uint256"
        }
      ],
      "name": "BaseRateUpdated",
      "type": "event"
    },
    {
      "anonymous": false,
      "inputs": [
        {
          "indexed": false,
          "internalType": "address",
          "name": "_newBorrowerOperationsAddress",
          "type": "address"
        }
      ],
      "name": "BorrowerOperationsAddressChanged",
      "type": "event"
    },
    {
      "anonymous": false,
      "inputs": [
        {
          "indexed": false,
          "internalType": "address",
          "name": "_collSurplusPoolAddress",
          "type": "address"
        }
      ],
      "name": "CollSurplusPoolAddressChanged",
      "type": "event"
    },
    {
      "anonymous": false,
      "inputs": [
        {
          "indexed": false,
          "internalType": "address",
          "name": "_defaultPoolAddress",
          "type": "address"
        }
      ],
      "name": "DefaultPoolAddressChanged",
      "type": "event"
    },
    {
      "anonymous": false,
      "inputs": [
        {
          "indexed": false,
          "internalType": "address",
          "name": "_gasPoolAddress",
          "type": "address"
        }
      ],
      "name": "GasPoolAddressChanged",
      "type": "event"
    },
    {
      "anonymous": false,
      "inputs": [
        {
          "indexed": false,
          "internalType": "uint256",
          "name": "_B_RBTC",
          "type": "uint256"
        },
        {
          "indexed": false,
          "internalType": "uint256",
          "name": "_B_BPDDebt",
          "type": "uint256"
        }
      ],
      "name": "LTermsUpdated",
      "type": "event"
    },
    {
      "anonymous": false,
      "inputs": [
        {
          "indexed": false,
          "internalType": "uint256",
          "name": "_lastFeeOpTime",
          "type": "uint256"
        }
      ],
      "name": "LastFeeOpTimeUpdated",
      "type": "event"
    },
    {
      "anonymous": false,
      "inputs": [
        {
          "indexed": false,
          "internalType": "uint256",
          "name": "_liquidatedDebt",
          "type": "uint256"
        },
        {
          "indexed": false,
          "internalType": "uint256",
          "name": "_liquidatedColl",
          "type": "uint256"
        },
        {
          "indexed": false,
          "internalType": "uint256",
          "name": "_collGasCompensation",
          "type": "uint256"
        },
        {
          "indexed": false,
          "internalType": "uint256",
          "name": "_BPDGasCompensation",
          "type": "uint256"
        }
      ],
      "name": "Liquidation",
      "type": "event"
    },
    {
      "anonymous": false,
      "inputs": [
        {
          "indexed": false,
          "internalType": "address",
          "name": "_mpStakingAddress",
          "type": "address"
        }
      ],
      "name": "MPStakingAddressChanged",
      "type": "event"
    },
    {
      "anonymous": false,
      "inputs": [
        {
          "indexed": false,
          "internalType": "address",
          "name": "_mpTokenAddress",
          "type": "address"
        }
      ],
      "name": "MPTokenAddressChanged",
      "type": "event"
    },
    {
      "anonymous": false,
      "inputs": [
        {
          "indexed": true,
          "internalType": "address",
          "name": "previousOwner",
          "type": "address"
        },
        {
          "indexed": true,
          "internalType": "address",
          "name": "newOwner",
          "type": "address"
        }
      ],
      "name": "OwnershipTransferred",
      "type": "event"
    },
    {
      "anonymous": false,
      "inputs": [
        {
          "indexed": false,
          "internalType": "address",
          "name": "_newPriceFeedAddress",
          "type": "address"
        }
      ],
      "name": "PriceFeedAddressChanged",
      "type": "event"
    },
    {
      "anonymous": false,
      "inputs": [
        {
          "indexed": false,
          "internalType": "uint256",
          "name": "_attemptedBPDAmount",
          "type": "uint256"
        },
        {
          "indexed": false,
          "internalType": "uint256",
          "name": "_actualBPDAmount",
          "type": "uint256"
        },
        {
          "indexed": false,
          "internalType": "uint256",
          "name": "_RBTCSent",
          "type": "uint256"
        },
        {
          "indexed": false,
          "internalType": "uint256",
          "name": "_RBTCFee",
          "type": "uint256"
        }
      ],
      "name": "Redemption",
      "type": "event"
    },
    {
      "anonymous": false,
      "inputs": [
        {
          "indexed": false,
          "internalType": "address",
          "name": "_sortedVaultsAddress",
          "type": "address"
        }
      ],
      "name": "SortedVaultsAddressChanged",
      "type": "event"
    },
    {
      "anonymous": false,
      "inputs": [
        {
          "indexed": false,
          "internalType": "address",
          "name": "_stabilityPoolAddress",
          "type": "address"
        }
      ],
      "name": "StabilityPoolAddressChanged",
      "type": "event"
    },
    {
      "anonymous": false,
      "inputs": [
        {
          "indexed": false,
          "internalType": "uint256",
          "name": "_totalStakesSnapshot",
          "type": "uint256"
        },
        {
          "indexed": false,
          "internalType": "uint256",
          "name": "_totalCollateralSnapshot",
          "type": "uint256"
        }
      ],
      "name": "SystemSnapshotsUpdated",
      "type": "event"
    },
    {
      "anonymous": false,
      "inputs": [
        {
          "indexed": false,
          "internalType": "uint256",
          "name": "_newTotalStakes",
          "type": "uint256"
        }
      ],
      "name": "TotalStakesUpdated",
      "type": "event"
    },
    {
      "anonymous": false,
      "inputs": [
        {
          "indexed": false,
          "internalType": "address",
          "name": "_borrower",
          "type": "address"
        },
        {
          "indexed": false,
          "internalType": "uint256",
          "name": "_newIndex",
          "type": "uint256"
        }
      ],
      "name": "VaultIndexUpdated",
      "type": "event"
    },
    {
      "anonymous": false,
      "inputs": [
        {
          "indexed": true,
          "internalType": "address",
          "name": "_borrower",
          "type": "address"
        },
        {
          "indexed": false,
          "internalType": "uint256",
          "name": "_debt",
          "type": "uint256"
        },
        {
          "indexed": false,
          "internalType": "uint256",
          "name": "_coll",
          "type": "uint256"
        },
        {
          "indexed": false,
          "internalType": "enum VaultManager.VaultManagerOperation",
          "name": "_operation",
          "type": "uint8"
        }
      ],
      "name": "VaultLiquidated",
      "type": "event"
    },
    {
      "anonymous": false,
      "inputs": [
        {
          "indexed": false,
          "internalType": "uint256",
          "name": "_B_RBTC",
          "type": "uint256"
        },
        {
          "indexed": false,
          "internalType": "uint256",
          "name": "_B_BPDDebt",
          "type": "uint256"
        }
      ],
      "name": "VaultSnapshotsUpdated",
      "type": "event"
    },
    {
      "anonymous": false,
      "inputs": [
        {
          "indexed": true,
          "internalType": "address",
          "name": "_borrower",
          "type": "address"
        },
        {
          "indexed": false,
          "internalType": "uint256",
          "name": "_debt",
          "type": "uint256"
        },
        {
          "indexed": false,
          "internalType": "uint256",
          "name": "_coll",
          "type": "uint256"
        },
        {
          "indexed": false,
          "internalType": "uint256",
          "name": "_stake",
          "type": "uint256"
        },
        {
          "indexed": false,
          "internalType": "enum VaultManager.VaultManagerOperation",
          "name": "_operation",
          "type": "uint8"
        }
      ],
      "name": "VaultUpdated",
      "type": "event"
    },
    {
      "inputs": [],
      "name": "BETA",
      "outputs": [
        {
          "internalType": "uint256",
          "name": "",
          "type": "uint256"
        }
      ],
      "stateMutability": "view",
      "type": "function"
    },
    {
      "inputs": [],
      "name": "BOOTSTRAP_PERIOD",
      "outputs": [
        {
          "internalType": "uint256",
          "name": "",
          "type": "uint256"
        }
      ],
      "stateMutability": "view",
      "type": "function"
    },
    {
      "inputs": [],
      "name": "BORROWING_FEE_FLOOR",
      "outputs": [
        {
          "internalType": "uint256",
          "name": "",
          "type": "uint256"
        }
      ],
      "stateMutability": "view",
      "type": "function"
    },
    {
      "inputs": [],
      "name": "BPD_GAS_COMPENSATION",
      "outputs": [
        {
          "internalType": "uint256",
          "name": "",
          "type": "uint256"
        }
      ],
      "stateMutability": "view",
      "type": "function"
    },
    {
      "inputs": [],
      "name": "B_BPDDebt",
      "outputs": [
        {
          "internalType": "uint256",
          "name": "",
          "type": "uint256"
        }
      ],
      "stateMutability": "view",
      "type": "function"
    },
    {
      "inputs": [],
      "name": "B_RBTC",
      "outputs": [
        {
          "internalType": "uint256",
          "name": "",
          "type": "uint256"
        }
      ],
      "stateMutability": "view",
      "type": "function"
    },
    {
      "inputs": [],
      "name": "CCR",
      "outputs": [
        {
          "internalType": "uint256",
          "name": "",
          "type": "uint256"
        }
      ],
      "stateMutability": "view",
      "type": "function"
    },
    {
      "inputs": [],
      "name": "DECIMAL_PRECISION",
      "outputs": [
        {
          "internalType": "uint256",
          "name": "",
          "type": "uint256"
        }
      ],
      "stateMutability": "view",
      "type": "function"
    },
    {
      "inputs": [],
      "name": "MAX_BORROWING_FEE",
      "outputs": [
        {
          "internalType": "uint256",
          "name": "",
          "type": "uint256"
        }
      ],
      "stateMutability": "view",
      "type": "function"
    },
    {
      "inputs": [],
      "name": "MCR",
      "outputs": [
        {
          "internalType": "uint256",
          "name": "",
          "type": "uint256"
        }
      ],
      "stateMutability": "view",
      "type": "function"
    },
    {
      "inputs": [],
      "name": "MINUTE_DECAY_FACTOR",
      "outputs": [
        {
          "internalType": "uint256",
          "name": "",
          "type": "uint256"
        }
      ],
      "stateMutability": "view",
      "type": "function"
    },
    {
      "inputs": [],
      "name": "MIN_NET_DEBT",
      "outputs": [
        {
          "internalType": "uint256",
          "name": "",
          "type": "uint256"
        }
      ],
      "stateMutability": "view",
      "type": "function"
    },
    {
      "inputs": [],
      "name": "NAME",
      "outputs": [
        {
          "internalType": "string",
          "name": "",
          "type": "string"
        }
      ],
      "stateMutability": "view",
      "type": "function"
    },
    {
      "inputs": [],
      "name": "PERCENT_DIVISOR",
      "outputs": [
        {
          "internalType": "uint256",
          "name": "",
          "type": "uint256"
        }
      ],
      "stateMutability": "view",
      "type": "function"
    },
    {
      "inputs": [],
      "name": "REDEMPTION_FEE_FLOOR",
      "outputs": [
        {
          "internalType": "uint256",
          "name": "",
          "type": "uint256"
        }
      ],
      "stateMutability": "view",
      "type": "function"
    },
    {
      "inputs": [],
      "name": "SECONDS_IN_ONE_MINUTE",
      "outputs": [
        {
          "internalType": "uint256",
          "name": "",
          "type": "uint256"
        }
      ],
      "stateMutability": "view",
      "type": "function"
    },
    {
      "inputs": [
        {
          "internalType": "uint256",
          "name": "",
          "type": "uint256"
        }
      ],
      "name": "VaultOwners",
      "outputs": [
        {
          "internalType": "address",
          "name": "",
          "type": "address"
        }
      ],
      "stateMutability": "view",
      "type": "function"
    },
    {
      "inputs": [
        {
          "internalType": "address",
          "name": "",
          "type": "address"
        }
      ],
      "name": "Vaults",
      "outputs": [
        {
          "internalType": "uint256",
          "name": "debt",
          "type": "uint256"
        },
        {
          "internalType": "uint256",
          "name": "coll",
          "type": "uint256"
        },
        {
          "internalType": "uint256",
          "name": "stake",
          "type": "uint256"
        },
        {
          "internalType": "enum VaultManager.Status",
          "name": "status",
          "type": "uint8"
        },
        {
          "internalType": "uint128",
          "name": "arrayIndex",
          "type": "uint128"
        }
      ],
      "stateMutability": "view",
      "type": "function"
    },
    {
      "inputs": [],
      "name": "_100pct",
      "outputs": [
        {
          "internalType": "uint256",
          "name": "",
          "type": "uint256"
        }
      ],
      "stateMutability": "view",
      "type": "function"
    },
    {
      "inputs": [],
      "name": "activePool",
      "outputs": [
        {
          "internalType": "contract IActivePool",
          "name": "",
          "type": "address"
        }
      ],
      "stateMutability": "view",
      "type": "function"
    },
    {
      "inputs": [
        {
          "internalType": "address",
          "name": "_borrower",
          "type": "address"
        }
      ],
      "name": "addVaultOwnerToArray",
      "outputs": [
        {
          "internalType": "uint256",
          "name": "index",
          "type": "uint256"
        }
      ],
      "stateMutability": "nonpayable",
      "type": "function"
    },
    {
      "inputs": [
        {
          "internalType": "address",
          "name": "_borrower",
          "type": "address"
        }
      ],
      "name": "applyPendingRewards",
      "outputs": [],
      "stateMutability": "nonpayable",
      "type": "function"
    },
    {
      "inputs": [],
      "name": "baseRate",
      "outputs": [
        {
          "internalType": "uint256",
          "name": "",
          "type": "uint256"
        }
      ],
      "stateMutability": "view",
      "type": "function"
    },
    {
      "inputs": [
        {
          "internalType": "address[]",
          "name": "_vaultArray",
          "type": "address[]"
        }
      ],
      "name": "batchLiquidateVaults",
      "outputs": [],
      "stateMutability": "nonpayable",
      "type": "function"
    },
    {
      "inputs": [],
      "name": "borrowerOperationsAddress",
      "outputs": [
        {
          "internalType": "address",
          "name": "",
          "type": "address"
        }
      ],
      "stateMutability": "view",
      "type": "function"
    },
    {
      "inputs": [],
      "name": "bpdToken",
      "outputs": [
        {
          "internalType": "contract IBPDToken",
          "name": "",
          "type": "address"
        }
      ],
      "stateMutability": "view",
      "type": "function"
    },
    {
      "inputs": [
        {
          "internalType": "uint256",
          "name": "_RBTCDrawn",
          "type": "uint256"
        }
      ],
      "name": "callGetRedemptionFee",
      "outputs": [
        {
          "internalType": "uint256",
          "name": "",
          "type": "uint256"
        }
      ],
      "stateMutability": "view",
      "type": "function"
    },
    {
      "inputs": [
        {
          "internalType": "address",
          "name": "_vaultOwner",
          "type": "address"
        }
      ],
      "name": "callInternalRemoveVaultOwner",
      "outputs": [],
      "stateMutability": "nonpayable",
      "type": "function"
    },
    {
      "inputs": [
        {
          "internalType": "uint256",
          "name": "_price",
          "type": "uint256"
        }
      ],
      "name": "checkRecoveryMode",
      "outputs": [
        {
          "internalType": "bool",
          "name": "",
          "type": "bool"
        }
      ],
      "stateMutability": "view",
      "type": "function"
    },
    {
      "inputs": [
        {
          "internalType": "address",
          "name": "_borrower",
          "type": "address"
        }
      ],
      "name": "closeVault",
      "outputs": [],
      "stateMutability": "nonpayable",
      "type": "function"
    },
    {
      "inputs": [
        {
          "internalType": "uint256",
          "name": "_coll",
          "type": "uint256"
        },
        {
          "internalType": "uint256",
          "name": "_debt",
          "type": "uint256"
        },
        {
          "internalType": "uint256",
          "name": "_price",
          "type": "uint256"
        }
      ],
      "name": "computeICR",
      "outputs": [
        {
          "internalType": "uint256",
          "name": "",
          "type": "uint256"
        }
      ],
      "stateMutability": "pure",
      "type": "function"
    },
    {
      "inputs": [],
      "name": "decayBaseRateFromBorrowing",
      "outputs": [],
      "stateMutability": "nonpayable",
      "type": "function"
    },
    {
      "inputs": [
        {
          "internalType": "address",
          "name": "_borrower",
          "type": "address"
        },
        {
          "internalType": "uint256",
          "name": "_collDecrease",
          "type": "uint256"
        }
      ],
      "name": "decreaseVaultColl",
      "outputs": [
        {
          "internalType": "uint256",
          "name": "",
          "type": "uint256"
        }
      ],
      "stateMutability": "nonpayable",
      "type": "function"
    },
    {
      "inputs": [
        {
          "internalType": "address",
          "name": "_borrower",
          "type": "address"
        },
        {
          "internalType": "uint256",
          "name": "_debtDecrease",
          "type": "uint256"
        }
      ],
      "name": "decreaseVaultDebt",
      "outputs": [
        {
          "internalType": "uint256",
          "name": "",
          "type": "uint256"
        }
      ],
      "stateMutability": "nonpayable",
      "type": "function"
    },
    {
      "inputs": [],
      "name": "defaultPool",
      "outputs": [
        {
          "internalType": "contract IDefaultPool",
          "name": "",
          "type": "address"
        }
      ],
      "stateMutability": "view",
      "type": "function"
    },
    {
      "inputs": [
        {
          "internalType": "uint256",
          "name": "_debtVal",
          "type": "uint256"
        }
      ],
      "name": "getActualDebtFromComposite",
      "outputs": [
        {
          "internalType": "uint256",
          "name": "",
          "type": "uint256"
        }
      ],
      "stateMutability": "pure",
      "type": "function"
    },
    {
      "inputs": [],
      "name": "getBPDGasCompensation",
      "outputs": [
        {
          "internalType": "uint256",
          "name": "",
          "type": "uint256"
        }
      ],
      "stateMutability": "pure",
      "type": "function"
    },
    {
      "inputs": [
        {
          "internalType": "uint256",
          "name": "_BPDDebt",
          "type": "uint256"
        }
      ],
      "name": "getBorrowingFee",
      "outputs": [
        {
          "internalType": "uint256",
          "name": "",
          "type": "uint256"
        }
      ],
      "stateMutability": "view",
      "type": "function"
    },
    {
      "inputs": [
        {
          "internalType": "uint256",
          "name": "_BPDDebt",
          "type": "uint256"
        }
      ],
      "name": "getBorrowingFeeWithDecay",
      "outputs": [
        {
          "internalType": "uint256",
          "name": "",
          "type": "uint256"
        }
      ],
      "stateMutability": "view",
      "type": "function"
    },
    {
      "inputs": [],
      "name": "getBorrowingRate",
      "outputs": [
        {
          "internalType": "uint256",
          "name": "",
          "type": "uint256"
        }
      ],
      "stateMutability": "view",
      "type": "function"
    },
    {
      "inputs": [],
      "name": "getBorrowingRateWithDecay",
      "outputs": [
        {
          "internalType": "uint256",
          "name": "",
          "type": "uint256"
        }
      ],
      "stateMutability": "view",
      "type": "function"
    },
    {
      "inputs": [
        {
          "internalType": "uint256",
          "name": "_coll",
          "type": "uint256"
        }
      ],
      "name": "getCollGasCompensation",
      "outputs": [
        {
          "internalType": "uint256",
          "name": "",
          "type": "uint256"
        }
      ],
      "stateMutability": "pure",
      "type": "function"
    },
    {
      "inputs": [
        {
          "internalType": "uint256",
          "name": "_debt",
          "type": "uint256"
        }
      ],
      "name": "getCompositeDebt",
      "outputs": [
        {
          "internalType": "uint256",
          "name": "",
          "type": "uint256"
        }
      ],
      "stateMutability": "pure",
      "type": "function"
    },
    {
      "inputs": [
        {
          "internalType": "address",
          "name": "_borrower",
          "type": "address"
        },
        {
          "internalType": "uint256",
          "name": "_price",
          "type": "uint256"
        }
      ],
      "name": "getCurrentICR",
      "outputs": [
        {
          "internalType": "uint256",
          "name": "",
          "type": "uint256"
        }
      ],
      "stateMutability": "view",
      "type": "function"
    },
    {
      "inputs": [
        {
          "internalType": "address",
          "name": "_borrower",
          "type": "address"
        }
      ],
      "name": "getEntireDebtAndColl",
      "outputs": [
        {
          "internalType": "uint256",
          "name": "debt",
          "type": "uint256"
        },
        {
          "internalType": "uint256",
          "name": "coll",
          "type": "uint256"
        },
        {
          "internalType": "uint256",
          "name": "pendingBPDDebtReward",
          "type": "uint256"
        },
        {
          "internalType": "uint256",
          "name": "pendingRBTCReward",
          "type": "uint256"
        }
      ],
      "stateMutability": "view",
      "type": "function"
    },
    {
      "inputs": [],
      "name": "getEntireSystemColl",
      "outputs": [
        {
          "internalType": "uint256",
          "name": "entireSystemColl",
          "type": "uint256"
        }
      ],
      "stateMutability": "view",
      "type": "function"
    },
    {
      "inputs": [],
      "name": "getEntireSystemDebt",
      "outputs": [
        {
          "internalType": "uint256",
          "name": "entireSystemDebt",
          "type": "uint256"
        }
      ],
      "stateMutability": "view",
      "type": "function"
    },
    {
      "inputs": [
        {
          "internalType": "address",
          "name": "_borrower",
          "type": "address"
        }
      ],
      "name": "getNominalICR",
      "outputs": [
        {
          "internalType": "uint256",
          "name": "",
          "type": "uint256"
        }
      ],
      "stateMutability": "view",
      "type": "function"
    },
    {
      "inputs": [
        {
          "internalType": "address",
          "name": "_borrower",
          "type": "address"
        }
      ],
      "name": "getPendingBPDDebtReward",
      "outputs": [
        {
          "internalType": "uint256",
          "name": "",
          "type": "uint256"
        }
      ],
      "stateMutability": "view",
      "type": "function"
    },
    {
      "inputs": [
        {
          "internalType": "address",
          "name": "_borrower",
          "type": "address"
        }
      ],
      "name": "getPendingRBTCReward",
      "outputs": [
        {
          "internalType": "uint256",
          "name": "",
          "type": "uint256"
        }
      ],
      "stateMutability": "view",
      "type": "function"
    },
    {
      "inputs": [
        {
          "internalType": "uint256",
          "name": "_RBTCDrawn",
          "type": "uint256"
        }
      ],
      "name": "getRedemptionFeeWithDecay",
      "outputs": [
        {
          "internalType": "uint256",
          "name": "",
          "type": "uint256"
        }
      ],
      "stateMutability": "view",
      "type": "function"
    },
    {
      "inputs": [],
      "name": "getRedemptionRate",
      "outputs": [
        {
          "internalType": "uint256",
          "name": "",
          "type": "uint256"
        }
      ],
      "stateMutability": "view",
      "type": "function"
    },
    {
      "inputs": [],
      "name": "getRedemptionRateWithDecay",
      "outputs": [
        {
          "internalType": "uint256",
          "name": "",
          "type": "uint256"
        }
      ],
      "stateMutability": "view",
      "type": "function"
    },
    {
      "inputs": [
        {
          "internalType": "uint256",
          "name": "_price",
          "type": "uint256"
        }
      ],
      "name": "getTCR",
      "outputs": [
        {
          "internalType": "uint256",
          "name": "",
          "type": "uint256"
        }
      ],
      "stateMutability": "view",
      "type": "function"
    },
    {
      "inputs": [
        {
          "internalType": "address",
          "name": "_borrower",
          "type": "address"
        }
      ],
      "name": "getVaultColl",
      "outputs": [
        {
          "internalType": "uint256",
          "name": "",
          "type": "uint256"
        }
      ],
      "stateMutability": "view",
      "type": "function"
    },
    {
      "inputs": [
        {
          "internalType": "address",
          "name": "_borrower",
          "type": "address"
        }
      ],
      "name": "getVaultDebt",
      "outputs": [
        {
          "internalType": "uint256",
          "name": "",
          "type": "uint256"
        }
      ],
      "stateMutability": "view",
      "type": "function"
    },
    {
      "inputs": [
        {
          "internalType": "uint256",
          "name": "_index",
          "type": "uint256"
        }
      ],
      "name": "getVaultFromVaultOwnersArray",
      "outputs": [
        {
          "internalType": "address",
          "name": "",
          "type": "address"
        }
      ],
      "stateMutability": "view",
      "type": "function"
    },
    {
      "inputs": [],
      "name": "getVaultOwnersCount",
      "outputs": [
        {
          "internalType": "uint256",
          "name": "",
          "type": "uint256"
        }
      ],
      "stateMutability": "view",
      "type": "function"
    },
    {
      "inputs": [
        {
          "internalType": "address",
          "name": "_borrower",
          "type": "address"
        }
      ],
      "name": "getVaultStake",
      "outputs": [
        {
          "internalType": "uint256",
          "name": "",
          "type": "uint256"
        }
      ],
      "stateMutability": "view",
      "type": "function"
    },
    {
      "inputs": [
        {
          "internalType": "address",
          "name": "_borrower",
          "type": "address"
        }
      ],
      "name": "getVaultStatus",
      "outputs": [
        {
          "internalType": "uint256",
          "name": "",
          "type": "uint256"
        }
      ],
      "stateMutability": "view",
      "type": "function"
    },
    {
      "inputs": [
        {
          "internalType": "address",
          "name": "_borrower",
          "type": "address"
        }
      ],
      "name": "hasPendingRewards",
      "outputs": [
        {
          "internalType": "bool",
          "name": "",
          "type": "bool"
        }
      ],
      "stateMutability": "view",
      "type": "function"
    },
    {
      "inputs": [
        {
          "internalType": "address",
          "name": "_borrower",
          "type": "address"
        },
        {
          "internalType": "uint256",
          "name": "_collIncrease",
          "type": "uint256"
        }
      ],
      "name": "increaseVaultColl",
      "outputs": [
        {
          "internalType": "uint256",
          "name": "",
          "type": "uint256"
        }
      ],
      "stateMutability": "nonpayable",
      "type": "function"
    },
    {
      "inputs": [
        {
          "internalType": "address",
          "name": "_borrower",
          "type": "address"
        },
        {
          "internalType": "uint256",
          "name": "_debtIncrease",
          "type": "uint256"
        }
      ],
      "name": "increaseVaultDebt",
      "outputs": [
        {
          "internalType": "uint256",
          "name": "",
          "type": "uint256"
        }
      ],
      "stateMutability": "nonpayable",
      "type": "function"
    },
    {
      "inputs": [],
      "name": "isOwner",
      "outputs": [
        {
          "internalType": "bool",
          "name": "",
          "type": "bool"
        }
      ],
      "stateMutability": "view",
      "type": "function"
    },
    {
      "inputs": [],
      "name": "lastBPDDebtError_Redistribution",
      "outputs": [
        {
          "internalType": "uint256",
          "name": "",
          "type": "uint256"
        }
      ],
      "stateMutability": "view",
      "type": "function"
    },
    {
      "inputs": [],
      "name": "lastFeeOperationTime",
      "outputs": [
        {
          "internalType": "uint256",
          "name": "",
          "type": "uint256"
        }
      ],
      "stateMutability": "view",
      "type": "function"
    },
    {
      "inputs": [],
      "name": "lastRBTCError_Redistribution",
      "outputs": [
        {
          "internalType": "uint256",
          "name": "",
          "type": "uint256"
        }
      ],
      "stateMutability": "view",
      "type": "function"
    },
    {
      "inputs": [
        {
          "internalType": "address",
          "name": "_borrower",
          "type": "address"
        }
      ],
      "name": "liquidate",
      "outputs": [],
      "stateMutability": "nonpayable",
      "type": "function"
    },
    {
      "inputs": [
        {
          "internalType": "uint256",
          "name": "_n",
          "type": "uint256"
        }
      ],
      "name": "liquidateVaults",
      "outputs": [],
      "stateMutability": "nonpayable",
      "type": "function"
    },
    {
      "inputs": [],
      "name": "minutesPassedSinceLastFeeOp",
      "outputs": [
        {
          "internalType": "uint256",
          "name": "",
          "type": "uint256"
        }
      ],
      "stateMutability": "view",
      "type": "function"
    },
    {
      "inputs": [],
      "name": "mpStaking",
      "outputs": [
        {
          "internalType": "contract IMPStaking",
          "name": "",
          "type": "address"
        }
      ],
      "stateMutability": "view",
      "type": "function"
    },
    {
      "inputs": [],
      "name": "mpToken",
      "outputs": [
        {
          "internalType": "contract IMPToken",
          "name": "",
          "type": "address"
        }
      ],
      "stateMutability": "view",
      "type": "function"
    },
    {
      "inputs": [],
      "name": "owner",
      "outputs": [
        {
          "internalType": "address",
          "name": "",
          "type": "address"
        }
      ],
      "stateMutability": "view",
      "type": "function"
    },
    {
      "inputs": [],
      "name": "priceFeed",
      "outputs": [
        {
          "internalType": "contract IPriceFeed",
          "name": "",
          "type": "address"
        }
      ],
      "stateMutability": "view",
      "type": "function"
    },
    {
      "inputs": [
        {
          "internalType": "uint256",
          "name": "_BPDamount",
          "type": "uint256"
        },
        {
          "internalType": "address",
          "name": "_firstRedemptionHint",
          "type": "address"
        },
        {
          "internalType": "address",
          "name": "_upperPartialRedemptionHint",
          "type": "address"
        },
        {
          "internalType": "address",
          "name": "_lowerPartialRedemptionHint",
          "type": "address"
        },
        {
          "internalType": "uint256",
          "name": "_partialRedemptionHintNICR",
          "type": "uint256"
        },
        {
          "internalType": "uint256",
          "name": "_maxIterations",
          "type": "uint256"
        },
        {
          "internalType": "uint256",
          "name": "_maxFeePercentage",
          "type": "uint256"
        }
      ],
      "name": "redeemCollateral",
      "outputs": [],
      "stateMutability": "nonpayable",
      "type": "function"
    },
    {
      "inputs": [
        {
          "internalType": "address",
          "name": "_borrower",
          "type": "address"
        }
      ],
      "name": "removeStake",
      "outputs": [],
      "stateMutability": "nonpayable",
      "type": "function"
    },
    {
      "inputs": [
        {
          "internalType": "address",
          "name": "",
          "type": "address"
        }
      ],
      "name": "rewardSnapshots",
      "outputs": [
        {
          "internalType": "uint256",
          "name": "RBTC",
          "type": "uint256"
        },
        {
          "internalType": "uint256",
          "name": "BPDDebt",
          "type": "uint256"
        }
      ],
      "stateMutability": "view",
      "type": "function"
    },
    {
      "inputs": [
        {
          "internalType": "address",
          "name": "_borrowerOperationsAddress",
          "type": "address"
        },
        {
          "internalType": "address",
          "name": "_activePoolAddress",
          "type": "address"
        },
        {
          "internalType": "address",
          "name": "_defaultPoolAddress",
          "type": "address"
        },
        {
          "internalType": "address",
          "name": "_stabilityPoolAddress",
          "type": "address"
        },
        {
          "internalType": "address",
          "name": "_gasPoolAddress",
          "type": "address"
        },
        {
          "internalType": "address",
          "name": "_collSurplusPoolAddress",
          "type": "address"
        },
        {
          "internalType": "address",
          "name": "_priceFeedAddress",
          "type": "address"
        },
        {
          "internalType": "address",
          "name": "_bpdTokenAddress",
          "type": "address"
        },
        {
          "internalType": "address",
          "name": "_sortedVaultsAddress",
          "type": "address"
        },
        {
          "internalType": "address",
          "name": "_mpTokenAddress",
          "type": "address"
        },
        {
          "internalType": "address",
          "name": "_mpStakingAddress",
          "type": "address"
        }
      ],
      "name": "setAddresses",
      "outputs": [],
      "stateMutability": "nonpayable",
      "type": "function"
    },
    {
      "inputs": [
        {
          "internalType": "uint256",
          "name": "_baseRate",
          "type": "uint256"
        }
      ],
      "name": "setBaseRate",
      "outputs": [],
      "stateMutability": "nonpayable",
      "type": "function"
    },
    {
      "inputs": [],
      "name": "setLastFeeOpTimeToNow",
      "outputs": [],
      "stateMutability": "nonpayable",
      "type": "function"
    },
    {
      "inputs": [
        {
          "internalType": "address",
          "name": "_borrower",
          "type": "address"
        },
        {
          "internalType": "uint256",
          "name": "_num",
          "type": "uint256"
        }
      ],
      "name": "setVaultStatus",
      "outputs": [],
      "stateMutability": "nonpayable",
      "type": "function"
    },
    {
      "inputs": [],
      "name": "sortedVaults",
      "outputs": [
        {
          "internalType": "contract ISortedVaults",
          "name": "",
          "type": "address"
        }
      ],
      "stateMutability": "view",
      "type": "function"
    },
    {
      "inputs": [],
      "name": "stabilityPool",
      "outputs": [
        {
          "internalType": "contract IStabilityPool",
          "name": "",
          "type": "address"
        }
      ],
      "stateMutability": "view",
      "type": "function"
    },
    {
      "inputs": [],
      "name": "totalCollateralSnapshot",
      "outputs": [
        {
          "internalType": "uint256",
          "name": "",
          "type": "uint256"
        }
      ],
      "stateMutability": "view",
      "type": "function"
    },
    {
      "inputs": [],
      "name": "totalStakes",
      "outputs": [
        {
          "internalType": "uint256",
          "name": "",
          "type": "uint256"
        }
      ],
      "stateMutability": "view",
      "type": "function"
    },
    {
      "inputs": [],
      "name": "totalStakesSnapshot",
      "outputs": [
        {
          "internalType": "uint256",
          "name": "",
          "type": "uint256"
        }
      ],
      "stateMutability": "view",
      "type": "function"
    },
    {
      "inputs": [],
      "name": "unprotectedDecayBaseRateFromBorrowing",
      "outputs": [
        {
          "internalType": "uint256",
          "name": "",
          "type": "uint256"
        }
      ],
      "stateMutability": "nonpayable",
      "type": "function"
    },
    {
      "inputs": [
        {
          "internalType": "address",
          "name": "_borrower",
          "type": "address"
        }
      ],
      "name": "updateStakeAndTotalStakes",
      "outputs": [
        {
          "internalType": "uint256",
          "name": "",
          "type": "uint256"
        }
      ],
      "stateMutability": "nonpayable",
      "type": "function"
    },
    {
      "inputs": [
        {
          "internalType": "address",
          "name": "_borrower",
          "type": "address"
        }
      ],
      "name": "updateVaultRewardSnapshots",
      "outputs": [],
      "stateMutability": "nonpayable",
      "type": "function"
    }
  ],
  "bytecode": "0x608060405234801561001057600080fd5b50600380546001600160a01b031916339081179091556040516000907f8be0079c531659141344cd1fd0a4f28419497f9722a3daafe3b4186f6b6457e0908290a3615cde80620000616000396000f3fe608060405234801561001057600080fd5b50600436106104e35760003560e01c80637f7dde4a1161028e578063bcd3752611610167578063cdd9f96a116100d9578063dd59049611610092578063dd59049614610e01578063e2ac77b014610e09578063f36b242514610e2f578063f92d34331461066a578063fe2ba84814610e37578063febb33de14610e5d576104e3565b8063cdd9f96a14610d74578063cf80c37214610da0578063d293c71014610da8578063d380a37c14610dd4578063d5b3563514610ddc578063da303f1414610df9576104e3565b8063c35bc5501161012b578063c35bc55014610c67578063c52861f214610c6f578063c590844f14610c77578063c7b5548114610d1a578063c99cb2b714610d22578063cb5a79cc14610d48576104e3565b8063bcd3752614610bc6578063be30ade214610c14578063bf9befb114610c1c578063c0af0d3b14610c24578063c0d5287314610c4a576104e3565b8063a3f4df7e11610200578063b0d8e181116101c4578063b0d8e18114610aec578063b1dc4c1c14610b12578063b2b9c5aa14610b38578063b7f8cf9b14610b55578063b82f263d14610b5d578063b91af97c14610b7a576104e3565b8063a3f4df7e14610a3a578063a537896f14610ab7578063a619cc1f14610ad4578063a73ad63b14610adc578063af88b25614610ae4576104e3565b80638da5cb5b116102525780638da5cb5b146109f45780638f32d59b146109fc5780639465ba0c14610a0457806396d711ff14610a0c5780639899a06014610a14578063a20baee6146108e3576104e3565b80637f7dde4a14610987578063807d138d1461098f57806380b0cc2b14610997578063814a0a45146109c3578063887105d3146109ec576104e3565b8063455f956b116103c057806361ec893d1161033257806372fe25aa116102f657806372fe25aa146108e3578063741bef1a146108eb57806375b30b3a146108f3578063794e5724146108fb578063795d26c3146109035780637985c5e41461090b576104e3565b806361ec893d1461088857806362e7687414610890578063631203b0146108b657806366ca4a21146108d35780637165f24f146108db576104e3565b80634ff81443116103845780634ff814431461081957806354062a45146108365780635733d58f1461085357806359d6118c1461085b5780635b2048fe146108785780635dba4c4a14610880576104e3565b8063455f956b1461072e578063477d66cf146107545780634870dd9a146107715780634d9d6763146107795780634e443d9e146107e8576104e3565b80631d08837b116104595780632f8655681161041d5780632f8655681461067a57806331538aac146106a0578063320b2469146106a8578063325e370d146106d45780633cc7422514610700578063404a473c14610708576104e3565b80631d08837b1461063d5780631f68f20a1461065a578063240926691461066257806328d28b5b1461066a5780632b11551a14610672576104e3565b8063105bb15c116104ab578063105bb15c1461057c57806311ce4f0a146105845780631673c79a146105aa578063180d97c1146105e957806318f2817a1461060f5780631bf4355514610635576104e3565b8063043782fb146104e8578063048c661d146104f2578063071a7541146105165780630a849692146105305780630b07655714610556575b600080fd5b6104f0610e7a565b005b6104fa610e80565b604080516001600160a01b039092168252519081900360200190f35b61051e610e8f565b60408051918252519081900360200190f35b61051e6004803603602081101561054657600080fd5b50356001600160a01b0316610e94565b6104f06004803603602081101561056c57600080fd5b50356001600160a01b0316610f5f565b61051e610f87565b61051e6004803603602081101561059a57600080fd5b50356001600160a01b0316610f96565b6105d0600480360360208110156105c057600080fd5b50356001600160a01b0316610fb4565b6040805192835260208301919091528051918290030190f35b61051e600480360360208110156105ff57600080fd5b50356001600160a01b0316610fcd565b61051e6004803603602081101561062557600080fd5b50356001600160a01b0316610ffd565b61051e611010565b6104f06004803603602081101561065357600080fd5b503561101d565b61051e611022565b61051e611028565b61051e61103b565b61051e61104c565b6104f06004803603602081101561069057600080fd5b50356001600160a01b0316611059565b61051e6110bf565b61051e600480360360408110156106be57600080fd5b506001600160a01b0381351690602001356110c5565b6104f0600480360360408110156106ea57600080fd5b506001600160a01b038135169060200135611122565b6104fa61116e565b6104f06004803603602081101561071e57600080fd5b50356001600160a01b031661117d565b61051e6004803603602081101561074457600080fd5b50356001600160a01b031661118a565b61051e6004803603602081101561076a57600080fd5b50356111b8565b61051e6111cb565b61079f6004803603602081101561078f57600080fd5b50356001600160a01b03166111d0565b604051808681526020018581526020018481526020018360048111156107c157fe5b60ff1681526001600160801b03909216602083015250604080519182900301945092505050f35b610805600480360360208110156107fe57600080fd5b503561120a565b604080519115158252519081900360200190f35b61051e6004803603602081101561082f57600080fd5b5035611215565b61051e6004803603602081101561084c57600080fd5b5035611220565b61051e61122b565b6104f06004803603602081101561087157600080fd5b5035611237565b6104fa6115f1565b6104f0611600565b61051e611666565b61051e600480360360208110156108a657600080fd5b50356001600160a01b031661166b565b61051e600480360360208110156108cc57600080fd5b503561168d565b61051e61169a565b6104fa6116ac565b61051e6116bb565b6104fa6116c7565b6104fa6116d6565b61051e6116e5565b61051e6116f1565b6104f0600480360361016081101561092257600080fd5b506001600160a01b038135811691602081013582169160408201358116916060810135821691608082013581169160a081013582169160c082013581169160e081013582169161010082013581169161012081013582169161014090910135166117f2565b6104fa611beb565b61051e611bfa565b61051e600480360360408110156109ad57600080fd5b506001600160a01b038135169060200135611c00565b61051e600480360360608110156109d957600080fd5b5080359060208101359060400135611c36565b61051e611c4d565b6104fa611d09565b610805611d18565b61051e611d29565b61051e611d2f565b61051e60048036036020811015610a2a57600080fd5b50356001600160a01b0316611d35565b610a42611d53565b6040805160208082528351818301528351919283929083019185019080838360005b83811015610a7c578181015183820152602001610a64565b50505050905090810190601f168015610aa95780820380516001836020036101000a031916815260200191505b509250505060405180910390f35b61051e60048036036020811015610acd57600080fd5b5035611d7b565b61051e611d86565b61051e611d93565b61051e611da0565b61051e60048036036020811015610b0257600080fd5b50356001600160a01b0316611da6565b6104f060048036036020811015610b2857600080fd5b50356001600160a01b0316611dcd565b6104fa60048036036020811015610b4e57600080fd5b5035611dde565b6104fa611e05565b61051e60048036036020811015610b7357600080fd5b5035611e14565b610ba060048036036020811015610b9057600080fd5b50356001600160a01b0316611e1f565b604080519485526020850193909352838301919091526060830152519081900360800190f35b6104f0600480360360e0811015610bdc57600080fd5b508035906001600160a01b03602082013581169160408101358216916060820135169060808101359060a08101359060c00135611e83565b61051e612625565b61051e61262b565b61051e60048036036020811015610c3a57600080fd5b50356001600160a01b0316612631565b6104fa60048036036020811015610c6057600080fd5b503561264c565b61051e612676565b61051e61267d565b6104f060048036036020811015610c8d57600080fd5b810190602081018135640100000000811115610ca857600080fd5b820183602082011115610cba57600080fd5b80359060200191846020830284011164010000000083111715610cdc57600080fd5b91908080602002602001604051908101604052809392919081815260200183836020028082843760009201919091525092955061268f945050505050565b61051e612a25565b6104f060048036036020811015610d3857600080fd5b50356001600160a01b0316612a31565b61051e60048036036040811015610d5e57600080fd5b506001600160a01b038135169060200135612a44565b61051e60048036036040811015610d8a57600080fd5b506001600160a01b038135169060200135612a9b565b61051e612ace565b61051e60048036036040811015610dbe57600080fd5b506001600160a01b038135169060200135612ad4565b61051e612afd565b61051e60048036036020811015610df257600080fd5b5035612b03565b61051e612b16565b6104fa612b46565b61080560048036036020811015610e1f57600080fd5b50356001600160a01b0316612b55565b61051e612bb3565b6104f060048036036020811015610e4d57600080fd5b50356001600160a01b0316612bc0565b61051e60048036036020811015610e7357600080fd5b5035612bd1565b42600d55565b6005546001600160a01b031681565b600281565b6001600160a01b0381166000908152601460205260408120600101546013548290610ec5908363ffffffff612be216565b9050801580610efe575060016001600160a01b0385166000908152600e602052604090206003015460ff166004811115610efb57fe5b14155b15610f0e57600092505050610f5a565b6001600160a01b0384166000908152600e602052604081206002015490610f53670de0b6b3a7640000610f47848663ffffffff612c2416565b9063ffffffff612c7d16565b9450505050505b919050565b610f67612cbf565b600054600154610f84916001600160a01b03908116911683612d0a565b50565b6000610f91612e2c565b905090565b6001600160a01b03166000908152600e602052604090206002015490565b6014602052600090815260409020805460019091015482565b6001600160a01b0381166000908152600e602052604081206003015460ff166004811115610ff757fe5b92915050565b6000611007612cbf565b610ff782612e48565b686194049f30f720000081565b600c55565b600c5481565b6064670de0b6b3a76400005b0460050281565b6103e8670de0b6b3a7640000611034565b6000610f91600c54612ef7565b61106281612f2d565b60408051600180825281830190925260609160208083019080368337019050509050818160008151811061109257fe5b60200260200101906001600160a01b031690816001600160a01b0316815250506110bb8161268f565b5050565b60165481565b60006110cf612cbf565b6001600160a01b0383166000908152600e60205260408120600101546110fb908463ffffffff612f9516565b6001600160a01b0385166000908152600e6020526040902060010181905591505092915050565b61112a612cbf565b80600481111561113657fe5b6001600160a01b0383166000908152600e60205260409020600301805460ff1916600183600481111561116557fe5b02179055505050565b6001546001600160a01b031681565b6015546110bb8282612fef565b6001600160a01b0381166000908152601460205260408120546012548290610ec5908363ffffffff612be216565b6000610ff76111c561169a565b83613196565b60c881565b600e6020526000908152604090208054600182015460028301546003909301549192909160ff81169061010090046001600160801b031685565b6000610ff7826131b4565b6000610ff7826131d1565b6000610ff7826131ec565b6714d1120d7b16000081565b61123f61585d565b506040805160e081018252600080546001600160a01b0390811683526001548116602084015292820181905260608201819052600b548316608083015260a0820181905260c0820152600554909116611296615899565b61129e6158ca565b600260009054906101000a90046001600160a01b03166001600160a01b0316630fdb11cf6040518163ffffffff1660e01b8152600401602060405180830381600087803b1580156112ee57600080fd5b505af1158015611302573d6000803e3d6000fd5b505050506040513d602081101561131857600080fd5b505182526040805163dde598b960e01b815290516001600160a01b0385169163dde598b9916004808301926020929190829003018186803b15801561135c57600080fd5b505afa158015611370573d6000803e3d6000fd5b505050506040513d602081101561138657600080fd5b505160208301528151611398906131b4565b15801560408401526113bf576113b8848360000151846020015188613207565b90506113df565b6113dc84600001518560200151846000015185602001518961359a565b90505b60008160200151116114225760405162461bcd60e51b8152600401808060200182810382526022815260200180615a086022913960400191505060405180910390fd5b826001600160a01b031663335525ad82608001518360a001516040518363ffffffff1660e01b81526004018083815260200182815260200192505050600060405180830381600087803b15801561147857600080fd5b505af115801561148c573d6000803e3d6000fd5b505050506114ac846000015185602001518360c001518460e001516136cc565b6101008101511561152d57835160075461010083015160408051633efe643b60e01b81526001600160a01b0393841660048201526024810192909252519190921691633efe643b91604480830192600092919082900301818387803b15801561151457600080fd5b505af1158015611528573d6000803e3d6000fd5b505050505b61153f8460000151826040015161394d565b6020810151606083015261010081015160408201518251611577929161156b919063ffffffff612be216565b9063ffffffff612be216565b608080840182905260608085015160408086015186840151825193845260208401969096528282015291810193909352517f4152c73dd2614c4f9fc35e8c9cf16013cd588c75b49a4c1673ecffdcbcda94039281900390910190a16115ea84600001513383606001518460400151613a94565b5050505050565b6009546001600160a01b031681565b611608612cbf565b6000611612613b97565b9050670de0b6b3a764000081111561162657fe5b600c8190556040805182815290517fc454ee9b76c52f782a256af821b857ca6e125d1e3333bcede402fec2bed9600c9181900360200190a1610f84613bdb565b603c81565b6000611675612cbf565b61167e82613c37565b6001600160801b031692915050565b6000610ff76111c5612bb3565b6000610f916116a7613b97565b613cd1565b600b546001600160a01b031681565b670de0b6b3a764000081565b6002546001600160a01b031681565b600a546001600160a01b031681565b670f43fc2c04ee000081565b6000805460408051638f07158d60e01b8152905183926001600160a01b031691638f07158d916004808301926020929190829003018186803b15801561173657600080fd5b505afa15801561174a573d6000803e3d6000fd5b505050506040513d602081101561176057600080fd5b505160015460408051638f07158d60e01b815290519293506000926001600160a01b0390921691638f07158d91600480820192602092909190829003018186803b1580156117ad57600080fd5b505afa1580156117c1573d6000803e3d6000fd5b505050506040513d60208110156117d757600080fd5b505190506117eb828263ffffffff612f9516565b9250505090565b6117fa611d18565b61184b576040805162461bcd60e51b815260206004820181905260248201527f4f776e61626c653a2063616c6c6572206973206e6f7420746865206f776e6572604482015290519081900360640190fd5b6118548b613cf8565b61185d8a613cf8565b61186689613cf8565b61186f88613cf8565b61187887613cf8565b61188186613cf8565b61188a85613cf8565b61189384613cf8565b61189c83613cf8565b6118a582613cf8565b6118ae81613cf8565b600480546001600160a01b03199081166001600160a01b038e81169182179093556000805483168e85161790556001805483168d85161790556005805483168c85161790556006805483168b85161790556007805483168a8516179055600280548316898516179055600880548316888516179055600b80548316878516179055600980548316868516179055600a805490921692841692909217905560408051918252517f3ca631ffcd2a9b5d9ae18543fc82f58eb4ca33af9e6ab01b7a8e95331e6ed985916020908290030190a1604080516001600160a01b038c16815290517f78f058b189175430c48dc02699e3a0031ea4ff781536dc2fab847de4babdd8829181900360200190a1604080516001600160a01b038b16815290517f5ee0cae2f063ed938bb55046f6a932fb6ae792bf43624806bb90abe68a50be9b9181900360200190a1604080516001600160a01b038a16815290517f82966d27eea39b038ee0fa30cd16532bb24f6e65d31cb58fb227aa5766cdcc7f9181900360200190a1604080516001600160a01b038916815290517fcfb07d791fcafc032b35837b50eb84b74df518cf4cc287e8084f47630fa70fa09181900360200190a1604080516001600160a01b038816815290517fe67f36a6e961157d6eff83b91f3af5a62131ceb6f04954ef74f51c1c05e7f88d9181900360200190a1604080516001600160a01b038716815290517f8c537274438aa850a330284665d81a85dd38267d09e4050d416bfc94142db2649181900360200190a1604080516001600160a01b038616815290517f4e62a526dbb1c27a0df55dad97eaa57df1e3a95bb380a0bbe38dc5fbc07bb6699181900360200190a1604080516001600160a01b038516815290517fb92ab72da68990756a2b6a93fce7497a60e992b19dd9529f601a977e88117d3c9181900360200190a1604080516001600160a01b038416815290517ff2a19986125782837c7e63f4dbed68ecfe2c4238efb5fa9509ac0a429598b2ce9181900360200190a1604080516001600160a01b038316815290517fccecd30b0c29abaa3249dc3caf9304255028c2c8cd8fe0fc4213a5d028a1240f9181900360200190a1611bde613da7565b5050505050505050505050565b6000546001600160a01b031681565b60105481565b6000611c0a612cbf565b6001600160a01b0383166000908152600e60205260408120600101546110fb908463ffffffff612be216565b6000611c43848484613df1565b90505b9392505050565b60008054604080516377a4b5b760e01b8152905183926001600160a01b0316916377a4b5b7916004808301926020929190829003018186803b158015611c9257600080fd5b505afa158015611ca6573d6000803e3d6000fd5b505050506040513d6020811015611cbc57600080fd5b5051600154604080516377a4b5b760e01b815290519293506000926001600160a01b03909216916377a4b5b791600480820192602092909190829003018186803b1580156117ad57600080fd5b6003546001600160a01b031690565b6003546001600160a01b0316331490565b60175481565b60115481565b6001600160a01b03166000908152600e602052604090206001015490565b6040518060400160405280600c81526020016b2b30bab63a26b0b730b3b2b960a11b81525081565b6000610ff782613e21565b680ad78ebc5ac620000081565b680ad78ebc5ac620000090565b60125481565b6000806000611db484613e28565b915091506000611dc48383613eae565b95945050505050565b611dd5612cbf565b610f8481613ee3565b60158181548110611deb57fe5b6000918252602090912001546001600160a01b0316905081565b6004546001600160a01b031681565b6000610ff782613f4e565b6001600160a01b0381166000908152600e602052604081208054600190910154909180611e4b85610e94565b9150611e568561118a565b9050611e68848363ffffffff612f9516565b9350611e7a838263ffffffff612f9516565b92509193509193565b611e8b61585d565b506040805160e0810182526000546001600160a01b03908116825260015481166020830152600854811692820192909252600a5482166060820152600b5482166080820152600754821660a082015260065490911660c0820152611eed615916565b611ef683613f7a565b611efe613fd4565b600260009054906101000a90046001600160a01b03166001600160a01b0316630fdb11cf6040518163ffffffff1660e01b8152600401602060405180830381600087803b158015611f4e57600080fd5b505af1158015611f62573d6000803e3d6000fd5b505050506040513d6020811015611f7857600080fd5b505160c08201819052611f8a90614098565b611f93896140e7565b611fa28260400151338b614126565b611faa6116f1565b60e0820181905260408084015181516370a0823160e01b815233600482015291516001600160a01b03909116916370a08231916024808301926020929190829003018186803b158015611ffc57600080fd5b505afa158015612010573d6000803e3d6000fd5b505050506040513d602081101561202657600080fd5b5051111561203057fe5b888152608082015160c082015160009161204b918b906141e6565b15612057575087612181565b82608001516001600160a01b0316634d6228316040518163ffffffff1660e01b815260040160206040518083038186803b15801561209457600080fd5b505afa1580156120a8573d6000803e3d6000fd5b505050506040513d60208110156120be57600080fd5b505190505b6001600160a01b038116158015906120ef5750670f43fc2c04ee00006120ed828460c00151612ad4565b105b156121815782608001516001600160a01b031663b72703ac826040518263ffffffff1660e01b815260040180826001600160a01b03166001600160a01b0316815260200191505060206040518083038186803b15801561214e57600080fd5b505afa158015612162573d6000803e3d6000fd5b505050506040513d602081101561217857600080fd5b505190506120c3565b8461218c5760001994505b6001600160a01b038116158015906121a45750815115155b80156121b05750600085115b156122e457848060019003955050600083608001516001600160a01b031663b72703ac836040518263ffffffff1660e01b815260040180826001600160a01b03166001600160a01b0316815260200191505060206040518083038186803b15801561221a57600080fd5b505afa15801561222e573d6000803e3d6000fd5b505050506040513d602081101561224457600080fd5b50518451602086015191925061225a9184612d0a565b61226261595b565b612279858486600001518760c001518e8e8e614359565b905080604001511561228c5750506122e4565b805160208501516122a29163ffffffff612f9516565b60208086019190915281015160408501516122c29163ffffffff612f9516565b6040850152805184516122da9163ffffffff612be216565b845250905061218c565b60008260400151116123275760405162461bcd60e51b8152600401808060200182810382526029815260200180615c806029913960400191505060405180910390fd5b61233e82604001518360c001518460e0015161460c565b5061234c82604001516146b4565b6060830181905260408301516123639190866146c1565b82600001516001600160a01b0316633efe643b846060015184606001516040518363ffffffff1660e01b815260040180836001600160a01b03166001600160a01b0316815260200182815260200192505050600060405180830381600087803b1580156123cf57600080fd5b505af11580156123e3573d6000803e3d6000fd5b5050505082606001516001600160a01b0316632c80b42383606001516040518263ffffffff1660e01b815260040180828152602001915050600060405180830381600087803b15801561243557600080fd5b505af1158015612449573d6000803e3d6000fd5b505050506060820151604083015161246091612be2565b8260800181815250507f43a3f4082a4dbc33d78e317d2497d3a730bc7fc3574159dcea1056e62e5d9ad88a8360200151846040015185606001516040518085815260200184815260200183815260200182815260200194505050505060405180910390a182604001516001600160a01b0316639dc29fac3384602001516040518363ffffffff1660e01b815260040180836001600160a01b03166001600160a01b0316815260200182815260200192505050600060405180830381600087803b15801561252c57600080fd5b505af1158015612540573d6000803e3d6000fd5b5050505082600001516001600160a01b031663d3ed5d1983602001516040518263ffffffff1660e01b815260040180828152602001915050600060405180830381600087803b15801561259257600080fd5b505af11580156125a6573d6000803e3d6000fd5b50508451608085015160408051633efe643b60e01b81523360048201526024810192909252516001600160a01b039092169350633efe643b925060448082019260009290919082900301818387803b15801561260157600080fd5b505af1158015612615573d6000803e3d6000fd5b5050505050505050505050505050565b60135481565b600f5481565b6001600160a01b03166000908152600e602052604090205490565b60006015828154811061265b57fe5b6000918252602090912001546001600160a01b031692915050565b62278d0081565b6000610f9161268a613b97565b612ef7565b80516126cc5760405162461bcd60e51b8152600401808060200182810382526036815260200180615a786036913960400191505060405180910390fd5b6000546001546005546001600160a01b039283169291821691166126ee615899565b6126f66158ca565b600260009054906101000a90046001600160a01b03166001600160a01b0316630fdb11cf6040518163ffffffff1660e01b8152600401602060405180830381600087803b15801561274657600080fd5b505af115801561275a573d6000803e3d6000fd5b505050506040513d602081101561277057600080fd5b505182526040805163dde598b960e01b815290516001600160a01b0385169163dde598b9916004808301926020929190829003018186803b1580156127b457600080fd5b505afa1580156127c8573d6000803e3d6000fd5b505050506040513d60208110156127de57600080fd5b5051602083015281516127f0906131b4565b1580156040840152612818576128118585846000015185602001518a614736565b9050612830565b61282d8585846000015185602001518a614951565b90505b60008160200151116128735760405162461bcd60e51b8152600401808060200182810382526022815260200180615a086022913960400191505060405180910390fd5b826001600160a01b031663335525ad82608001518360a001516040518363ffffffff1660e01b81526004018083815260200182815260200192505050600060405180830381600087803b1580156128c957600080fd5b505af11580156128dd573d6000803e3d6000fd5b505050506128f585858360c001518460e001516136cc565b610100810151156129745760075461010082015160408051633efe643b60e01b81526001600160a01b03938416600482015260248101929092525191871691633efe643b9160448082019260009290919082900301818387803b15801561295b57600080fd5b505af115801561296f573d6000803e3d6000fd5b505050505b61298285826040015161394d565b60208101516060830152610100810151604082015182516129ae929161156b919063ffffffff612be216565b608080840182905260608085015160408086015186840151825193845260208401969096528282015291810193909352517f4152c73dd2614c4f9fc35e8c9cf16013cd588c75b49a4c1673ecffdcbcda94039281900390910190a1612a1d853383606001518460400151613a94565b505050505050565b670ddd4b8c6c7d70d881565b612a39612cbf565b610f84816002614a19565b6000612a4e612cbf565b6001600160a01b0383166000908152600e6020526040812054612a77908463ffffffff612f9516565b6001600160a01b0385166000908152600e6020526040902081905591505092915050565b6000612aa5612cbf565b6001600160a01b0383166000908152600e6020526040812054612a77908463ffffffff612be216565b60155490565b6000806000612ae285613e28565b915091506000612af3838387613df1565b9695505050505050565b600d5481565b6000610ff7612b1061267d565b83614b32565b6000612b20613b97565b600c55670de0b6b3a7640000600c541115612b3757fe5b612b3f613bdb565b50600c5490565b6008546001600160a01b031681565b600060016001600160a01b0383166000908152600e602052604090206003015460ff166004811115612b8357fe5b14612b9057506000610f5a565b506012546001600160a01b03821660009081526014602052604090205410919050565b6000610f91600c54613cd1565b612bc8612cbf565b610f8481614b91565b6000612bdc826146b4565b50919050565b6000611c4683836040518060400160405280601e81526020017f536166654d6174683a207375627472616374696f6e206f766572666c6f770000815250614be1565b600082612c3357506000610ff7565b82820282848281612c4057fe5b0414611c465760405162461bcd60e51b8152600401808060200182810382526021815260200180615b536021913960400191505060405180910390fd5b6000611c4683836040518060400160405280601a81526020017f536166654d6174683a206469766973696f6e206279207a65726f000000000000815250614c78565b6004546001600160a01b03163314612d085760405162461bcd60e51b815260040180806020018281038252603b815260200180615aee603b913960400191505060405180910390fd5b565b612d1381612b55565b15612e2757612d2181612f2d565b6000612d2c8261118a565b90506000612d3983610e94565b6001600160a01b0384166000908152600e6020526040902060010154909150612d68908363ffffffff612f9516565b6001600160a01b0384166000908152600e60205260409020600181019190915554612d99908263ffffffff612f9516565b6001600160a01b0384166000908152600e6020526040902055612dbb83613ee3565b612dc785858385614cdd565b6001600160a01b0383166000818152600e60209081526040808320805460018201546002909201548351918252938101919091528082019290925260608201929092529051600080516020615a588339815191529181900360800190a250505b505050565b6000610f91603c610f47600d5442612be290919063ffffffff16565b6001600160a01b0381166000908152600e60205260408120600101548190612e6f90614ddf565b6001600160a01b0384166000908152600e60205260409020600201805490829055600f5491925090612eb9908390612ead908463ffffffff612be216565b9063ffffffff612f9516565b600f81905560408051918252517f6bac5e0eb3c44eb03a60ab11ec3a2c051771616aecadbcfff2630aabae5203829181900360200190a15092915050565b6000610ff7612f1f836103e8670de0b6b3a76400005b04600502612f9590919063ffffffff16565b670de0b6b3a7640000614e1b565b60016001600160a01b0382166000908152600e602052604090206003015460ff166004811115612f5957fe5b14610f845760405162461bcd60e51b815260040180806020018281038252602f815260200180615c21602f913960400191505060405180910390fd5b600082820183811015611c46576040805162461bcd60e51b815260206004820152601b60248201527f536166654d6174683a206164646974696f6e206f766572666c6f770000000000604482015290519081900360640190fd5b6001600160a01b0382166000908152600e602052604081206003015460ff169081600481111561301b57fe5b141580156130355750600181600481111561303257fe5b14155b61303b57fe5b6001600160a01b0383166000908152600e602052604081206003015461010090046001600160801b0316908390613073826001612be2565b905080836001600160801b0316111561308857fe5b60006015828154811061309757fe5b600091825260209091200154601580546001600160a01b03909216925082916001600160801b0387169081106130c957fe5b600091825260208083209190910180546001600160a01b0319166001600160a01b03948516179055918316808252600e83526040918290206003018054610100600160881b0319166101006001600160801b038a169081029190911790915582519182529281019290925280517f5108b30b1c08360822e1bfe7a4169b885b0a62765e9d04592cac9933f3879e469281900390910190a1601580548061316b57fe5b600082815260209020810160001990810180546001600160a01b031916905501905550505050505050565b6000611c46670de0b6b3a7640000610f47858563ffffffff612c2416565b6000806131c083613f4e565b6714d1120d7b160000119392505050565b6000610ff782680ad78ebc5ac620000063ffffffff612f9516565b6000610ff782680ad78ebc5ac620000063ffffffff612be216565b61320f6158ca565b61321761597e565b61321f6158ca565b848252600060808301526132316116f1565b60a083015261323e611c4d565b8260c001818152505086608001516001600160a01b0316634d6228316040518163ffffffff1660e01b815260040160206040518083038186803b15801561328457600080fd5b505afa158015613298573d6000803e3d6000fd5b505050506040513d60208110156132ae57600080fd5b50516001600160a01b039081166060840152608088015160408051631e22314360e01b815290516000939290921691631e22314391600480820192602092909190829003018186803b15801561330357600080fd5b505afa158015613317573d6000803e3d6000fd5b505050506040513d602081101561332d57600080fd5b50516000602085015290505b8483602001511080156133625750806001600160a01b031683606001516001600160a01b031614155b1561358f57600088608001516001600160a01b031663b72703ac85606001516040518263ffffffff1660e01b815260040180826001600160a01b03166001600160a01b0316815260200191505060206040518083038186803b1580156133c757600080fd5b505afa1580156133db573d6000803e3d6000fd5b505050506040513d60208110156133f157600080fd5b505160608501519091506134059089612ad4565b6040850152608084015161350157670f43fc2c04ee000084604001511015801561342e57508351155b15613439575061358f565b600061344e8560c001518660a001518b613df1565b8a5160208c015160608801516040890151895194955061346f94868f614e31565b60808101518651919550613489919063ffffffff612be216565b8552608084015160a08601516134a49163ffffffff612be216565b8560a00181815250506134d184610100015161156b8660a001518860c00151612be290919063ffffffff16565b60c08601526134e08685615164565b95506134f58560c001518660a001518b61527b565b15608086015250613571565b8360800151801561351d5750670f43fc2c04ee00008460400151105b1561356b5761353e89600001518a602001518660600151876000015161529c565b60808101518551919450613558919063ffffffff612be216565b84526135648584615164565b9450613571565b5061358f565b6001600160a01b031660608401526020830180516001019052613339565b505050949350505050565b6135a26158ca565b6135aa61597e565b6135b26158ca565b600b54858352600060208401526001600160a01b03165b84836020015110156136c057806001600160a01b0316634d6228316040518163ffffffff1660e01b815260040160206040518083038186803b15801561360e57600080fd5b505afa158015613622573d6000803e3d6000fd5b505050506040513d602081101561363857600080fd5b50516001600160a01b0316606084018190526136549088612ad4565b60408401819052670f43fc2c04ee000011156136ab5761367e89898560600151866000015161529c565b60808101518451919350613698919063ffffffff612be216565b83526136a48483615164565b93506136b0565b6136c0565b60208301805160010190526135c9565b50505095945050505050565b816136d657613947565b6016546000906136f890612ead84670de0b6b3a764000063ffffffff612c2416565b9050600061371d601754612ead670de0b6b3a764000087612c2490919063ffffffff16565b90506000613736600f5484612c7d90919063ffffffff16565b9050600061374f600f5484612c7d90919063ffffffff16565b9050613776613769600f5484612c2490919063ffffffff16565b859063ffffffff612be216565b601655600f5461379e9061379190839063ffffffff612c2416565b849063ffffffff612be216565b6017556012546137b4908363ffffffff612f9516565b6012556013546137ca908263ffffffff612f9516565b601381905560125460408051918252602082019290925281517f9f8bc8ab0daf5bceef75ecfd2085d1fcc6548c657ea970d9a23a60610d0737e3929181900390910190a1876001600160a01b031663d3ed5d19876040518263ffffffff1660e01b815260040180828152602001915050600060405180830381600087803b15801561385457600080fd5b505af1158015613868573d6000803e3d6000fd5b50505050866001600160a01b031663c9ceb951876040518263ffffffff1660e01b815260040180828152602001915050600060405180830381600087803b1580156138b257600080fd5b505af11580156138c6573d6000803e3d6000fd5b50505050876001600160a01b0316633efe643b88876040518363ffffffff1660e01b815260040180836001600160a01b03166001600160a01b0316815260200182815260200192505050600060405180830381600087803b15801561392a57600080fd5b505af115801561393e573d6000803e3d6000fd5b50505050505050505b50505050565b600f546010819055506000826001600160a01b03166377a4b5b76040518163ffffffff1660e01b815260040160206040518083038186803b15801561399157600080fd5b505afa1580156139a5573d6000803e3d6000fd5b505050506040513d60208110156139bb57600080fd5b5051600154604080516377a4b5b760e01b815290519293506000926001600160a01b03909216916377a4b5b791600480820192602092909190829003018186803b158015613a0857600080fd5b505afa158015613a1c573d6000803e3d6000fd5b505050506040513d6020811015613a3257600080fd5b50519050613a4a81612ead848663ffffffff612be216565b601181905560105460408051918252602082019290925281517f51bf4c63ec3cba9d03d43238abbdd979dd91bd16d9895c74ceea9118c7baaf60929181900390910190a150505050565b8115613b135760085460065460408051631062c15f60e11b81526001600160a01b039283166004820152868316602482015260448101869052905191909216916320c582be91606480830192600092919082900301818387803b158015613afa57600080fd5b505af1158015613b0e573d6000803e3d6000fd5b505050505b801561394757836001600160a01b0316633efe643b84836040518363ffffffff1660e01b815260040180836001600160a01b03166001600160a01b0316815260200182815260200192505050600060405180830381600087803b158015613b7957600080fd5b505af1158015613b8d573d6000803e3d6000fd5b5050505050505050565b600080613ba2612e2c565b90506000613bb8670ddd4b8c6c7d70d88361540b565b90506117eb670de0b6b3a7640000610f4783600c54612c2490919063ffffffff16565b6000613bf2600d5442612be290919063ffffffff16565b9050603c8110610f845742600d81905560408051918252517f860f8d2f0c74dd487e89e2883e3b25b8159ce1e1b3433a291cba7b82c508f3bc9181900360200190a150565b601580546001808201835560008381527f55f448fdea98c4d29eb340757ef0a66cd03dbb9538908a6a81d96026b71ec47590920180546001600160a01b0319166001600160a01b03861617905591549091613c929190612be2565b6001600160a01b03929092166000908152600e602052604090206003018054610100600160881b0319166101006001600160801b038516021790555090565b6000610ff7613ceb836103e8670de0b6b3a7640000612f0d565b66b1a2bc2ec50000614e1b565b6001600160a01b038116613d53576040805162461bcd60e51b815260206004820152601e60248201527f4163636f756e742063616e6e6f74206265207a65726f20616464726573730000604482015290519081900360640190fd5b803b806110bb576040805162461bcd60e51b815260206004820181905260248201527f4163636f756e7420636f64652073697a652063616e6e6f74206265207a65726f604482015290519081900360640190fd5b6003546040516000916001600160a01b0316907f8be0079c531659141344cd1fd0a4f28419497f9722a3daafe3b4186f6b6457e0908390a3600380546001600160a01b0319169055565b60008215613e18576000613e0f84610f47878663ffffffff612c2416565b9150611c469050565b50600019611c46565b60c8900490565b6000806000613e368461118a565b90506000613e4385610e94565b6001600160a01b0386166000908152600e602052604081206001015491925090613e73908463ffffffff612f9516565b6001600160a01b0387166000908152600e602052604081205491925090613ea0908463ffffffff612f9516565b919550909350505050915091565b60008115613eda57613ed382610f478568056bc75e2d6310000063ffffffff612c2416565b9050610ff7565b50600019610ff7565b601280546001600160a01b0383166000908152601460209081526040918290209283556013546001909301839055925481519081529283019190915280517fb19e1625eb57283330ce4caef3e97174d39fa4b313b17c725f7c90cd005f2ecb9281900390910190a150565b600080613f59611c4d565b90506000613f656116f1565b9050613f72828286613df1565b949350505050565b6611c37937e080008110801590613f995750670de0b6b3a76400008111155b610f845760405162461bcd60e51b8152600401808060200182810382526030815260200180615c506030913960400191505060405180910390fd5b60095460408051631e425be160e11b815290516000926001600160a01b031691633c84b7c2916004808301926020929190829003018186803b15801561401957600080fd5b505afa15801561402d573d6000803e3d6000fd5b505050506040513d602081101561404357600080fd5b5051905061405a8162278d0063ffffffff612f9516565b421015610f845760405162461bcd60e51b8152600401808060200182810382526040815260200180615aae6040913960400191505060405180910390fd5b670f43fc2c04ee00006140aa82613f4e565b1015610f845760405162461bcd60e51b815260040180806020018281038252602a815260200180615b74602a913960400191505060405180910390fd5b60008111610f845760405162461bcd60e51b815260040180806020018281038252602e815260200180615a2a602e913960400191505060405180910390fd5b80836001600160a01b03166370a08231846040518263ffffffff1660e01b815260040180826001600160a01b03166001600160a01b0316815260200191505060206040518083038186803b15801561417d57600080fd5b505afa158015614191573d6000803e3d6000fd5b505050506040513d60208110156141a757600080fd5b50511015612e275760405162461bcd60e51b815260040180806020018281038252604d815260200180615b9e604d913960600191505060405180910390fd5b60006001600160a01b038316158061427d5750836001600160a01b0316635dbe47e8846040518263ffffffff1660e01b815260040180826001600160a01b03166001600160a01b0316815260200191505060206040518083038186803b15801561424f57600080fd5b505afa158015614263573d6000803e3d6000fd5b505050506040513d602081101561427957600080fd5b5051155b806142985750670f43fc2c04ee00006142968484612ad4565b105b156142a557506000611c46565b6000846001600160a01b031663765e0159856040518263ffffffff1660e01b815260040180826001600160a01b03166001600160a01b0316815260200191505060206040518083038186803b1580156142fd57600080fd5b505afa158015614311573d6000803e3d6000fd5b505050506040513d602081101561432757600080fd5b505190506001600160a01b0381161580611dc45750670f43fc2c04ee000061434f8285612ad4565b1095945050505050565b61436161595b565b6001600160a01b0387166000908152600e602052604090205461439e90879061439990680ad78ebc5ac620000063ffffffff612be216565b614e1b565b8082526143bf908690610f4790670de0b6b3a764000063ffffffff612c2416565b60208083019190915281516001600160a01b0389166000908152600e90925260408220546143f29163ffffffff612be216565b6020808401516001600160a01b038b166000908152600e909252604082206001015492935090916144289163ffffffff612be216565b9050680ad78ebc5ac62000008214156144c15761444489614b91565b61444f896004614a19565b6144648a8a680ad78ebc5ac6200000846154b6565b886001600160a01b0316600080516020615a5883398151915260008060006003604051808581526020018481526020018381526020018260038111156144a657fe5b60ff16815260200194505050505060405180910390a26145fe565b60006144cd8284613eae565b905084811415806144ee5750686194049f30f72000006144ec846131ec565b105b156145025750506001604083015250614601565b60808b01516040805163015f109360e51b81526001600160a01b038d81166004830152602482018590528a81166044830152898116606483015291519190921691632be2126091608480830192600092919082900301818387803b15801561456957600080fd5b505af115801561457d573d6000803e3d6000fd5b5050506001600160a01b038b166000908152600e60205260409020848155600101839055506145ab8a612e48565b506001600160a01b038a166000818152600e602090815260409182902060020154825187815291820186905281830152600360608201529051600080516020615a588339815191529181900360800190a2505b50505b979650505050505050565b600080614617613b97565b9050600061462f84610f47888863ffffffff612c2416565b9050600061465461464783600263ffffffff612c7d16565b849063ffffffff612f9516565b905061466881670de0b6b3a7640000614e1b565b90506000811161467457fe5b600c8190556040805182815290517fc454ee9b76c52f782a256af821b857ca6e125d1e3333bcede402fec2bed9600c9181900360200190a1612af3613bdb565b6000610ff7612b1061104c565b60006146df83610f4786670de0b6b3a764000063ffffffff612c2416565b905081811115613947576040805162461bcd60e51b815260206004820152601d60248201527f4665652065786365656465642070726f7669646564206d6178696d756d000000604482015290519081900360640190fd5b61473e6158ca565b61474661597e565b61474e6158ca565b848252600060808301526147606116f1565b60a083015261476d611c4d565b60c0830152600060208301525b835182602001511015614946578382602001518151811061479757fe5b6020908102919091018101516001600160a01b0316606084018190526000908152600e909152604090206003015460019060ff1660048111156147d657fe5b146147e057614936565b6147ee826060015187612ad4565b604083015260808201516148d857670f43fc2c04ee000082604001511015801561481757508151155b1561482157614936565b60006148368360c001518460a0015189613df1565b90506148538989856060015186604001518760000151868d614e31565b6080810151845191935061486d919063ffffffff612be216565b8352608082015160a08401516148889163ffffffff612be216565b60a08085019190915282015160c08401516148a89163ffffffff612be216565b60c08401526148b78483615164565b93506148cc8360c001518460a001518961527b565b15608084015250614936565b816080015180156148f45750670f43fc2c04ee00008260400151105b156149365761490d88888460600151856000015161529c565b60808101518351919250614927919063ffffffff612be216565b82526149338382615164565b92505b602082018051600101905261477a565b505095945050505050565b6149596158ca565b61496161597e565b6149696158ca565b848252600060208301525b835182602001511015614946578382602001518151811061499157fe5b60209081029190910101516001600160a01b0316606083018190526149b69087612ad4565b60408301819052670f43fc2c04ee00001115614a09576149e088888460600151856000015161529c565b608081015183519192506149fa919063ffffffff612be216565b8252614a068382615164565b92505b6020820180516001019052614974565b6000816004811115614a2757fe5b14158015614a4157506001816004811115614a3e57fe5b14155b614a4757fe5b601554614a538161566b565b6001600160a01b0383166000908152600e60205260409020600301805483919060ff19166001836004811115614a8557fe5b02179055506001600160a01b0383166000908152600e60209081526040808320600180820185905590849055601490925282208281550155614ac78382612fef565b600b5460408051631484968760e11b81526001600160a01b038681166004830152915191909216916329092d0e91602480830192600092919082900301818387803b158015614b1557600080fd5b505af1158015614b29573d6000803e3d6000fd5b50505050505050565b600080614b51670de0b6b3a7640000610f47868663ffffffff612c2416565b9050828110611c465760405162461bcd60e51b8152600401808060200182810382526036815260200180615beb6036913960400191505060405180910390fd5b6001600160a01b0381166000908152600e6020526040902060020154600f54614bc0908263ffffffff612be216565b600f55506001600160a01b03166000908152600e6020526040812060020155565b60008184841115614c705760405162461bcd60e51b81526004018080602001828103825283818151815260200191508051906020019080838360005b83811015614c35578181015183820152602001614c1d565b50505050905090810190601f168015614c625780820380516001836020036101000a031916815260200191505b509250505060405180910390fd5b505050900390565b60008183614cc75760405162461bcd60e51b8152602060048201818152835160248401528351909283926044909101919085019080838360008315614c35578181015183820152602001614c1d565b506000838581614cd357fe5b0495945050505050565b826001600160a01b031663d3ed5d19836040518263ffffffff1660e01b815260040180828152602001915050600060405180830381600087803b158015614d2357600080fd5b505af1158015614d37573d6000803e3d6000fd5b50505050836001600160a01b031663c9ceb951836040518263ffffffff1660e01b815260040180828152602001915050600060405180830381600087803b158015614d8157600080fd5b505af1158015614d95573d6000803e3d6000fd5b50505050826001600160a01b03166370439039826040518263ffffffff1660e01b815260040180828152602001915050600060405180830381600087803b158015613b7957600080fd5b60008060115460001415614df4575081610ff7565b600060105411614e0057fe5b611c46601154610f4760105486612c2490919063ffffffff16565b6000818310614e2a5781611c46565b5090919050565b614e396158ca565b614e416159c6565b601554600110614e515750614601565b614e5a87611e1f565b60408501526020848101919091528401819052908352614e7990613e21565b60408301819052680ad78ebc5ac620000060608401526020830151614ea39163ffffffff612be216565b8152670de0b6b3a76400008611614fab57614ec8898983602001518460400151614cdd565b614ed187614b91565b60006080830181905260a0830152815160c0830152805160e0830152614ef8876003614a19565b866001600160a01b03166000805160206159e883398151915283600001518460200151600260405180848152602001838152602001826003811115614f3957fe5b60ff168152602001935050505060405180910390a2866001600160a01b0316600080516020615a588339815191526000806000600260405180858152602001848152602001838152602001826003811115614f9057fe5b60ff16815260200194505050505060405180910390a2615158565b670de0b6b3a764000086118015614fc95750670f43fc2c04ee000086105b1561501957614fe2898983602001518460400151614cdd565b614feb87614b91565b81518151614ffa919087615724565b60e086015260c085015260a08401526080830152614ef8876003614a19565b670f43fc2c04ee0000861015801561503057508386105b801561503d575081518510155b1561514757615056898983602001518460400151614cdd565b8461505d57fe5b61506687614b91565b6150798260000151836020015185615790565b9150615086876003614a19565b610100820151156151065760075461010083015160408051633f10abab60e01b81526001600160a01b038b81166004830152602482019390935290519190921691633f10abab91604480830192600092919082900301818387803b1580156150ed57600080fd5b505af1158015615101573d6000803e3d6000fd5b505050505b866001600160a01b03166000805160206159e883398151915283600001518460a00151600260405180848152602001838152602001826003811115614f3957fe5b61514f6158ca565b91506146019050565b50979650505050505050565b61516c6158ca565b604080830151908401516151859163ffffffff612f9516565b6040820152606080830151908401516151a39163ffffffff612f9516565b6060820152815160208401516151be9163ffffffff612f9516565b60208083019190915282015183516151db9163ffffffff612f9516565b8152608080830151908401516151f69163ffffffff612f9516565b608082015260a080830151908401516152149163ffffffff612f9516565b60a082015260c080830151908401516152329163ffffffff612f9516565b60c082015260e080830151908401516152509163ffffffff612f9516565b60e0820152610100808301519084015161526f9163ffffffff612f9516565b61010082015292915050565b600080615289858585613df1565b6714d1120d7b1600001195945050505050565b6152a46158ca565b6152ac6159c6565b6152b584611e1f565b604085019081526020858101928352860192909252918452905190516152df918891889190614cdd565b6152e884614b91565b6152f58260200151613e21565b60408301819052680ad78ebc5ac620000060608401526020830151600091615323919063ffffffff612be216565b905061533483600001518286615724565b60e087015260c086015260a08501526080840152615353856003614a19565b846001600160a01b03166000805160206159e88339815191528460000151856020015160016040518084815260200183815260200182600381111561539457fe5b60ff168152602001935050505060405180910390a2846001600160a01b0316600080516020615a5883398151915260008060006001604051808581526020018481526020018381526020018260038111156153eb57fe5b60ff16815260200194505050505060405180910390a25050949350505050565b6000631f54050082111561542157631f54050091505b816154355750670de0b6b3a7640000610ff7565b670de0b6b3a764000083835b60018111156154ac57600281066154765761545c828361582a565b915061546f81600263ffffffff612c7d16565b90506154a7565b615480828461582a565b925061548c828361582a565b91506154a46002610f4783600163ffffffff612be216565b90505b615441565b612af3828461582a565b6040808501516006548251632770a7eb60e21b81526001600160a01b039182166004820152602481018690529251911691639dc29fac91604480830192600092919082900301818387803b15801561550d57600080fd5b505af1158015615521573d6000803e3d6000fd5b5050505083600001516001600160a01b031663d3ed5d19836040518263ffffffff1660e01b815260040180828152602001915050600060405180830381600087803b15801561556f57600080fd5b505af1158015615583573d6000803e3d6000fd5b505050508360a001516001600160a01b0316633f10abab84836040518363ffffffff1660e01b815260040180836001600160a01b03166001600160a01b0316815260200182815260200192505050600060405180830381600087803b1580156155eb57600080fd5b505af11580156155ff573d6000803e3d6000fd5b5050505083600001516001600160a01b0316633efe643b8560a00151836040518363ffffffff1660e01b815260040180836001600160a01b03166001600160a01b0316815260200182815260200192505050600060405180830381600087803b158015613b7957600080fd5b6001811180156156e95750600b546040805163de8fa43160e01b815290516001926001600160a01b03169163de8fa431916004808301926020929190829003018186803b1580156156bb57600080fd5b505afa1580156156cf573d6000803e3d6000fd5b505050506040513d60208110156156e557600080fd5b5051115b610f845760405162461bcd60e51b815260040180806020018281038252602a815260200180615b29602a913960400191505060405180910390fd5b6000808080841561577a576157398786614e1b565b935061574f87610f47888763ffffffff612c2416565b9250615761878563ffffffff612be216565b9150615773868463ffffffff612be216565b9050615787565b5060009250829150859050845b93509350935093565b6157986158ca565b8381526020810183905260006157c083610f4787670f43fc2c04ee000063ffffffff612c2416565b90506157cb81613e21565b60408301819052680ad78ebc5ac62000006060840152608083018690526157f990829063ffffffff612be216565b60a083015261580e848263ffffffff612be216565b61010083015250600060c0820181905260e08201529392505050565b60008061583d848463ffffffff612c2416565b9050613f72670de0b6b3a7640000610f47836706f05b59d3b20000612f95565b6040805160e081018252600080825260208201819052918101829052606081018290526080810182905260a0810182905260c081019190915290565b6040518060a00160405280600081526020016000815260200160001515815260200160008152602001600081525090565b6040518061012001604052806000815260200160008152602001600081526020016000815260200160008152602001600081526020016000815260200160008152602001600081525090565b60405180610100016040528060008152602001600081526020016000815260200160008152602001600081526020016000815260200160008152602001600081525090565b604051806060016040528060008152602001600081526020016000151581525090565b6040518060e0016040528060008152602001600081526020016000815260200160006001600160a01b0316815260200160001515815260200160008152602001600081525090565b6040518060600160405280600081526020016000815260200160008152509056fe7495fe27166ca7c7fb38d10e09b0d0f029a5704bac8952a9545063644de73c105661756c744d616e616765723a206e6f7468696e6720746f206c69717569646174655661756c744d616e616765723a20416d6f756e74206d7573742062652067726561746572207468616e207a65726f1682adcf84a5197a236a80c9ffe2e7233619140acb7839754c27cdc21799192c5661756c744d616e616765723a2043616c6c646174612061646472657373206172726179206d757374206e6f7420626520656d7074795661756c744d616e616765723a20526564656d7074696f6e7320617265206e6f7420616c6c6f77656420647572696e6720626f6f7473747261702070686173655661756c744d616e616765723a2043616c6c6572206973206e6f742074686520426f72726f7765724f7065726174696f6e7320636f6e74726163745661756c744d616e616765723a204f6e6c79206f6e65207661756c7420696e207468652073797374656d536166654d6174683a206d756c7469706c69636174696f6e206f766572666c6f775661756c744d616e616765723a2043616e6e6f742072656465656d207768656e20544352203c204d43525661756c744d616e616765723a2052657175657374656420726564656d7074696f6e20616d6f756e74206d757374206265203c3d207573657227732042504420746f6b656e2062616c616e63655661756c744d616e616765723a2046656520776f756c642065617420757020616c6c2072657475726e656420636f6c6c61746572616c5661756c744d616e616765723a205661756c7420646f6573206e6f74206578697374206f7220697320636c6f7365644d6178206665652070657263656e74616765206d757374206265206265747765656e20302e352520616e6420313030255661756c744d616e616765723a20556e61626c6520746f2072656465656d20616e7920616d6f756e74a2646970667358221220e779314083cf04ba5b0d6fe909e82e578aa76630e59f43ac48f4aa0bf8f7ddd464736f6c634300060b0033",
  "linkReferences": {},
  "deployedLinkReferences": {}
}