{
  "_format": "hh-sol-artifact-1",
  "contractName": "VaultManager",
  "sourceName": "contracts/VaultManager.sol",
  "abi": [
    {
      "anonymous": false,
      "inputs": [
        {
          "indexed": false,
          "internalType": "address",
          "name": "_activePoolAddress",
          "type": "address"
        }
      ],
      "name": "ActivePoolAddressChanged",
      "type": "event"
    },
    {
      "anonymous": false,
      "inputs": [
        {
          "indexed": false,
          "internalType": "address",
          "name": "_newBPDTokenAddress",
          "type": "address"
        }
      ],
      "name": "BPDTokenAddressChanged",
      "type": "event"
    },
    {
      "anonymous": false,
      "inputs": [
        {
          "indexed": false,
          "internalType": "uint256",
          "name": "_baseRate",
          "type": "uint256"
        }
      ],
      "name": "BaseRateUpdated",
      "type": "event"
    },
    {
      "anonymous": false,
      "inputs": [
        {
          "indexed": false,
          "internalType": "address",
          "name": "_newBorrowerOperationsAddress",
          "type": "address"
        }
      ],
      "name": "BorrowerOperationsAddressChanged",
      "type": "event"
    },
    {
      "anonymous": false,
      "inputs": [
        {
          "indexed": false,
          "internalType": "address",
          "name": "_collSurplusPoolAddress",
          "type": "address"
        }
      ],
      "name": "CollSurplusPoolAddressChanged",
      "type": "event"
    },
    {
      "anonymous": false,
      "inputs": [
        {
          "indexed": false,
          "internalType": "address",
          "name": "_defaultPoolAddress",
          "type": "address"
        }
      ],
      "name": "DefaultPoolAddressChanged",
      "type": "event"
    },
    {
      "anonymous": false,
      "inputs": [
        {
          "indexed": false,
          "internalType": "address",
          "name": "_gasPoolAddress",
          "type": "address"
        }
      ],
      "name": "GasPoolAddressChanged",
      "type": "event"
    },
    {
      "anonymous": false,
      "inputs": [
        {
          "indexed": false,
          "internalType": "uint256",
          "name": "_B_RBTC",
          "type": "uint256"
        },
        {
          "indexed": false,
          "internalType": "uint256",
          "name": "_B_BPDDebt",
          "type": "uint256"
        }
      ],
      "name": "LTermsUpdated",
      "type": "event"
    },
    {
      "anonymous": false,
      "inputs": [
        {
          "indexed": false,
          "internalType": "uint256",
          "name": "_lastFeeOpTime",
          "type": "uint256"
        }
      ],
      "name": "LastFeeOpTimeUpdated",
      "type": "event"
    },
    {
      "anonymous": false,
      "inputs": [
        {
          "indexed": false,
          "internalType": "uint256",
          "name": "_liquidatedDebt",
          "type": "uint256"
        },
        {
          "indexed": false,
          "internalType": "uint256",
          "name": "_liquidatedColl",
          "type": "uint256"
        },
        {
          "indexed": false,
          "internalType": "uint256",
          "name": "_collGasCompensation",
          "type": "uint256"
        },
        {
          "indexed": false,
          "internalType": "uint256",
          "name": "_BPDGasCompensation",
          "type": "uint256"
        }
      ],
      "name": "Liquidation",
      "type": "event"
    },
    {
      "anonymous": false,
      "inputs": [
        {
          "indexed": false,
          "internalType": "address",
          "name": "_mpStakingAddress",
          "type": "address"
        }
      ],
      "name": "MPStakingAddressChanged",
      "type": "event"
    },
    {
      "anonymous": false,
      "inputs": [
        {
          "indexed": false,
          "internalType": "address",
          "name": "_mpTokenAddress",
          "type": "address"
        }
      ],
      "name": "MPTokenAddressChanged",
      "type": "event"
    },
    {
      "anonymous": false,
      "inputs": [
        {
          "indexed": true,
          "internalType": "address",
          "name": "previousOwner",
          "type": "address"
        },
        {
          "indexed": true,
          "internalType": "address",
          "name": "newOwner",
          "type": "address"
        }
      ],
      "name": "OwnershipTransferred",
      "type": "event"
    },
    {
      "anonymous": false,
      "inputs": [
        {
          "indexed": false,
          "internalType": "address",
          "name": "_newPriceFeedAddress",
          "type": "address"
        }
      ],
      "name": "PriceFeedAddressChanged",
      "type": "event"
    },
    {
      "anonymous": false,
      "inputs": [
        {
          "indexed": false,
          "internalType": "uint256",
          "name": "_attemptedBPDAmount",
          "type": "uint256"
        },
        {
          "indexed": false,
          "internalType": "uint256",
          "name": "_actualBPDAmount",
          "type": "uint256"
        },
        {
          "indexed": false,
          "internalType": "uint256",
          "name": "_RBTCSent",
          "type": "uint256"
        },
        {
          "indexed": false,
          "internalType": "uint256",
          "name": "_RBTCFee",
          "type": "uint256"
        }
      ],
      "name": "Redemption",
      "type": "event"
    },
    {
      "anonymous": false,
      "inputs": [
        {
          "indexed": false,
          "internalType": "address",
          "name": "_sortedVaultsAddress",
          "type": "address"
        }
      ],
      "name": "SortedVaultsAddressChanged",
      "type": "event"
    },
    {
      "anonymous": false,
      "inputs": [
        {
          "indexed": false,
          "internalType": "address",
          "name": "_stabilityPoolAddress",
          "type": "address"
        }
      ],
      "name": "StabilityPoolAddressChanged",
      "type": "event"
    },
    {
      "anonymous": false,
      "inputs": [
        {
          "indexed": false,
          "internalType": "uint256",
          "name": "_totalStakesSnapshot",
          "type": "uint256"
        },
        {
          "indexed": false,
          "internalType": "uint256",
          "name": "_totalCollateralSnapshot",
          "type": "uint256"
        }
      ],
      "name": "SystemSnapshotsUpdated",
      "type": "event"
    },
    {
      "anonymous": false,
      "inputs": [
        {
          "indexed": false,
          "internalType": "uint256",
          "name": "_newTotalStakes",
          "type": "uint256"
        }
      ],
      "name": "TotalStakesUpdated",
      "type": "event"
    },
    {
      "anonymous": false,
      "inputs": [
        {
          "indexed": false,
          "internalType": "address",
          "name": "_borrower",
          "type": "address"
        },
        {
          "indexed": false,
          "internalType": "uint256",
          "name": "_newIndex",
          "type": "uint256"
        }
      ],
      "name": "VaultIndexUpdated",
      "type": "event"
    },
    {
      "anonymous": false,
      "inputs": [
        {
          "indexed": true,
          "internalType": "address",
          "name": "_borrower",
          "type": "address"
        },
        {
          "indexed": false,
          "internalType": "uint256",
          "name": "_debt",
          "type": "uint256"
        },
        {
          "indexed": false,
          "internalType": "uint256",
          "name": "_coll",
          "type": "uint256"
        },
        {
          "indexed": false,
          "internalType": "enum VaultManager.VaultManagerOperation",
          "name": "_operation",
          "type": "uint8"
        }
      ],
      "name": "VaultLiquidated",
      "type": "event"
    },
    {
      "anonymous": false,
      "inputs": [
        {
          "indexed": false,
          "internalType": "uint256",
          "name": "_B_RBTC",
          "type": "uint256"
        },
        {
          "indexed": false,
          "internalType": "uint256",
          "name": "_B_BPDDebt",
          "type": "uint256"
        }
      ],
      "name": "VaultSnapshotsUpdated",
      "type": "event"
    },
    {
      "anonymous": false,
      "inputs": [
        {
          "indexed": true,
          "internalType": "address",
          "name": "_borrower",
          "type": "address"
        },
        {
          "indexed": false,
          "internalType": "uint256",
          "name": "_debt",
          "type": "uint256"
        },
        {
          "indexed": false,
          "internalType": "uint256",
          "name": "_coll",
          "type": "uint256"
        },
        {
          "indexed": false,
          "internalType": "uint256",
          "name": "_stake",
          "type": "uint256"
        },
        {
          "indexed": false,
          "internalType": "enum VaultManager.VaultManagerOperation",
          "name": "_operation",
          "type": "uint8"
        }
      ],
      "name": "VaultUpdated",
      "type": "event"
    },
    {
      "inputs": [],
      "name": "BETA",
      "outputs": [
        {
          "internalType": "uint256",
          "name": "",
          "type": "uint256"
        }
      ],
      "stateMutability": "view",
      "type": "function"
    },
    {
      "inputs": [],
      "name": "BOOTSTRAP_PERIOD",
      "outputs": [
        {
          "internalType": "uint256",
          "name": "",
          "type": "uint256"
        }
      ],
      "stateMutability": "view",
      "type": "function"
    },
    {
      "inputs": [],
      "name": "BORROWING_FEE_FLOOR",
      "outputs": [
        {
          "internalType": "uint256",
          "name": "",
          "type": "uint256"
        }
      ],
      "stateMutability": "view",
      "type": "function"
    },
    {
      "inputs": [],
      "name": "BPD_GAS_COMPENSATION",
      "outputs": [
        {
          "internalType": "uint256",
          "name": "",
          "type": "uint256"
        }
      ],
      "stateMutability": "view",
      "type": "function"
    },
    {
      "inputs": [],
      "name": "B_BPDDebt",
      "outputs": [
        {
          "internalType": "uint256",
          "name": "",
          "type": "uint256"
        }
      ],
      "stateMutability": "view",
      "type": "function"
    },
    {
      "inputs": [],
      "name": "B_RBTC",
      "outputs": [
        {
          "internalType": "uint256",
          "name": "",
          "type": "uint256"
        }
      ],
      "stateMutability": "view",
      "type": "function"
    },
    {
      "inputs": [],
      "name": "CCR",
      "outputs": [
        {
          "internalType": "uint256",
          "name": "",
          "type": "uint256"
        }
      ],
      "stateMutability": "view",
      "type": "function"
    },
    {
      "inputs": [],
      "name": "DECIMAL_PRECISION",
      "outputs": [
        {
          "internalType": "uint256",
          "name": "",
          "type": "uint256"
        }
      ],
      "stateMutability": "view",
      "type": "function"
    },
    {
      "inputs": [],
      "name": "MAX_BORROWING_FEE",
      "outputs": [
        {
          "internalType": "uint256",
          "name": "",
          "type": "uint256"
        }
      ],
      "stateMutability": "view",
      "type": "function"
    },
    {
      "inputs": [],
      "name": "MCR",
      "outputs": [
        {
          "internalType": "uint256",
          "name": "",
          "type": "uint256"
        }
      ],
      "stateMutability": "view",
      "type": "function"
    },
    {
      "inputs": [],
      "name": "MINUTE_DECAY_FACTOR",
      "outputs": [
        {
          "internalType": "uint256",
          "name": "",
          "type": "uint256"
        }
      ],
      "stateMutability": "view",
      "type": "function"
    },
    {
      "inputs": [],
      "name": "MIN_NET_DEBT",
      "outputs": [
        {
          "internalType": "uint256",
          "name": "",
          "type": "uint256"
        }
      ],
      "stateMutability": "view",
      "type": "function"
    },
    {
      "inputs": [],
      "name": "NAME",
      "outputs": [
        {
          "internalType": "string",
          "name": "",
          "type": "string"
        }
      ],
      "stateMutability": "view",
      "type": "function"
    },
    {
      "inputs": [],
      "name": "PERCENT_DIVISOR",
      "outputs": [
        {
          "internalType": "uint256",
          "name": "",
          "type": "uint256"
        }
      ],
      "stateMutability": "view",
      "type": "function"
    },
    {
      "inputs": [],
      "name": "REDEMPTION_FEE_FLOOR",
      "outputs": [
        {
          "internalType": "uint256",
          "name": "",
          "type": "uint256"
        }
      ],
      "stateMutability": "view",
      "type": "function"
    },
    {
      "inputs": [],
      "name": "SECONDS_IN_ONE_MINUTE",
      "outputs": [
        {
          "internalType": "uint256",
          "name": "",
          "type": "uint256"
        }
      ],
      "stateMutability": "view",
      "type": "function"
    },
    {
      "inputs": [
        {
          "internalType": "uint256",
          "name": "",
          "type": "uint256"
        }
      ],
      "name": "VaultOwners",
      "outputs": [
        {
          "internalType": "address",
          "name": "",
          "type": "address"
        }
      ],
      "stateMutability": "view",
      "type": "function"
    },
    {
      "inputs": [
        {
          "internalType": "address",
          "name": "",
          "type": "address"
        }
      ],
      "name": "Vaults",
      "outputs": [
        {
          "internalType": "uint256",
          "name": "debt",
          "type": "uint256"
        },
        {
          "internalType": "uint256",
          "name": "coll",
          "type": "uint256"
        },
        {
          "internalType": "uint256",
          "name": "stake",
          "type": "uint256"
        },
        {
          "internalType": "enum VaultManager.Status",
          "name": "status",
          "type": "uint8"
        },
        {
          "internalType": "uint128",
          "name": "arrayIndex",
          "type": "uint128"
        }
      ],
      "stateMutability": "view",
      "type": "function"
    },
    {
      "inputs": [],
      "name": "_100pct",
      "outputs": [
        {
          "internalType": "uint256",
          "name": "",
          "type": "uint256"
        }
      ],
      "stateMutability": "view",
      "type": "function"
    },
    {
      "inputs": [],
      "name": "activePool",
      "outputs": [
        {
          "internalType": "contract IActivePool",
          "name": "",
          "type": "address"
        }
      ],
      "stateMutability": "view",
      "type": "function"
    },
    {
      "inputs": [
        {
          "internalType": "address",
          "name": "_borrower",
          "type": "address"
        }
      ],
      "name": "addVaultOwnerToArray",
      "outputs": [
        {
          "internalType": "uint256",
          "name": "index",
          "type": "uint256"
        }
      ],
      "stateMutability": "nonpayable",
      "type": "function"
    },
    {
      "inputs": [
        {
          "internalType": "address",
          "name": "_borrower",
          "type": "address"
        }
      ],
      "name": "applyPendingRewards",
      "outputs": [],
      "stateMutability": "nonpayable",
      "type": "function"
    },
    {
      "inputs": [],
      "name": "baseRate",
      "outputs": [
        {
          "internalType": "uint256",
          "name": "",
          "type": "uint256"
        }
      ],
      "stateMutability": "view",
      "type": "function"
    },
    {
      "inputs": [
        {
          "internalType": "address[]",
          "name": "_vaultArray",
          "type": "address[]"
        }
      ],
      "name": "batchLiquidateVaults",
      "outputs": [],
      "stateMutability": "nonpayable",
      "type": "function"
    },
    {
      "inputs": [],
      "name": "borrowerOperationsAddress",
      "outputs": [
        {
          "internalType": "address",
          "name": "",
          "type": "address"
        }
      ],
      "stateMutability": "view",
      "type": "function"
    },
    {
      "inputs": [],
      "name": "bpdToken",
      "outputs": [
        {
          "internalType": "contract IBPDToken",
          "name": "",
          "type": "address"
        }
      ],
      "stateMutability": "view",
      "type": "function"
    },
    {
      "inputs": [
        {
          "internalType": "uint256",
          "name": "_price",
          "type": "uint256"
        }
      ],
      "name": "checkRecoveryMode",
      "outputs": [
        {
          "internalType": "bool",
          "name": "",
          "type": "bool"
        }
      ],
      "stateMutability": "view",
      "type": "function"
    },
    {
      "inputs": [
        {
          "internalType": "address",
          "name": "_borrower",
          "type": "address"
        }
      ],
      "name": "closeVault",
      "outputs": [],
      "stateMutability": "nonpayable",
      "type": "function"
    },
    {
      "inputs": [],
      "name": "decayBaseRateFromBorrowing",
      "outputs": [],
      "stateMutability": "nonpayable",
      "type": "function"
    },
    {
      "inputs": [
        {
          "internalType": "address",
          "name": "_borrower",
          "type": "address"
        },
        {
          "internalType": "uint256",
          "name": "_collDecrease",
          "type": "uint256"
        }
      ],
      "name": "decreaseVaultColl",
      "outputs": [
        {
          "internalType": "uint256",
          "name": "",
          "type": "uint256"
        }
      ],
      "stateMutability": "nonpayable",
      "type": "function"
    },
    {
      "inputs": [
        {
          "internalType": "address",
          "name": "_borrower",
          "type": "address"
        },
        {
          "internalType": "uint256",
          "name": "_debtDecrease",
          "type": "uint256"
        }
      ],
      "name": "decreaseVaultDebt",
      "outputs": [
        {
          "internalType": "uint256",
          "name": "",
          "type": "uint256"
        }
      ],
      "stateMutability": "nonpayable",
      "type": "function"
    },
    {
      "inputs": [],
      "name": "defaultPool",
      "outputs": [
        {
          "internalType": "contract IDefaultPool",
          "name": "",
          "type": "address"
        }
      ],
      "stateMutability": "view",
      "type": "function"
    },
    {
      "inputs": [
        {
          "internalType": "uint256",
          "name": "_BPDDebt",
          "type": "uint256"
        }
      ],
      "name": "getBorrowingFee",
      "outputs": [
        {
          "internalType": "uint256",
          "name": "",
          "type": "uint256"
        }
      ],
      "stateMutability": "view",
      "type": "function"
    },
    {
      "inputs": [
        {
          "internalType": "uint256",
          "name": "_BPDDebt",
          "type": "uint256"
        }
      ],
      "name": "getBorrowingFeeWithDecay",
      "outputs": [
        {
          "internalType": "uint256",
          "name": "",
          "type": "uint256"
        }
      ],
      "stateMutability": "view",
      "type": "function"
    },
    {
      "inputs": [],
      "name": "getBorrowingRate",
      "outputs": [
        {
          "internalType": "uint256",
          "name": "",
          "type": "uint256"
        }
      ],
      "stateMutability": "view",
      "type": "function"
    },
    {
      "inputs": [],
      "name": "getBorrowingRateWithDecay",
      "outputs": [
        {
          "internalType": "uint256",
          "name": "",
          "type": "uint256"
        }
      ],
      "stateMutability": "view",
      "type": "function"
    },
    {
      "inputs": [
        {
          "internalType": "address",
          "name": "_borrower",
          "type": "address"
        },
        {
          "internalType": "uint256",
          "name": "_price",
          "type": "uint256"
        }
      ],
      "name": "getCurrentICR",
      "outputs": [
        {
          "internalType": "uint256",
          "name": "",
          "type": "uint256"
        }
      ],
      "stateMutability": "view",
      "type": "function"
    },
    {
      "inputs": [
        {
          "internalType": "address",
          "name": "_borrower",
          "type": "address"
        }
      ],
      "name": "getEntireDebtAndColl",
      "outputs": [
        {
          "internalType": "uint256",
          "name": "debt",
          "type": "uint256"
        },
        {
          "internalType": "uint256",
          "name": "coll",
          "type": "uint256"
        },
        {
          "internalType": "uint256",
          "name": "pendingBPDDebtReward",
          "type": "uint256"
        },
        {
          "internalType": "uint256",
          "name": "pendingRBTCReward",
          "type": "uint256"
        }
      ],
      "stateMutability": "view",
      "type": "function"
    },
    {
      "inputs": [],
      "name": "getEntireSystemColl",
      "outputs": [
        {
          "internalType": "uint256",
          "name": "entireSystemColl",
          "type": "uint256"
        }
      ],
      "stateMutability": "view",
      "type": "function"
    },
    {
      "inputs": [],
      "name": "getEntireSystemDebt",
      "outputs": [
        {
          "internalType": "uint256",
          "name": "entireSystemDebt",
          "type": "uint256"
        }
      ],
      "stateMutability": "view",
      "type": "function"
    },
    {
      "inputs": [
        {
          "internalType": "address",
          "name": "_borrower",
          "type": "address"
        }
      ],
      "name": "getNominalICR",
      "outputs": [
        {
          "internalType": "uint256",
          "name": "",
          "type": "uint256"
        }
      ],
      "stateMutability": "view",
      "type": "function"
    },
    {
      "inputs": [
        {
          "internalType": "address",
          "name": "_borrower",
          "type": "address"
        }
      ],
      "name": "getPendingBPDDebtReward",
      "outputs": [
        {
          "internalType": "uint256",
          "name": "",
          "type": "uint256"
        }
      ],
      "stateMutability": "view",
      "type": "function"
    },
    {
      "inputs": [
        {
          "internalType": "address",
          "name": "_borrower",
          "type": "address"
        }
      ],
      "name": "getPendingRBTCReward",
      "outputs": [
        {
          "internalType": "uint256",
          "name": "",
          "type": "uint256"
        }
      ],
      "stateMutability": "view",
      "type": "function"
    },
    {
      "inputs": [
        {
          "internalType": "uint256",
          "name": "_RBTCDrawn",
          "type": "uint256"
        }
      ],
      "name": "getRedemptionFeeWithDecay",
      "outputs": [
        {
          "internalType": "uint256",
          "name": "",
          "type": "uint256"
        }
      ],
      "stateMutability": "view",
      "type": "function"
    },
    {
      "inputs": [],
      "name": "getRedemptionRate",
      "outputs": [
        {
          "internalType": "uint256",
          "name": "",
          "type": "uint256"
        }
      ],
      "stateMutability": "view",
      "type": "function"
    },
    {
      "inputs": [],
      "name": "getRedemptionRateWithDecay",
      "outputs": [
        {
          "internalType": "uint256",
          "name": "",
          "type": "uint256"
        }
      ],
      "stateMutability": "view",
      "type": "function"
    },
    {
      "inputs": [
        {
          "internalType": "uint256",
          "name": "_price",
          "type": "uint256"
        }
      ],
      "name": "getTCR",
      "outputs": [
        {
          "internalType": "uint256",
          "name": "",
          "type": "uint256"
        }
      ],
      "stateMutability": "view",
      "type": "function"
    },
    {
      "inputs": [
        {
          "internalType": "address",
          "name": "_borrower",
          "type": "address"
        }
      ],
      "name": "getVaultColl",
      "outputs": [
        {
          "internalType": "uint256",
          "name": "",
          "type": "uint256"
        }
      ],
      "stateMutability": "view",
      "type": "function"
    },
    {
      "inputs": [
        {
          "internalType": "address",
          "name": "_borrower",
          "type": "address"
        }
      ],
      "name": "getVaultDebt",
      "outputs": [
        {
          "internalType": "uint256",
          "name": "",
          "type": "uint256"
        }
      ],
      "stateMutability": "view",
      "type": "function"
    },
    {
      "inputs": [
        {
          "internalType": "uint256",
          "name": "_index",
          "type": "uint256"
        }
      ],
      "name": "getVaultFromVaultOwnersArray",
      "outputs": [
        {
          "internalType": "address",
          "name": "",
          "type": "address"
        }
      ],
      "stateMutability": "view",
      "type": "function"
    },
    {
      "inputs": [],
      "name": "getVaultOwnersCount",
      "outputs": [
        {
          "internalType": "uint256",
          "name": "",
          "type": "uint256"
        }
      ],
      "stateMutability": "view",
      "type": "function"
    },
    {
      "inputs": [
        {
          "internalType": "address",
          "name": "_borrower",
          "type": "address"
        }
      ],
      "name": "getVaultStake",
      "outputs": [
        {
          "internalType": "uint256",
          "name": "",
          "type": "uint256"
        }
      ],
      "stateMutability": "view",
      "type": "function"
    },
    {
      "inputs": [
        {
          "internalType": "address",
          "name": "_borrower",
          "type": "address"
        }
      ],
      "name": "getVaultStatus",
      "outputs": [
        {
          "internalType": "uint256",
          "name": "",
          "type": "uint256"
        }
      ],
      "stateMutability": "view",
      "type": "function"
    },
    {
      "inputs": [
        {
          "internalType": "address",
          "name": "_borrower",
          "type": "address"
        }
      ],
      "name": "hasPendingRewards",
      "outputs": [
        {
          "internalType": "bool",
          "name": "",
          "type": "bool"
        }
      ],
      "stateMutability": "view",
      "type": "function"
    },
    {
      "inputs": [
        {
          "internalType": "address",
          "name": "_borrower",
          "type": "address"
        },
        {
          "internalType": "uint256",
          "name": "_collIncrease",
          "type": "uint256"
        }
      ],
      "name": "increaseVaultColl",
      "outputs": [
        {
          "internalType": "uint256",
          "name": "",
          "type": "uint256"
        }
      ],
      "stateMutability": "nonpayable",
      "type": "function"
    },
    {
      "inputs": [
        {
          "internalType": "address",
          "name": "_borrower",
          "type": "address"
        },
        {
          "internalType": "uint256",
          "name": "_debtIncrease",
          "type": "uint256"
        }
      ],
      "name": "increaseVaultDebt",
      "outputs": [
        {
          "internalType": "uint256",
          "name": "",
          "type": "uint256"
        }
      ],
      "stateMutability": "nonpayable",
      "type": "function"
    },
    {
      "inputs": [],
      "name": "isOwner",
      "outputs": [
        {
          "internalType": "bool",
          "name": "",
          "type": "bool"
        }
      ],
      "stateMutability": "view",
      "type": "function"
    },
    {
      "inputs": [],
      "name": "lastBPDDebtError_Redistribution",
      "outputs": [
        {
          "internalType": "uint256",
          "name": "",
          "type": "uint256"
        }
      ],
      "stateMutability": "view",
      "type": "function"
    },
    {
      "inputs": [],
      "name": "lastFeeOperationTime",
      "outputs": [
        {
          "internalType": "uint256",
          "name": "",
          "type": "uint256"
        }
      ],
      "stateMutability": "view",
      "type": "function"
    },
    {
      "inputs": [],
      "name": "lastRBTCError_Redistribution",
      "outputs": [
        {
          "internalType": "uint256",
          "name": "",
          "type": "uint256"
        }
      ],
      "stateMutability": "view",
      "type": "function"
    },
    {
      "inputs": [
        {
          "internalType": "address",
          "name": "_borrower",
          "type": "address"
        }
      ],
      "name": "liquidate",
      "outputs": [],
      "stateMutability": "nonpayable",
      "type": "function"
    },
    {
      "inputs": [
        {
          "internalType": "uint256",
          "name": "_n",
          "type": "uint256"
        }
      ],
      "name": "liquidateVaults",
      "outputs": [],
      "stateMutability": "nonpayable",
      "type": "function"
    },
    {
      "inputs": [],
      "name": "mpStaking",
      "outputs": [
        {
          "internalType": "contract IMPStaking",
          "name": "",
          "type": "address"
        }
      ],
      "stateMutability": "view",
      "type": "function"
    },
    {
      "inputs": [],
      "name": "mpToken",
      "outputs": [
        {
          "internalType": "contract IMPToken",
          "name": "",
          "type": "address"
        }
      ],
      "stateMutability": "view",
      "type": "function"
    },
    {
      "inputs": [],
      "name": "owner",
      "outputs": [
        {
          "internalType": "address",
          "name": "",
          "type": "address"
        }
      ],
      "stateMutability": "view",
      "type": "function"
    },
    {
      "inputs": [],
      "name": "priceFeed",
      "outputs": [
        {
          "internalType": "contract IPriceFeed",
          "name": "",
          "type": "address"
        }
      ],
      "stateMutability": "view",
      "type": "function"
    },
    {
      "inputs": [
        {
          "internalType": "uint256",
          "name": "_BPDamount",
          "type": "uint256"
        },
        {
          "internalType": "address",
          "name": "_firstRedemptionHint",
          "type": "address"
        },
        {
          "internalType": "address",
          "name": "_upperPartialRedemptionHint",
          "type": "address"
        },
        {
          "internalType": "address",
          "name": "_lowerPartialRedemptionHint",
          "type": "address"
        },
        {
          "internalType": "uint256",
          "name": "_partialRedemptionHintNICR",
          "type": "uint256"
        },
        {
          "internalType": "uint256",
          "name": "_maxIterations",
          "type": "uint256"
        },
        {
          "internalType": "uint256",
          "name": "_maxFeePercentage",
          "type": "uint256"
        }
      ],
      "name": "redeemCollateral",
      "outputs": [],
      "stateMutability": "nonpayable",
      "type": "function"
    },
    {
      "inputs": [
        {
          "internalType": "address",
          "name": "_borrower",
          "type": "address"
        }
      ],
      "name": "removeStake",
      "outputs": [],
      "stateMutability": "nonpayable",
      "type": "function"
    },
    {
      "inputs": [
        {
          "internalType": "address",
          "name": "",
          "type": "address"
        }
      ],
      "name": "rewardSnapshots",
      "outputs": [
        {
          "internalType": "uint256",
          "name": "RBTC",
          "type": "uint256"
        },
        {
          "internalType": "uint256",
          "name": "BPDDebt",
          "type": "uint256"
        }
      ],
      "stateMutability": "view",
      "type": "function"
    },
    {
      "inputs": [
        {
          "internalType": "address",
          "name": "_borrowerOperationsAddress",
          "type": "address"
        },
        {
          "internalType": "address",
          "name": "_activePoolAddress",
          "type": "address"
        },
        {
          "internalType": "address",
          "name": "_defaultPoolAddress",
          "type": "address"
        },
        {
          "internalType": "address",
          "name": "_stabilityPoolAddress",
          "type": "address"
        },
        {
          "internalType": "address",
          "name": "_gasPoolAddress",
          "type": "address"
        },
        {
          "internalType": "address",
          "name": "_collSurplusPoolAddress",
          "type": "address"
        },
        {
          "internalType": "address",
          "name": "_priceFeedAddress",
          "type": "address"
        },
        {
          "internalType": "address",
          "name": "_bpdTokenAddress",
          "type": "address"
        },
        {
          "internalType": "address",
          "name": "_sortedVaultsAddress",
          "type": "address"
        },
        {
          "internalType": "address",
          "name": "_mpTokenAddress",
          "type": "address"
        },
        {
          "internalType": "address",
          "name": "_mpStakingAddress",
          "type": "address"
        }
      ],
      "name": "setAddresses",
      "outputs": [],
      "stateMutability": "nonpayable",
      "type": "function"
    },
    {
      "inputs": [
        {
          "internalType": "address",
          "name": "_borrower",
          "type": "address"
        },
        {
          "internalType": "uint256",
          "name": "_num",
          "type": "uint256"
        }
      ],
      "name": "setVaultStatus",
      "outputs": [],
      "stateMutability": "nonpayable",
      "type": "function"
    },
    {
      "inputs": [],
      "name": "sortedVaults",
      "outputs": [
        {
          "internalType": "contract ISortedVaults",
          "name": "",
          "type": "address"
        }
      ],
      "stateMutability": "view",
      "type": "function"
    },
    {
      "inputs": [],
      "name": "stabilityPool",
      "outputs": [
        {
          "internalType": "contract IStabilityPool",
          "name": "",
          "type": "address"
        }
      ],
      "stateMutability": "view",
      "type": "function"
    },
    {
      "inputs": [],
      "name": "totalCollateralSnapshot",
      "outputs": [
        {
          "internalType": "uint256",
          "name": "",
          "type": "uint256"
        }
      ],
      "stateMutability": "view",
      "type": "function"
    },
    {
      "inputs": [],
      "name": "totalStakes",
      "outputs": [
        {
          "internalType": "uint256",
          "name": "",
          "type": "uint256"
        }
      ],
      "stateMutability": "view",
      "type": "function"
    },
    {
      "inputs": [],
      "name": "totalStakesSnapshot",
      "outputs": [
        {
          "internalType": "uint256",
          "name": "",
          "type": "uint256"
        }
      ],
      "stateMutability": "view",
      "type": "function"
    },
    {
      "inputs": [
        {
          "internalType": "address",
          "name": "_borrower",
          "type": "address"
        }
      ],
      "name": "updateStakeAndTotalStakes",
      "outputs": [
        {
          "internalType": "uint256",
          "name": "",
          "type": "uint256"
        }
      ],
      "stateMutability": "nonpayable",
      "type": "function"
    },
    {
      "inputs": [
        {
          "internalType": "address",
          "name": "_borrower",
          "type": "address"
        }
      ],
      "name": "updateVaultRewardSnapshots",
      "outputs": [],
      "stateMutability": "nonpayable",
      "type": "function"
    }
  ],
  "bytecode": "0x608060405234801561001057600080fd5b50600380546001600160a01b031916339081179091556040516000907f8be0079c531659141344cd1fd0a4f28419497f9722a3daafe3b4186f6b6457e0908290a3615a8980620000616000396000f3fe608060405234801561001057600080fd5b506004361061044a5760003560e01c8063807d138d1161023c578063be30ade211610146578063cdd9f96a116100c3578063dd59049611610087578063dd59049614610c85578063e2ac77b014610c8d578063f36b242514610cb3578063f92d3433146105a4578063fe2ba84814610cbb5761044a565b8063cdd9f96a14610c00578063cf80c37214610c2c578063d293c71014610c34578063d380a37c14610c60578063d5b3563514610c685761044a565b8063c52861f21161010a578063c52861f214610afb578063c590844f14610b03578063c7b5548114610ba6578063c99cb2b714610bae578063cb5a79cc14610bd45761044a565b8063be30ade214610aa0578063bf9befb114610aa8578063c0af0d3b14610ab0578063c0d5287314610ad6578063c35bc55014610af35761044a565b8063a3f4df7e116101d4578063b2b9c5aa11610198578063b2b9c5aa146109c4578063b7f8cf9b146109e1578063b82f263d146109e9578063b91af97c14610a06578063bcd3752614610a525761044a565b8063a3f4df7e146108eb578063a619cc1f14610968578063af88b25614610970578063b0d8e18114610978578063b1dc4c1c1461099e5761044a565b8063807d138d1461086957806380b0cc2b14610871578063887105d31461089d5780638da5cb5b146108a55780638f32d59b146108ad5780639465ba0c146108b557806396d711ff146108bd5780639899a060146108c5578063a20baee6146107bd5761044a565b8063477d66cf11610358578063631203b0116102d557806375b30b3a1161029957806375b30b3a146107cd578063794e5724146107d5578063795d26c3146107dd5780637985c5e4146107e55780637f7dde4a146108615761044a565b8063631203b01461079057806366ca4a21146107ad5780637165f24f146107b557806372fe25aa146107bd578063741bef1a146107c55761044a565b806359d6118c1161031c57806359d6118c146107355780635b2048fe146107525780635dba4c4a1461075a57806361ec893d1461076257806362e768741461076a5761044a565b8063477d66cf146106685780634870dd9a146106855780634d9d67631461068d5780634e443d9e146106fc5780635733d58f1461072d5761044a565b80631f68f20a116103e657806331538aac116103aa57806331538aac146105da578063320b2469146105e2578063325e370d1461060e5780633cc742251461063a578063455f956b146106425761044a565b80631f68f20a14610594578063240926691461059c57806328d28b5b146105a45780632b11551a146105ac5780632f865568146105b45761044a565b8063048c661d1461044f578063071a7541146104735780630a8496921461048d5780630b076557146104b357806311ce4f0a146104db5780631673c79a14610501578063180d97c11461054057806318f2817a146105665780631bf435551461058c575b600080fd5b610457610ce1565b604080516001600160a01b039092168252519081900360200190f35b61047b610cf0565b60408051918252519081900360200190f35b61047b600480360360208110156104a357600080fd5b50356001600160a01b0316610cf5565b6104d9600480360360208110156104c957600080fd5b50356001600160a01b0316610dc0565b005b61047b600480360360208110156104f157600080fd5b50356001600160a01b0316610de8565b6105276004803603602081101561051757600080fd5b50356001600160a01b0316610e06565b6040805192835260208301919091528051918290030190f35b61047b6004803603602081101561055657600080fd5b50356001600160a01b0316610e1f565b61047b6004803603602081101561057c57600080fd5b50356001600160a01b0316610e4f565b61047b610e62565b61047b610e6f565b61047b610e75565b61047b610e88565b61047b610e99565b6104d9600480360360208110156105ca57600080fd5b50356001600160a01b0316610eab565b61047b610f11565b61047b600480360360408110156105f857600080fd5b506001600160a01b038135169060200135610f17565b6104d96004803603604081101561062457600080fd5b506001600160a01b038135169060200135610f74565b610457610fc0565b61047b6004803603602081101561065857600080fd5b50356001600160a01b0316610fcf565b61047b6004803603602081101561067e57600080fd5b5035610ffd565b61047b611010565b6106b3600480360360208110156106a357600080fd5b50356001600160a01b0316611015565b604051808681526020018581526020018481526020018360048111156106d557fe5b60ff1681526001600160801b03909216602083015250604080519182900301945092505050f35b6107196004803603602081101561071257600080fd5b503561104f565b604080519115158252519081900360200190f35b61047b61105a565b6104d96004803603602081101561074b57600080fd5b5035611066565b610457611420565b6104d961142f565b61047b611495565b61047b6004803603602081101561078057600080fd5b50356001600160a01b031661149a565b61047b600480360360208110156107a657600080fd5b50356114bc565b61047b6114c9565b6104576114db565b61047b6114ea565b6104576114f6565b610457611505565b61047b611514565b61047b611520565b6104d960048036036101608110156107fc57600080fd5b506001600160a01b038135811691602081013582169160408201358116916060810135821691608082013581169160a081013582169160c082013581169160e08101358216916101008201358116916101208101358216916101409091013516611621565b610457611a1a565b61047b611a29565b61047b6004803603604081101561088757600080fd5b506001600160a01b038135169060200135611a2f565b61047b611a65565b610457611b21565b610719611b30565b61047b611b41565b61047b611b47565b61047b600480360360208110156108db57600080fd5b50356001600160a01b0316611b4d565b6108f3611b6b565b6040805160208082528351818301528351919283929083019185019080838360005b8381101561092d578181015183820152602001610915565b50505050905090810190601f16801561095a5780820380516001836020036101000a031916815260200191505b509250505060405180910390f35b61047b611b93565b61047b611ba0565b61047b6004803603602081101561098e57600080fd5b50356001600160a01b0316611ba6565b6104d9600480360360208110156109b457600080fd5b50356001600160a01b0316611bcd565b610457600480360360208110156109da57600080fd5b5035611bde565b610457611c05565b61047b600480360360208110156109ff57600080fd5b5035611c14565b610a2c60048036036020811015610a1c57600080fd5b50356001600160a01b0316611c1f565b604080519485526020850193909352838301919091526060830152519081900360800190f35b6104d9600480360360e0811015610a6857600080fd5b508035906001600160a01b03602082013581169160408101358216916060820135169060808101359060a08101359060c00135611c83565b61047b612425565b61047b61242b565b61047b60048036036020811015610ac657600080fd5b50356001600160a01b0316612431565b61045760048036036020811015610aec57600080fd5b503561244c565b61047b612476565b61047b61247d565b6104d960048036036020811015610b1957600080fd5b810190602081018135640100000000811115610b3457600080fd5b820183602082011115610b4657600080fd5b80359060200191846020830284011164010000000083111715610b6857600080fd5b91908080602002602001604051908101604052809392919081815260200183836020028082843760009201919091525092955061248f945050505050565b61047b612825565b6104d960048036036020811015610bc457600080fd5b50356001600160a01b0316612831565b61047b60048036036040811015610bea57600080fd5b506001600160a01b038135169060200135612844565b61047b60048036036040811015610c1657600080fd5b506001600160a01b03813516906020013561289b565b61047b6128ce565b61047b60048036036040811015610c4a57600080fd5b506001600160a01b0381351690602001356128d4565b61047b6128fd565b61047b60048036036020811015610c7e57600080fd5b5035612903565b610457612916565b61071960048036036020811015610ca357600080fd5b50356001600160a01b0316612925565b61047b612983565b6104d960048036036020811015610cd157600080fd5b50356001600160a01b0316612990565b6005546001600160a01b031681565b600281565b6001600160a01b0381166000908152601460205260408120600101546013548290610d26908363ffffffff6129a116565b9050801580610d5f575060016001600160a01b0385166000908152600e602052604090206003015460ff166004811115610d5c57fe5b14155b15610d6f57600092505050610dbb565b6001600160a01b0384166000908152600e602052604081206002015490610db4670de0b6b3a7640000610da8848663ffffffff6129ea16565b9063ffffffff612a4316565b9450505050505b919050565b610dc8612a85565b600054600154610de5916001600160a01b03908116911683612ad0565b50565b6001600160a01b03166000908152600e602052604090206002015490565b6014602052600090815260409020805460019091015482565b6001600160a01b0381166000908152600e602052604081206003015460ff166004811115610e4957fe5b92915050565b6000610e59612a85565b610e4982612bf2565b686194049f30f720000081565b600c5481565b6064670de0b6b3a76400005b0460050281565b6103e8670de0b6b3a7640000610e81565b6000610ea6600c54612ca1565b905090565b610eb481612cd7565b604080516001808252818301909252606091602080830190803683370190505090508181600081518110610ee457fe5b60200260200101906001600160a01b031690816001600160a01b031681525050610f0d8161248f565b5050565b60165481565b6000610f21612a85565b6001600160a01b0383166000908152600e6020526040812060010154610f4d908463ffffffff612d3f16565b6001600160a01b0385166000908152600e6020526040902060010181905591505092915050565b610f7c612a85565b806004811115610f8857fe5b6001600160a01b0383166000908152600e60205260409020600301805460ff19166001836004811115610fb757fe5b02179055505050565b6001546001600160a01b031681565b6001600160a01b0381166000908152601460205260408120546012548290610d26908363ffffffff6129a116565b6000610e4961100a6114c9565b83612d99565b60c881565b600e6020526000908152604090208054600182015460028301546003909301549192909160ff81169061010090046001600160801b031685565b6000610e4982612db7565b6714d1120d7b16000081565b61106e615608565b506040805160e081018252600080546001600160a01b0390811683526001548116602084015292820181905260608201819052600b548316608083015260a0820181905260c08201526005549091166110c5615644565b6110cd615675565b600260009054906101000a90046001600160a01b03166001600160a01b0316630fdb11cf6040518163ffffffff1660e01b8152600401602060405180830381600087803b15801561111d57600080fd5b505af1158015611131573d6000803e3d6000fd5b505050506040513d602081101561114757600080fd5b505182526040805163dde598b960e01b815290516001600160a01b0385169163dde598b9916004808301926020929190829003018186803b15801561118b57600080fd5b505afa15801561119f573d6000803e3d6000fd5b505050506040513d60208110156111b557600080fd5b5051602083015281516111c790612db7565b15801560408401526111ee576111e7848360000151846020015188612dd4565b905061120e565b61120b846000015185602001518460000151856020015189613167565b90505b60008160200151116112515760405162461bcd60e51b81526004018080602001828103825260228152602001806157b36022913960400191505060405180910390fd5b826001600160a01b031663335525ad82608001518360a001516040518363ffffffff1660e01b81526004018083815260200182815260200192505050600060405180830381600087803b1580156112a757600080fd5b505af11580156112bb573d6000803e3d6000fd5b505050506112db846000015185602001518360c001518460e00151613299565b6101008101511561135c57835160075461010083015160408051633efe643b60e01b81526001600160a01b0393841660048201526024810192909252519190921691633efe643b91604480830192600092919082900301818387803b15801561134357600080fd5b505af1158015611357573d6000803e3d6000fd5b505050505b61136e8460000151826040015161351a565b60208101516060830152610100810151604082015182516113a6929161139a919063ffffffff6129a116565b9063ffffffff6129a116565b608080840182905260608085015160408086015186840151825193845260208401969096528282015291810193909352517f4152c73dd2614c4f9fc35e8c9cf16013cd588c75b49a4c1673ecffdcbcda94039281900390910190a161141984600001513383606001518460400151613661565b5050505050565b6009546001600160a01b031681565b611437612a85565b6000611441613764565b9050670de0b6b3a764000081111561145557fe5b600c8190556040805182815290517fc454ee9b76c52f782a256af821b857ca6e125d1e3333bcede402fec2bed9600c9181900360200190a1610de56137a8565b603c81565b60006114a4612a85565b6114ad82613804565b6001600160801b031692915050565b6000610e4961100a612983565b6000610ea66114d6613764565b61389e565b600b546001600160a01b031681565b670de0b6b3a764000081565b6002546001600160a01b031681565b600a546001600160a01b031681565b670f43fc2c04ee000081565b6000805460408051638f07158d60e01b8152905183926001600160a01b031691638f07158d916004808301926020929190829003018186803b15801561156557600080fd5b505afa158015611579573d6000803e3d6000fd5b505050506040513d602081101561158f57600080fd5b505160015460408051638f07158d60e01b815290519293506000926001600160a01b0390921691638f07158d91600480820192602092909190829003018186803b1580156115dc57600080fd5b505afa1580156115f0573d6000803e3d6000fd5b505050506040513d602081101561160657600080fd5b5051905061161a828263ffffffff612d3f16565b9250505090565b611629611b30565b61167a576040805162461bcd60e51b815260206004820181905260248201527f4f776e61626c653a2063616c6c6572206973206e6f7420746865206f776e6572604482015290519081900360640190fd5b6116838b6138c5565b61168c8a6138c5565b611695896138c5565b61169e886138c5565b6116a7876138c5565b6116b0866138c5565b6116b9856138c5565b6116c2846138c5565b6116cb836138c5565b6116d4826138c5565b6116dd816138c5565b600480546001600160a01b03199081166001600160a01b038e81169182179093556000805483168e85161790556001805483168d85161790556005805483168c85161790556006805483168b85161790556007805483168a8516179055600280548316898516179055600880548316888516179055600b80548316878516179055600980548316868516179055600a805490921692841692909217905560408051918252517f3ca631ffcd2a9b5d9ae18543fc82f58eb4ca33af9e6ab01b7a8e95331e6ed985916020908290030190a1604080516001600160a01b038c16815290517f78f058b189175430c48dc02699e3a0031ea4ff781536dc2fab847de4babdd8829181900360200190a1604080516001600160a01b038b16815290517f5ee0cae2f063ed938bb55046f6a932fb6ae792bf43624806bb90abe68a50be9b9181900360200190a1604080516001600160a01b038a16815290517f82966d27eea39b038ee0fa30cd16532bb24f6e65d31cb58fb227aa5766cdcc7f9181900360200190a1604080516001600160a01b038916815290517fcfb07d791fcafc032b35837b50eb84b74df518cf4cc287e8084f47630fa70fa09181900360200190a1604080516001600160a01b038816815290517fe67f36a6e961157d6eff83b91f3af5a62131ceb6f04954ef74f51c1c05e7f88d9181900360200190a1604080516001600160a01b038716815290517f8c537274438aa850a330284665d81a85dd38267d09e4050d416bfc94142db2649181900360200190a1604080516001600160a01b038616815290517f4e62a526dbb1c27a0df55dad97eaa57df1e3a95bb380a0bbe38dc5fbc07bb6699181900360200190a1604080516001600160a01b038516815290517fb92ab72da68990756a2b6a93fce7497a60e992b19dd9529f601a977e88117d3c9181900360200190a1604080516001600160a01b038416815290517ff2a19986125782837c7e63f4dbed68ecfe2c4238efb5fa9509ac0a429598b2ce9181900360200190a1604080516001600160a01b038316815290517fccecd30b0c29abaa3249dc3caf9304255028c2c8cd8fe0fc4213a5d028a1240f9181900360200190a1611a0d613974565b5050505050505050505050565b6000546001600160a01b031681565b60105481565b6000611a39612a85565b6001600160a01b0383166000908152600e6020526040812060010154610f4d908463ffffffff6129a116565b60008054604080516377a4b5b760e01b8152905183926001600160a01b0316916377a4b5b7916004808301926020929190829003018186803b158015611aaa57600080fd5b505afa158015611abe573d6000803e3d6000fd5b505050506040513d6020811015611ad457600080fd5b5051600154604080516377a4b5b760e01b815290519293506000926001600160a01b03909216916377a4b5b791600480820192602092909190829003018186803b1580156115dc57600080fd5b6003546001600160a01b031690565b6003546001600160a01b0316331490565b60175481565b60115481565b6001600160a01b03166000908152600e602052604090206001015490565b6040518060400160405280600c81526020016b2b30bab63a26b0b730b3b2b960a11b81525081565b680ad78ebc5ac620000081565b60125481565b6000806000611bb4846139be565b915091506000611bc48383613a44565b95945050505050565b611bd5612a85565b610de581613a79565b60158181548110611beb57fe5b6000918252602090912001546001600160a01b0316905081565b6004546001600160a01b031681565b6000610e4982613ae4565b6001600160a01b0381166000908152600e602052604081208054600190910154909180611c4b85610cf5565b9150611c5685610fcf565b9050611c68848363ffffffff612d3f16565b9350611c7a838263ffffffff612d3f16565b92509193509193565b611c8b615608565b506040805160e0810182526000546001600160a01b03908116825260015481166020830152600854811692820192909252600a5482166060820152600b5482166080820152600754821660a082015260065490911660c0820152611ced6156c1565b611cf683613b10565b611cfe613b6a565b600260009054906101000a90046001600160a01b03166001600160a01b0316630fdb11cf6040518163ffffffff1660e01b8152600401602060405180830381600087803b158015611d4e57600080fd5b505af1158015611d62573d6000803e3d6000fd5b505050506040513d6020811015611d7857600080fd5b505160c08201819052611d8a90613c2e565b611d9389613c7d565b611da28260400151338b613cbc565b611daa611520565b60e0820181905260408084015181516370a0823160e01b815233600482015291516001600160a01b03909116916370a08231916024808301926020929190829003018186803b158015611dfc57600080fd5b505afa158015611e10573d6000803e3d6000fd5b505050506040513d6020811015611e2657600080fd5b50511115611e3057fe5b888152608082015160c0820151600091611e4b918b90613d7c565b15611e57575087611f81565b82608001516001600160a01b0316634d6228316040518163ffffffff1660e01b815260040160206040518083038186803b158015611e9457600080fd5b505afa158015611ea8573d6000803e3d6000fd5b505050506040513d6020811015611ebe57600080fd5b505190505b6001600160a01b03811615801590611eef5750670f43fc2c04ee0000611eed828460c001516128d4565b105b15611f815782608001516001600160a01b031663b72703ac826040518263ffffffff1660e01b815260040180826001600160a01b03166001600160a01b0316815260200191505060206040518083038186803b158015611f4e57600080fd5b505afa158015611f62573d6000803e3d6000fd5b505050506040513d6020811015611f7857600080fd5b50519050611ec3565b84611f8c5760001994505b6001600160a01b03811615801590611fa45750815115155b8015611fb05750600085115b156120e457848060019003955050600083608001516001600160a01b031663b72703ac836040518263ffffffff1660e01b815260040180826001600160a01b03166001600160a01b0316815260200191505060206040518083038186803b15801561201a57600080fd5b505afa15801561202e573d6000803e3d6000fd5b505050506040513d602081101561204457600080fd5b50518451602086015191925061205a9184612ad0565b612062615706565b612079858486600001518760c001518e8e8e613eef565b905080604001511561208c5750506120e4565b805160208501516120a29163ffffffff612d3f16565b60208086019190915281015160408501516120c29163ffffffff612d3f16565b6040850152805184516120da9163ffffffff6129a116565b8452509050611f8c565b60008260400151116121275760405162461bcd60e51b8152600401808060200182810382526029815260200180615a2b6029913960400191505060405180910390fd5b61213e82604001518360c001518460e001516141a2565b5061214c826040015161424a565b606083018190526040830151612163919086614257565b82600001516001600160a01b0316633efe643b846060015184606001516040518363ffffffff1660e01b815260040180836001600160a01b03166001600160a01b0316815260200182815260200192505050600060405180830381600087803b1580156121cf57600080fd5b505af11580156121e3573d6000803e3d6000fd5b5050505082606001516001600160a01b0316632c80b42383606001516040518263ffffffff1660e01b815260040180828152602001915050600060405180830381600087803b15801561223557600080fd5b505af1158015612249573d6000803e3d6000fd5b5050505060608201516040830151612260916129a1565b8260800181815250507f43a3f4082a4dbc33d78e317d2497d3a730bc7fc3574159dcea1056e62e5d9ad88a8360200151846040015185606001516040518085815260200184815260200183815260200182815260200194505050505060405180910390a182604001516001600160a01b0316639dc29fac3384602001516040518363ffffffff1660e01b815260040180836001600160a01b03166001600160a01b0316815260200182815260200192505050600060405180830381600087803b15801561232c57600080fd5b505af1158015612340573d6000803e3d6000fd5b5050505082600001516001600160a01b031663d3ed5d1983602001516040518263ffffffff1660e01b815260040180828152602001915050600060405180830381600087803b15801561239257600080fd5b505af11580156123a6573d6000803e3d6000fd5b50508451608085015160408051633efe643b60e01b81523360048201526024810192909252516001600160a01b039092169350633efe643b925060448082019260009290919082900301818387803b15801561240157600080fd5b505af1158015612415573d6000803e3d6000fd5b5050505050505050505050505050565b60135481565b600f5481565b6001600160a01b03166000908152600e602052604090205490565b60006015828154811061245b57fe5b6000918252602090912001546001600160a01b031692915050565b62278d0081565b6000610ea661248a613764565b612ca1565b80516124cc5760405162461bcd60e51b81526004018080602001828103825260368152602001806158236036913960400191505060405180910390fd5b6000546001546005546001600160a01b039283169291821691166124ee615644565b6124f6615675565b600260009054906101000a90046001600160a01b03166001600160a01b0316630fdb11cf6040518163ffffffff1660e01b8152600401602060405180830381600087803b15801561254657600080fd5b505af115801561255a573d6000803e3d6000fd5b505050506040513d602081101561257057600080fd5b505182526040805163dde598b960e01b815290516001600160a01b0385169163dde598b9916004808301926020929190829003018186803b1580156125b457600080fd5b505afa1580156125c8573d6000803e3d6000fd5b505050506040513d60208110156125de57600080fd5b5051602083015281516125f090612db7565b1580156040840152612618576126118585846000015185602001518a6142cc565b9050612630565b61262d8585846000015185602001518a6144e7565b90505b60008160200151116126735760405162461bcd60e51b81526004018080602001828103825260228152602001806157b36022913960400191505060405180910390fd5b826001600160a01b031663335525ad82608001518360a001516040518363ffffffff1660e01b81526004018083815260200182815260200192505050600060405180830381600087803b1580156126c957600080fd5b505af11580156126dd573d6000803e3d6000fd5b505050506126f585858360c001518460e00151613299565b610100810151156127745760075461010082015160408051633efe643b60e01b81526001600160a01b03938416600482015260248101929092525191871691633efe643b9160448082019260009290919082900301818387803b15801561275b57600080fd5b505af115801561276f573d6000803e3d6000fd5b505050505b61278285826040015161351a565b60208101516060830152610100810151604082015182516127ae929161139a919063ffffffff6129a116565b608080840182905260608085015160408086015186840151825193845260208401969096528282015291810193909352517f4152c73dd2614c4f9fc35e8c9cf16013cd588c75b49a4c1673ecffdcbcda94039281900390910190a161281d853383606001518460400151613661565b505050505050565b670ddd4b8c6c7d70d881565b612839612a85565b610de58160026145af565b600061284e612a85565b6001600160a01b0383166000908152600e6020526040812054612877908463ffffffff612d3f16565b6001600160a01b0385166000908152600e6020526040902081905591505092915050565b60006128a5612a85565b6001600160a01b0383166000908152600e6020526040812054612877908463ffffffff6129a116565b60155490565b60008060006128e2856139be565b9150915060006128f38383876146c8565b9695505050505050565b600d5481565b6000610e4961291061247d565b836146f8565b6008546001600160a01b031681565b600060016001600160a01b0383166000908152600e602052604090206003015460ff16600481111561295357fe5b1461296057506000610dbb565b506012546001600160a01b03821660009081526014602052604090205410919050565b6000610ea6600c5461389e565b612998612a85565b610de581614757565b60006129e383836040518060400160405280601e81526020017f536166654d6174683a207375627472616374696f6e206f766572666c6f7700008152506147a7565b9392505050565b6000826129f957506000610e49565b82820282848281612a0657fe5b04146129e35760405162461bcd60e51b81526004018080602001828103825260218152602001806158fe6021913960400191505060405180910390fd5b60006129e383836040518060400160405280601a81526020017f536166654d6174683a206469766973696f6e206279207a65726f00000000000081525061483e565b6004546001600160a01b03163314612ace5760405162461bcd60e51b815260040180806020018281038252603b815260200180615899603b913960400191505060405180910390fd5b565b612ad981612925565b15612bed57612ae781612cd7565b6000612af282610fcf565b90506000612aff83610cf5565b6001600160a01b0384166000908152600e6020526040902060010154909150612b2e908363ffffffff612d3f16565b6001600160a01b0384166000908152600e60205260409020600181019190915554612b5f908263ffffffff612d3f16565b6001600160a01b0384166000908152600e6020526040902055612b8183613a79565b612b8d858583856148a3565b6001600160a01b0383166000818152600e602090815260408083208054600182015460029092015483519182529381019190915280820192909252606082019290925290516000805160206158038339815191529181900360800190a250505b505050565b6001600160a01b0381166000908152600e60205260408120600101548190612c19906149a5565b6001600160a01b0384166000908152600e60205260409020600201805490829055600f5491925090612c63908390612c57908463ffffffff6129a116565b9063ffffffff612d3f16565b600f81905560408051918252517f6bac5e0eb3c44eb03a60ab11ec3a2c051771616aecadbcfff2630aabae5203829181900360200190a15092915050565b6000610e49612cc9836103e8670de0b6b3a76400005b04600502612d3f90919063ffffffff16565b670de0b6b3a76400006149e1565b60016001600160a01b0382166000908152600e602052604090206003015460ff166004811115612d0357fe5b14610de55760405162461bcd60e51b815260040180806020018281038252602f8152602001806159cc602f913960400191505060405180910390fd5b6000828201838110156129e3576040805162461bcd60e51b815260206004820152601b60248201527f536166654d6174683a206164646974696f6e206f766572666c6f770000000000604482015290519081900360640190fd5b60006129e3670de0b6b3a7640000610da8858563ffffffff6129ea16565b600080612dc383613ae4565b6714d1120d7b160000119392505050565b612ddc615675565b612de4615729565b612dec615675565b84825260006080830152612dfe611520565b60a0830152612e0b611a65565b8260c001818152505086608001516001600160a01b0316634d6228316040518163ffffffff1660e01b815260040160206040518083038186803b158015612e5157600080fd5b505afa158015612e65573d6000803e3d6000fd5b505050506040513d6020811015612e7b57600080fd5b50516001600160a01b039081166060840152608088015160408051631e22314360e01b815290516000939290921691631e22314391600480820192602092909190829003018186803b158015612ed057600080fd5b505afa158015612ee4573d6000803e3d6000fd5b505050506040513d6020811015612efa57600080fd5b50516000602085015290505b848360200151108015612f2f5750806001600160a01b031683606001516001600160a01b031614155b1561315c57600088608001516001600160a01b031663b72703ac85606001516040518263ffffffff1660e01b815260040180826001600160a01b03166001600160a01b0316815260200191505060206040518083038186803b158015612f9457600080fd5b505afa158015612fa8573d6000803e3d6000fd5b505050506040513d6020811015612fbe57600080fd5b50516060850151909150612fd290896128d4565b604085015260808401516130ce57670f43fc2c04ee0000846040015110158015612ffb57508351155b15613006575061315c565b600061301b8560c001518660a001518b6146c8565b8a5160208c015160608801516040890151895194955061303c94868f6149f7565b60808101518651919550613056919063ffffffff6129a116565b8552608084015160a08601516130719163ffffffff6129a116565b8560a001818152505061309e84610100015161139a8660a001518860c001516129a190919063ffffffff16565b60c08601526130ad8685614d2a565b95506130c28560c001518660a001518b614e41565b1560808601525061313e565b836080015180156130ea5750670f43fc2c04ee00008460400151105b156131385761310b89600001518a6020015186606001518760000151614e62565b60808101518551919450613125919063ffffffff6129a116565b84526131318584614d2a565b945061313e565b5061315c565b6001600160a01b031660608401526020830180516001019052612f06565b505050949350505050565b61316f615675565b613177615729565b61317f615675565b600b54858352600060208401526001600160a01b03165b848360200151101561328d57806001600160a01b0316634d6228316040518163ffffffff1660e01b815260040160206040518083038186803b1580156131db57600080fd5b505afa1580156131ef573d6000803e3d6000fd5b505050506040513d602081101561320557600080fd5b50516001600160a01b03166060840181905261322190886128d4565b60408401819052670f43fc2c04ee000011156132785761324b898985606001518660000151614e62565b60808101518451919350613265919063ffffffff6129a116565b83526132718483614d2a565b935061327d565b61328d565b6020830180516001019052613196565b50505095945050505050565b816132a357613514565b6016546000906132c590612c5784670de0b6b3a764000063ffffffff6129ea16565b905060006132ea601754612c57670de0b6b3a7640000876129ea90919063ffffffff16565b90506000613303600f5484612a4390919063ffffffff16565b9050600061331c600f5484612a4390919063ffffffff16565b9050613343613336600f54846129ea90919063ffffffff16565b859063ffffffff6129a116565b601655600f5461336b9061335e90839063ffffffff6129ea16565b849063ffffffff6129a116565b601755601254613381908363ffffffff612d3f16565b601255601354613397908263ffffffff612d3f16565b601381905560125460408051918252602082019290925281517f9f8bc8ab0daf5bceef75ecfd2085d1fcc6548c657ea970d9a23a60610d0737e3929181900390910190a1876001600160a01b031663d3ed5d19876040518263ffffffff1660e01b815260040180828152602001915050600060405180830381600087803b15801561342157600080fd5b505af1158015613435573d6000803e3d6000fd5b50505050866001600160a01b031663c9ceb951876040518263ffffffff1660e01b815260040180828152602001915050600060405180830381600087803b15801561347f57600080fd5b505af1158015613493573d6000803e3d6000fd5b50505050876001600160a01b0316633efe643b88876040518363ffffffff1660e01b815260040180836001600160a01b03166001600160a01b0316815260200182815260200192505050600060405180830381600087803b1580156134f757600080fd5b505af115801561350b573d6000803e3d6000fd5b50505050505050505b50505050565b600f546010819055506000826001600160a01b03166377a4b5b76040518163ffffffff1660e01b815260040160206040518083038186803b15801561355e57600080fd5b505afa158015613572573d6000803e3d6000fd5b505050506040513d602081101561358857600080fd5b5051600154604080516377a4b5b760e01b815290519293506000926001600160a01b03909216916377a4b5b791600480820192602092909190829003018186803b1580156135d557600080fd5b505afa1580156135e9573d6000803e3d6000fd5b505050506040513d60208110156135ff57600080fd5b5051905061361781612c57848663ffffffff6129a116565b601181905560105460408051918252602082019290925281517f51bf4c63ec3cba9d03d43238abbdd979dd91bd16d9895c74ceea9118c7baaf60929181900390910190a150505050565b81156136e05760085460065460408051631062c15f60e11b81526001600160a01b039283166004820152868316602482015260448101869052905191909216916320c582be91606480830192600092919082900301818387803b1580156136c757600080fd5b505af11580156136db573d6000803e3d6000fd5b505050505b801561351457836001600160a01b0316633efe643b84836040518363ffffffff1660e01b815260040180836001600160a01b03166001600160a01b0316815260200182815260200192505050600060405180830381600087803b15801561374657600080fd5b505af115801561375a573d6000803e3d6000fd5b5050505050505050565b60008061376f614fd1565b90506000613785670ddd4b8c6c7d70d883614fed565b905061161a670de0b6b3a7640000610da883600c546129ea90919063ffffffff16565b60006137bf600d54426129a190919063ffffffff16565b9050603c8110610de55742600d81905560408051918252517f860f8d2f0c74dd487e89e2883e3b25b8159ce1e1b3433a291cba7b82c508f3bc9181900360200190a150565b601580546001808201835560008381527f55f448fdea98c4d29eb340757ef0a66cd03dbb9538908a6a81d96026b71ec47590920180546001600160a01b0319166001600160a01b0386161790559154909161385f91906129a1565b6001600160a01b03929092166000908152600e602052604090206003018054610100600160881b0319166101006001600160801b038516021790555090565b6000610e496138b8836103e8670de0b6b3a7640000612cb7565b66b1a2bc2ec500006149e1565b6001600160a01b038116613920576040805162461bcd60e51b815260206004820152601e60248201527f4163636f756e742063616e6e6f74206265207a65726f20616464726573730000604482015290519081900360640190fd5b803b80610f0d576040805162461bcd60e51b815260206004820181905260248201527f4163636f756e7420636f64652073697a652063616e6e6f74206265207a65726f604482015290519081900360640190fd5b6003546040516000916001600160a01b0316907f8be0079c531659141344cd1fd0a4f28419497f9722a3daafe3b4186f6b6457e0908390a3600380546001600160a01b0319169055565b60008060006139cc84610fcf565b905060006139d985610cf5565b6001600160a01b0386166000908152600e602052604081206001015491925090613a09908463ffffffff612d3f16565b6001600160a01b0387166000908152600e602052604081205491925090613a36908463ffffffff612d3f16565b919550909350505050915091565b60008115613a7057613a6982610da88568056bc75e2d6310000063ffffffff6129ea16565b9050610e49565b50600019610e49565b601280546001600160a01b0383166000908152601460209081526040918290209283556013546001909301839055925481519081529283019190915280517fb19e1625eb57283330ce4caef3e97174d39fa4b313b17c725f7c90cd005f2ecb9281900390910190a150565b600080613aef611a65565b90506000613afb611520565b9050613b088282866146c8565b949350505050565b6611c37937e080008110801590613b2f5750670de0b6b3a76400008111155b610de55760405162461bcd60e51b81526004018080602001828103825260308152602001806159fb6030913960400191505060405180910390fd5b60095460408051631e425be160e11b815290516000926001600160a01b031691633c84b7c2916004808301926020929190829003018186803b158015613baf57600080fd5b505afa158015613bc3573d6000803e3d6000fd5b505050506040513d6020811015613bd957600080fd5b50519050613bf08162278d0063ffffffff612d3f16565b421015610de55760405162461bcd60e51b81526004018080602001828103825260408152602001806158596040913960400191505060405180910390fd5b670f43fc2c04ee0000613c4082613ae4565b1015610de55760405162461bcd60e51b815260040180806020018281038252602a81526020018061591f602a913960400191505060405180910390fd5b60008111610de55760405162461bcd60e51b815260040180806020018281038252602e8152602001806157d5602e913960400191505060405180910390fd5b80836001600160a01b03166370a08231846040518263ffffffff1660e01b815260040180826001600160a01b03166001600160a01b0316815260200191505060206040518083038186803b158015613d1357600080fd5b505afa158015613d27573d6000803e3d6000fd5b505050506040513d6020811015613d3d57600080fd5b50511015612bed5760405162461bcd60e51b815260040180806020018281038252604d815260200180615949604d913960600191505060405180910390fd5b60006001600160a01b0383161580613e135750836001600160a01b0316635dbe47e8846040518263ffffffff1660e01b815260040180826001600160a01b03166001600160a01b0316815260200191505060206040518083038186803b158015613de557600080fd5b505afa158015613df9573d6000803e3d6000fd5b505050506040513d6020811015613e0f57600080fd5b5051155b80613e2e5750670f43fc2c04ee0000613e2c84846128d4565b105b15613e3b575060006129e3565b6000846001600160a01b031663765e0159856040518263ffffffff1660e01b815260040180826001600160a01b03166001600160a01b0316815260200191505060206040518083038186803b158015613e9357600080fd5b505afa158015613ea7573d6000803e3d6000fd5b505050506040513d6020811015613ebd57600080fd5b505190506001600160a01b0381161580611bc45750670f43fc2c04ee0000613ee582856128d4565b1095945050505050565b613ef7615706565b6001600160a01b0387166000908152600e6020526040902054613f34908790613f2f90680ad78ebc5ac620000063ffffffff6129a116565b6149e1565b808252613f55908690610da890670de0b6b3a764000063ffffffff6129ea16565b60208083019190915281516001600160a01b0389166000908152600e9092526040822054613f889163ffffffff6129a116565b6020808401516001600160a01b038b166000908152600e90925260408220600101549293509091613fbe9163ffffffff6129a116565b9050680ad78ebc5ac620000082141561405757613fda89614757565b613fe58960046145af565b613ffa8a8a680ad78ebc5ac620000084615098565b886001600160a01b0316600080516020615803833981519152600080600060036040518085815260200184815260200183815260200182600381111561403c57fe5b60ff16815260200194505050505060405180910390a2614194565b60006140638284613a44565b905084811415806140845750686194049f30f72000006140828461524d565b105b156140985750506001604083015250614197565b60808b01516040805163015f109360e51b81526001600160a01b038d81166004830152602482018590528a81166044830152898116606483015291519190921691632be2126091608480830192600092919082900301818387803b1580156140ff57600080fd5b505af1158015614113573d6000803e3d6000fd5b5050506001600160a01b038b166000908152600e60205260409020848155600101839055506141418a612bf2565b506001600160a01b038a166000818152600e6020908152604091829020600201548251878152918201869052818301526003606082015290516000805160206158038339815191529181900360800190a2505b50505b979650505050505050565b6000806141ad613764565b905060006141c584610da8888863ffffffff6129ea16565b905060006141ea6141dd83600263ffffffff612a4316565b849063ffffffff612d3f16565b90506141fe81670de0b6b3a76400006149e1565b90506000811161420a57fe5b600c8190556040805182815290517fc454ee9b76c52f782a256af821b857ca6e125d1e3333bcede402fec2bed9600c9181900360200190a16128f36137a8565b6000610e49612910610e99565b600061427583610da886670de0b6b3a764000063ffffffff6129ea16565b905081811115613514576040805162461bcd60e51b815260206004820152601d60248201527f4665652065786365656465642070726f7669646564206d6178696d756d000000604482015290519081900360640190fd5b6142d4615675565b6142dc615729565b6142e4615675565b848252600060808301526142f6611520565b60a0830152614303611a65565b60c0830152600060208301525b8351826020015110156144dc578382602001518151811061432d57fe5b6020908102919091018101516001600160a01b0316606084018190526000908152600e909152604090206003015460019060ff16600481111561436c57fe5b14614376576144cc565b6143848260600151876128d4565b6040830152608082015161446e57670f43fc2c04ee00008260400151101580156143ad57508151155b156143b7576144cc565b60006143cc8360c001518460a00151896146c8565b90506143e98989856060015186604001518760000151868d6149f7565b60808101518451919350614403919063ffffffff6129a116565b8352608082015160a084015161441e9163ffffffff6129a116565b60a08085019190915282015160c084015161443e9163ffffffff6129a116565b60c084015261444d8483614d2a565b93506144628360c001518460a0015189614e41565b156080840152506144cc565b8160800151801561448a5750670f43fc2c04ee00008260400151105b156144cc576144a3888884606001518560000151614e62565b608081015183519192506144bd919063ffffffff6129a116565b82526144c98382614d2a565b92505b6020820180516001019052614310565b505095945050505050565b6144ef615675565b6144f7615729565b6144ff615675565b848252600060208301525b8351826020015110156144dc578382602001518151811061452757fe5b60209081029190910101516001600160a01b03166060830181905261454c90876128d4565b60408301819052670f43fc2c04ee0000111561459f57614576888884606001518560000151614e62565b60808101518351919250614590919063ffffffff6129a116565b825261459c8382614d2a565b92505b602082018051600101905261450a565b60008160048111156145bd57fe5b141580156145d7575060018160048111156145d457fe5b14155b6145dd57fe5b6015546145e981615268565b6001600160a01b0383166000908152600e60205260409020600301805483919060ff1916600183600481111561461b57fe5b02179055506001600160a01b0383166000908152600e6020908152604080832060018082018590559084905560149092528220828155015561465d8382615321565b600b5460408051631484968760e11b81526001600160a01b038681166004830152915191909216916329092d0e91602480830192600092919082900301818387803b1580156146ab57600080fd5b505af11580156146bf573d6000803e3d6000fd5b50505050505050565b600082156146ef5760006146e684610da8878663ffffffff6129ea16565b91506129e39050565b506000196129e3565b600080614717670de0b6b3a7640000610da8868663ffffffff6129ea16565b90508281106129e35760405162461bcd60e51b81526004018080602001828103825260368152602001806159966036913960400191505060405180910390fd5b6001600160a01b0381166000908152600e6020526040902060020154600f54614786908263ffffffff6129a116565b600f55506001600160a01b03166000908152600e6020526040812060020155565b600081848411156148365760405162461bcd60e51b81526004018080602001828103825283818151815260200191508051906020019080838360005b838110156147fb5781810151838201526020016147e3565b50505050905090810190601f1680156148285780820380516001836020036101000a031916815260200191505b509250505060405180910390fd5b505050900390565b6000818361488d5760405162461bcd60e51b81526020600482018181528351602484015283519092839260449091019190850190808383600083156147fb5781810151838201526020016147e3565b50600083858161489957fe5b0495945050505050565b826001600160a01b031663d3ed5d19836040518263ffffffff1660e01b815260040180828152602001915050600060405180830381600087803b1580156148e957600080fd5b505af11580156148fd573d6000803e3d6000fd5b50505050836001600160a01b031663c9ceb951836040518263ffffffff1660e01b815260040180828152602001915050600060405180830381600087803b15801561494757600080fd5b505af115801561495b573d6000803e3d6000fd5b50505050826001600160a01b03166370439039826040518263ffffffff1660e01b815260040180828152602001915050600060405180830381600087803b15801561374657600080fd5b600080601154600014156149ba575081610e49565b6000601054116149c657fe5b6129e3601154610da8601054866129ea90919063ffffffff16565b60008183106149f057816129e3565b5090919050565b6149ff615675565b614a07615771565b601554600110614a175750614197565b614a2087611c1f565b60408501526020848101919091528401819052908352614a3f906154c8565b60408301819052680ad78ebc5ac620000060608401526020830151614a699163ffffffff6129a116565b8152670de0b6b3a76400008611614b7157614a8e8989836020015184604001516148a3565b614a9787614757565b60006080830181905260a0830152815160c0830152805160e0830152614abe8760036145af565b866001600160a01b031660008051602061579383398151915283600001518460200151600260405180848152602001838152602001826003811115614aff57fe5b60ff168152602001935050505060405180910390a2866001600160a01b03166000805160206158038339815191526000806000600260405180858152602001848152602001838152602001826003811115614b5657fe5b60ff16815260200194505050505060405180910390a2614d1e565b670de0b6b3a764000086118015614b8f5750670f43fc2c04ee000086105b15614bdf57614ba88989836020015184604001516148a3565b614bb187614757565b81518151614bc09190876154cf565b60e086015260c085015260a08401526080830152614abe8760036145af565b670f43fc2c04ee00008610158015614bf657508386105b8015614c03575081518510155b15614d0d57614c1c8989836020015184604001516148a3565b84614c2357fe5b614c2c87614757565b614c3f826000015183602001518561553b565b9150614c4c8760036145af565b61010082015115614ccc5760075461010083015160408051633f10abab60e01b81526001600160a01b038b81166004830152602482019390935290519190921691633f10abab91604480830192600092919082900301818387803b158015614cb357600080fd5b505af1158015614cc7573d6000803e3d6000fd5b505050505b866001600160a01b031660008051602061579383398151915283600001518460a00151600260405180848152602001838152602001826003811115614aff57fe5b614d15615675565b91506141979050565b50979650505050505050565b614d32615675565b60408083015190840151614d4b9163ffffffff612d3f16565b604082015260608083015190840151614d699163ffffffff612d3f16565b606082015281516020840151614d849163ffffffff612d3f16565b6020808301919091528201518351614da19163ffffffff612d3f16565b815260808083015190840151614dbc9163ffffffff612d3f16565b608082015260a08083015190840151614dda9163ffffffff612d3f16565b60a082015260c08083015190840151614df89163ffffffff612d3f16565b60c082015260e08083015190840151614e169163ffffffff612d3f16565b60e08201526101008083015190840151614e359163ffffffff612d3f16565b61010082015292915050565b600080614e4f8585856146c8565b6714d1120d7b1600001195945050505050565b614e6a615675565b614e72615771565b614e7b84611c1f565b60408501908152602085810192835286019290925291845290519051614ea59188918891906148a3565b614eae84614757565b614ebb82602001516154c8565b60408301819052680ad78ebc5ac620000060608401526020830151600091614ee9919063ffffffff6129a116565b9050614efa836000015182866154cf565b60e087015260c086015260a08501526080840152614f198560036145af565b846001600160a01b031660008051602061579383398151915284600001518560200151600160405180848152602001838152602001826003811115614f5a57fe5b60ff168152602001935050505060405180910390a2846001600160a01b03166000805160206158038339815191526000806000600160405180858152602001848152602001838152602001826003811115614fb157fe5b60ff16815260200194505050505060405180910390a25050949350505050565b6000610ea6603c610da8600d54426129a190919063ffffffff16565b6000631f54050082111561500357631f54050091505b816150175750670de0b6b3a7640000610e49565b670de0b6b3a764000083835b600181111561508e57600281066150585761503e82836155d5565b915061505181600263ffffffff612a4316565b9050615089565b61506282846155d5565b925061506e82836155d5565b91506150866002610da883600163ffffffff6129a116565b90505b615023565b6128f382846155d5565b6040808501516006548251632770a7eb60e21b81526001600160a01b039182166004820152602481018690529251911691639dc29fac91604480830192600092919082900301818387803b1580156150ef57600080fd5b505af1158015615103573d6000803e3d6000fd5b5050505083600001516001600160a01b031663d3ed5d19836040518263ffffffff1660e01b815260040180828152602001915050600060405180830381600087803b15801561515157600080fd5b505af1158015615165573d6000803e3d6000fd5b505050508360a001516001600160a01b0316633f10abab84836040518363ffffffff1660e01b815260040180836001600160a01b03166001600160a01b0316815260200182815260200192505050600060405180830381600087803b1580156151cd57600080fd5b505af11580156151e1573d6000803e3d6000fd5b5050505083600001516001600160a01b0316633efe643b8560a00151836040518363ffffffff1660e01b815260040180836001600160a01b03166001600160a01b0316815260200182815260200192505050600060405180830381600087803b15801561374657600080fd5b6000610e4982680ad78ebc5ac620000063ffffffff6129a116565b6001811180156152e65750600b546040805163de8fa43160e01b815290516001926001600160a01b03169163de8fa431916004808301926020929190829003018186803b1580156152b857600080fd5b505afa1580156152cc573d6000803e3d6000fd5b505050506040513d60208110156152e257600080fd5b5051115b610de55760405162461bcd60e51b815260040180806020018281038252602a8152602001806158d4602a913960400191505060405180910390fd5b6001600160a01b0382166000908152600e602052604081206003015460ff169081600481111561534d57fe5b141580156153675750600181600481111561536457fe5b14155b61536d57fe5b6001600160a01b0383166000908152600e602052604081206003015461010090046001600160801b03169083906153a58260016129a1565b905080836001600160801b031611156153ba57fe5b6000601582815481106153c957fe5b600091825260209091200154601580546001600160a01b03909216925082916001600160801b0387169081106153fb57fe5b600091825260208083209190910180546001600160a01b0319166001600160a01b03948516179055918316808252600e83526040918290206003018054610100600160881b0319166101006001600160801b038a169081029190911790915582519182529281019290925280517f5108b30b1c08360822e1bfe7a4169b885b0a62765e9d04592cac9933f3879e469281900390910190a1601580548061549d57fe5b600082815260209020810160001990810180546001600160a01b031916905501905550505050505050565b60c8900490565b60008080808415615525576154e487866149e1565b93506154fa87610da8888763ffffffff6129ea16565b925061550c878563ffffffff6129a116565b915061551e868463ffffffff6129a116565b9050615532565b5060009250829150859050845b93509350935093565b615543615675565b83815260208101839052600061556b83610da887670f43fc2c04ee000063ffffffff6129ea16565b9050615576816154c8565b60408301819052680ad78ebc5ac62000006060840152608083018690526155a490829063ffffffff6129a116565b60a08301526155b9848263ffffffff6129a116565b61010083015250600060c0820181905260e08201529392505050565b6000806155e8848463ffffffff6129ea16565b9050613b08670de0b6b3a7640000610da8836706f05b59d3b20000612d3f565b6040805160e081018252600080825260208201819052918101829052606081018290526080810182905260a0810182905260c081019190915290565b6040518060a00160405280600081526020016000815260200160001515815260200160008152602001600081525090565b6040518061012001604052806000815260200160008152602001600081526020016000815260200160008152602001600081526020016000815260200160008152602001600081525090565b60405180610100016040528060008152602001600081526020016000815260200160008152602001600081526020016000815260200160008152602001600081525090565b604051806060016040528060008152602001600081526020016000151581525090565b6040518060e0016040528060008152602001600081526020016000815260200160006001600160a01b0316815260200160001515815260200160008152602001600081525090565b6040518060600160405280600081526020016000815260200160008152509056fe7495fe27166ca7c7fb38d10e09b0d0f029a5704bac8952a9545063644de73c105661756c744d616e616765723a206e6f7468696e6720746f206c69717569646174655661756c744d616e616765723a20416d6f756e74206d7573742062652067726561746572207468616e207a65726f1682adcf84a5197a236a80c9ffe2e7233619140acb7839754c27cdc21799192c5661756c744d616e616765723a2043616c6c646174612061646472657373206172726179206d757374206e6f7420626520656d7074795661756c744d616e616765723a20526564656d7074696f6e7320617265206e6f7420616c6c6f77656420647572696e6720626f6f7473747261702070686173655661756c744d616e616765723a2043616c6c6572206973206e6f742074686520426f72726f7765724f7065726174696f6e7320636f6e74726163745661756c744d616e616765723a204f6e6c79206f6e65207661756c7420696e207468652073797374656d536166654d6174683a206d756c7469706c69636174696f6e206f766572666c6f775661756c744d616e616765723a2043616e6e6f742072656465656d207768656e20544352203c204d43525661756c744d616e616765723a2052657175657374656420726564656d7074696f6e20616d6f756e74206d757374206265203c3d207573657227732042504420746f6b656e2062616c616e63655661756c744d616e616765723a2046656520776f756c642065617420757020616c6c2072657475726e656420636f6c6c61746572616c5661756c744d616e616765723a205661756c7420646f6573206e6f74206578697374206f7220697320636c6f7365644d6178206665652070657263656e74616765206d757374206265206265747765656e20302e352520616e6420313030255661756c744d616e616765723a20556e61626c6520746f2072656465656d20616e7920616d6f756e74a26469706673582212206e820557ad309be684696a69e274cf07785c483eb47fec21976109953555188e64736f6c634300060b0033",
  "linkReferences": {},
  "deployedLinkReferences": {}
}